{
  "transactions": [
    {
      "hash": "0xa36f6163eeac402cf08ba6194e29d49f1f940806d735341ceba01d9959a32d01",
      "transactionType": "CALL",
      "contractName": null,
      "contractAddress": "0x31d0220469e10c4e71834a79b1f276d740d3768f",
      "function": "transfer(address,uint256)",
      "arguments": [
        "0x7499b793A312000F22d9cbA88dfc5A22f6c864b7",
        "300000000"
      ],
      "transaction": {
        "from": "0x91d5e66951c47fbbfafe57c9ff42d45c46b6044c",
        "to": "0x31d0220469e10c4e71834a79b1f276d740d3768f",
        "gas": "0x16309",
        "value": "0x0",
        "input": "0xa9059cbb0000000000000000000000007499b793a312000f22d9cba88dfc5a22f6c864b70000000000000000000000000000000000000000000000000000000011e1a300",
        "nonce": "0x221",
        "chainId": "0x515"
      },
      "additionalContracts": [],
      "isFixedGasLimit": false
    }
  ],
  "receipts": [
    {
      "status": "0x1",
      "cumulativeGasUsed": "0x64d1f",
      "logs": [
        {
          "address": "0x31d0220469e10c4e71834a79b1f276d740d3768f",
          "topics": [
            "0xddf252ad1be2c89b69c2b068fc378daa952ba7f163c4a11628f55a4df523b3ef",
            "0x00000000000000000000000091d5e66951c47fbbfafe57c9ff42d45c46b6044c",
            "0x0000000000000000000000007499b793a312000f22d9cba88dfc5a22f6c864b7"
          ],
          "data": "0x0000000000000000000000000000000000000000000000000000000011e1a300",
          "blockHash": "0xc1b835306951aab9dd675a7e6040c0baf573c2b72b2ef418e40dcce917111b69",
          "blockNumber": "0x2ceb3d4",
          "blockTimestamp": "0x69bc6120",
          "transactionHash": "0xa36f6163eeac402cf08ba6194e29d49f1f940806d735341ceba01d9959a32d01",
          "transactionIndex": "0x5",
          "logIndex": "0x3",
          "removed": false
        }
      ],
      "logsBloom": "0x00000000000000000000000000000000000000000000000000000000000000000000000000000000000000000000000008000000800000000000000000000000000000000000000000000008000000000000000000801000000000000000000000000000000000000000000000000400000000000000000000000010000000000000000000000000000000000000000400000000000000000000000000000000000000000001000080000000000000000000000000000000000000000000000000000002000000000000000000000000000000000000000000000000000000000000000000000000000000000000000000000000000010000000000000000000",
      "type": "0x2",
      "transactionHash": "0xa36f6163eeac402cf08ba6194e29d49f1f940806d735341ceba01d9959a32d01",
      "transactionIndex": "0x5",
      "blockHash": "0xc1b835306951aab9dd675a7e6040c0baf573c2b72b2ef418e40dcce917111b69",
      "blockNumber": "0x2ceb3d4",
      "gasUsed": "0xf2c3",
      "effectiveGasPrice": "0xee72c920",
      "blobGasUsed": "0x9c40",
      "from": "0x91d5e66951c47fbbfafe57c9ff42d45c46b6044c",
      "to": "0x31d0220469e10c4e71834a79b1f276d740d3768f",
      "contractAddress": null,
      "daFootprintGasScalar": "0x190",
      "l1BaseFeeScalar": "0x7d0",
      "l1BlobBaseFee": "0x1",
      "l1BlobBaseFeeScalar": "0xdbba0",
      "l1Fee": "0x7a",
      "l1GasPrice": "0xa",
      "l1GasUsed": "0x640"
    }
  ],
  "libraries": [],
  "pending": [],
  "returns": {},
  "timestamp": 1773953312558,
  "chain": 1301,
  "commit": "e95b1d6"
}