{
  "transactions": [
    {
      "hash": "0xe6e52af7f8abac5e70516b338cc0df77fbc909deac36febdeea5ff7854f19ace",
      "transactionType": "CALL",
      "contractName": null,
      "contractAddress": "0x31d0220469e10c4e71834a79b1f276d740d3768f",
      "function": "transfer(address,uint256)",
      "arguments": [
        "0x2a75451b45d3713152168F1D58F624e0ae482535",
        "1000000000"
      ],
      "transaction": {
        "from": "0x91d5e66951c47fbbfafe57c9ff42d45c46b6044c",
        "to": "0x31d0220469e10c4e71834a79b1f276d740d3768f",
        "gas": "0x14f5f",
        "value": "0x0",
        "input": "0xa9059cbb0000000000000000000000002a75451b45d3713152168f1d58f624e0ae482535000000000000000000000000000000000000000000000000000000003b9aca00",
        "nonce": "0x1d6",
        "chainId": "0x515"
      },
      "additionalContracts": [],
      "isFixedGasLimit": false
    }
  ],
  "receipts": [
    {
      "status": "0x1",
      "cumulativeGasUsed": "0x6c95a",
      "logs": [
        {
          "address": "0x31d0220469e10c4e71834a79b1f276d740d3768f",
          "topics": [
            "0xddf252ad1be2c89b69c2b068fc378daa952ba7f163c4a11628f55a4df523b3ef",
            "0x00000000000000000000000091d5e66951c47fbbfafe57c9ff42d45c46b6044c",
            "0x0000000000000000000000002a75451b45d3713152168f1d58f624e0ae482535"
          ],
          "data": "0x000000000000000000000000000000000000000000000000000000003b9aca00",
          "blockHash": "0xe9f778e50a5bb2679237b280523718eef6de6dd06f22292801f94e0e7873c4ea",
          "blockNumber": "0x2ce7af6",
          "blockTimestamp": "0x69bc2842",
          "transactionHash": "0xe6e52af7f8abac5e70516b338cc0df77fbc909deac36febdeea5ff7854f19ace",
          "transactionIndex": "0x5",
          "logIndex": "0x9",
          "removed": false
        }
      ],
      "logsBloom": "0x00000000000000000000000000000000000000000000000000000000000000080000000000000000000000000000000008000000800000000000000000000000000000000000000000000008000000000000000000001000000000000000000000000000000000000000000000000000000000000000000000000010000000000000000000000000000000000000000400000000000000000000000000000000000000000001000080000000400000000000000000000000000000000000000000000002000000000000000000000000000000000000000000000000000000000000000000000000000000000000000000000004000000000000000000000000",
      "type": "0x2",
      "transactionHash": "0xe6e52af7f8abac5e70516b338cc0df77fbc909deac36febdeea5ff7854f19ace",
      "transactionIndex": "0x5",
      "blockHash": "0xe9f778e50a5bb2679237b280523718eef6de6dd06f22292801f94e0e7873c4ea",
      "blockNumber": "0x2ce7af6",
      "gasUsed": "0xf2cf",
      "effectiveGasPrice": "0xee72c920",
      "blobGasUsed": "0x9c40",
      "from": "0x91d5e66951c47fbbfafe57c9ff42d45c46b6044c",
      "to": "0x31d0220469e10c4e71834a79b1f276d740d3768f",
      "contractAddress": null,
      "daFootprintGasScalar": "0x190",
      "l1BaseFeeScalar": "0x7d0",
      "l1BlobBaseFee": "0x1",
      "l1BlobBaseFeeScalar": "0xdbba0",
      "l1Fee": "0x7d",
      "l1GasPrice": "0xb",
      "l1GasUsed": "0x640"
    }
  ],
  "libraries": [],
  "pending": [],
  "returns": {},
  "timestamp": 1773938754386,
  "chain": 1301,
  "commit": "e95b1d6"
}