{
  "transactions": [
    {
      "hash": "0xe66830d82cdb302d0712a631d4195e40dcb87e30d06f28b53fe9439aa46e70fe",
      "transactionType": "CALL",
      "contractName": null,
      "contractAddress": "0x31d0220469e10c4e71834a79b1f276d740d3768f",
      "function": "transfer(address,uint256)",
      "arguments": [
        "0x5934f5EF68bD3aAFBe526E4851e1e6774595a6A7",
        "500000000"
      ],
      "transaction": {
        "from": "0x91d5e66951c47fbbfafe57c9ff42d45c46b6044c",
        "to": "0x31d0220469e10c4e71834a79b1f276d740d3768f",
        "gas": "0x14f5f",
        "value": "0x0",
        "input": "0xa9059cbb0000000000000000000000005934f5ef68bd3aafbe526e4851e1e6774595a6a7000000000000000000000000000000000000000000000000000000001dcd6500",
        "nonce": "0x26f",
        "chainId": "0x515"
      },
      "additionalContracts": [],
      "isFixedGasLimit": false
    }
  ],
  "receipts": [
    {
      "status": "0x1",
      "cumulativeGasUsed": "0x4dcf9",
      "logs": [
        {
          "address": "0x31d0220469e10c4e71834a79b1f276d740d3768f",
          "topics": [
            "0xddf252ad1be2c89b69c2b068fc378daa952ba7f163c4a11628f55a4df523b3ef",
            "0x00000000000000000000000091d5e66951c47fbbfafe57c9ff42d45c46b6044c",
            "0x0000000000000000000000005934f5ef68bd3aafbe526e4851e1e6774595a6a7"
          ],
          "data": "0x000000000000000000000000000000000000000000000000000000001dcd6500",
          "blockHash": "0x2f53581623bbd492830a4572d4e38d796e53e7ec01163fb61d4a408dab1c5ff8",
          "blockNumber": "0x2cf2704",
          "blockTimestamp": "0x69bcd450",
          "transactionHash": "0xe66830d82cdb302d0712a631d4195e40dcb87e30d06f28b53fe9439aa46e70fe",
          "transactionIndex": "0x4",
          "logIndex": "0x2",
          "removed": false
        }
      ],
      "logsBloom": "0x00000000000000000000000000000000400000000000000000000000000000000000000000000000000000000000000008000000800000000000000000000000000000000000000000000008000000000000000000001000000000000000000000000000000000000000000000000000000000000000000000000010000000000000000000000000000000000000000400000000000000000000000000000000000000000001000080000000000000000000000000000000000000000000000000000002004000000000000000000000000000000000000000000000000000000000100000000000000000000000000000000000000000000000000000000000",
      "type": "0x2",
      "transactionHash": "0xe66830d82cdb302d0712a631d4195e40dcb87e30d06f28b53fe9439aa46e70fe",
      "transactionIndex": "0x4",
      "blockHash": "0x2f53581623bbd492830a4572d4e38d796e53e7ec01163fb61d4a408dab1c5ff8",
      "blockNumber": "0x2cf2704",
      "gasUsed": "0xf2cf",
      "effectiveGasPrice": "0xee72c920",
      "blobGasUsed": "0x9c40",
      "from": "0x91d5e66951c47fbbfafe57c9ff42d45c46b6044c",
      "to": "0x31d0220469e10c4e71834a79b1f276d740d3768f",
      "contractAddress": null,
      "daFootprintGasScalar": "0x190",
      "l1BaseFeeScalar": "0x7d0",
      "l1BlobBaseFee": "0x1",
      "l1BlobBaseFeeScalar": "0xdbba0",
      "l1Fee": "0x7a",
      "l1GasPrice": "0xa",
      "l1GasUsed": "0x640"
    }
  ],
  "libraries": [],
  "pending": [],
  "returns": {},
  "timestamp": 1773982801858,
  "chain": 1301,
  "commit": "e95b1d6"
}