{
  "transactions": [
    {
      "hash": "0xed166c0828ba209d2b2928208c7838b4de3ab865be59a91be2df23e88eecf976",
      "transactionType": "CALL",
      "contractName": null,
      "contractAddress": "0x31d0220469e10c4e71834a79b1f276d740d3768f",
      "function": "transfer(address,uint256)",
      "arguments": [
        "0xD857b744738785d06286376a43725B190c4bB0d5",
        "1000000000"
      ],
      "transaction": {
        "from": "0x91d5e66951c47fbbfafe57c9ff42d45c46b6044c",
        "to": "0x31d0220469e10c4e71834a79b1f276d740d3768f",
        "gas": "0x14f5f",
        "value": "0x0",
        "input": "0xa9059cbb000000000000000000000000d857b744738785d06286376a43725b190c4bb0d5000000000000000000000000000000000000000000000000000000003b9aca00",
        "nonce": "0x140",
        "chainId": "0x515"
      },
      "additionalContracts": [],
      "isFixedGasLimit": false
    }
  ],
  "receipts": [
    {
      "status": "0x1",
      "cumulativeGasUsed": "0x64d1f",
      "logs": [
        {
          "address": "0x31d0220469e10c4e71834a79b1f276d740d3768f",
          "topics": [
            "0xddf252ad1be2c89b69c2b068fc378daa952ba7f163c4a11628f55a4df523b3ef",
            "0x00000000000000000000000091d5e66951c47fbbfafe57c9ff42d45c46b6044c",
            "0x000000000000000000000000d857b744738785d06286376a43725b190c4bb0d5"
          ],
          "data": "0x000000000000000000000000000000000000000000000000000000003b9aca00",
          "blockHash": "0x48adf4ed47886111736a1530ff2485c88920a9fddc82a4d7ce3a53dc9ae88090",
          "blockNumber": "0x2cde202",
          "blockTimestamp": "0x69bb8f4e",
          "transactionHash": "0xed166c0828ba209d2b2928208c7838b4de3ab865be59a91be2df23e88eecf976",
          "transactionIndex": "0x5",
          "logIndex": "0x3",
          "removed": false
        }
      ],
      "logsBloom": "0x00000000000000000000000000000000000000000000000000000000000000000000000000000000000000000000000008000000800000000000000000000000000000020000000000000008000000000080000000001000000000000000000000000000000000000000000000000000000000000000000000000010000000000000000000000000000000000000000400000000000000000000000000000000000000000001000080000000000000000000000000000000000000000000000000000002000000000004000000000000000000000000000000000000000000000000000000000000000000000000000000000000000000000000000000000000",
      "type": "0x2",
      "transactionHash": "0xed166c0828ba209d2b2928208c7838b4de3ab865be59a91be2df23e88eecf976",
      "transactionIndex": "0x5",
      "blockHash": "0x48adf4ed47886111736a1530ff2485c88920a9fddc82a4d7ce3a53dc9ae88090",
      "blockNumber": "0x2cde202",
      "gasUsed": "0xf2cf",
      "effectiveGasPrice": "0xee72c920",
      "blobGasUsed": "0x9c40",
      "from": "0x91d5e66951c47fbbfafe57c9ff42d45c46b6044c",
      "to": "0x31d0220469e10c4e71834a79b1f276d740d3768f",
      "contractAddress": null,
      "daFootprintGasScalar": "0x190",
      "l1BaseFeeScalar": "0x7d0",
      "l1BlobBaseFee": "0x1",
      "l1BlobBaseFeeScalar": "0xdbba0",
      "l1Fee": "0x7a",
      "l1GasPrice": "0xa",
      "l1GasUsed": "0x640"
    }
  ],
  "libraries": [],
  "pending": [],
  "returns": {},
  "timestamp": 1773899598618,
  "chain": 1301,
  "commit": "29b3163"
}