{
  "transactions": [
    {
      "hash": "0xb942dd513f8b1681c63c23e15408458b97e05cf546f5bef868223c8b4754f285",
      "transactionType": "CALL",
      "contractName": null,
      "contractAddress": "0xf969aee60879c54baaed9f3ed26147db216fd664",
      "function": "modifyLiquidities(bytes,uint256)",
      "arguments": [
        "0x000000000000000000000000000000000000000000000000000000000000004000000000000000000000000000000000000000000000000000000000000000800000000000000000000000000000000000000000000000000000000000000002011100000000000000000000000000000000000000000000000000000000000000000000000000000000000000000000000000000000000000000000000000020000000000000000000000000000000000000000000000000000000000000040000000000000000000000000000000000000000000000000000000000000012000000000000000000000000000000000000000000000000000000000000000c00000000000000000000000000000000000000000000000000000000000001c4b0000000000000000000000000000000000000000000000000000045c9dd597f00000000000000000000000000000000000000000000000000000000000000000000000000000000000000000000000000000000000000000000000000000000000000000000000000000000000000000000000000000000000000000000000a000000000000000000000000000000000000000000000000000000000000000000000000000000000000000000000000000000000000000000000000000000060000000000000000000000000000000000000000000000000000000000000000000000000000000000000000031d0220469e10c4e71834a79b1f276d740d3768f00000000000000000000000091d5e66951c47fbbfafe57c9ff42d45c46b6044c",
        "1773898124"
      ],
      "transaction": {
        "from": "0x91d5e66951c47fbbfafe57c9ff42d45c46b6044c",
        "to": "0xf969aee60879c54baaed9f3ed26147db216fd664",
        "gas": "0x2e634",
        "value": "0x0",
        "input": "0xdd46508f00000000000000000000000000000000000000000000000000000000000000400000000000000000000000000000000000000000000000000000000069bb898c0000000000000000000000000000000000000000000000000000000000000240000000000000000000000000000000000000000000000000000000000000004000000000000000000000000000000000000000000000000000000000000000800000000000000000000000000000000000000000000000000000000000000002011100000000000000000000000000000000000000000000000000000000000000000000000000000000000000000000000000000000000000000000000000020000000000000000000000000000000000000000000000000000000000000040000000000000000000000000000000000000000000000000000000000000012000000000000000000000000000000000000000000000000000000000000000c00000000000000000000000000000000000000000000000000000000000001c4b0000000000000000000000000000000000000000000000000000045c9dd597f00000000000000000000000000000000000000000000000000000000000000000000000000000000000000000000000000000000000000000000000000000000000000000000000000000000000000000000000000000000000000000000000a000000000000000000000000000000000000000000000000000000000000000000000000000000000000000000000000000000000000000000000000000000060000000000000000000000000000000000000000000000000000000000000000000000000000000000000000031d0220469e10c4e71834a79b1f276d740d3768f00000000000000000000000091d5e66951c47fbbfafe57c9ff42d45c46b6044c",
        "nonce": "0x7e",
        "chainId": "0x515"
      },
      "additionalContracts": [],
      "isFixedGasLimit": false
    },
    {
      "hash": "0xa81638e31bec99ee41f185b171737e83e6990eab251fd897e5e20abfd7834043",
      "transactionType": "CALL",
      "contractName": null,
      "contractAddress": "0xf969aee60879c54baaed9f3ed26147db216fd664",
      "function": "modifyLiquidities(bytes,uint256)",
      "arguments": [
        "0x000000000000000000000000000000000000000000000000000000000000004000000000000000000000000000000000000000000000000000000000000000800000000000000000000000000000000000000000000000000000000000000002031100000000000000000000000000000000000000000000000000000000000000000000000000000000000000000000000000000000000000000000000000020000000000000000000000000000000000000000000000000000000000000040000000000000000000000000000000000000000000000000000000000000010000000000000000000000000000000000000000000000000000000000000000a00000000000000000000000000000000000000000000000000000000000001c4b00000000000000000000000000000000000000000000000000000000000000000000000000000000000000000000000000000000000000000000000000000000000000000000000000000000000000000000000000000000000000000000008000000000000000000000000000000000000000000000000000000000000000000000000000000000000000000000000000000000000000000000000000000060000000000000000000000000000000000000000000000000000000000000000000000000000000000000000031d0220469e10c4e71834a79b1f276d740d3768f00000000000000000000000091d5e66951c47fbbfafe57c9ff42d45c46b6044c",
        "1773898124"
      ],
      "transaction": {
        "from": "0x91d5e66951c47fbbfafe57c9ff42d45c46b6044c",
        "to": "0xf969aee60879c54baaed9f3ed26147db216fd664",
        "gas": "0x151c0",
        "value": "0x0",
        "input": "0xdd46508f00000000000000000000000000000000000000000000000000000000000000400000000000000000000000000000000000000000000000000000000069bb898c0000000000000000000000000000000000000000000000000000000000000220000000000000000000000000000000000000000000000000000000000000004000000000000000000000000000000000000000000000000000000000000000800000000000000000000000000000000000000000000000000000000000000002031100000000000000000000000000000000000000000000000000000000000000000000000000000000000000000000000000000000000000000000000000020000000000000000000000000000000000000000000000000000000000000040000000000000000000000000000000000000000000000000000000000000010000000000000000000000000000000000000000000000000000000000000000a00000000000000000000000000000000000000000000000000000000000001c4b00000000000000000000000000000000000000000000000000000000000000000000000000000000000000000000000000000000000000000000000000000000000000000000000000000000000000000000000000000000000000000000008000000000000000000000000000000000000000000000000000000000000000000000000000000000000000000000000000000000000000000000000000000060000000000000000000000000000000000000000000000000000000000000000000000000000000000000000031d0220469e10c4e71834a79b1f276d740d3768f00000000000000000000000091d5e66951c47fbbfafe57c9ff42d45c46b6044c",
        "nonce": "0x7f",
        "chainId": "0x515"
      },
      "additionalContracts": [],
      "isFixedGasLimit": false
    }
  ],
  "receipts": [
    {
      "status": "0x1",
      "cumulativeGasUsed": "0x49344",
      "logs": [
        {
          "address": "0xe54b6663d36e9873c59cda7586bbefcd1e4b4fc0",
          "topics": [
            "0xdca1773ec75facddcc129c7aff95998721cd859963ee27da2923ed4d25bb2c7a",
            "0x000000000000000000000000f969aee60879c54baaed9f3ed26147db216fd664"
          ],
          "data": "0x",
          "blockHash": "0xe8b1b389ccbc9d0131d81777e1719189d6da13b838e67d5f937ce84f250033db",
          "blockNumber": "0x2cdce45",
          "blockTimestamp": "0x69bb7b91",
          "transactionHash": "0xb942dd513f8b1681c63c23e15408458b97e05cf546f5bef868223c8b4754f285",
          "transactionIndex": "0x3",
          "logIndex": "0x1",
          "removed": false
        },
        {
          "address": "0x00b036b58a818b1bc34d502d3fe730db729e62ac",
          "topics": [
            "0xf208f4912782fd25c7f114ca3723a2d5dd6f3bcc3ac8db5af63baa85f711d5ec",
            "0x63b484f0d0d2d0fd1221e2e1618c7b83fed0bf8beda28fbe28953a237a82d887",
            "0x000000000000000000000000f969aee60879c54baaed9f3ed26147db216fd664"
          ],
          "data": "0xfffffffffffffffffffffffffffffffffffffffffffffffffffffffffff2764c00000000000000000000000000000000000000000000000000000000000d89b4fffffffffffffffffffffffffffffffffffffffffffffffffffffba3622a68100000000000000000000000000000000000000000000000000000000000001c4b",
          "blockHash": "0xe8b1b389ccbc9d0131d81777e1719189d6da13b838e67d5f937ce84f250033db",
          "blockNumber": "0x2cdce45",
          "blockTimestamp": "0x69bb7b91",
          "transactionHash": "0xb942dd513f8b1681c63c23e15408458b97e05cf546f5bef868223c8b4754f285",
          "transactionIndex": "0x3",
          "logIndex": "0x2",
          "removed": false
        },
        {
          "address": "0xe54b6663d36e9873c59cda7586bbefcd1e4b4fc0",
          "topics": [
            "0x4866812d7c4ed0bcececc3f2143a1a8d6777d3dc259bba6c3f48dc347892b81b",
            "0x000000000000000000000000f969aee60879c54baaed9f3ed26147db216fd664"
          ],
          "data": "0x",
          "blockHash": "0xe8b1b389ccbc9d0131d81777e1719189d6da13b838e67d5f937ce84f250033db",
          "blockNumber": "0x2cdce45",
          "blockTimestamp": "0x69bb7b91",
          "transactionHash": "0xb942dd513f8b1681c63c23e15408458b97e05cf546f5bef868223c8b4754f285",
          "transactionIndex": "0x3",
          "logIndex": "0x3",
          "removed": false
        },
        {
          "address": "0x31d0220469e10c4e71834a79b1f276d740d3768f",
          "topics": [
            "0xddf252ad1be2c89b69c2b068fc378daa952ba7f163c4a11628f55a4df523b3ef",
            "0x00000000000000000000000000b036b58a818b1bc34d502d3fe730db729e62ac",
            "0x00000000000000000000000091d5e66951c47fbbfafe57c9ff42d45c46b6044c"
          ],
          "data": "0x000000000000000000000000000000000000000000000000000000000db5857f",
          "blockHash": "0xe8b1b389ccbc9d0131d81777e1719189d6da13b838e67d5f937ce84f250033db",
          "blockNumber": "0x2cdce45",
          "blockTimestamp": "0x69bb7b91",
          "transactionHash": "0xb942dd513f8b1681c63c23e15408458b97e05cf546f5bef868223c8b4754f285",
          "transactionIndex": "0x3",
          "logIndex": "0x4",
          "removed": false
        }
      ],
      "logsBloom": "0x00000000000000000000000000000000000000000000000000000000000000100000000000000000000000000000000008000000801000000000000000000000000000000000000000002008000000000000000000001000000000001000000000000000000000000000000000004000000000000140000000000010008000000000000001000000000000000008000400000000000000200040000000000000002004000001000080000000000080000000000000000020000001000000000000000002000000000200000000000000000000000000000000000000000000000000000000000000800000000000000004002000000002000000000000002010",
      "type": "0x2",
      "transactionHash": "0xb942dd513f8b1681c63c23e15408458b97e05cf546f5bef868223c8b4754f285",
      "transactionIndex": "0x3",
      "blockHash": "0xe8b1b389ccbc9d0131d81777e1719189d6da13b838e67d5f937ce84f250033db",
      "blockNumber": "0x2cdce45",
      "gasUsed": "0x21958",
      "effectiveGasPrice": "0x773d3520",
      "blobGasUsed": "0x11300",
      "from": "0x91d5e66951c47fbbfafe57c9ff42d45c46b6044c",
      "to": "0xf969aee60879c54baaed9f3ed26147db216fd664",
      "contractAddress": null,
      "daFootprintGasScalar": "0x190",
      "l1BaseFeeScalar": "0x7d0",
      "l1BlobBaseFee": "0x1",
      "l1BlobBaseFeeScalar": "0xdbba0",
      "l1Fee": "0xd1",
      "l1GasPrice": "0x9",
      "l1GasUsed": "0xb09"
    },
    {
      "status": "0x1",
      "cumulativeGasUsed": "0x6ea5b",
      "logs": [
        {
          "address": "0xf969aee60879c54baaed9f3ed26147db216fd664",
          "topics": [
            "0xddf252ad1be2c89b69c2b068fc378daa952ba7f163c4a11628f55a4df523b3ef",
            "0x00000000000000000000000091d5e66951c47fbbfafe57c9ff42d45c46b6044c",
            "0x0000000000000000000000000000000000000000000000000000000000000000",
            "0x0000000000000000000000000000000000000000000000000000000000001c4b"
          ],
          "data": "0x",
          "blockHash": "0xe8b1b389ccbc9d0131d81777e1719189d6da13b838e67d5f937ce84f250033db",
          "blockNumber": "0x2cdce45",
          "blockTimestamp": "0x69bb7b91",
          "transactionHash": "0xa81638e31bec99ee41f185b171737e83e6990eab251fd897e5e20abfd7834043",
          "transactionIndex": "0x5",
          "logIndex": "0x6",
          "removed": false
        }
      ],
      "logsBloom": "0x00000000000000000000000000000000000000000000000000000000000000000000000000000000000000000000000008000000800000000000000000000000000000000000004000000008000000000000000000000000000000000000000000000000020000000000000000000800000000000000000000000010000000000000000000000000000000000000000400000000000000000000000000000010000000000000000000000000000000000800000000000000000000000000000000000002080000000000000000000000000000000000000000000000000020004000000000000000000000000000000000000000010000000000000000000000",
      "type": "0x2",
      "transactionHash": "0xa81638e31bec99ee41f185b171737e83e6990eab251fd897e5e20abfd7834043",
      "transactionIndex": "0x5",
      "blockHash": "0xe8b1b389ccbc9d0131d81777e1719189d6da13b838e67d5f937ce84f250033db",
      "blockNumber": "0x2cdce45",
      "gasUsed": "0xe6f1",
      "effectiveGasPrice": "0x773d3520",
      "blobGasUsed": "0x11170",
      "from": "0x91d5e66951c47fbbfafe57c9ff42d45c46b6044c",
      "to": "0xf969aee60879c54baaed9f3ed26147db216fd664",
      "contractAddress": null,
      "daFootprintGasScalar": "0x190",
      "l1BaseFeeScalar": "0x7d0",
      "l1BlobBaseFee": "0x1",
      "l1BlobBaseFeeScalar": "0xdbba0",
      "l1Fee": "0xd0",
      "l1GasPrice": "0x9",
      "l1GasUsed": "0xafb"
    }
  ],
  "libraries": [],
  "pending": [],
  "returns": {},
  "timestamp": 1773894546732,
  "chain": 1301,
  "commit": "29b3163"
}