{
  "transactions": [
    {
      "hash": "0x837bd00c83073b3b60f2cfa85e8a693ce260665d092392eddfea351eeb4e4c1f",
      "transactionType": "CALL",
      "contractName": null,
      "contractAddress": "0xf969aee60879c54baaed9f3ed26147db216fd664",
      "function": "modifyLiquidities(bytes,uint256)",
      "arguments": [
        "0x000000000000000000000000000000000000000000000000000000000000004000000000000000000000000000000000000000000000000000000000000000800000000000000000000000000000000000000000000000000000000000000002011100000000000000000000000000000000000000000000000000000000000000000000000000000000000000000000000000000000000000000000000000020000000000000000000000000000000000000000000000000000000000000040000000000000000000000000000000000000000000000000000000000000012000000000000000000000000000000000000000000000000000000000000000c00000000000000000000000000000000000000000000000000000000000001c4a00000000000000000000000000000000000000000000003635c9adc5dea000000000000000000000000000000000000000000000000000000000000000000000000000000000000000000000000000000000000000000000000000000000000000000000000000000000000000000000000000000000000000000000000000a0000000000000000000000000000000000000000000000000000000000000000000000000000000000000000000000000000000000000000000000000000000600000000000000000000000006fa179cdc67e0ba57c98a90881d414f6d9ea2cfa000000000000000000000000adda3c27ed10db8d8d9e07cf6fc43d8d64eee47100000000000000000000000091d5e66951c47fbbfafe57c9ff42d45c46b6044c",
        "1773898187"
      ],
      "transaction": {
        "from": "0x91d5e66951c47fbbfafe57c9ff42d45c46b6044c",
        "to": "0xf969aee60879c54baaed9f3ed26147db216fd664",
        "gas": "0x3083c",
        "value": "0x0",
        "input": "0xdd46508f00000000000000000000000000000000000000000000000000000000000000400000000000000000000000000000000000000000000000000000000069bb89cb0000000000000000000000000000000000000000000000000000000000000240000000000000000000000000000000000000000000000000000000000000004000000000000000000000000000000000000000000000000000000000000000800000000000000000000000000000000000000000000000000000000000000002011100000000000000000000000000000000000000000000000000000000000000000000000000000000000000000000000000000000000000000000000000020000000000000000000000000000000000000000000000000000000000000040000000000000000000000000000000000000000000000000000000000000012000000000000000000000000000000000000000000000000000000000000000c00000000000000000000000000000000000000000000000000000000000001c4a00000000000000000000000000000000000000000000003635c9adc5dea000000000000000000000000000000000000000000000000000000000000000000000000000000000000000000000000000000000000000000000000000000000000000000000000000000000000000000000000000000000000000000000000000a0000000000000000000000000000000000000000000000000000000000000000000000000000000000000000000000000000000000000000000000000000000600000000000000000000000006fa179cdc67e0ba57c98a90881d414f6d9ea2cfa000000000000000000000000adda3c27ed10db8d8d9e07cf6fc43d8d64eee47100000000000000000000000091d5e66951c47fbbfafe57c9ff42d45c46b6044c",
        "nonce": "0x80",
        "chainId": "0x515"
      },
      "additionalContracts": [],
      "isFixedGasLimit": false
    },
    {
      "hash": "0xcdbdc3a04a1d17730e860261dd119f1484fd7d0a98873bdd6ee2a6987c4bce80",
      "transactionType": "CALL",
      "contractName": null,
      "contractAddress": "0xf969aee60879c54baaed9f3ed26147db216fd664",
      "function": "modifyLiquidities(bytes,uint256)",
      "arguments": [
        "0x000000000000000000000000000000000000000000000000000000000000004000000000000000000000000000000000000000000000000000000000000000800000000000000000000000000000000000000000000000000000000000000002031100000000000000000000000000000000000000000000000000000000000000000000000000000000000000000000000000000000000000000000000000020000000000000000000000000000000000000000000000000000000000000040000000000000000000000000000000000000000000000000000000000000010000000000000000000000000000000000000000000000000000000000000000a00000000000000000000000000000000000000000000000000000000000001c4a000000000000000000000000000000000000000000000000000000000000000000000000000000000000000000000000000000000000000000000000000000000000000000000000000000000000000000000000000000000000000000000080000000000000000000000000000000000000000000000000000000000000000000000000000000000000000000000000000000000000000000000000000000600000000000000000000000006fa179cdc67e0ba57c98a90881d414f6d9ea2cfa000000000000000000000000adda3c27ed10db8d8d9e07cf6fc43d8d64eee47100000000000000000000000091d5e66951c47fbbfafe57c9ff42d45c46b6044c",
        "1773898187"
      ],
      "transaction": {
        "from": "0x91d5e66951c47fbbfafe57c9ff42d45c46b6044c",
        "to": "0xf969aee60879c54baaed9f3ed26147db216fd664",
        "gas": "0x13b2c",
        "value": "0x0",
        "input": "0xdd46508f00000000000000000000000000000000000000000000000000000000000000400000000000000000000000000000000000000000000000000000000069bb89cb0000000000000000000000000000000000000000000000000000000000000220000000000000000000000000000000000000000000000000000000000000004000000000000000000000000000000000000000000000000000000000000000800000000000000000000000000000000000000000000000000000000000000002031100000000000000000000000000000000000000000000000000000000000000000000000000000000000000000000000000000000000000000000000000020000000000000000000000000000000000000000000000000000000000000040000000000000000000000000000000000000000000000000000000000000010000000000000000000000000000000000000000000000000000000000000000a00000000000000000000000000000000000000000000000000000000000001c4a000000000000000000000000000000000000000000000000000000000000000000000000000000000000000000000000000000000000000000000000000000000000000000000000000000000000000000000000000000000000000000000080000000000000000000000000000000000000000000000000000000000000000000000000000000000000000000000000000000000000000000000000000000600000000000000000000000006fa179cdc67e0ba57c98a90881d414f6d9ea2cfa000000000000000000000000adda3c27ed10db8d8d9e07cf6fc43d8d64eee47100000000000000000000000091d5e66951c47fbbfafe57c9ff42d45c46b6044c",
        "nonce": "0x81",
        "chainId": "0x515"
      },
      "additionalContracts": [],
      "isFixedGasLimit": false
    }
  ],
  "receipts": [
    {
      "status": "0x1",
      "cumulativeGasUsed": "0x4c1bc",
      "logs": [
        {
          "address": "0x00b036b58a818b1bc34d502d3fe730db729e62ac",
          "topics": [
            "0xf208f4912782fd25c7f114ca3723a2d5dd6f3bcc3ac8db5af63baa85f711d5ec",
            "0x0513d3489bf26074784261a48f9b68aaea941e7c2487454b35d6a4ce727406ad",
            "0x000000000000000000000000f969aee60879c54baaed9f3ed26147db216fd664"
          ],
          "data": "0xfffffffffffffffffffffffffffffffffffffffffffffffffffffffffff2764c00000000000000000000000000000000000000000000000000000000000d89b4ffffffffffffffffffffffffffffffffffffffffffffffc9ca36523a216000000000000000000000000000000000000000000000000000000000000000001c4a",
          "blockHash": "0x5870d11fa7c78ca1bb8504fe48c23d571ad1d6b735c912863f6b46e47180ca6f",
          "blockNumber": "0x2cdce84",
          "blockTimestamp": "0x69bb7bd0",
          "transactionHash": "0x837bd00c83073b3b60f2cfa85e8a693ce260665d092392eddfea351eeb4e4c1f",
          "transactionIndex": "0x3",
          "logIndex": "0x1",
          "removed": false
        },
        {
          "address": "0x6fa179cdc67e0ba57c98a90881d414f6d9ea2cfa",
          "topics": [
            "0xddf252ad1be2c89b69c2b068fc378daa952ba7f163c4a11628f55a4df523b3ef",
            "0x00000000000000000000000000b036b58a818b1bc34d502d3fe730db729e62ac",
            "0x00000000000000000000000091d5e66951c47fbbfafe57c9ff42d45c46b6044c"
          ],
          "data": "0x000000000000000000000000000000000000000000000001215f337b9a10dcf5",
          "blockHash": "0x5870d11fa7c78ca1bb8504fe48c23d571ad1d6b735c912863f6b46e47180ca6f",
          "blockNumber": "0x2cdce84",
          "blockTimestamp": "0x69bb7bd0",
          "transactionHash": "0x837bd00c83073b3b60f2cfa85e8a693ce260665d092392eddfea351eeb4e4c1f",
          "transactionIndex": "0x3",
          "logIndex": "0x2",
          "removed": false
        },
        {
          "address": "0xadda3c27ed10db8d8d9e07cf6fc43d8d64eee471",
          "topics": [
            "0xddf252ad1be2c89b69c2b068fc378daa952ba7f163c4a11628f55a4df523b3ef",
            "0x00000000000000000000000000b036b58a818b1bc34d502d3fe730db729e62ac",
            "0x00000000000000000000000091d5e66951c47fbbfafe57c9ff42d45c46b6044c"
          ],
          "data": "0x000000000000000000000000000000000000000000000a27d3528a7c2f831570",
          "blockHash": "0x5870d11fa7c78ca1bb8504fe48c23d571ad1d6b735c912863f6b46e47180ca6f",
          "blockNumber": "0x2cdce84",
          "blockTimestamp": "0x69bb7bd0",
          "transactionHash": "0x837bd00c83073b3b60f2cfa85e8a693ce260665d092392eddfea351eeb4e4c1f",
          "transactionIndex": "0x3",
          "logIndex": "0x3",
          "removed": false
        }
      ],
      "logsBloom": "0x00000000000000000000000000000000000000000400000008000000000000000000000000000000000000000000000008000000801000000000000000000000000000000000008000000008000000000000000000000000000000001000000000000000000000000000000000004000000000000040000000000010000000000000000001000000000000000008000400002000000000000000000000000000008004000000000000000000000000000000000000000024000000000000000100000002000000000000000000000000000000000000000000000000000000000000000010000000000000000000000004000000000002000000008000002010",
      "type": "0x2",
      "transactionHash": "0x837bd00c83073b3b60f2cfa85e8a693ce260665d092392eddfea351eeb4e4c1f",
      "transactionIndex": "0x3",
      "blockHash": "0x5870d11fa7c78ca1bb8504fe48c23d571ad1d6b735c912863f6b46e47180ca6f",
      "blockNumber": "0x2cdce84",
      "gasUsed": "0x231fc",
      "effectiveGasPrice": "0x773d3520",
      "blobGasUsed": "0x133d0",
      "from": "0x91d5e66951c47fbbfafe57c9ff42d45c46b6044c",
      "to": "0xf969aee60879c54baaed9f3ed26147db216fd664",
      "contractAddress": null,
      "daFootprintGasScalar": "0x190",
      "l1BaseFeeScalar": "0x7d0",
      "l1BlobBaseFee": "0x1",
      "l1BlobBaseFeeScalar": "0xdbba0",
      "l1Fee": "0xea",
      "l1GasPrice": "0x9",
      "l1GasUsed": "0xc57"
    },
    {
      "status": "0x1",
      "cumulativeGasUsed": "0x5993d",
      "logs": [
        {
          "address": "0xf969aee60879c54baaed9f3ed26147db216fd664",
          "topics": [
            "0xddf252ad1be2c89b69c2b068fc378daa952ba7f163c4a11628f55a4df523b3ef",
            "0x00000000000000000000000091d5e66951c47fbbfafe57c9ff42d45c46b6044c",
            "0x0000000000000000000000000000000000000000000000000000000000000000",
            "0x0000000000000000000000000000000000000000000000000000000000001c4a"
          ],
          "data": "0x",
          "blockHash": "0x5870d11fa7c78ca1bb8504fe48c23d571ad1d6b735c912863f6b46e47180ca6f",
          "blockNumber": "0x2cdce84",
          "blockTimestamp": "0x69bb7bd0",
          "transactionHash": "0xcdbdc3a04a1d17730e860261dd119f1484fd7d0a98873bdd6ee2a6987c4bce80",
          "transactionIndex": "0x4",
          "logIndex": "0x4",
          "removed": false
        }
      ],
      "logsBloom": "0x00000000000000000000000000000000000000000000000000000000000000000000000000000000100000000000000008000000800000000000000000000000000000000000000000000008000000000000000000080000000000000000002000000000020000000000000000000800000000000000000000000010000000000000000000000000000000000000000400000000000000000000000000000000000000000000000000000000000000000800000000000000000000000000000000000002080000000000000000000000000000000000000000000000000020004000000000000000000000000000000000000000000000000000000000000000",
      "type": "0x2",
      "transactionHash": "0xcdbdc3a04a1d17730e860261dd119f1484fd7d0a98873bdd6ee2a6987c4bce80",
      "transactionIndex": "0x4",
      "blockHash": "0x5870d11fa7c78ca1bb8504fe48c23d571ad1d6b735c912863f6b46e47180ca6f",
      "blockNumber": "0x2cdce84",
      "gasUsed": "0xd781",
      "effectiveGasPrice": "0x773d3520",
      "blobGasUsed": "0x12f20",
      "from": "0x91d5e66951c47fbbfafe57c9ff42d45c46b6044c",
      "to": "0xf969aee60879c54baaed9f3ed26147db216fd664",
      "contractAddress": null,
      "daFootprintGasScalar": "0x190",
      "l1BaseFeeScalar": "0x7d0",
      "l1BlobBaseFee": "0x1",
      "l1BlobBaseFeeScalar": "0xdbba0",
      "l1Fee": "0xe7",
      "l1GasPrice": "0x9",
      "l1GasUsed": "0xc2f"
    }
  ],
  "libraries": [],
  "pending": [],
  "returns": {},
  "timestamp": 1773894609357,
  "chain": 1301,
  "commit": "29b3163"
}