{
  "transactions": [
    {
      "hash": "0x2658a4d9b26c331ed59765bbae23cbd722b3208c309c790ef34b7dfc2f0bc731",
      "transactionType": "CALL",
      "contractName": null,
      "contractAddress": "0xf969aee60879c54baaed9f3ed26147db216fd664",
      "function": "modifyLiquidities(bytes,uint256)",
      "arguments": [
        "0x000000000000000000000000000000000000000000000000000000000000004000000000000000000000000000000000000000000000000000000000000000800000000000000000000000000000000000000000000000000000000000000002011100000000000000000000000000000000000000000000000000000000000000000000000000000000000000000000000000000000000000000000000000020000000000000000000000000000000000000000000000000000000000000040000000000000000000000000000000000000000000000000000000000000012000000000000000000000000000000000000000000000000000000000000000c00000000000000000000000000000000000000000000000000000000000001c4f00000000000000000000000000000000000000000000003635c9adc5dea000000000000000000000000000000000000000000000000000000000000000000000000000000000000000000000000000000000000000000000000000000000000000000000000000000000000000000000000000000000000000000000000000a0000000000000000000000000000000000000000000000000000000000000000000000000000000000000000000000000000000000000000000000000000000600000000000000000000000008e33bfd4e0b22f16029202a2bd55266b2b9f15a1000000000000000000000000c519a28d5c91fb6e87654f638c5563a4941b163b00000000000000000000000091d5e66951c47fbbfafe57c9ff42d45c46b6044c",
        "1773920413"
      ],
      "transaction": {
        "from": "0x91d5e66951c47fbbfafe57c9ff42d45c46b6044c",
        "to": "0xf969aee60879c54baaed9f3ed26147db216fd664",
        "gas": "0x3083c",
        "value": "0x0",
        "input": "0xdd46508f00000000000000000000000000000000000000000000000000000000000000400000000000000000000000000000000000000000000000000000000069bbe09d0000000000000000000000000000000000000000000000000000000000000240000000000000000000000000000000000000000000000000000000000000004000000000000000000000000000000000000000000000000000000000000000800000000000000000000000000000000000000000000000000000000000000002011100000000000000000000000000000000000000000000000000000000000000000000000000000000000000000000000000000000000000000000000000020000000000000000000000000000000000000000000000000000000000000040000000000000000000000000000000000000000000000000000000000000012000000000000000000000000000000000000000000000000000000000000000c00000000000000000000000000000000000000000000000000000000000001c4f00000000000000000000000000000000000000000000003635c9adc5dea000000000000000000000000000000000000000000000000000000000000000000000000000000000000000000000000000000000000000000000000000000000000000000000000000000000000000000000000000000000000000000000000000a0000000000000000000000000000000000000000000000000000000000000000000000000000000000000000000000000000000000000000000000000000000600000000000000000000000008e33bfd4e0b22f16029202a2bd55266b2b9f15a1000000000000000000000000c519a28d5c91fb6e87654f638c5563a4941b163b00000000000000000000000091d5e66951c47fbbfafe57c9ff42d45c46b6044c",
        "nonce": "0x143",
        "chainId": "0x515"
      },
      "additionalContracts": [],
      "isFixedGasLimit": false
    },
    {
      "hash": "0xf77f1abe225831fd3903c684d2953d8918d4c843dec08e6d4cb751339ac6f22c",
      "transactionType": "CALL",
      "contractName": null,
      "contractAddress": "0xf969aee60879c54baaed9f3ed26147db216fd664",
      "function": "modifyLiquidities(bytes,uint256)",
      "arguments": [
        "0x000000000000000000000000000000000000000000000000000000000000004000000000000000000000000000000000000000000000000000000000000000800000000000000000000000000000000000000000000000000000000000000002031100000000000000000000000000000000000000000000000000000000000000000000000000000000000000000000000000000000000000000000000000020000000000000000000000000000000000000000000000000000000000000040000000000000000000000000000000000000000000000000000000000000010000000000000000000000000000000000000000000000000000000000000000a00000000000000000000000000000000000000000000000000000000000001c4f000000000000000000000000000000000000000000000000000000000000000000000000000000000000000000000000000000000000000000000000000000000000000000000000000000000000000000000000000000000000000000000080000000000000000000000000000000000000000000000000000000000000000000000000000000000000000000000000000000000000000000000000000000600000000000000000000000008e33bfd4e0b22f16029202a2bd55266b2b9f15a1000000000000000000000000c519a28d5c91fb6e87654f638c5563a4941b163b00000000000000000000000091d5e66951c47fbbfafe57c9ff42d45c46b6044c",
        "1773920413"
      ],
      "transaction": {
        "from": "0x91d5e66951c47fbbfafe57c9ff42d45c46b6044c",
        "to": "0xf969aee60879c54baaed9f3ed26147db216fd664",
        "gas": "0x13b2c",
        "value": "0x0",
        "input": "0xdd46508f00000000000000000000000000000000000000000000000000000000000000400000000000000000000000000000000000000000000000000000000069bbe09d0000000000000000000000000000000000000000000000000000000000000220000000000000000000000000000000000000000000000000000000000000004000000000000000000000000000000000000000000000000000000000000000800000000000000000000000000000000000000000000000000000000000000002031100000000000000000000000000000000000000000000000000000000000000000000000000000000000000000000000000000000000000000000000000020000000000000000000000000000000000000000000000000000000000000040000000000000000000000000000000000000000000000000000000000000010000000000000000000000000000000000000000000000000000000000000000a00000000000000000000000000000000000000000000000000000000000001c4f000000000000000000000000000000000000000000000000000000000000000000000000000000000000000000000000000000000000000000000000000000000000000000000000000000000000000000000000000000000000000000000080000000000000000000000000000000000000000000000000000000000000000000000000000000000000000000000000000000000000000000000000000000600000000000000000000000008e33bfd4e0b22f16029202a2bd55266b2b9f15a1000000000000000000000000c519a28d5c91fb6e87654f638c5563a4941b163b00000000000000000000000091d5e66951c47fbbfafe57c9ff42d45c46b6044c",
        "nonce": "0x144",
        "chainId": "0x515"
      },
      "additionalContracts": [],
      "isFixedGasLimit": false
    }
  ],
  "receipts": [
    {
      "status": "0x1",
      "cumulativeGasUsed": "0xb4947",
      "logs": [
        {
          "address": "0x00b036b58a818b1bc34d502d3fe730db729e62ac",
          "topics": [
            "0xf208f4912782fd25c7f114ca3723a2d5dd6f3bcc3ac8db5af63baa85f711d5ec",
            "0x2a58d213d5e8751e24cfdc2a67336c67cc7d917cb255062162374bc359d9140c",
            "0x000000000000000000000000f969aee60879c54baaed9f3ed26147db216fd664"
          ],
          "data": "0xfffffffffffffffffffffffffffffffffffffffffffffffffffffffffff2764c00000000000000000000000000000000000000000000000000000000000d89b4ffffffffffffffffffffffffffffffffffffffffffffffc9ca36523a216000000000000000000000000000000000000000000000000000000000000000001c4f",
          "blockHash": "0x50d31f69808e4bbd61cf6559a6c977a96ed3eebc0baa0025f825565d33cbc8d5",
          "blockNumber": "0x2ce2557",
          "blockTimestamp": "0x69bbd2a3",
          "transactionHash": "0xf77f1abe225831fd3903c684d2953d8918d4c843dec08e6d4cb751339ac6f22c",
          "transactionIndex": "0x7",
          "logIndex": "0x8",
          "removed": false
        },
        {
          "address": "0x8e33bfd4e0b22f16029202a2bd55266b2b9f15a1",
          "topics": [
            "0xddf252ad1be2c89b69c2b068fc378daa952ba7f163c4a11628f55a4df523b3ef",
            "0x00000000000000000000000000b036b58a818b1bc34d502d3fe730db729e62ac",
            "0x00000000000000000000000091d5e66951c47fbbfafe57c9ff42d45c46b6044c"
          ],
          "data": "0x000000000000000000000000000000000000000000000001214809d9aa4e7e53",
          "blockHash": "0x50d31f69808e4bbd61cf6559a6c977a96ed3eebc0baa0025f825565d33cbc8d5",
          "blockNumber": "0x2ce2557",
          "blockTimestamp": "0x69bbd2a3",
          "transactionHash": "0xf77f1abe225831fd3903c684d2953d8918d4c843dec08e6d4cb751339ac6f22c",
          "transactionIndex": "0x7",
          "logIndex": "0x9",
          "removed": false
        },
        {
          "address": "0xc519a28d5c91fb6e87654f638c5563a4941b163b",
          "topics": [
            "0xddf252ad1be2c89b69c2b068fc378daa952ba7f163c4a11628f55a4df523b3ef",
            "0x00000000000000000000000000b036b58a818b1bc34d502d3fe730db729e62ac",
            "0x00000000000000000000000091d5e66951c47fbbfafe57c9ff42d45c46b6044c"
          ],
          "data": "0x000000000000000000000000000000000000000000000a28a37d3f02fe5f1570",
          "blockHash": "0x50d31f69808e4bbd61cf6559a6c977a96ed3eebc0baa0025f825565d33cbc8d5",
          "blockNumber": "0x2ce2557",
          "blockTimestamp": "0x69bbd2a3",
          "transactionHash": "0xf77f1abe225831fd3903c684d2953d8918d4c843dec08e6d4cb751339ac6f22c",
          "transactionIndex": "0x7",
          "logIndex": "0xa",
          "removed": false
        }
      ],
      "logsBloom": "0x00000000000000000000000000000000000000000000000000000100000004000000000000000000000000000000000008000000801000000000000000000000000000000000000000000008000000000000000000000000000000001000000000000000000000000000000000004000000000000040000000000010000000000000000001000000000000000008000400000000000000000000000000000000000004000000000000000000000002000000000000000020000000000000000000000002000000000000400000000000000000000000000000000000000000000000080000001000000000000000000024000000000002100001000000002010",
      "type": "0x2",
      "transactionHash": "0xf77f1abe225831fd3903c684d2953d8918d4c843dec08e6d4cb751339ac6f22c",
      "transactionIndex": "0x7",
      "blockHash": "0x50d31f69808e4bbd61cf6559a6c977a96ed3eebc0baa0025f825565d33cbc8d5",
      "blockNumber": "0x2ce2557",
      "gasUsed": "0x231fc",
      "effectiveGasPrice": "0xee72c920",
      "blobGasUsed": "0x13560",
      "from": "0x91d5e66951c47fbbfafe57c9ff42d45c46b6044c",
      "to": "0xf969aee60879c54baaed9f3ed26147db216fd664",
      "contractAddress": null,
      "daFootprintGasScalar": "0x190",
      "l1BaseFeeScalar": "0x7d0",
      "l1BlobBaseFee": "0x1",
      "l1BlobBaseFeeScalar": "0xdbba0",
      "l1Fee": "0xf1",
      "l1GasPrice": "0xa",
      "l1GasUsed": "0xc65"
    },
    {
      "status": "0x1",
      "cumulativeGasUsed": "0xc20c8",
      "logs": [
        {
          "address": "0xf969aee60879c54baaed9f3ed26147db216fd664",
          "topics": [
            "0xddf252ad1be2c89b69c2b068fc378daa952ba7f163c4a11628f55a4df523b3ef",
            "0x00000000000000000000000091d5e66951c47fbbfafe57c9ff42d45c46b6044c",
            "0x0000000000000000000000000000000000000000000000000000000000000000",
            "0x0000000000000000000000000000000000000000000000000000000000001c4f"
          ],
          "data": "0x",
          "blockHash": "0x50d31f69808e4bbd61cf6559a6c977a96ed3eebc0baa0025f825565d33cbc8d5",
          "blockNumber": "0x2ce2557",
          "blockTimestamp": "0x69bbd2a3",
          "transactionHash": "0x2658a4d9b26c331ed59765bbae23cbd722b3208c309c790ef34b7dfc2f0bc731",
          "transactionIndex": "0x8",
          "logIndex": "0xb",
          "removed": false
        }
      ],
      "logsBloom": "0x00000000000000000000000000000000000010000000000000000000000000000000000000000000000000000000000008000000800000000800000000000000000000000000000000000008000000000000000000000000000000000000000000000000020000000000000000000800000000000000000000000010000000000000000000000000000000000000000400000000000000000000000000800000000000000000000000000000000000000800000000000000000000000000000000000002080000000000000000000000000000000000000000000000000020004000000000000000000000000000000000000000000000000000000000000000",
      "type": "0x2",
      "transactionHash": "0x2658a4d9b26c331ed59765bbae23cbd722b3208c309c790ef34b7dfc2f0bc731",
      "transactionIndex": "0x8",
      "blockHash": "0x50d31f69808e4bbd61cf6559a6c977a96ed3eebc0baa0025f825565d33cbc8d5",
      "blockNumber": "0x2ce2557",
      "gasUsed": "0xd781",
      "effectiveGasPrice": "0xee72c920",
      "blobGasUsed": "0x130b0",
      "from": "0x91d5e66951c47fbbfafe57c9ff42d45c46b6044c",
      "to": "0xf969aee60879c54baaed9f3ed26147db216fd664",
      "contractAddress": null,
      "daFootprintGasScalar": "0x190",
      "l1BaseFeeScalar": "0x7d0",
      "l1BlobBaseFee": "0x1",
      "l1BlobBaseFeeScalar": "0xdbba0",
      "l1Fee": "0xee",
      "l1GasPrice": "0xa",
      "l1GasUsed": "0xc3d"
    }
  ],
  "libraries": [],
  "pending": [],
  "returns": {},
  "timestamp": 1773916835262,
  "chain": 1301,
  "commit": "29b3163"
}