{
  "transactions": [
    {
      "hash": "0x34b619db025ec5d0fe50885ddb847973b81ad228309eca9c8b6f2d6ff07baa48",
      "transactionType": "CALL",
      "contractName": null,
      "contractAddress": "0xf969aee60879c54baaed9f3ed26147db216fd664",
      "function": "modifyLiquidities(bytes,uint256)",
      "arguments": [
        "0x000000000000000000000000000000000000000000000000000000000000004000000000000000000000000000000000000000000000000000000000000000800000000000000000000000000000000000000000000000000000000000000004020d14140000000000000000000000000000000000000000000000000000000000000000000000000000000000000000000000000000000000000000000000040000000000000000000000000000000000000000000000000000000000000080000000000000000000000000000000000000000000000000000000000000024000000000000000000000000000000000000000000000000000000000000002a0000000000000000000000000000000000000000000000000000000000000030000000000000000000000000000000000000000000000000000000000000001a000000000000000000000000015207845fbf12ec6dce838141cbfe7fdfded1281000000000000000000000000a155c64e596b95799e90395c55d7bb9582e7f5710000000000000000000000000000000000000000000000000000000000800000000000000000000000000000000000000000000000000000000000000000003c000000000000000000000000ab680faff2fb5edd44e7df8b4a3d698ac6b70fc0fffffffffffffffffffffffffffffffffffffffffffffffffffffffffff2764c00000000000000000000000000000000000000000000000000000000000d89b400000000000000000000000000000000000000000000003635c9adc5dea00000000000000000000000000000000000000000000000000a27d3528a7c301570e0000000000000000000000000000000000000000000000001215f337b9a10ccac00000000000000000000000091d5e66951c47fbbfafe57c9ff42d45c46b6044c00000000000000000000000000000000000000000000000000000000000001800000000000000000000000000000000000000000000000000000000000000000000000000000000000000000000000000000000000000000000000000000004000000000000000000000000015207845fbf12ec6dce838141cbfe7fdfded1281000000000000000000000000a155c64e596b95799e90395c55d7bb9582e7f571000000000000000000000000000000000000000000000000000000000000004000000000000000000000000015207845fbf12ec6dce838141cbfe7fdfded128100000000000000000000000091d5e66951c47fbbfafe57c9ff42d45c46b6044c0000000000000000000000000000000000000000000000000000000000000040000000000000000000000000a155c64e596b95799e90395c55d7bb9582e7f57100000000000000000000000091d5e66951c47fbbfafe57c9ff42d45c46b6044c",
        "1773940481"
      ],
      "transaction": {
        "from": "0x91d5e66951c47fbbfafe57c9ff42d45c46b6044c",
        "to": "0xf969aee60879c54baaed9f3ed26147db216fd664",
        "gas": "0xa347c",
        "value": "0x0",
        "input": "0xdd46508f00000000000000000000000000000000000000000000000000000000000000400000000000000000000000000000000000000000000000000000000069bc2f010000000000000000000000000000000000000000000000000000000000000400000000000000000000000000000000000000000000000000000000000000004000000000000000000000000000000000000000000000000000000000000000800000000000000000000000000000000000000000000000000000000000000004020d14140000000000000000000000000000000000000000000000000000000000000000000000000000000000000000000000000000000000000000000000040000000000000000000000000000000000000000000000000000000000000080000000000000000000000000000000000000000000000000000000000000024000000000000000000000000000000000000000000000000000000000000002a0000000000000000000000000000000000000000000000000000000000000030000000000000000000000000000000000000000000000000000000000000001a000000000000000000000000015207845fbf12ec6dce838141cbfe7fdfded1281000000000000000000000000a155c64e596b95799e90395c55d7bb9582e7f5710000000000000000000000000000000000000000000000000000000000800000000000000000000000000000000000000000000000000000000000000000003c000000000000000000000000ab680faff2fb5edd44e7df8b4a3d698ac6b70fc0fffffffffffffffffffffffffffffffffffffffffffffffffffffffffff2764c00000000000000000000000000000000000000000000000000000000000d89b400000000000000000000000000000000000000000000003635c9adc5dea00000000000000000000000000000000000000000000000000a27d3528a7c301570e0000000000000000000000000000000000000000000000001215f337b9a10ccac00000000000000000000000091d5e66951c47fbbfafe57c9ff42d45c46b6044c00000000000000000000000000000000000000000000000000000000000001800000000000000000000000000000000000000000000000000000000000000000000000000000000000000000000000000000000000000000000000000000004000000000000000000000000015207845fbf12ec6dce838141cbfe7fdfded1281000000000000000000000000a155c64e596b95799e90395c55d7bb9582e7f571000000000000000000000000000000000000000000000000000000000000004000000000000000000000000015207845fbf12ec6dce838141cbfe7fdfded128100000000000000000000000091d5e66951c47fbbfafe57c9ff42d45c46b6044c0000000000000000000000000000000000000000000000000000000000000040000000000000000000000000a155c64e596b95799e90395c55d7bb9582e7f57100000000000000000000000091d5e66951c47fbbfafe57c9ff42d45c46b6044c",
        "nonce": "0x1d4",
        "chainId": "0x515"
      },
      "additionalContracts": [],
      "isFixedGasLimit": false
    }
  ],
  "receipts": [
    {
      "status": "0x1",
      "cumulativeGasUsed": "0xd3cec",
      "logs": [
        {
          "address": "0xf969aee60879c54baaed9f3ed26147db216fd664",
          "topics": [
            "0xddf252ad1be2c89b69c2b068fc378daa952ba7f163c4a11628f55a4df523b3ef",
            "0x0000000000000000000000000000000000000000000000000000000000000000",
            "0x00000000000000000000000091d5e66951c47fbbfafe57c9ff42d45c46b6044c",
            "0x0000000000000000000000000000000000000000000000000000000000001c61"
          ],
          "data": "0x",
          "blockHash": "0xb2fe8932bcb40d17646ade872e55ca5669797ecb1d6d5f486d60698ccbef180b",
          "blockNumber": "0x2ce73be",
          "blockTimestamp": "0x69bc210a",
          "transactionHash": "0x34b619db025ec5d0fe50885ddb847973b81ad228309eca9c8b6f2d6ff07baa48",
          "transactionIndex": "0x5",
          "logIndex": "0x4",
          "removed": false
        },
        {
          "address": "0x00b036b58a818b1bc34d502d3fe730db729e62ac",
          "topics": [
            "0xf208f4912782fd25c7f114ca3723a2d5dd6f3bcc3ac8db5af63baa85f711d5ec",
            "0x4e82dc2cc7239fb3406e96fae6a8841a1625320d59f33237e732d48b7a0de46d",
            "0x000000000000000000000000f969aee60879c54baaed9f3ed26147db216fd664"
          ],
          "data": "0xfffffffffffffffffffffffffffffffffffffffffffffffffffffffffff2764c00000000000000000000000000000000000000000000000000000000000d89b400000000000000000000000000000000000000000000003635c9adc5dea000000000000000000000000000000000000000000000000000000000000000001c61",
          "blockHash": "0xb2fe8932bcb40d17646ade872e55ca5669797ecb1d6d5f486d60698ccbef180b",
          "blockNumber": "0x2ce73be",
          "blockTimestamp": "0x69bc210a",
          "transactionHash": "0x34b619db025ec5d0fe50885ddb847973b81ad228309eca9c8b6f2d6ff07baa48",
          "transactionIndex": "0x5",
          "logIndex": "0x5",
          "removed": false
        },
        {
          "address": "0x15207845fbf12ec6dce838141cbfe7fdfded1281",
          "topics": [
            "0xddf252ad1be2c89b69c2b068fc378daa952ba7f163c4a11628f55a4df523b3ef",
            "0x00000000000000000000000091d5e66951c47fbbfafe57c9ff42d45c46b6044c",
            "0x00000000000000000000000000b036b58a818b1bc34d502d3fe730db729e62ac"
          ],
          "data": "0x000000000000000000000000000000000000000000000a27d3528a7c301570e0",
          "blockHash": "0xb2fe8932bcb40d17646ade872e55ca5669797ecb1d6d5f486d60698ccbef180b",
          "blockNumber": "0x2ce73be",
          "blockTimestamp": "0x69bc210a",
          "transactionHash": "0x34b619db025ec5d0fe50885ddb847973b81ad228309eca9c8b6f2d6ff07baa48",
          "transactionIndex": "0x5",
          "logIndex": "0x6",
          "removed": false
        },
        {
          "address": "0xa155c64e596b95799e90395c55d7bb9582e7f571",
          "topics": [
            "0xddf252ad1be2c89b69c2b068fc378daa952ba7f163c4a11628f55a4df523b3ef",
            "0x00000000000000000000000091d5e66951c47fbbfafe57c9ff42d45c46b6044c",
            "0x00000000000000000000000000b036b58a818b1bc34d502d3fe730db729e62ac"
          ],
          "data": "0x000000000000000000000000000000000000000000000001215f337b9a10ccac",
          "blockHash": "0xb2fe8932bcb40d17646ade872e55ca5669797ecb1d6d5f486d60698ccbef180b",
          "blockNumber": "0x2ce73be",
          "blockTimestamp": "0x69bc210a",
          "transactionHash": "0x34b619db025ec5d0fe50885ddb847973b81ad228309eca9c8b6f2d6ff07baa48",
          "transactionIndex": "0x5",
          "logIndex": "0x7",
          "removed": false
        }
      ],
      "logsBloom": "0x00000000000008000000200000000000000000000000000000000000000000000000000000000000000000000000000008010000801000000000000000000000080000000000000000000008000000000000000020000000000000001000000000000000020000000000000000004800000000040040020000000010000000000000000001000000000000000008000400000000000000000004000000000000000004000000000000000000000000000800000000000020000000000000000000000002080000000008100000000000000000000000000000000000000020004000000000000000000000000000000004001000000002000200000000002010",
      "type": "0x2",
      "transactionHash": "0x34b619db025ec5d0fe50885ddb847973b81ad228309eca9c8b6f2d6ff07baa48",
      "transactionIndex": "0x5",
      "blockHash": "0xb2fe8932bcb40d17646ade872e55ca5669797ecb1d6d5f486d60698ccbef180b",
      "blockNumber": "0x2ce73be",
      "gasUsed": "0x6fa51",
      "effectiveGasPrice": "0xee72c920",
      "blobGasUsed": "0x1d7e0",
      "from": "0x91d5e66951c47fbbfafe57c9ff42d45c46b6044c",
      "to": "0xf969aee60879c54baaed9f3ed26147db216fd664",
      "contractAddress": null,
      "daFootprintGasScalar": "0x190",
      "l1BaseFeeScalar": "0x7d0",
      "l1BlobBaseFee": "0x2",
      "l1BlobBaseFeeScalar": "0xdbba0",
      "l1Fee": "0x278",
      "l1GasPrice": "0x9",
      "l1GasUsed": "0x12ee"
    }
  ],
  "libraries": [],
  "pending": [],
  "returns": {},
  "timestamp": 1773936907644,
  "chain": 1301,
  "commit": "29b3163"
}