{
  "transactions": [
    {
      "hash": "0x4f1599229c40550ce12ae412a68e7e8efc52cb046b32c6984fee1a71b3fa79f9",
      "transactionType": "CALL",
      "contractName": null,
      "contractAddress": "0xf969aee60879c54baaed9f3ed26147db216fd664",
      "function": "modifyLiquidities(bytes,uint256)",
      "arguments": [
        "0x000000000000000000000000000000000000000000000000000000000000004000000000000000000000000000000000000000000000000000000000000000800000000000000000000000000000000000000000000000000000000000000004020d14140000000000000000000000000000000000000000000000000000000000000000000000000000000000000000000000000000000000000000000000040000000000000000000000000000000000000000000000000000000000000080000000000000000000000000000000000000000000000000000000000000024000000000000000000000000000000000000000000000000000000000000002a0000000000000000000000000000000000000000000000000000000000000030000000000000000000000000000000000000000000000000000000000000001a00000000000000000000000008e33bfd4e0b22f16029202a2bd55266b2b9f15a1000000000000000000000000c519a28d5c91fb6e87654f638c5563a4941b163b0000000000000000000000000000000000000000000000000000000000800000000000000000000000000000000000000000000000000000000000000000003c000000000000000000000000244042445e2f0687b18c8f35566c87e08492cfc0fffffffffffffffffffffffffffffffffffffffffffffffffffffffffff2764c00000000000000000000000000000000000000000000000000000000000d89b400000000000000000000000000000000000000000000003635c9adc5dea00000000000000000000000000000000000000000000000000a27d3528a7c301570e0000000000000000000000000000000000000000000000001215f337b9a10ccac00000000000000000000000091d5e66951c47fbbfafe57c9ff42d45c46b6044c0000000000000000000000000000000000000000000000000000000000000180000000000000000000000000000000000000000000000000000000000000000000000000000000000000000000000000000000000000000000000000000000400000000000000000000000008e33bfd4e0b22f16029202a2bd55266b2b9f15a1000000000000000000000000c519a28d5c91fb6e87654f638c5563a4941b163b00000000000000000000000000000000000000000000000000000000000000400000000000000000000000008e33bfd4e0b22f16029202a2bd55266b2b9f15a100000000000000000000000091d5e66951c47fbbfafe57c9ff42d45c46b6044c0000000000000000000000000000000000000000000000000000000000000040000000000000000000000000c519a28d5c91fb6e87654f638c5563a4941b163b00000000000000000000000091d5e66951c47fbbfafe57c9ff42d45c46b6044c",
        "1773921022"
      ],
      "transaction": {
        "from": "0x91d5e66951c47fbbfafe57c9ff42d45c46b6044c",
        "to": "0xf969aee60879c54baaed9f3ed26147db216fd664",
        "gas": "0x9b124",
        "value": "0x0",
        "input": "0xdd46508f00000000000000000000000000000000000000000000000000000000000000400000000000000000000000000000000000000000000000000000000069bbe2fe0000000000000000000000000000000000000000000000000000000000000400000000000000000000000000000000000000000000000000000000000000004000000000000000000000000000000000000000000000000000000000000000800000000000000000000000000000000000000000000000000000000000000004020d14140000000000000000000000000000000000000000000000000000000000000000000000000000000000000000000000000000000000000000000000040000000000000000000000000000000000000000000000000000000000000080000000000000000000000000000000000000000000000000000000000000024000000000000000000000000000000000000000000000000000000000000002a0000000000000000000000000000000000000000000000000000000000000030000000000000000000000000000000000000000000000000000000000000001a00000000000000000000000008e33bfd4e0b22f16029202a2bd55266b2b9f15a1000000000000000000000000c519a28d5c91fb6e87654f638c5563a4941b163b0000000000000000000000000000000000000000000000000000000000800000000000000000000000000000000000000000000000000000000000000000003c000000000000000000000000244042445e2f0687b18c8f35566c87e08492cfc0fffffffffffffffffffffffffffffffffffffffffffffffffffffffffff2764c00000000000000000000000000000000000000000000000000000000000d89b400000000000000000000000000000000000000000000003635c9adc5dea00000000000000000000000000000000000000000000000000a27d3528a7c301570e0000000000000000000000000000000000000000000000001215f337b9a10ccac00000000000000000000000091d5e66951c47fbbfafe57c9ff42d45c46b6044c0000000000000000000000000000000000000000000000000000000000000180000000000000000000000000000000000000000000000000000000000000000000000000000000000000000000000000000000000000000000000000000000400000000000000000000000008e33bfd4e0b22f16029202a2bd55266b2b9f15a1000000000000000000000000c519a28d5c91fb6e87654f638c5563a4941b163b00000000000000000000000000000000000000000000000000000000000000400000000000000000000000008e33bfd4e0b22f16029202a2bd55266b2b9f15a100000000000000000000000091d5e66951c47fbbfafe57c9ff42d45c46b6044c0000000000000000000000000000000000000000000000000000000000000040000000000000000000000000c519a28d5c91fb6e87654f638c5563a4941b163b00000000000000000000000091d5e66951c47fbbfafe57c9ff42d45c46b6044c",
        "nonce": "0x188",
        "chainId": "0x515"
      },
      "additionalContracts": [],
      "isFixedGasLimit": false
    }
  ],
  "receipts": [
    {
      "status": "0x1",
      "cumulativeGasUsed": "0xc10a6",
      "logs": [
        {
          "address": "0xf969aee60879c54baaed9f3ed26147db216fd664",
          "topics": [
            "0xddf252ad1be2c89b69c2b068fc378daa952ba7f163c4a11628f55a4df523b3ef",
            "0x0000000000000000000000000000000000000000000000000000000000000000",
            "0x00000000000000000000000091d5e66951c47fbbfafe57c9ff42d45c46b6044c",
            "0x0000000000000000000000000000000000000000000000000000000000001c52"
          ],
          "data": "0x",
          "blockHash": "0xc13a757bc9c907b22fad918ec4ce1dbc1b478c81f73311dde9bf1a992ec749b5",
          "blockNumber": "0x2ce27b9",
          "blockTimestamp": "0x69bbd505",
          "transactionHash": "0x4f1599229c40550ce12ae412a68e7e8efc52cb046b32c6984fee1a71b3fa79f9",
          "transactionIndex": "0x5",
          "logIndex": "0x3",
          "removed": false
        },
        {
          "address": "0x00b036b58a818b1bc34d502d3fe730db729e62ac",
          "topics": [
            "0xf208f4912782fd25c7f114ca3723a2d5dd6f3bcc3ac8db5af63baa85f711d5ec",
            "0x00010e337dcac8db2dbf7f0c6eaae56b581fbb3415b9271b173739c06c7db7f5",
            "0x000000000000000000000000f969aee60879c54baaed9f3ed26147db216fd664"
          ],
          "data": "0xfffffffffffffffffffffffffffffffffffffffffffffffffffffffffff2764c00000000000000000000000000000000000000000000000000000000000d89b400000000000000000000000000000000000000000000003635c9adc5dea000000000000000000000000000000000000000000000000000000000000000001c52",
          "blockHash": "0xc13a757bc9c907b22fad918ec4ce1dbc1b478c81f73311dde9bf1a992ec749b5",
          "blockNumber": "0x2ce27b9",
          "blockTimestamp": "0x69bbd505",
          "transactionHash": "0x4f1599229c40550ce12ae412a68e7e8efc52cb046b32c6984fee1a71b3fa79f9",
          "transactionIndex": "0x5",
          "logIndex": "0x4",
          "removed": false
        },
        {
          "address": "0x8e33bfd4e0b22f16029202a2bd55266b2b9f15a1",
          "topics": [
            "0xddf252ad1be2c89b69c2b068fc378daa952ba7f163c4a11628f55a4df523b3ef",
            "0x00000000000000000000000091d5e66951c47fbbfafe57c9ff42d45c46b6044c",
            "0x00000000000000000000000000b036b58a818b1bc34d502d3fe730db729e62ac"
          ],
          "data": "0x000000000000000000000000000000000000000000000a27d3528a7c301570e0",
          "blockHash": "0xc13a757bc9c907b22fad918ec4ce1dbc1b478c81f73311dde9bf1a992ec749b5",
          "blockNumber": "0x2ce27b9",
          "blockTimestamp": "0x69bbd505",
          "transactionHash": "0x4f1599229c40550ce12ae412a68e7e8efc52cb046b32c6984fee1a71b3fa79f9",
          "transactionIndex": "0x5",
          "logIndex": "0x5",
          "removed": false
        },
        {
          "address": "0xc519a28d5c91fb6e87654f638c5563a4941b163b",
          "topics": [
            "0xddf252ad1be2c89b69c2b068fc378daa952ba7f163c4a11628f55a4df523b3ef",
            "0x00000000000000000000000091d5e66951c47fbbfafe57c9ff42d45c46b6044c",
            "0x00000000000000000000000000b036b58a818b1bc34d502d3fe730db729e62ac"
          ],
          "data": "0x000000000000000000000000000000000000000000000001215f337b9a10ccac",
          "blockHash": "0xc13a757bc9c907b22fad918ec4ce1dbc1b478c81f73311dde9bf1a992ec749b5",
          "blockNumber": "0x2ce27b9",
          "blockTimestamp": "0x69bbd505",
          "transactionHash": "0x4f1599229c40550ce12ae412a68e7e8efc52cb046b32c6984fee1a71b3fa79f9",
          "transactionIndex": "0x5",
          "logIndex": "0x6",
          "removed": false
        }
      ],
      "logsBloom": "0x00000000000000000000000000000000000000000000000000000110000004000000000000000000000000000000000008000000801000020000000000200000000000000000000000000008000000000008000000002000000000001000000000000000020000000000000000004800000000000040000000000010000000000000000001000000000000000008000400000000000000000000000000000000000004000000000000000000000000000800000000000020000000000000000000000002080000000000400000800000000000000000000000000000000020004000000000000000000000000000000024000000000002100001000000002010",
      "type": "0x2",
      "transactionHash": "0x4f1599229c40550ce12ae412a68e7e8efc52cb046b32c6984fee1a71b3fa79f9",
      "transactionIndex": "0x5",
      "blockHash": "0xc13a757bc9c907b22fad918ec4ce1dbc1b478c81f73311dde9bf1a992ec749b5",
      "blockNumber": "0x2ce27b9",
      "gasUsed": "0x6a082",
      "effectiveGasPrice": "0xee72c920",
      "blobGasUsed": "0x1d650",
      "from": "0x91d5e66951c47fbbfafe57c9ff42d45c46b6044c",
      "to": "0xf969aee60879c54baaed9f3ed26147db216fd664",
      "contractAddress": null,
      "daFootprintGasScalar": "0x190",
      "l1BaseFeeScalar": "0x7d0",
      "l1BlobBaseFee": "0x1",
      "l1BlobBaseFeeScalar": "0xdbba0",
      "l1Fee": "0x182",
      "l1GasPrice": "0xc",
      "l1GasUsed": "0x12d3"
    }
  ],
  "libraries": [],
  "pending": [],
  "returns": {},
  "timestamp": 1773917445208,
  "chain": 1301,
  "commit": "29b3163"
}