{
  "transactions": [
    {
      "hash": "0x4f80adceea71b2c43ac2756ee0bec42a00e50095efba509692e28702b0407d97",
      "transactionType": "CALL",
      "contractName": null,
      "contractAddress": "0xf969aee60879c54baaed9f3ed26147db216fd664",
      "function": "modifyLiquidities(bytes,uint256)",
      "arguments": [
        "0x000000000000000000000000000000000000000000000000000000000000004000000000000000000000000000000000000000000000000000000000000000800000000000000000000000000000000000000000000000000000000000000004020d14140000000000000000000000000000000000000000000000000000000000000000000000000000000000000000000000000000000000000000000000040000000000000000000000000000000000000000000000000000000000000080000000000000000000000000000000000000000000000000000000000000024000000000000000000000000000000000000000000000000000000000000002a0000000000000000000000000000000000000000000000000000000000000030000000000000000000000000000000000000000000000000000000000000001a00000000000000000000000007741d178fc2624815d9af3c6554a94f8c3cec4e2000000000000000000000000b1f4d08a487815b9c6f8671c9c953116891af07b0000000000000000000000000000000000000000000000000000000000800000000000000000000000000000000000000000000000000000000000000000003c000000000000000000000000244042445e2f0687b18c8f35566c87e08492cfc0fffffffffffffffffffffffffffffffffffffffffffffffffffffffffff2764c00000000000000000000000000000000000000000000000000000000000d89b400000000000000000000000000000000000000000000003635c9adc5dea00000000000000000000000000000000000000000000000000001215f337b9a10dcf6000000000000000000000000000000000000000000000a27d3528a7c2f83157100000000000000000000000091d5e66951c47fbbfafe57c9ff42d45c46b6044c0000000000000000000000000000000000000000000000000000000000000180000000000000000000000000000000000000000000000000000000000000000000000000000000000000000000000000000000000000000000000000000000400000000000000000000000007741d178fc2624815d9af3c6554a94f8c3cec4e2000000000000000000000000b1f4d08a487815b9c6f8671c9c953116891af07b00000000000000000000000000000000000000000000000000000000000000400000000000000000000000007741d178fc2624815d9af3c6554a94f8c3cec4e200000000000000000000000091d5e66951c47fbbfafe57c9ff42d45c46b6044c0000000000000000000000000000000000000000000000000000000000000040000000000000000000000000b1f4d08a487815b9c6f8671c9c953116891af07b00000000000000000000000091d5e66951c47fbbfafe57c9ff42d45c46b6044c",
        "1773923224"
      ],
      "transaction": {
        "from": "0x91d5e66951c47fbbfafe57c9ff42d45c46b6044c",
        "to": "0xf969aee60879c54baaed9f3ed26147db216fd664",
        "gas": "0xa347c",
        "value": "0x0",
        "input": "0xdd46508f00000000000000000000000000000000000000000000000000000000000000400000000000000000000000000000000000000000000000000000000069bbeb980000000000000000000000000000000000000000000000000000000000000400000000000000000000000000000000000000000000000000000000000000004000000000000000000000000000000000000000000000000000000000000000800000000000000000000000000000000000000000000000000000000000000004020d14140000000000000000000000000000000000000000000000000000000000000000000000000000000000000000000000000000000000000000000000040000000000000000000000000000000000000000000000000000000000000080000000000000000000000000000000000000000000000000000000000000024000000000000000000000000000000000000000000000000000000000000002a0000000000000000000000000000000000000000000000000000000000000030000000000000000000000000000000000000000000000000000000000000001a00000000000000000000000007741d178fc2624815d9af3c6554a94f8c3cec4e2000000000000000000000000b1f4d08a487815b9c6f8671c9c953116891af07b0000000000000000000000000000000000000000000000000000000000800000000000000000000000000000000000000000000000000000000000000000003c000000000000000000000000244042445e2f0687b18c8f35566c87e08492cfc0fffffffffffffffffffffffffffffffffffffffffffffffffffffffffff2764c00000000000000000000000000000000000000000000000000000000000d89b400000000000000000000000000000000000000000000003635c9adc5dea00000000000000000000000000000000000000000000000000001215f337b9a10dcf6000000000000000000000000000000000000000000000a27d3528a7c2f83157100000000000000000000000091d5e66951c47fbbfafe57c9ff42d45c46b6044c0000000000000000000000000000000000000000000000000000000000000180000000000000000000000000000000000000000000000000000000000000000000000000000000000000000000000000000000000000000000000000000000400000000000000000000000007741d178fc2624815d9af3c6554a94f8c3cec4e2000000000000000000000000b1f4d08a487815b9c6f8671c9c953116891af07b00000000000000000000000000000000000000000000000000000000000000400000000000000000000000007741d178fc2624815d9af3c6554a94f8c3cec4e200000000000000000000000091d5e66951c47fbbfafe57c9ff42d45c46b6044c0000000000000000000000000000000000000000000000000000000000000040000000000000000000000000b1f4d08a487815b9c6f8671c9c953116891af07b00000000000000000000000091d5e66951c47fbbfafe57c9ff42d45c46b6044c",
        "nonce": "0x18d",
        "chainId": "0x515"
      },
      "additionalContracts": [],
      "isFixedGasLimit": false
    }
  ],
  "receipts": [
    {
      "status": "0x1",
      "cumulativeGasUsed": "0xc54ad",
      "logs": [
        {
          "address": "0xf969aee60879c54baaed9f3ed26147db216fd664",
          "topics": [
            "0xddf252ad1be2c89b69c2b068fc378daa952ba7f163c4a11628f55a4df523b3ef",
            "0x0000000000000000000000000000000000000000000000000000000000000000",
            "0x00000000000000000000000091d5e66951c47fbbfafe57c9ff42d45c46b6044c",
            "0x0000000000000000000000000000000000000000000000000000000000001c55"
          ],
          "data": "0x",
          "blockHash": "0x6e11063a0f260d4dbb10f22e9dbb9927fccd8c9ccf3f7c721423e7514afd2d1b",
          "blockNumber": "0x2ce3056",
          "blockTimestamp": "0x69bbdda2",
          "transactionHash": "0x4f80adceea71b2c43ac2756ee0bec42a00e50095efba509692e28702b0407d97",
          "transactionIndex": "0x5",
          "logIndex": "0x3",
          "removed": false
        },
        {
          "address": "0x00b036b58a818b1bc34d502d3fe730db729e62ac",
          "topics": [
            "0xf208f4912782fd25c7f114ca3723a2d5dd6f3bcc3ac8db5af63baa85f711d5ec",
            "0x0a771604e4f1dc9b78b806cf55e559bee796bc7c30ae421d7690628044be5abd",
            "0x000000000000000000000000f969aee60879c54baaed9f3ed26147db216fd664"
          ],
          "data": "0xfffffffffffffffffffffffffffffffffffffffffffffffffffffffffff2764c00000000000000000000000000000000000000000000000000000000000d89b400000000000000000000000000000000000000000000003635c9adc5dea000000000000000000000000000000000000000000000000000000000000000001c55",
          "blockHash": "0x6e11063a0f260d4dbb10f22e9dbb9927fccd8c9ccf3f7c721423e7514afd2d1b",
          "blockNumber": "0x2ce3056",
          "blockTimestamp": "0x69bbdda2",
          "transactionHash": "0x4f80adceea71b2c43ac2756ee0bec42a00e50095efba509692e28702b0407d97",
          "transactionIndex": "0x5",
          "logIndex": "0x4",
          "removed": false
        },
        {
          "address": "0x7741d178fc2624815d9af3c6554a94f8c3cec4e2",
          "topics": [
            "0xddf252ad1be2c89b69c2b068fc378daa952ba7f163c4a11628f55a4df523b3ef",
            "0x00000000000000000000000091d5e66951c47fbbfafe57c9ff42d45c46b6044c",
            "0x00000000000000000000000000b036b58a818b1bc34d502d3fe730db729e62ac"
          ],
          "data": "0x000000000000000000000000000000000000000000000001215f337b9a10dcf6",
          "blockHash": "0x6e11063a0f260d4dbb10f22e9dbb9927fccd8c9ccf3f7c721423e7514afd2d1b",
          "blockNumber": "0x2ce3056",
          "blockTimestamp": "0x69bbdda2",
          "transactionHash": "0x4f80adceea71b2c43ac2756ee0bec42a00e50095efba509692e28702b0407d97",
          "transactionIndex": "0x5",
          "logIndex": "0x5",
          "removed": false
        },
        {
          "address": "0xb1f4d08a487815b9c6f8671c9c953116891af07b",
          "topics": [
            "0xddf252ad1be2c89b69c2b068fc378daa952ba7f163c4a11628f55a4df523b3ef",
            "0x00000000000000000000000091d5e66951c47fbbfafe57c9ff42d45c46b6044c",
            "0x00000000000000000000000000b036b58a818b1bc34d502d3fe730db729e62ac"
          ],
          "data": "0x000000000000000000000000000000000000000000000a27d3528a7c2f831571",
          "blockHash": "0x6e11063a0f260d4dbb10f22e9dbb9927fccd8c9ccf3f7c721423e7514afd2d1b",
          "blockNumber": "0x2ce3056",
          "blockTimestamp": "0x69bbdda2",
          "transactionHash": "0x4f80adceea71b2c43ac2756ee0bec42a00e50095efba509692e28702b0407d97",
          "transactionIndex": "0x5",
          "logIndex": "0x6",
          "removed": false
        }
      ],
      "logsBloom": "0x00000000000000000100000000000040000000000000000000000000000000000000000000000000000000000000000018000000801000000000000000000000000000000000000000000008000000000000000000000000000800001000000000000000020000000000000000014800000000000040000000000010000000000000000001000000000000000008000400000000000000000000000000000100000004000000040000000008000000000800000000000020000000000000000000000002080000000000000200000000000000000000000000000000000220004000000000000004000000000000000004000000000002000000200000002010",
      "type": "0x2",
      "transactionHash": "0x4f80adceea71b2c43ac2756ee0bec42a00e50095efba509692e28702b0407d97",
      "transactionIndex": "0x5",
      "blockHash": "0x6e11063a0f260d4dbb10f22e9dbb9927fccd8c9ccf3f7c721423e7514afd2d1b",
      "blockNumber": "0x2ce3056",
      "gasUsed": "0x6fa51",
      "effectiveGasPrice": "0xee72c920",
      "blobGasUsed": "0x1d7e0",
      "from": "0x91d5e66951c47fbbfafe57c9ff42d45c46b6044c",
      "to": "0xf969aee60879c54baaed9f3ed26147db216fd664",
      "contractAddress": null,
      "daFootprintGasScalar": "0x190",
      "l1BaseFeeScalar": "0x7d0",
      "l1BlobBaseFee": "0x1",
      "l1BlobBaseFeeScalar": "0xdbba0",
      "l1Fee": "0x17a",
      "l1GasPrice": "0xb",
      "l1GasUsed": "0x12e0"
    }
  ],
  "libraries": [],
  "pending": [],
  "returns": {},
  "timestamp": 1773919650375,
  "chain": 1301,
  "commit": "29b3163"
}