{
  "transactions": [
    {
      "hash": "0x8feb28d07ecb372f8faa35044cd16d847a54477245413aef6075ed20384e619b",
      "transactionType": "CALL",
      "contractName": null,
      "contractAddress": "0xf969aee60879c54baaed9f3ed26147db216fd664",
      "function": "modifyLiquidities(bytes,uint256)",
      "arguments": [
        "0x000000000000000000000000000000000000000000000000000000000000004000000000000000000000000000000000000000000000000000000000000000800000000000000000000000000000000000000000000000000000000000000004020d14140000000000000000000000000000000000000000000000000000000000000000000000000000000000000000000000000000000000000000000000040000000000000000000000000000000000000000000000000000000000000080000000000000000000000000000000000000000000000000000000000000024000000000000000000000000000000000000000000000000000000000000002a0000000000000000000000000000000000000000000000000000000000000030000000000000000000000000000000000000000000000000000000000000001a00000000000000000000000008e33bfd4e0b22f16029202a2bd55266b2b9f15a1000000000000000000000000c519a28d5c91fb6e87654f638c5563a4941b163b0000000000000000000000000000000000000000000000000000000000800000000000000000000000000000000000000000000000000000000000000000003c00000000000000000000000067086ac389f83b59b664ede50367a43587be4fc0fffffffffffffffffffffffffffffffffffffffffffffffffffffffffff2764c00000000000000000000000000000000000000000000000000000000000d89b400000000000000000000000000000000000000000000003635c9adc5dea00000000000000000000000000000000000000000000000000001215f337b9a10dcf6000000000000000000000000000000000000000000000a27d3528a7c2f83157100000000000000000000000091d5e66951c47fbbfafe57c9ff42d45c46b6044c0000000000000000000000000000000000000000000000000000000000000180000000000000000000000000000000000000000000000000000000000000000000000000000000000000000000000000000000000000000000000000000000400000000000000000000000008e33bfd4e0b22f16029202a2bd55266b2b9f15a1000000000000000000000000c519a28d5c91fb6e87654f638c5563a4941b163b00000000000000000000000000000000000000000000000000000000000000400000000000000000000000008e33bfd4e0b22f16029202a2bd55266b2b9f15a100000000000000000000000091d5e66951c47fbbfafe57c9ff42d45c46b6044c0000000000000000000000000000000000000000000000000000000000000040000000000000000000000000c519a28d5c91fb6e87654f638c5563a4941b163b00000000000000000000000091d5e66951c47fbbfafe57c9ff42d45c46b6044c",
        "1773902146"
      ],
      "transaction": {
        "from": "0x91d5e66951c47fbbfafe57c9ff42d45c46b6044c",
        "to": "0xf969aee60879c54baaed9f3ed26147db216fd664",
        "gas": "0x9ff9b",
        "value": "0x0",
        "input": "0xdd46508f00000000000000000000000000000000000000000000000000000000000000400000000000000000000000000000000000000000000000000000000069bb99420000000000000000000000000000000000000000000000000000000000000400000000000000000000000000000000000000000000000000000000000000004000000000000000000000000000000000000000000000000000000000000000800000000000000000000000000000000000000000000000000000000000000004020d14140000000000000000000000000000000000000000000000000000000000000000000000000000000000000000000000000000000000000000000000040000000000000000000000000000000000000000000000000000000000000080000000000000000000000000000000000000000000000000000000000000024000000000000000000000000000000000000000000000000000000000000002a0000000000000000000000000000000000000000000000000000000000000030000000000000000000000000000000000000000000000000000000000000001a00000000000000000000000008e33bfd4e0b22f16029202a2bd55266b2b9f15a1000000000000000000000000c519a28d5c91fb6e87654f638c5563a4941b163b0000000000000000000000000000000000000000000000000000000000800000000000000000000000000000000000000000000000000000000000000000003c00000000000000000000000067086ac389f83b59b664ede50367a43587be4fc0fffffffffffffffffffffffffffffffffffffffffffffffffffffffffff2764c00000000000000000000000000000000000000000000000000000000000d89b400000000000000000000000000000000000000000000003635c9adc5dea00000000000000000000000000000000000000000000000000001215f337b9a10dcf6000000000000000000000000000000000000000000000a27d3528a7c2f83157100000000000000000000000091d5e66951c47fbbfafe57c9ff42d45c46b6044c0000000000000000000000000000000000000000000000000000000000000180000000000000000000000000000000000000000000000000000000000000000000000000000000000000000000000000000000000000000000000000000000400000000000000000000000008e33bfd4e0b22f16029202a2bd55266b2b9f15a1000000000000000000000000c519a28d5c91fb6e87654f638c5563a4941b163b00000000000000000000000000000000000000000000000000000000000000400000000000000000000000008e33bfd4e0b22f16029202a2bd55266b2b9f15a100000000000000000000000091d5e66951c47fbbfafe57c9ff42d45c46b6044c0000000000000000000000000000000000000000000000000000000000000040000000000000000000000000c519a28d5c91fb6e87654f638c5563a4941b163b00000000000000000000000091d5e66951c47fbbfafe57c9ff42d45c46b6044c",
        "nonce": "0x13e",
        "chainId": "0x515"
      },
      "additionalContracts": [],
      "isFixedGasLimit": false
    }
  ],
  "receipts": [
    {
      "status": "0x1",
      "cumulativeGasUsed": "0x9b715",
      "logs": [
        {
          "address": "0xf969aee60879c54baaed9f3ed26147db216fd664",
          "topics": [
            "0xddf252ad1be2c89b69c2b068fc378daa952ba7f163c4a11628f55a4df523b3ef",
            "0x0000000000000000000000000000000000000000000000000000000000000000",
            "0x00000000000000000000000091d5e66951c47fbbfafe57c9ff42d45c46b6044c",
            "0x0000000000000000000000000000000000000000000000000000000000001c4f"
          ],
          "data": "0x",
          "blockHash": "0x582420e7c59cd44d86a366dcbbf7413468e15fc9c9a4b7b8976c567f6c31f262",
          "blockNumber": "0x2cdddfd",
          "blockTimestamp": "0x69bb8b49",
          "transactionHash": "0x8feb28d07ecb372f8faa35044cd16d847a54477245413aef6075ed20384e619b",
          "transactionIndex": "0x3",
          "logIndex": "0x1",
          "removed": false
        },
        {
          "address": "0x00b036b58a818b1bc34d502d3fe730db729e62ac",
          "topics": [
            "0xf208f4912782fd25c7f114ca3723a2d5dd6f3bcc3ac8db5af63baa85f711d5ec",
            "0x2a58d213d5e8751e24cfdc2a67336c67cc7d917cb255062162374bc359d9140c",
            "0x000000000000000000000000f969aee60879c54baaed9f3ed26147db216fd664"
          ],
          "data": "0xfffffffffffffffffffffffffffffffffffffffffffffffffffffffffff2764c00000000000000000000000000000000000000000000000000000000000d89b400000000000000000000000000000000000000000000003635c9adc5dea000000000000000000000000000000000000000000000000000000000000000001c4f",
          "blockHash": "0x582420e7c59cd44d86a366dcbbf7413468e15fc9c9a4b7b8976c567f6c31f262",
          "blockNumber": "0x2cdddfd",
          "blockTimestamp": "0x69bb8b49",
          "transactionHash": "0x8feb28d07ecb372f8faa35044cd16d847a54477245413aef6075ed20384e619b",
          "transactionIndex": "0x3",
          "logIndex": "0x2",
          "removed": false
        },
        {
          "address": "0x8e33bfd4e0b22f16029202a2bd55266b2b9f15a1",
          "topics": [
            "0xddf252ad1be2c89b69c2b068fc378daa952ba7f163c4a11628f55a4df523b3ef",
            "0x00000000000000000000000091d5e66951c47fbbfafe57c9ff42d45c46b6044c",
            "0x00000000000000000000000000b036b58a818b1bc34d502d3fe730db729e62ac"
          ],
          "data": "0x000000000000000000000000000000000000000000000001215f337b9a10dcf6",
          "blockHash": "0x582420e7c59cd44d86a366dcbbf7413468e15fc9c9a4b7b8976c567f6c31f262",
          "blockNumber": "0x2cdddfd",
          "blockTimestamp": "0x69bb8b49",
          "transactionHash": "0x8feb28d07ecb372f8faa35044cd16d847a54477245413aef6075ed20384e619b",
          "transactionIndex": "0x3",
          "logIndex": "0x3",
          "removed": false
        },
        {
          "address": "0xc519a28d5c91fb6e87654f638c5563a4941b163b",
          "topics": [
            "0xddf252ad1be2c89b69c2b068fc378daa952ba7f163c4a11628f55a4df523b3ef",
            "0x00000000000000000000000091d5e66951c47fbbfafe57c9ff42d45c46b6044c",
            "0x00000000000000000000000000b036b58a818b1bc34d502d3fe730db729e62ac"
          ],
          "data": "0x000000000000000000000000000000000000000000000a27d3528a7c2f831571",
          "blockHash": "0x582420e7c59cd44d86a366dcbbf7413468e15fc9c9a4b7b8976c567f6c31f262",
          "blockNumber": "0x2cdddfd",
          "blockTimestamp": "0x69bb8b49",
          "transactionHash": "0x8feb28d07ecb372f8faa35044cd16d847a54477245413aef6075ed20384e619b",
          "transactionIndex": "0x3",
          "logIndex": "0x4",
          "removed": false
        }
      ],
      "logsBloom": "0x00000000000000000000000000000000000010000000000000000100000004000000000000000000000000000000000008000000801000000800000000000000000000000000000000000008000000000000000000000000000000001000000000000000020000000000000000004800000000000040000000000010000000000000000001000000000000000008000400000000000000000000000000800000000004000000000000000000000002000800000000000020000000000000000000000002080000000000400000000000000000000000000000000000000020004000080000001000000000000000000024000000000002100001000000002010",
      "type": "0x2",
      "transactionHash": "0x8feb28d07ecb372f8faa35044cd16d847a54477245413aef6075ed20384e619b",
      "transactionIndex": "0x3",
      "blockHash": "0x582420e7c59cd44d86a366dcbbf7413468e15fc9c9a4b7b8976c567f6c31f262",
      "blockNumber": "0x2cdddfd",
      "gasUsed": "0x73d1d",
      "effectiveGasPrice": "0xee72c920",
      "blobGasUsed": "0x1d7e0",
      "from": "0x91d5e66951c47fbbfafe57c9ff42d45c46b6044c",
      "to": "0xf969aee60879c54baaed9f3ed26147db216fd664",
      "contractAddress": null,
      "daFootprintGasScalar": "0x190",
      "l1BaseFeeScalar": "0x7d0",
      "l1BlobBaseFee": "0x1",
      "l1BlobBaseFeeScalar": "0xdbba0",
      "l1Fee": "0x15d",
      "l1GasPrice": "0x8",
      "l1GasUsed": "0x12e0"
    }
  ],
  "libraries": [],
  "pending": [],
  "returns": {},
  "timestamp": 1773898570666,
  "chain": 1301,
  "commit": "29b3163"
}