{
  "transactions": [
    {
      "hash": "0x627f8607a2dc5d94081cd69829959f3bc22807174ef677178ee43d03d05a37a2",
      "transactionType": "CALL",
      "contractName": null,
      "contractAddress": "0x8d8d238ac27859a61debeeca4bbd4a4598cbbf8d",
      "function": "withdraw(uint256)",
      "arguments": [
        "999999999"
      ],
      "transaction": {
        "from": "0x91d5e66951c47fbbfafe57c9ff42d45c46b6044c",
        "to": "0x8d8d238ac27859a61debeeca4bbd4a4598cbbf8d",
        "gas": "0x273eb",
        "value": "0x0",
        "input": "0x2e1a7d4d000000000000000000000000000000000000000000000000000000003b9ac9ff",
        "nonce": "0x7d",
        "chainId": "0x515"
      },
      "additionalContracts": [],
      "isFixedGasLimit": false
    }
  ],
  "receipts": [
    {
      "status": "0x1",
      "cumulativeGasUsed": "0x59783",
      "logs": [
        {
          "address": "0x31d0220469e10c4e71834a79b1f276d740d3768f",
          "topics": [
            "0xddf252ad1be2c89b69c2b068fc378daa952ba7f163c4a11628f55a4df523b3ef",
            "0x0000000000000000000000008d8d238ac27859a61debeeca4bbd4a4598cbbf8d",
            "0x00000000000000000000000091d5e66951c47fbbfafe57c9ff42d45c46b6044c"
          ],
          "data": "0x000000000000000000000000000000000000000000000000000000003b9ac9ff",
          "blockHash": "0x7814278e80a91455049c59637c25727d3e71cc4b52e350a24c993f48b3098876",
          "blockNumber": "0x2cdcc1c",
          "blockTimestamp": "0x69bb7968",
          "transactionHash": "0x627f8607a2dc5d94081cd69829959f3bc22807174ef677178ee43d03d05a37a2",
          "transactionIndex": "0x4",
          "logIndex": "0x2",
          "removed": false
        },
        {
          "address": "0x8d8d238ac27859a61debeeca4bbd4a4598cbbf8d",
          "topics": [
            "0x7084f5476618d8e60b11ef0d7d3f06914655adb8793e28ff7f018d4c76d505d5",
            "0x00000000000000000000000091d5e66951c47fbbfafe57c9ff42d45c46b6044c"
          ],
          "data": "0x000000000000000000000000000000000000000000000000000000003b9ac9ff",
          "blockHash": "0x7814278e80a91455049c59637c25727d3e71cc4b52e350a24c993f48b3098876",
          "blockNumber": "0x2cdcc1c",
          "blockTimestamp": "0x69bb7968",
          "transactionHash": "0x627f8607a2dc5d94081cd69829959f3bc22807174ef677178ee43d03d05a37a2",
          "transactionIndex": "0x4",
          "logIndex": "0x3",
          "removed": false
        },
        {
          "address": "0x8d8d238ac27859a61debeeca4bbd4a4598cbbf8d",
          "topics": [
            "0xe004e1007b4aba41a2a9fb673c2e9acbadc4eca1ef6f9f2a81c3d90d8622d47f",
            "0x00000000000000000000000091d5e66951c47fbbfafe57c9ff42d45c46b6044c"
          ],
          "data": "0x00000000000000000000000000000000000000000000000000000000000000000000000000000000000000000000000000000000000000000000000000000000",
          "blockHash": "0x7814278e80a91455049c59637c25727d3e71cc4b52e350a24c993f48b3098876",
          "blockNumber": "0x2cdcc1c",
          "blockTimestamp": "0x69bb7968",
          "transactionHash": "0x627f8607a2dc5d94081cd69829959f3bc22807174ef677178ee43d03d05a37a2",
          "transactionIndex": "0x4",
          "logIndex": "0x4",
          "removed": false
        }
      ],
      "logsBloom": "0x00000000000000008000000000000000000000000000000000000002000000000000400000000000000000000000000008000000800000000000000000000000000000000000000000000008000000001000000000001004000000000000000000000000000000000000008000000000000000000000000000000010000000000000000000000000000100000000000400000000000000000000000000000000000000000001000080000000000000000000000000000000000000400800000000000002000200000001000000000000000000000000000000000080000000000000000000000000000000000000000000000000000000000000000000000000",
      "type": "0x2",
      "transactionHash": "0x627f8607a2dc5d94081cd69829959f3bc22807174ef677178ee43d03d05a37a2",
      "transactionIndex": "0x4",
      "blockHash": "0x7814278e80a91455049c59637c25727d3e71cc4b52e350a24c993f48b3098876",
      "blockNumber": "0x2cdcc1c",
      "gasUsed": "0x1ad59",
      "effectiveGasPrice": "0x773d3520",
      "blobGasUsed": "0x9c40",
      "from": "0x91d5e66951c47fbbfafe57c9ff42d45c46b6044c",
      "to": "0x8d8d238ac27859a61debeeca4bbd4a4598cbbf8d",
      "contractAddress": null,
      "daFootprintGasScalar": "0x190",
      "l1BaseFeeScalar": "0x7d0",
      "l1BlobBaseFee": "0x1",
      "l1BlobBaseFeeScalar": "0xdbba0",
      "l1Fee": "0x7a",
      "l1GasPrice": "0xa",
      "l1GasUsed": "0x640"
    }
  ],
  "libraries": [],
  "pending": [],
  "returns": {},
  "timestamp": 1773893992548,
  "chain": 1301,
  "commit": "29b3163"
}