{
  "transactions": [
    {
      "hash": "0x7d0261e4f2e4f2ebc311aec770ea49d9e56e9db092e00fc53eaef14078768694",
      "transactionType": "CALL",
      "contractName": null,
      "contractAddress": "0x00b036b58a818b1bc34d502d3fe730db729e62ac",
      "function": "initialize((address,address,uint24,int24,address),uint160)",
      "arguments": [
        "(0x8E33bfD4E0b22F16029202a2Bd55266B2B9f15a1, 0xC519A28d5c91fB6E87654f638C5563A4941b163b, 8388608, 60, 0x67086aC389F83B59b664eDe50367a43587BE4fc0)",
        "3799649193200520420489001079519"
      ],
      "transaction": {
        "from": "0x91d5e66951c47fbbfafe57c9ff42d45c46b6044c",
        "to": "0x00b036b58a818b1bc34d502d3fe730db729e62ac",
        "gas": "0x113fb",
        "value": "0x0",
        "input": "0x6276cbbe0000000000000000000000008e33bfd4e0b22f16029202a2bd55266b2b9f15a1000000000000000000000000c519a28d5c91fb6e87654f638c5563a4941b163b0000000000000000000000000000000000000000000000000000000000800000000000000000000000000000000000000000000000000000000000000000003c00000000000000000000000067086ac389f83b59b664ede50367a43587be4fc0000000000000000000000000000000000000002ff55425a98a3834790a7e92df",
        "nonce": "0x13c",
        "chainId": "0x515"
      },
      "additionalContracts": [],
      "isFixedGasLimit": false
    },
    {
      "hash": "0x1d66a80d107d0b1555c09c5e5292504c3884ac3e16cbc722fbd51358ad4fe576",
      "transactionType": "CALL",
      "contractName": null,
      "contractAddress": "0x00b036b58a818b1bc34d502d3fe730db729e62ac",
      "function": "initialize((address,address,uint24,int24,address),uint160)",
      "arguments": [
        "(0x0000000000000000000000000000000000000000, 0x31d0220469e10c4E71834a79b1f276d740d3768F, 8388608, 60, 0x67086aC389F83B59b664eDe50367a43587BE4fc0)",
        "3799649193200520420489001"
      ],
      "transaction": {
        "from": "0x91d5e66951c47fbbfafe57c9ff42d45c46b6044c",
        "to": "0x00b036b58a818b1bc34d502d3fe730db729e62ac",
        "gas": "0x1272a",
        "value": "0x0",
        "input": "0x6276cbbe000000000000000000000000000000000000000000000000000000000000000000000000000000000000000031d0220469e10c4e71834a79b1f276d740d3768f0000000000000000000000000000000000000000000000000000000000800000000000000000000000000000000000000000000000000000000000000000003c00000000000000000000000067086ac389f83b59b664ede50367a43587be4fc000000000000000000000000000000000000000000003249b653f53a79af97729",
        "nonce": "0x13d",
        "chainId": "0x515"
      },
      "additionalContracts": [],
      "isFixedGasLimit": false
    }
  ],
  "receipts": [
    {
      "status": "0x1",
      "cumulativeGasUsed": "0x68862",
      "logs": [
        {
          "address": "0x00b036b58a818b1bc34d502d3fe730db729e62ac",
          "topics": [
            "0xdd466e674ea557f56295e2d0218a125ea4b4f0f6f3307b95f85e6110838d6438",
            "0x2a58d213d5e8751e24cfdc2a67336c67cc7d917cb255062162374bc359d9140c",
            "0x0000000000000000000000008e33bfd4e0b22f16029202a2bd55266b2b9f15a1",
            "0x000000000000000000000000c519a28d5c91fb6e87654f638c5563a4941b163b"
          ],
          "data": "0x0000000000000000000000000000000000000000000000000000000000800000000000000000000000000000000000000000000000000000000000000000003c00000000000000000000000067086ac389f83b59b664ede50367a43587be4fc0000000000000000000000000000000000000002ff55425a98a3834790a7e92df0000000000000000000000000000000000000000000000000000000000012e62",
          "blockHash": "0x868835eec91c53fc72a0f9a36c1ed489f1037ceb4e452d3ad364933142bc76ea",
          "blockNumber": "0x2cddddf",
          "blockTimestamp": "0x69bb8b2b",
          "transactionHash": "0x7d0261e4f2e4f2ebc311aec770ea49d9e56e9db092e00fc53eaef14078768694",
          "transactionIndex": "0x5",
          "logIndex": "0x9",
          "removed": false
        }
      ],
      "logsBloom": "0x00000000000000000000000000000000000000000000000000000000000000000000000000000000000000000000000000000000000000000000000000000000100040000000000000000000000000040000000000000000000000000000000000000000000000000020080000000000000000000000000000000000000000000000000000000008000000000008000000000001000000000000000000200000000000000000000000000000000002000000000000000000000000000000040000000000000000000000000000000000000000000000000000000000000000000000080000001000000000000000000000000000000002000000000000000010",
      "type": "0x2",
      "transactionHash": "0x7d0261e4f2e4f2ebc311aec770ea49d9e56e9db092e00fc53eaef14078768694",
      "transactionIndex": "0x5",
      "blockHash": "0x868835eec91c53fc72a0f9a36c1ed489f1037ceb4e452d3ad364933142bc76ea",
      "blockNumber": "0x2cddddf",
      "gasUsed": "0xc7cf",
      "effectiveGasPrice": "0xee72c920",
      "blobGasUsed": "0xed80",
      "from": "0x91d5e66951c47fbbfafe57c9ff42d45c46b6044c",
      "to": "0x00b036b58a818b1bc34d502d3fe730db729e62ac",
      "contractAddress": null,
      "daFootprintGasScalar": "0x190",
      "l1BaseFeeScalar": "0x7d0",
      "l1BlobBaseFee": "0x1",
      "l1BlobBaseFeeScalar": "0xdbba0",
      "l1Fee": "0xb0",
      "l1GasPrice": "0x8",
      "l1GasUsed": "0x985"
    },
    {
      "status": "0x1",
      "cumulativeGasUsed": "0x8c24f",
      "logs": [
        {
          "address": "0x00b036b58a818b1bc34d502d3fe730db729e62ac",
          "topics": [
            "0xdd466e674ea557f56295e2d0218a125ea4b4f0f6f3307b95f85e6110838d6438",
            "0x1178727c39aee97314713b0a2d4d6eb6b1579e243af4fbf272b78b73374ba853",
            "0x0000000000000000000000000000000000000000000000000000000000000000",
            "0x00000000000000000000000031d0220469e10c4e71834a79b1f276d740d3768f"
          ],
          "data": "0x0000000000000000000000000000000000000000000000000000000000800000000000000000000000000000000000000000000000000000000000000000003c00000000000000000000000067086ac389f83b59b664ede50367a43587be4fc000000000000000000000000000000000000000000003249b653f53a79af97729fffffffffffffffffffffffffffffffffffffffffffffffffffffffffffcf6fe",
          "blockHash": "0x868835eec91c53fc72a0f9a36c1ed489f1037ceb4e452d3ad364933142bc76ea",
          "blockNumber": "0x2cddddf",
          "blockTimestamp": "0x69bb8b2b",
          "transactionHash": "0x1d66a80d107d0b1555c09c5e5292504c3884ac3e16cbc722fbd51358ad4fe576",
          "transactionIndex": "0x7",
          "logIndex": "0xb",
          "removed": false
        }
      ],
      "logsBloom": "0x00000000000000000000000000000000000000000000000000000000000000000000000000000080000000000000000000000000000000000000000000000000000000000000000000000000000000000000000000000000000000000000000000000000020000020000000000000800000000000000000000000000000000000000000000000008000000000008000000000001000000000000000000200000000000000000000000000000000000000000000000000000000000000000000000000000000000008000000000000000000200000000000000000000000020000000000000001000000000000000000000000000000002000000000000040010",
      "type": "0x2",
      "transactionHash": "0x1d66a80d107d0b1555c09c5e5292504c3884ac3e16cbc722fbd51358ad4fe576",
      "transactionIndex": "0x7",
      "blockHash": "0x868835eec91c53fc72a0f9a36c1ed489f1037ceb4e452d3ad364933142bc76ea",
      "blockNumber": "0x2cddddf",
      "gasUsed": "0xc9d3",
      "effectiveGasPrice": "0xee72c920",
      "blobGasUsed": "0xc800",
      "from": "0x91d5e66951c47fbbfafe57c9ff42d45c46b6044c",
      "to": "0x00b036b58a818b1bc34d502d3fe730db729e62ac",
      "contractAddress": null,
      "daFootprintGasScalar": "0x190",
      "l1BaseFeeScalar": "0x7d0",
      "l1BlobBaseFee": "0x1",
      "l1BlobBaseFeeScalar": "0xdbba0",
      "l1Fee": "0x94",
      "l1GasPrice": "0x8",
      "l1GasUsed": "0x800"
    }
  ],
  "libraries": [],
  "pending": [],
  "returns": {},
  "timestamp": 1773898539216,
  "chain": 1301,
  "commit": "29b3163"
}