{
  "transactions": [
    {
      "hash": "0x32e4dcbeb0e7f559554a5816806fa847bbd28f5755754be6cf69f1b674214438",
      "transactionType": "CALL",
      "contractName": null,
      "contractAddress": "0x00b036b58a818b1bc34d502d3fe730db729e62ac",
      "function": "initialize((address,address,uint24,int24,address),uint160)",
      "arguments": [
        "(0x8E33bfD4E0b22F16029202a2Bd55266B2B9f15a1, 0xC519A28d5c91fB6E87654f638C5563A4941b163b, 8388608, 60, 0x244042445E2F0687b18c8f35566C87E08492cfC0)",
        "1652021388348052026330070625"
      ],
      "transaction": {
        "from": "0x91d5e66951c47fbbfafe57c9ff42d45c46b6044c",
        "to": "0x00b036b58a818b1bc34d502d3fe730db729e62ac",
        "gas": "0x1243c",
        "value": "0x0",
        "input": "0x6276cbbe0000000000000000000000008e33bfd4e0b22f16029202a2bd55266b2b9f15a1000000000000000000000000c519a28d5c91fb6e87654f638c5563a4941b163b0000000000000000000000000000000000000000000000000000000000800000000000000000000000000000000000000000000000000000000000000000003c000000000000000000000000244042445e2f0687b18c8f35566c87e08492cfc0000000000000000000000000000000000000000005568522e9771e713b723e61",
        "nonce": "0x186",
        "chainId": "0x515"
      },
      "additionalContracts": [],
      "isFixedGasLimit": false
    },
    {
      "hash": "0xd457b2d150741de090d09f2d1561059ae6fd2480224b9884f0c907072aba0170",
      "transactionType": "CALL",
      "contractName": null,
      "contractAddress": "0x00b036b58a818b1bc34d502d3fe730db729e62ac",
      "function": "initialize((address,address,uint24,int24,address),uint160)",
      "arguments": [
        "(0x0000000000000000000000000000000000000000, 0x31d0220469e10c4E71834a79b1f276d740d3768F, 8388608, 60, 0x244042445E2F0687b18c8f35566C87E08492cfC0)",
        "3799649193200520420489001"
      ],
      "transaction": {
        "from": "0x91d5e66951c47fbbfafe57c9ff42d45c46b6044c",
        "to": "0x00b036b58a818b1bc34d502d3fe730db729e62ac",
        "gas": "0x1272a",
        "value": "0x0",
        "input": "0x6276cbbe000000000000000000000000000000000000000000000000000000000000000000000000000000000000000031d0220469e10c4e71834a79b1f276d740d3768f0000000000000000000000000000000000000000000000000000000000800000000000000000000000000000000000000000000000000000000000000000003c000000000000000000000000244042445e2f0687b18c8f35566c87e08492cfc000000000000000000000000000000000000000000003249b653f53a79af97729",
        "nonce": "0x187",
        "chainId": "0x515"
      },
      "additionalContracts": [],
      "isFixedGasLimit": false
    }
  ],
  "receipts": [
    {
      "status": "0x1",
      "cumulativeGasUsed": "0xf69a2",
      "logs": [
        {
          "address": "0x00b036b58a818b1bc34d502d3fe730db729e62ac",
          "topics": [
            "0xdd466e674ea557f56295e2d0218a125ea4b4f0f6f3307b95f85e6110838d6438",
            "0x00010e337dcac8db2dbf7f0c6eaae56b581fbb3415b9271b173739c06c7db7f5",
            "0x0000000000000000000000008e33bfd4e0b22f16029202a2bd55266b2b9f15a1",
            "0x000000000000000000000000c519a28d5c91fb6e87654f638c5563a4941b163b"
          ],
          "data": "0x0000000000000000000000000000000000000000000000000000000000800000000000000000000000000000000000000000000000000000000000000000003c000000000000000000000000244042445e2f0687b18c8f35566c87e08492cfc0000000000000000000000000000000000000000005568522e9771e713b723e61fffffffffffffffffffffffffffffffffffffffffffffffffffffffffffed19d",
          "blockHash": "0xb5716b64add7824898f4963076f9dd2db5eced2fd423fdee3f0051ff281ceb0a",
          "blockNumber": "0x2ce2790",
          "blockTimestamp": "0x69bbd4dc",
          "transactionHash": "0xd457b2d150741de090d09f2d1561059ae6fd2480224b9884f0c907072aba0170",
          "transactionIndex": "0x7",
          "logIndex": "0xb",
          "removed": false
        }
      ],
      "logsBloom": "0x00000000000000000000000000000000000000000000000000000010000000000000000000000000000000000000000000000000000000020000000000000000100040000000000000000000000000040008000000000000000000000000000000000000000000000020080000000000000000000000000000000000000000000000000000000008000000000008000000000001000000000000000000200000000000000000000000000000000000000000000000000000000000000000040000000000000000000000000000000000000000000000000000000000000000000000000000000000000000000000000000000000000002000000000000000010",
      "type": "0x2",
      "transactionHash": "0xd457b2d150741de090d09f2d1561059ae6fd2480224b9884f0c907072aba0170",
      "transactionIndex": "0x7",
      "blockHash": "0xb5716b64add7824898f4963076f9dd2db5eced2fd423fdee3f0051ff281ceb0a",
      "blockNumber": "0x2ce2790",
      "gasUsed": "0xc7d2",
      "effectiveGasPrice": "0xee72c920",
      "blobGasUsed": "0xebf0",
      "from": "0x91d5e66951c47fbbfafe57c9ff42d45c46b6044c",
      "to": "0x00b036b58a818b1bc34d502d3fe730db729e62ac",
      "contractAddress": null,
      "daFootprintGasScalar": "0x190",
      "l1BaseFeeScalar": "0x7d0",
      "l1BlobBaseFee": "0x1",
      "l1BlobBaseFeeScalar": "0xdbba0",
      "l1Fee": "0xc2",
      "l1GasPrice": "0xc",
      "l1GasUsed": "0x977"
    },
    {
      "status": "0x1",
      "cumulativeGasUsed": "0x103375",
      "logs": [
        {
          "address": "0x00b036b58a818b1bc34d502d3fe730db729e62ac",
          "topics": [
            "0xdd466e674ea557f56295e2d0218a125ea4b4f0f6f3307b95f85e6110838d6438",
            "0x77274777d9ccf2991da906b9a448b742a0772c7a5ee28be546a9cf11a0e8cb09",
            "0x0000000000000000000000000000000000000000000000000000000000000000",
            "0x00000000000000000000000031d0220469e10c4e71834a79b1f276d740d3768f"
          ],
          "data": "0x0000000000000000000000000000000000000000000000000000000000800000000000000000000000000000000000000000000000000000000000000000003c000000000000000000000000244042445e2f0687b18c8f35566c87e08492cfc000000000000000000000000000000000000000000003249b653f53a79af97729fffffffffffffffffffffffffffffffffffffffffffffffffffffffffffcf6fe",
          "blockHash": "0xb5716b64add7824898f4963076f9dd2db5eced2fd423fdee3f0051ff281ceb0a",
          "blockNumber": "0x2ce2790",
          "blockTimestamp": "0x69bbd4dc",
          "transactionHash": "0x32e4dcbeb0e7f559554a5816806fa847bbd28f5755754be6cf69f1b674214438",
          "transactionIndex": "0x8",
          "logIndex": "0xc",
          "removed": false
        }
      ],
      "logsBloom": "0x00000000000000000000000000000000000000000000000000000000000000000000000000000080000000000000000000000000000000000000000000000000000000000000000000000000000000000000000000000000000000000000000000000000020000000000000000000800000000000000000000000000000000000000000000000008000000000008000000000001000000000001000000200000000000000800000000000000000000000000000000000000000000000000000000000000000000008000000000000000000000000000000000000000000020000000000000001000000000000000000000000200000002000000000000000010",
      "type": "0x2",
      "transactionHash": "0x32e4dcbeb0e7f559554a5816806fa847bbd28f5755754be6cf69f1b674214438",
      "transactionIndex": "0x8",
      "blockHash": "0xb5716b64add7824898f4963076f9dd2db5eced2fd423fdee3f0051ff281ceb0a",
      "blockNumber": "0x2ce2790",
      "gasUsed": "0xc9d3",
      "effectiveGasPrice": "0xee72c920",
      "blobGasUsed": "0xc800",
      "from": "0x91d5e66951c47fbbfafe57c9ff42d45c46b6044c",
      "to": "0x00b036b58a818b1bc34d502d3fe730db729e62ac",
      "contractAddress": null,
      "daFootprintGasScalar": "0x190",
      "l1BaseFeeScalar": "0x7d0",
      "l1BlobBaseFee": "0x1",
      "l1BlobBaseFeeScalar": "0xdbba0",
      "l1Fee": "0xa4",
      "l1GasPrice": "0xc",
      "l1GasUsed": "0x800"
    }
  ],
  "libraries": [],
  "pending": [],
  "returns": {},
  "timestamp": 1773917404596,
  "chain": 1301,
  "commit": "29b3163"
}