{
  "transactions": [
    {
      "hash": "0xe3ecd2a1d56d6ef83519f53e83a57880feb5a5e6a718f4ca2b7e66f7ad678e7e",
      "transactionType": "CALL",
      "contractName": null,
      "contractAddress": "0x00b036b58a818b1bc34d502d3fe730db729e62ac",
      "function": "initialize((address,address,uint24,int24,address),uint160)",
      "arguments": [
        "(0x15207845fBF12Ec6dCe838141cbfe7FdfDEd1281, 0xa155C64e596B95799E90395C55d7BB9582E7F571, 8388608, 60, 0xAB680fAff2fb5EDd44E7dF8b4a3d698ac6b70fC0)",
        "1652021388348052026330070625"
      ],
      "transaction": {
        "from": "0x91d5e66951c47fbbfafe57c9ff42d45c46b6044c",
        "to": "0x00b036b58a818b1bc34d502d3fe730db729e62ac",
        "gas": "0x1243c",
        "value": "0x0",
        "input": "0x6276cbbe00000000000000000000000015207845fbf12ec6dce838141cbfe7fdfded1281000000000000000000000000a155c64e596b95799e90395c55d7bb9582e7f5710000000000000000000000000000000000000000000000000000000000800000000000000000000000000000000000000000000000000000000000000000003c000000000000000000000000ab680faff2fb5edd44e7df8b4a3d698ac6b70fc0000000000000000000000000000000000000000005568522e9771e713b723e61",
        "nonce": "0x1d2",
        "chainId": "0x515"
      },
      "additionalContracts": [],
      "isFixedGasLimit": false
    },
    {
      "hash": "0x6b174a0ae55055ba1d04b2cb53e90049e90887d970df13e86184c485de4a02c9",
      "transactionType": "CALL",
      "contractName": null,
      "contractAddress": "0x00b036b58a818b1bc34d502d3fe730db729e62ac",
      "function": "initialize((address,address,uint24,int24,address),uint160)",
      "arguments": [
        "(0x0000000000000000000000000000000000000000, 0x31d0220469e10c4E71834a79b1f276d740d3768F, 8388608, 60, 0xAB680fAff2fb5EDd44E7dF8b4a3d698ac6b70fC0)",
        "3799649193200520420489001"
      ],
      "transaction": {
        "from": "0x91d5e66951c47fbbfafe57c9ff42d45c46b6044c",
        "to": "0x00b036b58a818b1bc34d502d3fe730db729e62ac",
        "gas": "0x1272a",
        "value": "0x0",
        "input": "0x6276cbbe000000000000000000000000000000000000000000000000000000000000000000000000000000000000000031d0220469e10c4e71834a79b1f276d740d3768f0000000000000000000000000000000000000000000000000000000000800000000000000000000000000000000000000000000000000000000000000000003c000000000000000000000000ab680faff2fb5edd44e7df8b4a3d698ac6b70fc000000000000000000000000000000000000000000003249b653f53a79af97729",
        "nonce": "0x1d3",
        "chainId": "0x515"
      },
      "additionalContracts": [],
      "isFixedGasLimit": false
    }
  ],
  "receipts": [
    {
      "status": "0x1",
      "cumulativeGasUsed": "0x341be",
      "logs": [
        {
          "address": "0x00b036b58a818b1bc34d502d3fe730db729e62ac",
          "topics": [
            "0xdd466e674ea557f56295e2d0218a125ea4b4f0f6f3307b95f85e6110838d6438",
            "0x4e82dc2cc7239fb3406e96fae6a8841a1625320d59f33237e732d48b7a0de46d",
            "0x00000000000000000000000015207845fbf12ec6dce838141cbfe7fdfded1281",
            "0x000000000000000000000000a155c64e596b95799e90395c55d7bb9582e7f571"
          ],
          "data": "0x0000000000000000000000000000000000000000000000000000000000800000000000000000000000000000000000000000000000000000000000000000003c000000000000000000000000ab680faff2fb5edd44e7df8b4a3d698ac6b70fc0000000000000000000000000000000000000000005568522e9771e713b723e61fffffffffffffffffffffffffffffffffffffffffffffffffffffffffffed19d",
          "blockHash": "0xd4121b99ac14fb1918616ce49485c8380f8387c0d20b11cdf8a9ff5f7fd7ad3f",
          "blockNumber": "0x2ce7395",
          "blockTimestamp": "0x69bc20e1",
          "transactionHash": "0x6b174a0ae55055ba1d04b2cb53e90049e90887d970df13e86184c485de4a02c9",
          "transactionIndex": "0x3",
          "logIndex": "0x1",
          "removed": false
        }
      ],
      "logsBloom": "0x00000000000000000000200000000000000000000000000000000000000000000000000000000000000000000000000000000000000000000000000000000000000000000000000000000000000000000000040000000000000000000000000000008000000000000000000000000000000000040000020000000000000000000000000000000008000000000008000000001001000000000000000000200000000000000000000000000000000400000000000000000000000000000000000000000000000000000000000000000000000000000000000000000000000000000000000000000000000000200000000000000000000002000008000000000010",
      "type": "0x2",
      "transactionHash": "0x6b174a0ae55055ba1d04b2cb53e90049e90887d970df13e86184c485de4a02c9",
      "transactionIndex": "0x3",
      "blockHash": "0xd4121b99ac14fb1918616ce49485c8380f8387c0d20b11cdf8a9ff5f7fd7ad3f",
      "blockNumber": "0x2ce7395",
      "gasUsed": "0xc7d2",
      "effectiveGasPrice": "0xee72c920",
      "blobGasUsed": "0xebf0",
      "from": "0x91d5e66951c47fbbfafe57c9ff42d45c46b6044c",
      "to": "0x00b036b58a818b1bc34d502d3fe730db729e62ac",
      "contractAddress": null,
      "daFootprintGasScalar": "0x190",
      "l1BaseFeeScalar": "0x7d0",
      "l1BlobBaseFee": "0x3",
      "l1BlobBaseFeeScalar": "0xdbba0",
      "l1Fee": "0x1c9",
      "l1GasPrice": "0xa",
      "l1GasUsed": "0x977"
    },
    {
      "status": "0x1",
      "cumulativeGasUsed": "0x40b91",
      "logs": [
        {
          "address": "0x00b036b58a818b1bc34d502d3fe730db729e62ac",
          "topics": [
            "0xdd466e674ea557f56295e2d0218a125ea4b4f0f6f3307b95f85e6110838d6438",
            "0x1aefda54e15367b439f336ac47152ea8011b876017c4d193811258c72ce36615",
            "0x0000000000000000000000000000000000000000000000000000000000000000",
            "0x00000000000000000000000031d0220469e10c4e71834a79b1f276d740d3768f"
          ],
          "data": "0x0000000000000000000000000000000000000000000000000000000000800000000000000000000000000000000000000000000000000000000000000000003c000000000000000000000000ab680faff2fb5edd44e7df8b4a3d698ac6b70fc000000000000000000000000000000000000000000003249b653f53a79af97729fffffffffffffffffffffffffffffffffffffffffffffffffffffffffffcf6fe",
          "blockHash": "0xd4121b99ac14fb1918616ce49485c8380f8387c0d20b11cdf8a9ff5f7fd7ad3f",
          "blockNumber": "0x2ce7395",
          "blockTimestamp": "0x69bc20e1",
          "transactionHash": "0xe3ecd2a1d56d6ef83519f53e83a57880feb5a5e6a718f4ca2b7e66f7ad678e7e",
          "transactionIndex": "0x4",
          "logIndex": "0x2",
          "removed": false
        }
      ],
      "logsBloom": "0x00000000000000000000000000000000000000000000000000000000000000000000000000000080000000000000000000000000000000000000000000000000000000000040000000000000000000000000000000000000000000000000000000000000020000000000000000000800000800000000000000000000000000000010000000000008000000000008000000000001000000000000000000200000000000000000000000000000000000000000000000000000000000000000000000000000000000008000000000000000000000000000000000000000000020000000000000001000000000000000000000000000000002000000000000000010",
      "type": "0x2",
      "transactionHash": "0xe3ecd2a1d56d6ef83519f53e83a57880feb5a5e6a718f4ca2b7e66f7ad678e7e",
      "transactionIndex": "0x4",
      "blockHash": "0xd4121b99ac14fb1918616ce49485c8380f8387c0d20b11cdf8a9ff5f7fd7ad3f",
      "blockNumber": "0x2ce7395",
      "gasUsed": "0xc9d3",
      "effectiveGasPrice": "0xee72c920",
      "blobGasUsed": "0xc800",
      "from": "0x91d5e66951c47fbbfafe57c9ff42d45c46b6044c",
      "to": "0x00b036b58a818b1bc34d502d3fe730db729e62ac",
      "contractAddress": null,
      "daFootprintGasScalar": "0x190",
      "l1BaseFeeScalar": "0x7d0",
      "l1BlobBaseFee": "0x3",
      "l1BlobBaseFeeScalar": "0xdbba0",
      "l1Fee": "0x182",
      "l1GasPrice": "0xa",
      "l1GasUsed": "0x800"
    }
  ],
  "libraries": [],
  "pending": [],
  "returns": {},
  "timestamp": 1773936866703,
  "chain": 1301,
  "commit": "29b3163"
}