{
  "transactions": [
    {
      "hash": "0x8aa4b329a94df27a61966b70282294718097881ac0a80949886aa7cbc744177d",
      "transactionType": "CALL",
      "contractName": null,
      "contractAddress": "0x00b036b58a818b1bc34d502d3fe730db729e62ac",
      "function": "initialize((address,address,uint24,int24,address),uint160)",
      "arguments": [
        "(0x7741d178FC2624815d9af3C6554A94f8c3cEC4E2, 0xb1F4d08A487815B9C6f8671C9c953116891af07b, 8388608, 60, 0x244042445E2F0687b18c8f35566C87E08492cfC0)",
        "3799649193200520420489001079519"
      ],
      "transaction": {
        "from": "0x91d5e66951c47fbbfafe57c9ff42d45c46b6044c",
        "to": "0x00b036b58a818b1bc34d502d3fe730db729e62ac",
        "gas": "0x113fb",
        "value": "0x0",
        "input": "0x6276cbbe0000000000000000000000007741d178fc2624815d9af3c6554a94f8c3cec4e2000000000000000000000000b1f4d08a487815b9c6f8671c9c953116891af07b0000000000000000000000000000000000000000000000000000000000800000000000000000000000000000000000000000000000000000000000000000003c000000000000000000000000244042445e2f0687b18c8f35566c87e08492cfc0000000000000000000000000000000000000002ff55425a98a3834790a7e92df",
        "nonce": "0x18c",
        "chainId": "0x515"
      },
      "additionalContracts": [],
      "isFixedGasLimit": false
    }
  ],
  "receipts": [
    {
      "status": "0x1",
      "cumulativeGasUsed": "0x6222b",
      "logs": [
        {
          "address": "0x00b036b58a818b1bc34d502d3fe730db729e62ac",
          "topics": [
            "0xdd466e674ea557f56295e2d0218a125ea4b4f0f6f3307b95f85e6110838d6438",
            "0x0a771604e4f1dc9b78b806cf55e559bee796bc7c30ae421d7690628044be5abd",
            "0x0000000000000000000000007741d178fc2624815d9af3c6554a94f8c3cec4e2",
            "0x000000000000000000000000b1f4d08a487815b9c6f8671c9c953116891af07b"
          ],
          "data": "0x0000000000000000000000000000000000000000000000000000000000800000000000000000000000000000000000000000000000000000000000000000003c000000000000000000000000244042445e2f0687b18c8f35566c87e08492cfc0000000000000000000000000000000000000002ff55425a98a3834790a7e92df0000000000000000000000000000000000000000000000000000000000012e62",
          "blockHash": "0x77c365c1a798d41853793076a19d692b7a476336a0743817e1c572ed3ecb0f97",
          "blockNumber": "0x2ce3038",
          "blockTimestamp": "0x69bbdd84",
          "transactionHash": "0x8aa4b329a94df27a61966b70282294718097881ac0a80949886aa7cbc744177d",
          "transactionIndex": "0x5",
          "logIndex": "0x3",
          "removed": false
        }
      ],
      "logsBloom": "0x00000000000800000100000000000000000000000001000000000000000000000000000000000000000000000000000000000000000000000000000000000000000000000002000000000000000000000000000000000000000000000000000000000040000000000000000000000000000000000000000000000000000000000000000000000008000000000008000000000001000000000000000000200000000000000000000000000008000000000000000000000000000000000000000000000000000000000000000000000000000000000000000000100000000200000000000000000000000000000000000000000080000002000000000000000010",
      "type": "0x2",
      "transactionHash": "0x8aa4b329a94df27a61966b70282294718097881ac0a80949886aa7cbc744177d",
      "transactionIndex": "0x5",
      "blockHash": "0x77c365c1a798d41853793076a19d692b7a476336a0743817e1c572ed3ecb0f97",
      "blockNumber": "0x2ce3038",
      "gasUsed": "0xc7cf",
      "effectiveGasPrice": "0xee72c920",
      "blobGasUsed": "0xed80",
      "from": "0x91d5e66951c47fbbfafe57c9ff42d45c46b6044c",
      "to": "0x00b036b58a818b1bc34d502d3fe730db729e62ac",
      "contractAddress": null,
      "daFootprintGasScalar": "0x190",
      "l1BaseFeeScalar": "0x7d0",
      "l1BlobBaseFee": "0x1",
      "l1BlobBaseFeeScalar": "0xdbba0",
      "l1Fee": "0xbe",
      "l1GasPrice": "0xb",
      "l1GasUsed": "0x985"
    }
  ],
  "libraries": [],
  "pending": [],
  "returns": {},
  "timestamp": 1773919620596,
  "chain": 1301,
  "commit": "29b3163"
}