{
  "transactions": [
    {
      "hash": "0x1df2f814f18b788e175fad0989b65b754ff55b515010810e72a17d4db2abf393",
      "transactionType": "CALL",
      "contractName": null,
      "contractAddress": "0xf969aee60879c54baaed9f3ed26147db216fd664",
      "function": "approve(address,uint256)",
      "arguments": [
        "0x153D1E965a5f58cEFa5C27650eB1D411C51146D0",
        "7283"
      ],
      "transaction": {
        "from": "0x91d5e66951c47fbbfafe57c9ff42d45c46b6044c",
        "to": "0xf969aee60879c54baaed9f3ed26147db216fd664",
        "gas": "0x10489",
        "value": "0x0",
        "input": "0x095ea7b3000000000000000000000000153d1e965a5f58cefa5c27650eb1d411c51146d00000000000000000000000000000000000000000000000000000000000001c73",
        "nonce": "0x2cb",
        "chainId": "0x515"
      },
      "additionalContracts": [],
      "isFixedGasLimit": false
    },
    {
      "hash": "0x4c9be615fb17b2f5a7a36500921d3f20d13daca35bcb19a42e6048c8140969d3",
      "transactionType": "CALL",
      "contractName": null,
      "contractAddress": "0x153d1e965a5f58cefa5c27650eb1d411c51146d0",
      "function": "depositLP(uint256)",
      "arguments": [
        "7283"
      ],
      "transaction": {
        "from": "0x91d5e66951c47fbbfafe57c9ff42d45c46b6044c",
        "to": "0x153d1e965a5f58cefa5c27650eb1d411c51146d0",
        "gas": "0x6ffe3",
        "value": "0x0",
        "input": "0xeb37acfc0000000000000000000000000000000000000000000000000000000000001c73",
        "nonce": "0x2cc",
        "chainId": "0x515"
      },
      "additionalContracts": [],
      "isFixedGasLimit": false
    }
  ],
  "receipts": [
    {
      "status": "0x1",
      "cumulativeGasUsed": "0x3368c",
      "logs": [
        {
          "address": "0xf969aee60879c54baaed9f3ed26147db216fd664",
          "topics": [
            "0x8c5be1e5ebec7d5bd14f71427d1e84f3dd0314c0f7b2291e5b200ac8c7c3b925",
            "0x00000000000000000000000091d5e66951c47fbbfafe57c9ff42d45c46b6044c",
            "0x000000000000000000000000153d1e965a5f58cefa5c27650eb1d411c51146d0",
            "0x0000000000000000000000000000000000000000000000000000000000001c73"
          ],
          "data": "0x",
          "blockHash": "0x28d2803917691c40ceb6299e6182a95ccb817984b9d0a71fe9bd6474527e9c8b",
          "blockNumber": "0x2cf54c8",
          "blockTimestamp": "0x69bd0214",
          "transactionHash": "0x1df2f814f18b788e175fad0989b65b754ff55b515010810e72a17d4db2abf393",
          "transactionIndex": "0x3",
          "logIndex": "0x1",
          "removed": false
        }
      ],
      "logsBloom": "0x00000000000000000000000000000000000000000000000800000000000000000000000000000000000000000000000008000000800000000000000000200000000000000000000000000000000000000000000000000000008000000000000000000000000000000000000000000000000000000000000000080000000000000000000000000000000000000000000400000000000000000000000000000000020000000000000000000000000000000c00000000000000000001000000000000000000080000000000000000000000000000000000000000000000000000004010000000000080000000000000000000000000000000000000000000000000",
      "type": "0x2",
      "transactionHash": "0x1df2f814f18b788e175fad0989b65b754ff55b515010810e72a17d4db2abf393",
      "transactionIndex": "0x3",
      "blockHash": "0x28d2803917691c40ceb6299e6182a95ccb817984b9d0a71fe9bd6474527e9c8b",
      "blockNumber": "0x2cf54c8",
      "gasUsed": "0xbca0",
      "effectiveGasPrice": "0xee72c920",
      "blobGasUsed": "0x9c40",
      "from": "0x91d5e66951c47fbbfafe57c9ff42d45c46b6044c",
      "to": "0xf969aee60879c54baaed9f3ed26147db216fd664",
      "contractAddress": null,
      "daFootprintGasScalar": "0x190",
      "l1BaseFeeScalar": "0x7d0",
      "l1BlobBaseFee": "0x1",
      "l1BlobBaseFeeScalar": "0xdbba0",
      "l1Fee": "0x80",
      "l1GasPrice": "0xc",
      "l1GasUsed": "0x640"
    },
    {
      "status": "0x1",
      "cumulativeGasUsed": "0xae029",
      "logs": [
        {
          "address": "0xf969aee60879c54baaed9f3ed26147db216fd664",
          "topics": [
            "0xddf252ad1be2c89b69c2b068fc378daa952ba7f163c4a11628f55a4df523b3ef",
            "0x00000000000000000000000091d5e66951c47fbbfafe57c9ff42d45c46b6044c",
            "0x000000000000000000000000153d1e965a5f58cefa5c27650eb1d411c51146d0",
            "0x0000000000000000000000000000000000000000000000000000000000001c73"
          ],
          "data": "0x",
          "blockHash": "0x28d2803917691c40ceb6299e6182a95ccb817984b9d0a71fe9bd6474527e9c8b",
          "blockNumber": "0x2cf54c8",
          "blockTimestamp": "0x69bd0214",
          "transactionHash": "0x4c9be615fb17b2f5a7a36500921d3f20d13daca35bcb19a42e6048c8140969d3",
          "transactionIndex": "0x6",
          "logIndex": "0x4",
          "removed": false
        },
        {
          "address": "0x153d1e965a5f58cefa5c27650eb1d411c51146d0",
          "topics": [
            "0x2dd0760ed828823df16f8cd6910e2779e615c0fdd8f3873459485157b6401d4a",
            "0x00000000000000000000000091d5e66951c47fbbfafe57c9ff42d45c46b6044c",
            "0x0000000000000000000000000000000000000000000000000000000000001c73"
          ],
          "data": "0x0000000000000000000000000000000000000000000000000000045c9dd597f0",
          "blockHash": "0x28d2803917691c40ceb6299e6182a95ccb817984b9d0a71fe9bd6474527e9c8b",
          "blockNumber": "0x2cf54c8",
          "blockTimestamp": "0x69bd0214",
          "transactionHash": "0x4c9be615fb17b2f5a7a36500921d3f20d13daca35bcb19a42e6048c8140969d3",
          "transactionIndex": "0x6",
          "logIndex": "0x5",
          "removed": false
        },
        {
          "address": "0x153d1e965a5f58cefa5c27650eb1d411c51146d0",
          "topics": [
            "0xe004e1007b4aba41a2a9fb673c2e9acbadc4eca1ef6f9f2a81c3d90d8622d47f",
            "0x00000000000000000000000091d5e66951c47fbbfafe57c9ff42d45c46b6044c"
          ],
          "data": "0x00000000000000000000000000000000000000000000000000000000000000000000000000000000000000000000000000000000000000000000000000000000",
          "blockHash": "0x28d2803917691c40ceb6299e6182a95ccb817984b9d0a71fe9bd6474527e9c8b",
          "blockNumber": "0x2cf54c8",
          "blockTimestamp": "0x69bd0214",
          "transactionHash": "0x4c9be615fb17b2f5a7a36500921d3f20d13daca35bcb19a42e6048c8140969d3",
          "transactionIndex": "0x6",
          "logIndex": "0x6",
          "removed": false
        }
      ],
      "logsBloom": "0x0000000000000000000000000000000000000000000000080000000a000000000000000000000000000000200000000008000000800000000040000000000000000000000000000000000008000000001000000000000000008000000000000000000000000000000000000000000080000000000000000000080010000000000000000000000000000000000000000400000000000000000000000000000000000000000000200000000000000000000c00000000000000000001000000000000000002080000000001000000000020000000000000000000000000000000004000000000000080000000000000000000000000000000000000000000000000",
      "type": "0x2",
      "transactionHash": "0x4c9be615fb17b2f5a7a36500921d3f20d13daca35bcb19a42e6048c8140969d3",
      "transactionIndex": "0x6",
      "blockHash": "0x28d2803917691c40ceb6299e6182a95ccb817984b9d0a71fe9bd6474527e9c8b",
      "blockNumber": "0x2cf54c8",
      "gasUsed": "0x4c939",
      "effectiveGasPrice": "0xee72c920",
      "blobGasUsed": "0x9c40",
      "from": "0x91d5e66951c47fbbfafe57c9ff42d45c46b6044c",
      "to": "0x153d1e965a5f58cefa5c27650eb1d411c51146d0",
      "contractAddress": null,
      "daFootprintGasScalar": "0x190",
      "l1BaseFeeScalar": "0x7d0",
      "l1BlobBaseFee": "0x1",
      "l1BlobBaseFeeScalar": "0xdbba0",
      "l1Fee": "0x80",
      "l1GasPrice": "0xc",
      "l1GasUsed": "0x640"
    }
  ],
  "libraries": [],
  "pending": [],
  "returns": {},
  "timestamp": 1773994517797,
  "chain": 1301,
  "commit": "c4706da"
}