{
  "transactions": [
    {
      "hash": "0x2f61db6de3feff02ede3c72d9f15ddc3b5ca4d3b249d8ae66428d96a7251f741",
      "transactionType": "CALL",
      "contractName": null,
      "contractAddress": "0xf969aee60879c54baaed9f3ed26147db216fd664",
      "function": "approve(address,uint256)",
      "arguments": [
        "0x5d929A1f25486e455137eD0070E95492b8fd4A73",
        "7280"
      ],
      "transaction": {
        "from": "0x91d5e66951c47fbbfafe57c9ff42d45c46b6044c",
        "to": "0xf969aee60879c54baaed9f3ed26147db216fd664",
        "gas": "0x10478",
        "value": "0x0",
        "input": "0x095ea7b30000000000000000000000005d929a1f25486e455137ed0070e95492b8fd4a730000000000000000000000000000000000000000000000000000000000001c70",
        "nonce": "0x270",
        "chainId": "0x515"
      },
      "additionalContracts": [],
      "isFixedGasLimit": false
    },
    {
      "hash": "0x73da31b1c7858a8fa227e263805757d82bf4fe40e810251b54556d6cc732d29b",
      "transactionType": "CALL",
      "contractName": null,
      "contractAddress": "0x5d929a1f25486e455137ed0070e95492b8fd4a73",
      "function": "depositLP(uint256)",
      "arguments": [
        "7280"
      ],
      "transaction": {
        "from": "0x91d5e66951c47fbbfafe57c9ff42d45c46b6044c",
        "to": "0x5d929a1f25486e455137ed0070e95492b8fd4a73",
        "gas": "0x53c94",
        "value": "0x0",
        "input": "0xeb37acfc0000000000000000000000000000000000000000000000000000000000001c70",
        "nonce": "0x271",
        "chainId": "0x515"
      },
      "additionalContracts": [],
      "isFixedGasLimit": false
    }
  ],
  "receipts": [
    {
      "status": "0x1",
      "cumulativeGasUsed": "0x7870a",
      "logs": [
        {
          "address": "0xf969aee60879c54baaed9f3ed26147db216fd664",
          "topics": [
            "0x8c5be1e5ebec7d5bd14f71427d1e84f3dd0314c0f7b2291e5b200ac8c7c3b925",
            "0x00000000000000000000000091d5e66951c47fbbfafe57c9ff42d45c46b6044c",
            "0x0000000000000000000000005d929a1f25486e455137ed0070e95492b8fd4a73",
            "0x0000000000000000000000000000000000000000000000000000000000001c70"
          ],
          "data": "0x",
          "blockHash": "0x46f753e0e8082a2e1a3f9eed17298b099ad29b87743ccecaab36cb41bbd67d50",
          "blockNumber": "0x2cf2ab3",
          "blockTimestamp": "0x69bcd7ff",
          "transactionHash": "0x2f61db6de3feff02ede3c72d9f15ddc3b5ca4d3b249d8ae66428d96a7251f741",
          "transactionIndex": "0x6",
          "logIndex": "0x4",
          "removed": false
        }
      ],
      "logsBloom": "0x00000000000000000000000000000000000000020000000000000000000000000000000000000000000000000000000008000000800000000000000000200000000000000000000000000000000000000000000000000000000000000000100000000000000000000000000000000000000000000000000000000000000000001000000000000000000000000000000400000000000000000000000000000000020000000000400000000000000000000800000000000000000000000000000000000000080000000000000000000000000000000000000000000000000000204010000000000000000000001000000000000000000000000000000000000000",
      "type": "0x2",
      "transactionHash": "0x2f61db6de3feff02ede3c72d9f15ddc3b5ca4d3b249d8ae66428d96a7251f741",
      "transactionIndex": "0x6",
      "blockHash": "0x46f753e0e8082a2e1a3f9eed17298b099ad29b87743ccecaab36cb41bbd67d50",
      "blockNumber": "0x2cf2ab3",
      "gasUsed": "0xbc94",
      "effectiveGasPrice": "0xee72c920",
      "blobGasUsed": "0x9c40",
      "from": "0x91d5e66951c47fbbfafe57c9ff42d45c46b6044c",
      "to": "0xf969aee60879c54baaed9f3ed26147db216fd664",
      "contractAddress": null,
      "daFootprintGasScalar": "0x190",
      "l1BaseFeeScalar": "0x7d0",
      "l1BlobBaseFee": "0x1",
      "l1BlobBaseFeeScalar": "0xdbba0",
      "l1Fee": "0x7a",
      "l1GasPrice": "0xa",
      "l1GasUsed": "0x640"
    },
    {
      "status": "0x1",
      "cumulativeGasUsed": "0xcc1cb",
      "logs": [
        {
          "address": "0xf969aee60879c54baaed9f3ed26147db216fd664",
          "topics": [
            "0xddf252ad1be2c89b69c2b068fc378daa952ba7f163c4a11628f55a4df523b3ef",
            "0x00000000000000000000000091d5e66951c47fbbfafe57c9ff42d45c46b6044c",
            "0x0000000000000000000000005d929a1f25486e455137ed0070e95492b8fd4a73",
            "0x0000000000000000000000000000000000000000000000000000000000001c70"
          ],
          "data": "0x",
          "blockHash": "0x46f753e0e8082a2e1a3f9eed17298b099ad29b87743ccecaab36cb41bbd67d50",
          "blockNumber": "0x2cf2ab3",
          "blockTimestamp": "0x69bcd7ff",
          "transactionHash": "0x73da31b1c7858a8fa227e263805757d82bf4fe40e810251b54556d6cc732d29b",
          "transactionIndex": "0x8",
          "logIndex": "0x6",
          "removed": false
        },
        {
          "address": "0x5d929a1f25486e455137ed0070e95492b8fd4a73",
          "topics": [
            "0x2dd0760ed828823df16f8cd6910e2779e615c0fdd8f3873459485157b6401d4a",
            "0x00000000000000000000000091d5e66951c47fbbfafe57c9ff42d45c46b6044c",
            "0x0000000000000000000000000000000000000000000000000000000000001c70"
          ],
          "data": "0x0000000000000000000000000000000000000000000000000000045c9dd597f0",
          "blockHash": "0x46f753e0e8082a2e1a3f9eed17298b099ad29b87743ccecaab36cb41bbd67d50",
          "blockNumber": "0x2cf2ab3",
          "blockTimestamp": "0x69bcd7ff",
          "transactionHash": "0x73da31b1c7858a8fa227e263805757d82bf4fe40e810251b54556d6cc732d29b",
          "transactionIndex": "0x8",
          "logIndex": "0x7",
          "removed": false
        },
        {
          "address": "0x5d929a1f25486e455137ed0070e95492b8fd4a73",
          "topics": [
            "0xe004e1007b4aba41a2a9fb673c2e9acbadc4eca1ef6f9f2a81c3d90d8622d47f",
            "0x00000000000000000000000091d5e66951c47fbbfafe57c9ff42d45c46b6044c"
          ],
          "data": "0x00000000000000000000000000000000000000000000000000000000000000000000000000000000000000000000000000000000000000000000000000000000",
          "blockHash": "0x46f753e0e8082a2e1a3f9eed17298b099ad29b87743ccecaab36cb41bbd67d50",
          "blockNumber": "0x2cf2ab3",
          "blockTimestamp": "0x69bcd7ff",
          "transactionHash": "0x73da31b1c7858a8fa227e263805757d82bf4fe40e810251b54556d6cc732d29b",
          "transactionIndex": "0x8",
          "logIndex": "0x8",
          "removed": false
        }
      ],
      "logsBloom": "0x00000000000000000000000000000000000000020000000000000002000000000000000000000000000000200000000008000000800000020040000000000000000000000000000000000008000000001000000000000000000000000000100000000000000000400000000000000000000000000000000000000010000000001000000000000000000000000000000400000000000000000000000000000000000000000000600000000000000000000800000000000000000000000000000000000002080000000001000000000000000000000000000000000000000000204000000000000000000000001000000000000000000000000010000000000000",
      "type": "0x2",
      "transactionHash": "0x73da31b1c7858a8fa227e263805757d82bf4fe40e810251b54556d6cc732d29b",
      "transactionIndex": "0x8",
      "blockHash": "0x46f753e0e8082a2e1a3f9eed17298b099ad29b87743ccecaab36cb41bbd67d50",
      "blockNumber": "0x2cf2ab3",
      "gasUsed": "0x3ca8f",
      "effectiveGasPrice": "0xee72c920",
      "blobGasUsed": "0x9c40",
      "from": "0x91d5e66951c47fbbfafe57c9ff42d45c46b6044c",
      "to": "0x5d929a1f25486e455137ed0070e95492b8fd4a73",
      "contractAddress": null,
      "daFootprintGasScalar": "0x190",
      "l1BaseFeeScalar": "0x7d0",
      "l1BlobBaseFee": "0x1",
      "l1BlobBaseFeeScalar": "0xdbba0",
      "l1Fee": "0x7a",
      "l1GasPrice": "0xa",
      "l1GasUsed": "0x640"
    }
  ],
  "libraries": [],
  "pending": [],
  "returns": {},
  "timestamp": 1773983743952,
  "chain": 1301,
  "commit": "e95b1d6"
}