{
  "transactions": [
    {
      "hash": "0x5b8a28f357d06a46759092059ec2d99f8157ada00840658a8298f792b9b69ccd",
      "transactionType": "CALL",
      "contractName": null,
      "contractAddress": "0xf969aee60879c54baaed9f3ed26147db216fd664",
      "function": "approve(address,uint256)",
      "arguments": [
        "0x9748001645bF1FCafddDD1FA354e729d51B31861",
        "7276"
      ],
      "transaction": {
        "from": "0x91d5e66951c47fbbfafe57c9ff42d45c46b6044c",
        "to": "0xf969aee60879c54baaed9f3ed26147db216fd664",
        "gas": "0x10478",
        "value": "0x0",
        "input": "0x095ea7b30000000000000000000000009748001645bf1fcafdddd1fa354e729d51b318610000000000000000000000000000000000000000000000000000000000001c6c",
        "nonce": "0x222",
        "chainId": "0x515"
      },
      "additionalContracts": [],
      "isFixedGasLimit": false
    },
    {
      "hash": "0xb4a28bb879ebb8c51a1cd0d9ad49e0871666812ef02498b0dc71037e03074987",
      "transactionType": "CALL",
      "contractName": null,
      "contractAddress": "0x9748001645bf1fcafdddd1fa354e729d51b31861",
      "function": "depositLP(uint256)",
      "arguments": [
        "7276"
      ],
      "transaction": {
        "from": "0x91d5e66951c47fbbfafe57c9ff42d45c46b6044c",
        "to": "0x9748001645bf1fcafdddd1fa354e729d51b31861",
        "gas": "0x53c94",
        "value": "0x0",
        "input": "0xeb37acfc0000000000000000000000000000000000000000000000000000000000001c6c",
        "nonce": "0x223",
        "chainId": "0x515"
      },
      "additionalContracts": [],
      "isFixedGasLimit": false
    }
  ],
  "receipts": [
    {
      "status": "0x1",
      "cumulativeGasUsed": "0x616f0",
      "logs": [
        {
          "address": "0xf969aee60879c54baaed9f3ed26147db216fd664",
          "topics": [
            "0x8c5be1e5ebec7d5bd14f71427d1e84f3dd0314c0f7b2291e5b200ac8c7c3b925",
            "0x00000000000000000000000091d5e66951c47fbbfafe57c9ff42d45c46b6044c",
            "0x0000000000000000000000009748001645bf1fcafdddd1fa354e729d51b31861",
            "0x0000000000000000000000000000000000000000000000000000000000001c6c"
          ],
          "data": "0x",
          "blockHash": "0xf3479da4c68065f7c2a3ad643ec02d83c7a8c5702875b6c6635b378f7f49443a",
          "blockNumber": "0x2ceb950",
          "blockTimestamp": "0x69bc669c",
          "transactionHash": "0xb4a28bb879ebb8c51a1cd0d9ad49e0871666812ef02498b0dc71037e03074987",
          "transactionIndex": "0x5",
          "logIndex": "0x3",
          "removed": false
        }
      ],
      "logsBloom": "0x00000000000000000000000000000000000000000000000000000000000000000000000000000000000000000000000808000000800000000000000000200000000000000000000000000000000000000000000000000000000000000000000000000000000000000000000000000000000000000000000000000000000000000000000000000000000000000000000400000000000000020000000000000000020000000000000000000000000000000800000008000000000000000000000000000000080000000000000000000080000000000400000000000000000000004010000000000000000000000000000000002000000000000000000000000000",
      "type": "0x2",
      "transactionHash": "0xb4a28bb879ebb8c51a1cd0d9ad49e0871666812ef02498b0dc71037e03074987",
      "transactionIndex": "0x5",
      "blockHash": "0xf3479da4c68065f7c2a3ad643ec02d83c7a8c5702875b6c6635b378f7f49443a",
      "blockNumber": "0x2ceb950",
      "gasUsed": "0xbc94",
      "effectiveGasPrice": "0xee72c920",
      "blobGasUsed": "0x9c40",
      "from": "0x91d5e66951c47fbbfafe57c9ff42d45c46b6044c",
      "to": "0xf969aee60879c54baaed9f3ed26147db216fd664",
      "contractAddress": null,
      "daFootprintGasScalar": "0x190",
      "l1BaseFeeScalar": "0x7d0",
      "l1BlobBaseFee": "0x1",
      "l1BlobBaseFeeScalar": "0xdbba0",
      "l1Fee": "0x7a",
      "l1GasPrice": "0xa",
      "l1GasUsed": "0x640"
    },
    {
      "status": "0x1",
      "cumulativeGasUsed": "0x9e17f",
      "logs": [
        {
          "address": "0xf969aee60879c54baaed9f3ed26147db216fd664",
          "topics": [
            "0xddf252ad1be2c89b69c2b068fc378daa952ba7f163c4a11628f55a4df523b3ef",
            "0x00000000000000000000000091d5e66951c47fbbfafe57c9ff42d45c46b6044c",
            "0x0000000000000000000000009748001645bf1fcafdddd1fa354e729d51b31861",
            "0x0000000000000000000000000000000000000000000000000000000000001c6c"
          ],
          "data": "0x",
          "blockHash": "0xf3479da4c68065f7c2a3ad643ec02d83c7a8c5702875b6c6635b378f7f49443a",
          "blockNumber": "0x2ceb950",
          "blockTimestamp": "0x69bc669c",
          "transactionHash": "0x5b8a28f357d06a46759092059ec2d99f8157ada00840658a8298f792b9b69ccd",
          "transactionIndex": "0x6",
          "logIndex": "0x4",
          "removed": false
        },
        {
          "address": "0x9748001645bf1fcafdddd1fa354e729d51b31861",
          "topics": [
            "0x2dd0760ed828823df16f8cd6910e2779e615c0fdd8f3873459485157b6401d4a",
            "0x00000000000000000000000091d5e66951c47fbbfafe57c9ff42d45c46b6044c",
            "0x0000000000000000000000000000000000000000000000000000000000001c6c"
          ],
          "data": "0x0000000000000000000000000000000000000000000000000000045c9dd597f0",
          "blockHash": "0xf3479da4c68065f7c2a3ad643ec02d83c7a8c5702875b6c6635b378f7f49443a",
          "blockNumber": "0x2ceb950",
          "blockTimestamp": "0x69bc669c",
          "transactionHash": "0x5b8a28f357d06a46759092059ec2d99f8157ada00840658a8298f792b9b69ccd",
          "transactionIndex": "0x6",
          "logIndex": "0x5",
          "removed": false
        },
        {
          "address": "0x9748001645bf1fcafdddd1fa354e729d51b31861",
          "topics": [
            "0xe004e1007b4aba41a2a9fb673c2e9acbadc4eca1ef6f9f2a81c3d90d8622d47f",
            "0x00000000000000000000000091d5e66951c47fbbfafe57c9ff42d45c46b6044c"
          ],
          "data": "0x00000000000000000000000000000000000000000000000000000000000000000000000000000000000000000000000000000000000000000000000000000000",
          "blockHash": "0xf3479da4c68065f7c2a3ad643ec02d83c7a8c5702875b6c6635b378f7f49443a",
          "blockNumber": "0x2ceb950",
          "blockTimestamp": "0x69bc669c",
          "transactionHash": "0x5b8a28f357d06a46759092059ec2d99f8157ada00840658a8298f792b9b69ccd",
          "transactionIndex": "0x6",
          "logIndex": "0x6",
          "removed": false
        }
      ],
      "logsBloom": "0x00000000008000000000000000000000000000000000000000000002000000000000000000000000000000200000000808000000800000200040000000000000000000000000000000000008000000001000000000000000000000000000000000000000000000000000000000000000000000000000000000000010000000000000000000000000000000000000000400000000000000020000000000000000000000000000200000000000000000000800000008000000000000000000000000000002080000000001000000000080000000000400000000000000000000004000000000000000000000000000000000002000000000000000000000400000",
      "type": "0x2",
      "transactionHash": "0x5b8a28f357d06a46759092059ec2d99f8157ada00840658a8298f792b9b69ccd",
      "transactionIndex": "0x6",
      "blockHash": "0xf3479da4c68065f7c2a3ad643ec02d83c7a8c5702875b6c6635b378f7f49443a",
      "blockNumber": "0x2ceb950",
      "gasUsed": "0x3ca8f",
      "effectiveGasPrice": "0xee72c920",
      "blobGasUsed": "0x9c40",
      "from": "0x91d5e66951c47fbbfafe57c9ff42d45c46b6044c",
      "to": "0x9748001645bf1fcafdddd1fa354e729d51b31861",
      "contractAddress": null,
      "daFootprintGasScalar": "0x190",
      "l1BaseFeeScalar": "0x7d0",
      "l1BlobBaseFee": "0x1",
      "l1BlobBaseFeeScalar": "0xdbba0",
      "l1Fee": "0x7a",
      "l1GasPrice": "0xa",
      "l1GasUsed": "0x640"
    }
  ],
  "libraries": [],
  "pending": [],
  "returns": {},
  "timestamp": 1773954716508,
  "chain": 1301,
  "commit": "e95b1d6"
}