{
  "transactions": [
    {
      "hash": "0x3a133280bf1e00616885df6e5b6c07fb3bcc481bdfdbd345edf7b2b2732661b0",
      "transactionType": "CALL",
      "contractName": null,
      "contractAddress": "0xf969aee60879c54baaed9f3ed26147db216fd664",
      "function": "approve(address,uint256)",
      "arguments": [
        "0x5d929A1f25486e455137eD0070E95492b8fd4A73",
        "7281"
      ],
      "transaction": {
        "from": "0x91d5e66951c47fbbfafe57c9ff42d45c46b6044c",
        "to": "0xf969aee60879c54baaed9f3ed26147db216fd664",
        "gas": "0x10478",
        "value": "0x0",
        "input": "0x095ea7b30000000000000000000000005d929a1f25486e455137ed0070e95492b8fd4a730000000000000000000000000000000000000000000000000000000000001c71",
        "nonce": "0x280",
        "chainId": "0x515"
      },
      "additionalContracts": [],
      "isFixedGasLimit": false
    },
    {
      "hash": "0x24e3449c0b40a74e64ae3b501ac5cff22518cbe7aa6ecb3db8a774dd7ce158dd",
      "transactionType": "CALL",
      "contractName": null,
      "contractAddress": "0x5d929a1f25486e455137ed0070e95492b8fd4a73",
      "function": "depositLP(uint256)",
      "arguments": [
        "7281"
      ],
      "transaction": {
        "from": "0x91d5e66951c47fbbfafe57c9ff42d45c46b6044c",
        "to": "0x5d929a1f25486e455137ed0070e95492b8fd4a73",
        "gas": "0x53c94",
        "value": "0x0",
        "input": "0xeb37acfc0000000000000000000000000000000000000000000000000000000000001c71",
        "nonce": "0x281",
        "chainId": "0x515"
      },
      "additionalContracts": [],
      "isFixedGasLimit": false
    }
  ],
  "receipts": [
    {
      "status": "0x1",
      "cumulativeGasUsed": "0xfe641",
      "logs": [
        {
          "address": "0xf969aee60879c54baaed9f3ed26147db216fd664",
          "topics": [
            "0x8c5be1e5ebec7d5bd14f71427d1e84f3dd0314c0f7b2291e5b200ac8c7c3b925",
            "0x00000000000000000000000091d5e66951c47fbbfafe57c9ff42d45c46b6044c",
            "0x0000000000000000000000005d929a1f25486e455137ed0070e95492b8fd4a73",
            "0x0000000000000000000000000000000000000000000000000000000000001c71"
          ],
          "data": "0x",
          "blockHash": "0x3f82c994d17d68610fa46db09b2540e766f6278e3a037d7fad7705be3a2eca65",
          "blockNumber": "0x2cf31d3",
          "blockTimestamp": "0x69bcdf1f",
          "transactionHash": "0x3a133280bf1e00616885df6e5b6c07fb3bcc481bdfdbd345edf7b2b2732661b0",
          "transactionIndex": "0x7",
          "logIndex": "0xd",
          "removed": false
        }
      ],
      "logsBloom": "0x00000000000000000000000000000000000000000000000000000000000000000000000000000000000000000000000008000000800000000000000000200000000000000000000000000000000000001000000000000000000000000000100000000000000000000000000000000000000000000000000000000000000000001000000000000000000000000000000400000000000000000000000000000000020000000000400000000000000000000800000000000000000000000000000000000000080000000000000000000000000000000000000000000000000080004010000000800000000000000000000000000000000000000000000000000000",
      "type": "0x2",
      "transactionHash": "0x3a133280bf1e00616885df6e5b6c07fb3bcc481bdfdbd345edf7b2b2732661b0",
      "transactionIndex": "0x7",
      "blockHash": "0x3f82c994d17d68610fa46db09b2540e766f6278e3a037d7fad7705be3a2eca65",
      "blockNumber": "0x2cf31d3",
      "gasUsed": "0xbc94",
      "effectiveGasPrice": "0xee72c920",
      "blobGasUsed": "0x9c40",
      "from": "0x91d5e66951c47fbbfafe57c9ff42d45c46b6044c",
      "to": "0xf969aee60879c54baaed9f3ed26147db216fd664",
      "contractAddress": null,
      "daFootprintGasScalar": "0x190",
      "l1BaseFeeScalar": "0x7d0",
      "l1BlobBaseFee": "0x1",
      "l1BlobBaseFeeScalar": "0xdbba0",
      "l1Fee": "0x86",
      "l1GasPrice": "0xe",
      "l1GasUsed": "0x640"
    },
    {
      "status": "0x1",
      "cumulativeGasUsed": "0x13b0d0",
      "logs": [
        {
          "address": "0xf969aee60879c54baaed9f3ed26147db216fd664",
          "topics": [
            "0xddf252ad1be2c89b69c2b068fc378daa952ba7f163c4a11628f55a4df523b3ef",
            "0x00000000000000000000000091d5e66951c47fbbfafe57c9ff42d45c46b6044c",
            "0x0000000000000000000000005d929a1f25486e455137ed0070e95492b8fd4a73",
            "0x0000000000000000000000000000000000000000000000000000000000001c71"
          ],
          "data": "0x",
          "blockHash": "0x3f82c994d17d68610fa46db09b2540e766f6278e3a037d7fad7705be3a2eca65",
          "blockNumber": "0x2cf31d3",
          "blockTimestamp": "0x69bcdf1f",
          "transactionHash": "0x24e3449c0b40a74e64ae3b501ac5cff22518cbe7aa6ecb3db8a774dd7ce158dd",
          "transactionIndex": "0x8",
          "logIndex": "0xe",
          "removed": false
        },
        {
          "address": "0x5d929a1f25486e455137ed0070e95492b8fd4a73",
          "topics": [
            "0x2dd0760ed828823df16f8cd6910e2779e615c0fdd8f3873459485157b6401d4a",
            "0x00000000000000000000000091d5e66951c47fbbfafe57c9ff42d45c46b6044c",
            "0x0000000000000000000000000000000000000000000000000000000000001c71"
          ],
          "data": "0x0000000000000000000000000000000000000000000000000000045c9dd597f0",
          "blockHash": "0x3f82c994d17d68610fa46db09b2540e766f6278e3a037d7fad7705be3a2eca65",
          "blockNumber": "0x2cf31d3",
          "blockTimestamp": "0x69bcdf1f",
          "transactionHash": "0x24e3449c0b40a74e64ae3b501ac5cff22518cbe7aa6ecb3db8a774dd7ce158dd",
          "transactionIndex": "0x8",
          "logIndex": "0xf",
          "removed": false
        },
        {
          "address": "0x5d929a1f25486e455137ed0070e95492b8fd4a73",
          "topics": [
            "0xe004e1007b4aba41a2a9fb673c2e9acbadc4eca1ef6f9f2a81c3d90d8622d47f",
            "0x00000000000000000000000091d5e66951c47fbbfafe57c9ff42d45c46b6044c"
          ],
          "data": "0x00000000000000000000000000000000000000000000000000000000000000000000000000000000000000000000000000000000000000000000000000000000",
          "blockHash": "0x3f82c994d17d68610fa46db09b2540e766f6278e3a037d7fad7705be3a2eca65",
          "blockNumber": "0x2cf31d3",
          "blockTimestamp": "0x69bcdf1f",
          "transactionHash": "0x24e3449c0b40a74e64ae3b501ac5cff22518cbe7aa6ecb3db8a774dd7ce158dd",
          "transactionIndex": "0x8",
          "logIndex": "0x10",
          "removed": false
        }
      ],
      "logsBloom": "0x00000000000000000000000000000000000000000000000000000002000000000000000000000000000000200000000008000000800000020040000000000000000000000000000000000008000000001000000000000000000000000000100000000000000000400000000000000000000000000000000000000010000000001000000000000000000000000000000400000000000000000000000000000000000000000000600000000000000000000800000000000000000000000000000000000002080000000001000000000000000000000000000000000000000080004000000000800000000000000000000000000000000000000010000000000000",
      "type": "0x2",
      "transactionHash": "0x24e3449c0b40a74e64ae3b501ac5cff22518cbe7aa6ecb3db8a774dd7ce158dd",
      "transactionIndex": "0x8",
      "blockHash": "0x3f82c994d17d68610fa46db09b2540e766f6278e3a037d7fad7705be3a2eca65",
      "blockNumber": "0x2cf31d3",
      "gasUsed": "0x3ca8f",
      "effectiveGasPrice": "0xee72c920",
      "blobGasUsed": "0x9c40",
      "from": "0x91d5e66951c47fbbfafe57c9ff42d45c46b6044c",
      "to": "0x5d929a1f25486e455137ed0070e95492b8fd4a73",
      "contractAddress": null,
      "daFootprintGasScalar": "0x190",
      "l1BaseFeeScalar": "0x7d0",
      "l1BlobBaseFee": "0x1",
      "l1BlobBaseFeeScalar": "0xdbba0",
      "l1Fee": "0x86",
      "l1GasPrice": "0xe",
      "l1GasUsed": "0x640"
    }
  ],
  "libraries": [],
  "pending": [],
  "returns": {},
  "timestamp": 1773985567410,
  "chain": 1301,
  "commit": "e95b1d6"
}