{
  "transactions": [
    {
      "hash": "0x7a862f3576ae6304a7c463408e0b38c7723b31b29994e7d80acb6b70f4b409d5",
      "transactionType": "CALL",
      "contractName": null,
      "contractAddress": "0x067a34ad7f20aa0e0a5c2627e4288e34b1182c8e",
      "function": "approve(address,uint256)",
      "arguments": [
        "0x000000000022D473030F116dDEE9F6B43aC78BA3",
        "115792089237316195423570985008687907853269984665640564039457584007913129639935"
      ],
      "transaction": {
        "from": "0x91d5e66951c47fbbfafe57c9ff42d45c46b6044c",
        "to": "0x067a34ad7f20aa0e0a5c2627e4288e34b1182c8e",
        "gas": "0x8fe3",
        "value": "0x0",
        "input": "0x095ea7b3000000000000000000000000000000000022d473030f116ddee9f6b43ac78ba3ffffffffffffffffffffffffffffffffffffffffffffffffffffffffffffffff",
        "nonce": "0x262",
        "chainId": "0x515"
      },
      "additionalContracts": [],
      "isFixedGasLimit": false
    },
    {
      "hash": "0xb64a4b5b0943e81af122c646dbcd53c06ccee4f2b653980a7f316572396588ab",
      "transactionType": "CALL",
      "contractName": null,
      "contractAddress": "0x000000000022d473030f116ddee9f6b43ac78ba3",
      "function": "approve(address,address,uint160,uint48)",
      "arguments": [
        "0x067a34AD7F20aa0e0A5c2627e4288e34B1182c8E",
        "0xf969Aee60879C54bAAed9F3eD26147Db216Fd664",
        "1461501637330902918203684832716283019655932542975",
        "281474976710655"
      ],
      "transaction": {
        "from": "0x91d5e66951c47fbbfafe57c9ff42d45c46b6044c",
        "to": "0x000000000022d473030f116ddee9f6b43ac78ba3",
        "gas": "0x96a0",
        "value": "0x0",
        "input": "0x87517c45000000000000000000000000067a34ad7f20aa0e0a5c2627e4288e34b1182c8e000000000000000000000000f969aee60879c54baaed9f3ed26147db216fd664000000000000000000000000ffffffffffffffffffffffffffffffffffffffff0000000000000000000000000000000000000000000000000000ffffffffffff",
        "nonce": "0x263",
        "chainId": "0x515"
      },
      "additionalContracts": [],
      "isFixedGasLimit": false
    },
    {
      "hash": "0x9f79694348b508ad8708a8118d7e562fa657681241d358d9d40d9675ab82ca92",
      "transactionType": "CALL",
      "contractName": null,
      "contractAddress": "0x000000000022d473030f116ddee9f6b43ac78ba3",
      "function": "approve(address,address,uint160,uint48)",
      "arguments": [
        "0x067a34AD7F20aa0e0A5c2627e4288e34B1182c8E",
        "0x00B036B58a818B1BC34d502D3fE730Db729e62AC",
        "1461501637330902918203684832716283019655932542975",
        "281474976710655"
      ],
      "transaction": {
        "from": "0x91d5e66951c47fbbfafe57c9ff42d45c46b6044c",
        "to": "0x000000000022d473030f116ddee9f6b43ac78ba3",
        "gas": "0x9f6c",
        "value": "0x0",
        "input": "0x87517c45000000000000000000000000067a34ad7f20aa0e0a5c2627e4288e34b1182c8e00000000000000000000000000b036b58a818b1bc34d502d3fe730db729e62ac000000000000000000000000ffffffffffffffffffffffffffffffffffffffff0000000000000000000000000000000000000000000000000000ffffffffffff",
        "nonce": "0x264",
        "chainId": "0x515"
      },
      "additionalContracts": [],
      "isFixedGasLimit": false
    },
    {
      "hash": "0xb4e8fd188c277d1e339c6f5b111a12533ce6b7fcbb1cc7aa82f3ed0d624a2605",
      "transactionType": "CALL",
      "contractName": null,
      "contractAddress": "0xa262a8fa5c50216458b65ca20803f0bc5019fa75",
      "function": "approve(address,uint256)",
      "arguments": [
        "0x000000000022D473030F116dDEE9F6B43aC78BA3",
        "115792089237316195423570985008687907853269984665640564039457584007913129639935"
      ],
      "transaction": {
        "from": "0x91d5e66951c47fbbfafe57c9ff42d45c46b6044c",
        "to": "0xa262a8fa5c50216458b65ca20803f0bc5019fa75",
        "gas": "0x8fe3",
        "value": "0x0",
        "input": "0x095ea7b3000000000000000000000000000000000022d473030f116ddee9f6b43ac78ba3ffffffffffffffffffffffffffffffffffffffffffffffffffffffffffffffff",
        "nonce": "0x265",
        "chainId": "0x515"
      },
      "additionalContracts": [],
      "isFixedGasLimit": false
    },
    {
      "hash": "0x2c0bb689b8de154ab43d688ba4ea5aa9441f8fdf3cc131dc6e2798fd3c843e6a",
      "transactionType": "CALL",
      "contractName": null,
      "contractAddress": "0x000000000022d473030f116ddee9f6b43ac78ba3",
      "function": "approve(address,address,uint160,uint48)",
      "arguments": [
        "0xa262a8fa5C50216458b65Ca20803f0bC5019FA75",
        "0xf969Aee60879C54bAAed9F3eD26147Db216Fd664",
        "1461501637330902918203684832716283019655932542975",
        "281474976710655"
      ],
      "transaction": {
        "from": "0x91d5e66951c47fbbfafe57c9ff42d45c46b6044c",
        "to": "0x000000000022d473030f116ddee9f6b43ac78ba3",
        "gas": "0x96a0",
        "value": "0x0",
        "input": "0x87517c45000000000000000000000000a262a8fa5c50216458b65ca20803f0bc5019fa75000000000000000000000000f969aee60879c54baaed9f3ed26147db216fd664000000000000000000000000ffffffffffffffffffffffffffffffffffffffff0000000000000000000000000000000000000000000000000000ffffffffffff",
        "nonce": "0x266",
        "chainId": "0x515"
      },
      "additionalContracts": [],
      "isFixedGasLimit": false
    },
    {
      "hash": "0xb8964866bd49b1bfa70408dfef8d3a96f4dc5c646f5dcce8f3ace994e633b4e5",
      "transactionType": "CALL",
      "contractName": null,
      "contractAddress": "0x000000000022d473030f116ddee9f6b43ac78ba3",
      "function": "approve(address,address,uint160,uint48)",
      "arguments": [
        "0xa262a8fa5C50216458b65Ca20803f0bC5019FA75",
        "0x00B036B58a818B1BC34d502D3fE730Db729e62AC",
        "1461501637330902918203684832716283019655932542975",
        "281474976710655"
      ],
      "transaction": {
        "from": "0x91d5e66951c47fbbfafe57c9ff42d45c46b6044c",
        "to": "0x000000000022d473030f116ddee9f6b43ac78ba3",
        "gas": "0x9f6c",
        "value": "0x0",
        "input": "0x87517c45000000000000000000000000a262a8fa5c50216458b65ca20803f0bc5019fa7500000000000000000000000000b036b58a818b1bc34d502d3fe730db729e62ac000000000000000000000000ffffffffffffffffffffffffffffffffffffffff0000000000000000000000000000000000000000000000000000ffffffffffff",
        "nonce": "0x267",
        "chainId": "0x515"
      },
      "additionalContracts": [],
      "isFixedGasLimit": false
    },
    {
      "hash": "0x6b869c63a832ea00b936ee9b7d4d29e76b6ec27e86337c76dceab4a7fd4d7acb",
      "transactionType": "CALL",
      "contractName": null,
      "contractAddress": "0x31d0220469e10c4e71834a79b1f276d740d3768f",
      "function": "approve(address,uint256)",
      "arguments": [
        "0x000000000022D473030F116dDEE9F6B43aC78BA3",
        "115792089237316195423570985008687907853269984665640564039457584007913129639935"
      ],
      "transaction": {
        "from": "0x91d5e66951c47fbbfafe57c9ff42d45c46b6044c",
        "to": "0x31d0220469e10c4e71834a79b1f276d740d3768f",
        "gas": "0xdca8",
        "value": "0x0",
        "input": "0x095ea7b3000000000000000000000000000000000022d473030f116ddee9f6b43ac78ba3ffffffffffffffffffffffffffffffffffffffffffffffffffffffffffffffff",
        "nonce": "0x268",
        "chainId": "0x515"
      },
      "additionalContracts": [],
      "isFixedGasLimit": false
    },
    {
      "hash": "0x253946d50015faa7f3adff372a77a4ca0a026ee7b95086b2b8b9954189dd1ffd",
      "transactionType": "CALL",
      "contractName": null,
      "contractAddress": "0x000000000022d473030f116ddee9f6b43ac78ba3",
      "function": "approve(address,address,uint160,uint48)",
      "arguments": [
        "0x31d0220469e10c4E71834a79b1f276d740d3768F",
        "0xf969Aee60879C54bAAed9F3eD26147Db216Fd664",
        "1461501637330902918203684832716283019655932542975",
        "281474976710655"
      ],
      "transaction": {
        "from": "0x91d5e66951c47fbbfafe57c9ff42d45c46b6044c",
        "to": "0x000000000022d473030f116ddee9f6b43ac78ba3",
        "gas": "0x96a0",
        "value": "0x0",
        "input": "0x87517c4500000000000000000000000031d0220469e10c4e71834a79b1f276d740d3768f000000000000000000000000f969aee60879c54baaed9f3ed26147db216fd664000000000000000000000000ffffffffffffffffffffffffffffffffffffffff0000000000000000000000000000000000000000000000000000ffffffffffff",
        "nonce": "0x269",
        "chainId": "0x515"
      },
      "additionalContracts": [],
      "isFixedGasLimit": false
    },
    {
      "hash": "0x70c7196ebfba3ed1e513e71691056b1cc937cad4324d7231f66ab92400647ea1",
      "transactionType": "CALL",
      "contractName": null,
      "contractAddress": "0x000000000022d473030f116ddee9f6b43ac78ba3",
      "function": "approve(address,address,uint160,uint48)",
      "arguments": [
        "0x31d0220469e10c4E71834a79b1f276d740d3768F",
        "0x00B036B58a818B1BC34d502D3fE730Db729e62AC",
        "1461501637330902918203684832716283019655932542975",
        "281474976710655"
      ],
      "transaction": {
        "from": "0x91d5e66951c47fbbfafe57c9ff42d45c46b6044c",
        "to": "0x000000000022d473030f116ddee9f6b43ac78ba3",
        "gas": "0x9f6c",
        "value": "0x0",
        "input": "0x87517c4500000000000000000000000031d0220469e10c4e71834a79b1f276d740d3768f00000000000000000000000000b036b58a818b1bc34d502d3fe730db729e62ac000000000000000000000000ffffffffffffffffffffffffffffffffffffffff0000000000000000000000000000000000000000000000000000ffffffffffff",
        "nonce": "0x26a",
        "chainId": "0x515"
      },
      "additionalContracts": [],
      "isFixedGasLimit": false
    },
    {
      "hash": "0xe6012c79989d7dd87b55431ab82e0abdc6e2ec3f9d7174dd027673d40716b000",
      "transactionType": "CALL",
      "contractName": null,
      "contractAddress": "0x00b036b58a818b1bc34d502d3fe730db729e62ac",
      "function": "initialize((address,address,uint24,int24,address),uint160)",
      "arguments": [
        "(0x067a34AD7F20aa0e0A5c2627e4288e34B1182c8E, 0xa262a8fa5C50216458b65Ca20803f0bC5019FA75, 8388608, 60, 0x67592e635186d65c4e9543691ba78fD4295c0Fc0)",
        "3799649193200520420489001079519"
      ],
      "transaction": {
        "from": "0x91d5e66951c47fbbfafe57c9ff42d45c46b6044c",
        "to": "0x00b036b58a818b1bc34d502d3fe730db729e62ac",
        "gas": "0x113fb",
        "value": "0x0",
        "input": "0x6276cbbe000000000000000000000000067a34ad7f20aa0e0a5c2627e4288e34b1182c8e000000000000000000000000a262a8fa5c50216458b65ca20803f0bc5019fa750000000000000000000000000000000000000000000000000000000000800000000000000000000000000000000000000000000000000000000000000000003c00000000000000000000000067592e635186d65c4e9543691ba78fd4295c0fc0000000000000000000000000000000000000002ff55425a98a3834790a7e92df",
        "nonce": "0x26b",
        "chainId": "0x515"
      },
      "additionalContracts": [],
      "isFixedGasLimit": false
    },
    {
      "hash": "0xdc2632060fd6f6f61d8cf6fcbbba4cf749b9b3cdc50fd463c4cd035d7f1bed32",
      "transactionType": "CALL",
      "contractName": null,
      "contractAddress": "0x00b036b58a818b1bc34d502d3fe730db729e62ac",
      "function": "initialize((address,address,uint24,int24,address),uint160)",
      "arguments": [
        "(0x0000000000000000000000000000000000000000, 0x31d0220469e10c4E71834a79b1f276d740d3768F, 8388608, 60, 0x67592e635186d65c4e9543691ba78fD4295c0Fc0)",
        "3799649193200520420489001"
      ],
      "transaction": {
        "from": "0x91d5e66951c47fbbfafe57c9ff42d45c46b6044c",
        "to": "0x00b036b58a818b1bc34d502d3fe730db729e62ac",
        "gas": "0x1272a",
        "value": "0x0",
        "input": "0x6276cbbe000000000000000000000000000000000000000000000000000000000000000000000000000000000000000031d0220469e10c4e71834a79b1f276d740d3768f0000000000000000000000000000000000000000000000000000000000800000000000000000000000000000000000000000000000000000000000000000003c00000000000000000000000067592e635186d65c4e9543691ba78fd4295c0fc000000000000000000000000000000000000000000003249b653f53a79af97729",
        "nonce": "0x26c",
        "chainId": "0x515"
      },
      "additionalContracts": [],
      "isFixedGasLimit": false
    },
    {
      "hash": "0xfaceedb9fc4e86e341cb65d5680945d952ce2253b4aea81da9686aa605527c14",
      "transactionType": "CALL",
      "contractName": null,
      "contractAddress": "0xf969aee60879c54baaed9f3ed26147db216fd664",
      "function": "modifyLiquidities(bytes,uint256)",
      "arguments": [
        "0x000000000000000000000000000000000000000000000000000000000000004000000000000000000000000000000000000000000000000000000000000000800000000000000000000000000000000000000000000000000000000000000004020d14140000000000000000000000000000000000000000000000000000000000000000000000000000000000000000000000000000000000000000000000040000000000000000000000000000000000000000000000000000000000000080000000000000000000000000000000000000000000000000000000000000024000000000000000000000000000000000000000000000000000000000000002a0000000000000000000000000000000000000000000000000000000000000030000000000000000000000000000000000000000000000000000000000000001a0000000000000000000000000067a34ad7f20aa0e0a5c2627e4288e34b1182c8e000000000000000000000000a262a8fa5c50216458b65ca20803f0bc5019fa750000000000000000000000000000000000000000000000000000000000800000000000000000000000000000000000000000000000000000000000000000003c00000000000000000000000067592e635186d65c4e9543691ba78fd4295c0fc0fffffffffffffffffffffffffffffffffffffffffffffffffffffffffff2764c00000000000000000000000000000000000000000000000000000000000d89b400000000000000000000000000000000000000000000003635c9adc5dea00000000000000000000000000000000000000000000000000001215f337b9a10dcf6000000000000000000000000000000000000000000000a27d3528a7c2f83157100000000000000000000000091d5e66951c47fbbfafe57c9ff42d45c46b6044c000000000000000000000000000000000000000000000000000000000000018000000000000000000000000000000000000000000000000000000000000000000000000000000000000000000000000000000000000000000000000000000040000000000000000000000000067a34ad7f20aa0e0a5c2627e4288e34b1182c8e000000000000000000000000a262a8fa5c50216458b65ca20803f0bc5019fa750000000000000000000000000000000000000000000000000000000000000040000000000000000000000000067a34ad7f20aa0e0a5c2627e4288e34b1182c8e00000000000000000000000091d5e66951c47fbbfafe57c9ff42d45c46b6044c0000000000000000000000000000000000000000000000000000000000000040000000000000000000000000a262a8fa5c50216458b65ca20803f0bc5019fa7500000000000000000000000091d5e66951c47fbbfafe57c9ff42d45c46b6044c",
        "1773986312"
      ],
      "transaction": {
        "from": "0x91d5e66951c47fbbfafe57c9ff42d45c46b6044c",
        "to": "0xf969aee60879c54baaed9f3ed26147db216fd664",
        "gas": "0xa347c",
        "value": "0x0",
        "input": "0xdd46508f00000000000000000000000000000000000000000000000000000000000000400000000000000000000000000000000000000000000000000000000069bce2080000000000000000000000000000000000000000000000000000000000000400000000000000000000000000000000000000000000000000000000000000004000000000000000000000000000000000000000000000000000000000000000800000000000000000000000000000000000000000000000000000000000000004020d14140000000000000000000000000000000000000000000000000000000000000000000000000000000000000000000000000000000000000000000000040000000000000000000000000000000000000000000000000000000000000080000000000000000000000000000000000000000000000000000000000000024000000000000000000000000000000000000000000000000000000000000002a0000000000000000000000000000000000000000000000000000000000000030000000000000000000000000000000000000000000000000000000000000001a0000000000000000000000000067a34ad7f20aa0e0a5c2627e4288e34b1182c8e000000000000000000000000a262a8fa5c50216458b65ca20803f0bc5019fa750000000000000000000000000000000000000000000000000000000000800000000000000000000000000000000000000000000000000000000000000000003c00000000000000000000000067592e635186d65c4e9543691ba78fd4295c0fc0fffffffffffffffffffffffffffffffffffffffffffffffffffffffffff2764c00000000000000000000000000000000000000000000000000000000000d89b400000000000000000000000000000000000000000000003635c9adc5dea00000000000000000000000000000000000000000000000000001215f337b9a10dcf6000000000000000000000000000000000000000000000a27d3528a7c2f83157100000000000000000000000091d5e66951c47fbbfafe57c9ff42d45c46b6044c000000000000000000000000000000000000000000000000000000000000018000000000000000000000000000000000000000000000000000000000000000000000000000000000000000000000000000000000000000000000000000000040000000000000000000000000067a34ad7f20aa0e0a5c2627e4288e34b1182c8e000000000000000000000000a262a8fa5c50216458b65ca20803f0bc5019fa750000000000000000000000000000000000000000000000000000000000000040000000000000000000000000067a34ad7f20aa0e0a5c2627e4288e34b1182c8e00000000000000000000000091d5e66951c47fbbfafe57c9ff42d45c46b6044c0000000000000000000000000000000000000000000000000000000000000040000000000000000000000000a262a8fa5c50216458b65ca20803f0bc5019fa7500000000000000000000000091d5e66951c47fbbfafe57c9ff42d45c46b6044c",
        "nonce": "0x26d",
        "chainId": "0x515"
      },
      "additionalContracts": [],
      "isFixedGasLimit": false
    },
    {
      "hash": "0x82909d1836c7ca237b39d4df3df577b615ccc06a8576a326dea2d782aa25986b",
      "transactionType": "CALL",
      "contractName": null,
      "contractAddress": "0xf969aee60879c54baaed9f3ed26147db216fd664",
      "function": "modifyLiquidities(bytes,uint256)",
      "arguments": [
        "0x000000000000000000000000000000000000000000000000000000000000004000000000000000000000000000000000000000000000000000000000000000800000000000000000000000000000000000000000000000000000000000000004020d14140000000000000000000000000000000000000000000000000000000000000000000000000000000000000000000000000000000000000000000000040000000000000000000000000000000000000000000000000000000000000080000000000000000000000000000000000000000000000000000000000000024000000000000000000000000000000000000000000000000000000000000002a0000000000000000000000000000000000000000000000000000000000000030000000000000000000000000000000000000000000000000000000000000001a0000000000000000000000000000000000000000000000000000000000000000000000000000000000000000031d0220469e10c4e71834a79b1f276d740d3768f0000000000000000000000000000000000000000000000000000000000800000000000000000000000000000000000000000000000000000000000000000003c00000000000000000000000067592e635186d65c4e9543691ba78fd4295c0fc0fffffffffffffffffffffffffffffffffffffffffffffffffffffffffff2764c00000000000000000000000000000000000000000000000000000000000d89b40000000000000000000000000000000000000000000000000000045c9dd597f0000000000000000000000000000000000000000000000000016345785d89c565000000000000000000000000000000000000000000000000000000000db5858000000000000000000000000091d5e66951c47fbbfafe57c9ff42d45c46b6044c000000000000000000000000000000000000000000000000000000000000018000000000000000000000000000000000000000000000000000000000000000000000000000000000000000000000000000000000000000000000000000000040000000000000000000000000000000000000000000000000000000000000000000000000000000000000000031d0220469e10c4e71834a79b1f276d740d3768f0000000000000000000000000000000000000000000000000000000000000040000000000000000000000000000000000000000000000000000000000000000000000000000000000000000091d5e66951c47fbbfafe57c9ff42d45c46b6044c000000000000000000000000000000000000000000000000000000000000004000000000000000000000000031d0220469e10c4e71834a79b1f276d740d3768f00000000000000000000000091d5e66951c47fbbfafe57c9ff42d45c46b6044c",
        "1773986312"
      ],
      "transaction": {
        "from": "0x91d5e66951c47fbbfafe57c9ff42d45c46b6044c",
        "to": "0xf969aee60879c54baaed9f3ed26147db216fd664",
        "gas": "0x8bc71",
        "value": "0x16345785d89c565",
        "input": "0xdd46508f00000000000000000000000000000000000000000000000000000000000000400000000000000000000000000000000000000000000000000000000069bce2080000000000000000000000000000000000000000000000000000000000000400000000000000000000000000000000000000000000000000000000000000004000000000000000000000000000000000000000000000000000000000000000800000000000000000000000000000000000000000000000000000000000000004020d14140000000000000000000000000000000000000000000000000000000000000000000000000000000000000000000000000000000000000000000000040000000000000000000000000000000000000000000000000000000000000080000000000000000000000000000000000000000000000000000000000000024000000000000000000000000000000000000000000000000000000000000002a0000000000000000000000000000000000000000000000000000000000000030000000000000000000000000000000000000000000000000000000000000001a0000000000000000000000000000000000000000000000000000000000000000000000000000000000000000031d0220469e10c4e71834a79b1f276d740d3768f0000000000000000000000000000000000000000000000000000000000800000000000000000000000000000000000000000000000000000000000000000003c00000000000000000000000067592e635186d65c4e9543691ba78fd4295c0fc0fffffffffffffffffffffffffffffffffffffffffffffffffffffffffff2764c00000000000000000000000000000000000000000000000000000000000d89b40000000000000000000000000000000000000000000000000000045c9dd597f0000000000000000000000000000000000000000000000000016345785d89c565000000000000000000000000000000000000000000000000000000000db5858000000000000000000000000091d5e66951c47fbbfafe57c9ff42d45c46b6044c000000000000000000000000000000000000000000000000000000000000018000000000000000000000000000000000000000000000000000000000000000000000000000000000000000000000000000000000000000000000000000000040000000000000000000000000000000000000000000000000000000000000000000000000000000000000000031d0220469e10c4e71834a79b1f276d740d3768f0000000000000000000000000000000000000000000000000000000000000040000000000000000000000000000000000000000000000000000000000000000000000000000000000000000091d5e66951c47fbbfafe57c9ff42d45c46b6044c000000000000000000000000000000000000000000000000000000000000004000000000000000000000000031d0220469e10c4e71834a79b1f276d740d3768f00000000000000000000000091d5e66951c47fbbfafe57c9ff42d45c46b6044c",
        "nonce": "0x26e",
        "chainId": "0x515"
      },
      "additionalContracts": [],
      "isFixedGasLimit": false
    }
  ],
  "receipts": [
    {
      "status": "0x1",
      "cumulativeGasUsed": "0x2e225",
      "logs": [
        {
          "address": "0x067a34ad7f20aa0e0a5c2627e4288e34b1182c8e",
          "topics": [
            "0x8c5be1e5ebec7d5bd14f71427d1e84f3dd0314c0f7b2291e5b200ac8c7c3b925",
            "0x00000000000000000000000091d5e66951c47fbbfafe57c9ff42d45c46b6044c",
            "0x000000000000000000000000000000000022d473030f116ddee9f6b43ac78ba3"
          ],
          "data": "0xffffffffffffffffffffffffffffffffffffffffffffffffffffffffffffffff",
          "blockHash": "0x13442b43fced0e03d0ab8e8304b76eb967ad2a88f3d549d89840ca2b4fac1567",
          "blockNumber": "0x2cf26d0",
          "blockTimestamp": "0x69bcd41c",
          "transactionHash": "0x82909d1836c7ca237b39d4df3df577b615ccc06a8576a326dea2d782aa25986b",
          "transactionIndex": "0x3",
          "logIndex": "0x1",
          "removed": false
        }
      ],
      "logsBloom": "0x00000000000000000000000000000000000000000000000000000000000000000000000000000000000000000000000008000000800000000000000000200000000000000000000400004000000000000000000000000800000000000000000000000000000000000000000000000000000000000002000000000000000000000000000000000000000000000000000400000000000000000000000000000000020000000000000000000000000000000000000000000000000000000000000000000000000000000000000000000000000000000000004000000000000000000010000000000000000000000000000000000000000000000000000000000000",
      "type": "0x2",
      "transactionHash": "0x82909d1836c7ca237b39d4df3df577b615ccc06a8576a326dea2d782aa25986b",
      "transactionIndex": "0x3",
      "blockHash": "0x13442b43fced0e03d0ab8e8304b76eb967ad2a88f3d549d89840ca2b4fac1567",
      "blockNumber": "0x2cf26d0",
      "gasUsed": "0x682d",
      "effectiveGasPrice": "0xee72c920",
      "blobGasUsed": "0x9c40",
      "from": "0x91d5e66951c47fbbfafe57c9ff42d45c46b6044c",
      "to": "0x067a34ad7f20aa0e0a5c2627e4288e34b1182c8e",
      "contractAddress": null,
      "daFootprintGasScalar": "0x190",
      "l1BaseFeeScalar": "0x7d0",
      "l1BlobBaseFee": "0x1",
      "l1BlobBaseFeeScalar": "0xdbba0",
      "l1Fee": "0x7a",
      "l1GasPrice": "0xa",
      "l1GasUsed": "0x640"
    },
    {
      "status": "0x1",
      "cumulativeGasUsed": "0x34f33",
      "logs": [
        {
          "address": "0x000000000022d473030f116ddee9f6b43ac78ba3",
          "topics": [
            "0xda9fa7c1b00402c17d0161b249b1ab8bbec047c5a52207b9c112deffd817036b",
            "0x00000000000000000000000091d5e66951c47fbbfafe57c9ff42d45c46b6044c",
            "0x000000000000000000000000067a34ad7f20aa0e0a5c2627e4288e34b1182c8e",
            "0x000000000000000000000000f969aee60879c54baaed9f3ed26147db216fd664"
          ],
          "data": "0x000000000000000000000000ffffffffffffffffffffffffffffffffffffffff0000000000000000000000000000000000000000000000000000ffffffffffff",
          "blockHash": "0x13442b43fced0e03d0ab8e8304b76eb967ad2a88f3d549d89840ca2b4fac1567",
          "blockNumber": "0x2cf26d0",
          "blockTimestamp": "0x69bcd41c",
          "transactionHash": "0xe6012c79989d7dd87b55431ab82e0abdc6e2ec3f9d7174dd027673d40716b000",
          "transactionIndex": "0x4",
          "logIndex": "0x2",
          "removed": false
        }
      ],
      "logsBloom": "0x00010000000000000000000000000000000000000000000000004000000000000000000000000000000000000000000008000000800000000000000000080000000000000008000000000000000000000000000000000000000000001000000000000000000000000000000000000000000000000040000000000000000000000020000000000000000000000000000400000000000000000000000000000000000000000000000000000000000000000000000000000000000000080000000000000000000000000000000000000000000000000000000040000000004000000000000000000000000000000000000000000000000000000000000000002400",
      "type": "0x2",
      "transactionHash": "0xe6012c79989d7dd87b55431ab82e0abdc6e2ec3f9d7174dd027673d40716b000",
      "transactionIndex": "0x4",
      "blockHash": "0x13442b43fced0e03d0ab8e8304b76eb967ad2a88f3d549d89840ca2b4fac1567",
      "blockNumber": "0x2cf26d0",
      "gasUsed": "0x6d0e",
      "effectiveGasPrice": "0xee72c920",
      "blobGasUsed": "0xb220",
      "from": "0x91d5e66951c47fbbfafe57c9ff42d45c46b6044c",
      "to": "0x000000000022d473030f116ddee9f6b43ac78ba3",
      "contractAddress": null,
      "daFootprintGasScalar": "0x190",
      "l1BaseFeeScalar": "0x7d0",
      "l1BlobBaseFee": "0x1",
      "l1BlobBaseFeeScalar": "0xdbba0",
      "l1Fee": "0x8b",
      "l1GasPrice": "0xa",
      "l1GasUsed": "0x72a"
    },
    {
      "status": "0x1",
      "cumulativeGasUsed": "0x3bc35",
      "logs": [
        {
          "address": "0x000000000022d473030f116ddee9f6b43ac78ba3",
          "topics": [
            "0xda9fa7c1b00402c17d0161b249b1ab8bbec047c5a52207b9c112deffd817036b",
            "0x00000000000000000000000091d5e66951c47fbbfafe57c9ff42d45c46b6044c",
            "0x000000000000000000000000067a34ad7f20aa0e0a5c2627e4288e34b1182c8e",
            "0x00000000000000000000000000b036b58a818b1bc34d502d3fe730db729e62ac"
          ],
          "data": "0x000000000000000000000000ffffffffffffffffffffffffffffffffffffffff0000000000000000000000000000000000000000000000000000ffffffffffff",
          "blockHash": "0x13442b43fced0e03d0ab8e8304b76eb967ad2a88f3d549d89840ca2b4fac1567",
          "blockNumber": "0x2cf26d0",
          "blockTimestamp": "0x69bcd41c",
          "transactionHash": "0xb4e8fd188c277d1e339c6f5b111a12533ce6b7fcbb1cc7aa82f3ed0d624a2605",
          "transactionIndex": "0x5",
          "logIndex": "0x3",
          "removed": false
        }
      ],
      "logsBloom": "0x00010000000000000000000000000000000000000000000000004000000000000000000000000000000000000000000008000000801000000000000000080000000000000008000000000000000000000000000000000000000000000000000000000000000000000000000000004000000000000000000000000000000000000020000000000000000000000000000400000000000000000000000000000000000000000000000000000000000000000000000000000020000000080000000000000000000000000000000000000000000000000000000040000000004000000000000000000000000000000000000000000000000000000000000000000400",
      "type": "0x2",
      "transactionHash": "0xb4e8fd188c277d1e339c6f5b111a12533ce6b7fcbb1cc7aa82f3ed0d624a2605",
      "transactionIndex": "0x5",
      "blockHash": "0x13442b43fced0e03d0ab8e8304b76eb967ad2a88f3d549d89840ca2b4fac1567",
      "blockNumber": "0x2cf26d0",
      "gasUsed": "0x6d02",
      "effectiveGasPrice": "0xee72c920",
      "blobGasUsed": "0xb090",
      "from": "0x91d5e66951c47fbbfafe57c9ff42d45c46b6044c",
      "to": "0x000000000022d473030f116ddee9f6b43ac78ba3",
      "contractAddress": null,
      "daFootprintGasScalar": "0x190",
      "l1BaseFeeScalar": "0x7d0",
      "l1BlobBaseFee": "0x1",
      "l1BlobBaseFeeScalar": "0xdbba0",
      "l1Fee": "0x8a",
      "l1GasPrice": "0xa",
      "l1GasUsed": "0x71d"
    },
    {
      "status": "0x1",
      "cumulativeGasUsed": "0x42462",
      "logs": [
        {
          "address": "0xa262a8fa5c50216458b65ca20803f0bc5019fa75",
          "topics": [
            "0x8c5be1e5ebec7d5bd14f71427d1e84f3dd0314c0f7b2291e5b200ac8c7c3b925",
            "0x00000000000000000000000091d5e66951c47fbbfafe57c9ff42d45c46b6044c",
            "0x000000000000000000000000000000000022d473030f116ddee9f6b43ac78ba3"
          ],
          "data": "0xffffffffffffffffffffffffffffffffffffffffffffffffffffffffffffffff",
          "blockHash": "0x13442b43fced0e03d0ab8e8304b76eb967ad2a88f3d549d89840ca2b4fac1567",
          "blockNumber": "0x2cf26d0",
          "blockTimestamp": "0x69bcd41c",
          "transactionHash": "0x7a862f3576ae6304a7c463408e0b38c7723b31b29994e7d80acb6b70f4b409d5",
          "transactionIndex": "0x6",
          "logIndex": "0x4",
          "removed": false
        }
      ],
      "logsBloom": "0x00000000040000000000000000000000000000000000000000000000000000000000000000000000000000000000000008000008800000000000000000200000000000000000000000004000000000000000000000000800000000000000000000000000000000000000000000000000000000000000000000000000000000000000000000008000000000000000000400000000000000000000000000000000020000000000000000000000000000000000000000000000000000000000000000000000000000000000000000000000000000000000000000000000000000000010000000000000000000000000000000000000000000000000000000000000",
      "type": "0x2",
      "transactionHash": "0x7a862f3576ae6304a7c463408e0b38c7723b31b29994e7d80acb6b70f4b409d5",
      "transactionIndex": "0x6",
      "blockHash": "0x13442b43fced0e03d0ab8e8304b76eb967ad2a88f3d549d89840ca2b4fac1567",
      "blockNumber": "0x2cf26d0",
      "gasUsed": "0x682d",
      "effectiveGasPrice": "0xee72c920",
      "blobGasUsed": "0x9c40",
      "from": "0x91d5e66951c47fbbfafe57c9ff42d45c46b6044c",
      "to": "0xa262a8fa5c50216458b65ca20803f0bc5019fa75",
      "contractAddress": null,
      "daFootprintGasScalar": "0x190",
      "l1BaseFeeScalar": "0x7d0",
      "l1BlobBaseFee": "0x1",
      "l1BlobBaseFeeScalar": "0xdbba0",
      "l1Fee": "0x7a",
      "l1GasPrice": "0xa",
      "l1GasUsed": "0x640"
    },
    {
      "status": "0x1",
      "cumulativeGasUsed": "0x49170",
      "logs": [
        {
          "address": "0x000000000022d473030f116ddee9f6b43ac78ba3",
          "topics": [
            "0xda9fa7c1b00402c17d0161b249b1ab8bbec047c5a52207b9c112deffd817036b",
            "0x00000000000000000000000091d5e66951c47fbbfafe57c9ff42d45c46b6044c",
            "0x000000000000000000000000a262a8fa5c50216458b65ca20803f0bc5019fa75",
            "0x000000000000000000000000f969aee60879c54baaed9f3ed26147db216fd664"
          ],
          "data": "0x000000000000000000000000ffffffffffffffffffffffffffffffffffffffff0000000000000000000000000000000000000000000000000000ffffffffffff",
          "blockHash": "0x13442b43fced0e03d0ab8e8304b76eb967ad2a88f3d549d89840ca2b4fac1567",
          "blockNumber": "0x2cf26d0",
          "blockTimestamp": "0x69bcd41c",
          "transactionHash": "0x2c0bb689b8de154ab43d688ba4ea5aa9441f8fdf3cc131dc6e2798fd3c843e6a",
          "transactionIndex": "0x7",
          "logIndex": "0x5",
          "removed": false
        }
      ],
      "logsBloom": "0x00010000000000000000000000000000000000000000000000000000000000000000000000000000000000000000000008000000800000000000000000080000000000000000000000000000000010000000000000000000000000001000000000000000000000000000000000000000000000000040000000000000000000000020000000000000000000000000000404000000000000000000000000000000000000000000000000000000000000000000000000000000800000080000000000000000000000000000000000000000000000000000000040000000000000000000000000000000000000000000000000000000000000000000000000002400",
      "type": "0x2",
      "transactionHash": "0x2c0bb689b8de154ab43d688ba4ea5aa9441f8fdf3cc131dc6e2798fd3c843e6a",
      "transactionIndex": "0x7",
      "blockHash": "0x13442b43fced0e03d0ab8e8304b76eb967ad2a88f3d549d89840ca2b4fac1567",
      "blockNumber": "0x2cf26d0",
      "gasUsed": "0x6d0e",
      "effectiveGasPrice": "0xee72c920",
      "blobGasUsed": "0xb220",
      "from": "0x91d5e66951c47fbbfafe57c9ff42d45c46b6044c",
      "to": "0x000000000022d473030f116ddee9f6b43ac78ba3",
      "contractAddress": null,
      "daFootprintGasScalar": "0x190",
      "l1BaseFeeScalar": "0x7d0",
      "l1BlobBaseFee": "0x1",
      "l1BlobBaseFeeScalar": "0xdbba0",
      "l1Fee": "0x8b",
      "l1GasPrice": "0xa",
      "l1GasUsed": "0x72a"
    },
    {
      "status": "0x1",
      "cumulativeGasUsed": "0x4fe72",
      "logs": [
        {
          "address": "0x000000000022d473030f116ddee9f6b43ac78ba3",
          "topics": [
            "0xda9fa7c1b00402c17d0161b249b1ab8bbec047c5a52207b9c112deffd817036b",
            "0x00000000000000000000000091d5e66951c47fbbfafe57c9ff42d45c46b6044c",
            "0x000000000000000000000000a262a8fa5c50216458b65ca20803f0bc5019fa75",
            "0x00000000000000000000000000b036b58a818b1bc34d502d3fe730db729e62ac"
          ],
          "data": "0x000000000000000000000000ffffffffffffffffffffffffffffffffffffffff0000000000000000000000000000000000000000000000000000ffffffffffff",
          "blockHash": "0x13442b43fced0e03d0ab8e8304b76eb967ad2a88f3d549d89840ca2b4fac1567",
          "blockNumber": "0x2cf26d0",
          "blockTimestamp": "0x69bcd41c",
          "transactionHash": "0xb8964866bd49b1bfa70408dfef8d3a96f4dc5c646f5dcce8f3ace994e633b4e5",
          "transactionIndex": "0x8",
          "logIndex": "0x6",
          "removed": false
        }
      ],
      "logsBloom": "0x00010000000000000000000000000000000000000000000000000000000000000000000000000000000000000000000008000000801000000000000000080000000000000000000000000000000010000000000000000000000000000000000000000000000000000000000000004000000000000000000000000000000000000020000000000000000000000000000404000000000000000000000000000000000000000000000000000000000000000000000000000020800000080000000000000000000000000000000000000000000000000000000040000000000000000000000000000000000000000000000000000000000000000000000000000400",
      "type": "0x2",
      "transactionHash": "0xb8964866bd49b1bfa70408dfef8d3a96f4dc5c646f5dcce8f3ace994e633b4e5",
      "transactionIndex": "0x8",
      "blockHash": "0x13442b43fced0e03d0ab8e8304b76eb967ad2a88f3d549d89840ca2b4fac1567",
      "blockNumber": "0x2cf26d0",
      "gasUsed": "0x6d02",
      "effectiveGasPrice": "0xee72c920",
      "blobGasUsed": "0xb090",
      "from": "0x91d5e66951c47fbbfafe57c9ff42d45c46b6044c",
      "to": "0x000000000022d473030f116ddee9f6b43ac78ba3",
      "contractAddress": null,
      "daFootprintGasScalar": "0x190",
      "l1BaseFeeScalar": "0x7d0",
      "l1BlobBaseFee": "0x1",
      "l1BlobBaseFeeScalar": "0xdbba0",
      "l1Fee": "0x8a",
      "l1GasPrice": "0xa",
      "l1GasUsed": "0x71d"
    },
    {
      "status": "0x1",
      "cumulativeGasUsed": "0x59553",
      "logs": [
        {
          "address": "0x31d0220469e10c4e71834a79b1f276d740d3768f",
          "topics": [
            "0x8c5be1e5ebec7d5bd14f71427d1e84f3dd0314c0f7b2291e5b200ac8c7c3b925",
            "0x00000000000000000000000091d5e66951c47fbbfafe57c9ff42d45c46b6044c",
            "0x000000000000000000000000000000000022d473030f116ddee9f6b43ac78ba3"
          ],
          "data": "0xffffffffffffffffffffffffffffffffffffffffffffffffffffffffffffffff",
          "blockHash": "0x13442b43fced0e03d0ab8e8304b76eb967ad2a88f3d549d89840ca2b4fac1567",
          "blockNumber": "0x2cf26d0",
          "blockTimestamp": "0x69bcd41c",
          "transactionHash": "0xfaceedb9fc4e86e341cb65d5680945d952ce2253b4aea81da9686aa605527c14",
          "transactionIndex": "0x9",
          "logIndex": "0x7",
          "removed": false
        }
      ],
      "logsBloom": "0x00000000000000000000000000000000000000000000000000000000000000000000000000000000000000000000000008000000800000000000000000200000000000000000000000004000000000000000000000001800000000000000000000000000000000000000000000000000000000000000000000000000000000000000000000000000000000000000000400000000000000000000000000000000020000000001000080000000000000000000000000000000000000000000000000000000000000000000000000000000000000000000000000000000000000000010000000000000000000000000000000000000000000000000000000000000",
      "type": "0x2",
      "transactionHash": "0xfaceedb9fc4e86e341cb65d5680945d952ce2253b4aea81da9686aa605527c14",
      "transactionIndex": "0x9",
      "blockHash": "0x13442b43fced0e03d0ab8e8304b76eb967ad2a88f3d549d89840ca2b4fac1567",
      "blockNumber": "0x2cf26d0",
      "gasUsed": "0x96e1",
      "effectiveGasPrice": "0xee72c920",
      "blobGasUsed": "0x9c40",
      "from": "0x91d5e66951c47fbbfafe57c9ff42d45c46b6044c",
      "to": "0x31d0220469e10c4e71834a79b1f276d740d3768f",
      "contractAddress": null,
      "daFootprintGasScalar": "0x190",
      "l1BaseFeeScalar": "0x7d0",
      "l1BlobBaseFee": "0x1",
      "l1BlobBaseFeeScalar": "0xdbba0",
      "l1Fee": "0x7a",
      "l1GasPrice": "0xa",
      "l1GasUsed": "0x640"
    },
    {
      "status": "0x1",
      "cumulativeGasUsed": "0x60261",
      "logs": [
        {
          "address": "0x000000000022d473030f116ddee9f6b43ac78ba3",
          "topics": [
            "0xda9fa7c1b00402c17d0161b249b1ab8bbec047c5a52207b9c112deffd817036b",
            "0x00000000000000000000000091d5e66951c47fbbfafe57c9ff42d45c46b6044c",
            "0x00000000000000000000000031d0220469e10c4e71834a79b1f276d740d3768f",
            "0x000000000000000000000000f969aee60879c54baaed9f3ed26147db216fd664"
          ],
          "data": "0x000000000000000000000000ffffffffffffffffffffffffffffffffffffffff0000000000000000000000000000000000000000000000000000ffffffffffff",
          "blockHash": "0x13442b43fced0e03d0ab8e8304b76eb967ad2a88f3d549d89840ca2b4fac1567",
          "blockNumber": "0x2cf26d0",
          "blockTimestamp": "0x69bcd41c",
          "transactionHash": "0x9f79694348b508ad8708a8118d7e562fa657681241d358d9d40d9675ab82ca92",
          "transactionIndex": "0xa",
          "logIndex": "0x8",
          "removed": false
        }
      ],
      "logsBloom": "0x00010000000000000000000000000000000000000000000000000000000000000000000000000080000000000000000008000000800000000000000000080000000000000000000000000000000000000000000000000000000000001000000000000000000000000000000000000000000000000040000000000000000000000020000000000000000000000000000400000000000000000000000000000000000000000000000000000000000000000000000000000000000000080000000000000000000000008000000000000000000000000000000040000000000000000000000000001000000000000000000000000000000000000000000000002400",
      "type": "0x2",
      "transactionHash": "0x9f79694348b508ad8708a8118d7e562fa657681241d358d9d40d9675ab82ca92",
      "transactionIndex": "0xa",
      "blockHash": "0x13442b43fced0e03d0ab8e8304b76eb967ad2a88f3d549d89840ca2b4fac1567",
      "blockNumber": "0x2cf26d0",
      "gasUsed": "0x6d0e",
      "effectiveGasPrice": "0xee72c920",
      "blobGasUsed": "0xb220",
      "from": "0x91d5e66951c47fbbfafe57c9ff42d45c46b6044c",
      "to": "0x000000000022d473030f116ddee9f6b43ac78ba3",
      "contractAddress": null,
      "daFootprintGasScalar": "0x190",
      "l1BaseFeeScalar": "0x7d0",
      "l1BlobBaseFee": "0x1",
      "l1BlobBaseFeeScalar": "0xdbba0",
      "l1Fee": "0x8b",
      "l1GasPrice": "0xa",
      "l1GasUsed": "0x72a"
    },
    {
      "status": "0x1",
      "cumulativeGasUsed": "0x66f63",
      "logs": [
        {
          "address": "0x000000000022d473030f116ddee9f6b43ac78ba3",
          "topics": [
            "0xda9fa7c1b00402c17d0161b249b1ab8bbec047c5a52207b9c112deffd817036b",
            "0x00000000000000000000000091d5e66951c47fbbfafe57c9ff42d45c46b6044c",
            "0x00000000000000000000000031d0220469e10c4e71834a79b1f276d740d3768f",
            "0x00000000000000000000000000b036b58a818b1bc34d502d3fe730db729e62ac"
          ],
          "data": "0x000000000000000000000000ffffffffffffffffffffffffffffffffffffffff0000000000000000000000000000000000000000000000000000ffffffffffff",
          "blockHash": "0x13442b43fced0e03d0ab8e8304b76eb967ad2a88f3d549d89840ca2b4fac1567",
          "blockNumber": "0x2cf26d0",
          "blockTimestamp": "0x69bcd41c",
          "transactionHash": "0xb64a4b5b0943e81af122c646dbcd53c06ccee4f2b653980a7f316572396588ab",
          "transactionIndex": "0xb",
          "logIndex": "0x9",
          "removed": false
        }
      ],
      "logsBloom": "0x00010000000000000000000000000000000000000000000000000000000000000000000000000080000000000000000008000000801000000000000000080000000000000000000000000000000000000000000000000000000000000000000000000000000000000000000000004000000000000000000000000000000000000020000000000000000000000000000400000000000000000000000000000000000000000000000000000000000000000000000000000020000000080000000000000000000000008000000000000000000000000000000040000000000000000000000000001000000000000000000000000000000000000000000000000400",
      "type": "0x2",
      "transactionHash": "0xb64a4b5b0943e81af122c646dbcd53c06ccee4f2b653980a7f316572396588ab",
      "transactionIndex": "0xb",
      "blockHash": "0x13442b43fced0e03d0ab8e8304b76eb967ad2a88f3d549d89840ca2b4fac1567",
      "blockNumber": "0x2cf26d0",
      "gasUsed": "0x6d02",
      "effectiveGasPrice": "0xee72c920",
      "blobGasUsed": "0xb090",
      "from": "0x91d5e66951c47fbbfafe57c9ff42d45c46b6044c",
      "to": "0x000000000022d473030f116ddee9f6b43ac78ba3",
      "contractAddress": null,
      "daFootprintGasScalar": "0x190",
      "l1BaseFeeScalar": "0x7d0",
      "l1BlobBaseFee": "0x1",
      "l1BlobBaseFeeScalar": "0xdbba0",
      "l1Fee": "0x8a",
      "l1GasPrice": "0xa",
      "l1GasUsed": "0x71d"
    },
    {
      "status": "0x1",
      "cumulativeGasUsed": "0x73732",
      "logs": [
        {
          "address": "0x00b036b58a818b1bc34d502d3fe730db729e62ac",
          "topics": [
            "0xdd466e674ea557f56295e2d0218a125ea4b4f0f6f3307b95f85e6110838d6438",
            "0xb9dfa7431da91b065295b8cd92c59bdeb8abd1b6e630b613f3a875c84b8aab7f",
            "0x000000000000000000000000067a34ad7f20aa0e0a5c2627e4288e34b1182c8e",
            "0x000000000000000000000000a262a8fa5c50216458b65ca20803f0bc5019fa75"
          ],
          "data": "0x0000000000000000000000000000000000000000000000000000000000800000000000000000000000000000000000000000000000000000000000000000003c00000000000000000000000067592e635186d65c4e9543691ba78fd4295c0fc0000000000000000000000000000000000000002ff55425a98a3834790a7e92df0000000000000000000000000000000000000000000000000000000000012e62",
          "blockHash": "0x13442b43fced0e03d0ab8e8304b76eb967ad2a88f3d549d89840ca2b4fac1567",
          "blockNumber": "0x2cf26d0",
          "blockTimestamp": "0x69bcd41c",
          "transactionHash": "0x253946d50015faa7f3adff372a77a4ca0a026ee7b95086b2b8b9954189dd1ffd",
          "transactionIndex": "0xc",
          "logIndex": "0xa",
          "removed": false
        }
      ],
      "logsBloom": "0x00000000000000000000000000000000000000000000000000004000000000000000000000000000000000000000000000000000000000000000000000000000000000000008000000000000000010000000008000000000000000000000000000001000000000000000000000000000000000000000000000000000000000000000000000000008000000000008000004000001000000000000000000200000000000000000000000000000000000000000000010000000800000000000000000000000000000000000000000000000000000000000000000000000004000000000000000000000000000000000000000000000000002000000000000000010",
      "type": "0x2",
      "transactionHash": "0x253946d50015faa7f3adff372a77a4ca0a026ee7b95086b2b8b9954189dd1ffd",
      "transactionIndex": "0xc",
      "blockHash": "0x13442b43fced0e03d0ab8e8304b76eb967ad2a88f3d549d89840ca2b4fac1567",
      "blockNumber": "0x2cf26d0",
      "gasUsed": "0xc7cf",
      "effectiveGasPrice": "0xee72c920",
      "blobGasUsed": "0xed80",
      "from": "0x91d5e66951c47fbbfafe57c9ff42d45c46b6044c",
      "to": "0x00b036b58a818b1bc34d502d3fe730db729e62ac",
      "contractAddress": null,
      "daFootprintGasScalar": "0x190",
      "l1BaseFeeScalar": "0x7d0",
      "l1BlobBaseFee": "0x1",
      "l1BlobBaseFeeScalar": "0xdbba0",
      "l1Fee": "0xb9",
      "l1GasPrice": "0xa",
      "l1GasUsed": "0x985"
    },
    {
      "status": "0x1",
      "cumulativeGasUsed": "0x80105",
      "logs": [
        {
          "address": "0x00b036b58a818b1bc34d502d3fe730db729e62ac",
          "topics": [
            "0xdd466e674ea557f56295e2d0218a125ea4b4f0f6f3307b95f85e6110838d6438",
            "0x5e9b62fde80ce2b4599f96653fc69a6255d1ca62dc82fa0c8e5d193773e1afcd",
            "0x0000000000000000000000000000000000000000000000000000000000000000",
            "0x00000000000000000000000031d0220469e10c4e71834a79b1f276d740d3768f"
          ],
          "data": "0x0000000000000000000000000000000000000000000000000000000000800000000000000000000000000000000000000000000000000000000000000000003c00000000000000000000000067592e635186d65c4e9543691ba78fd4295c0fc000000000000000000000000000000000000000000003249b653f53a79af97729fffffffffffffffffffffffffffffffffffffffffffffffffffffffffffcf6fe",
          "blockHash": "0x13442b43fced0e03d0ab8e8304b76eb967ad2a88f3d549d89840ca2b4fac1567",
          "blockNumber": "0x2cf26d0",
          "blockTimestamp": "0x69bcd41c",
          "transactionHash": "0xdc2632060fd6f6f61d8cf6fcbbba4cf749b9b3cdc50fd463c4cd035d7f1bed32",
          "transactionIndex": "0xd",
          "logIndex": "0xb",
          "removed": false
        }
      ],
      "logsBloom": "0x00000000000001000000000000000000000000000000000000000000000000000000000000000080000000000000000000000000000000000000000000000000000000000000000000000020000000000000000000000000000000000000000000000000020000000000000000000800000000000000000000000000000000000000000000000008000000000008000000000001000000000000000000200000000000000000000000000000000800000000000000000000000000000000000000000000000000008000000000000000000000000000000000000000000020000000000000001000000000000000000000000000000002000000000000000010",
      "type": "0x2",
      "transactionHash": "0xdc2632060fd6f6f61d8cf6fcbbba4cf749b9b3cdc50fd463c4cd035d7f1bed32",
      "transactionIndex": "0xd",
      "blockHash": "0x13442b43fced0e03d0ab8e8304b76eb967ad2a88f3d549d89840ca2b4fac1567",
      "blockNumber": "0x2cf26d0",
      "gasUsed": "0xc9d3",
      "effectiveGasPrice": "0xee72c920",
      "blobGasUsed": "0xc800",
      "from": "0x91d5e66951c47fbbfafe57c9ff42d45c46b6044c",
      "to": "0x00b036b58a818b1bc34d502d3fe730db729e62ac",
      "contractAddress": null,
      "daFootprintGasScalar": "0x190",
      "l1BaseFeeScalar": "0x7d0",
      "l1BlobBaseFee": "0x1",
      "l1BlobBaseFeeScalar": "0xdbba0",
      "l1Fee": "0x9c",
      "l1GasPrice": "0xa",
      "l1GasUsed": "0x800"
    },
    {
      "status": "0x1",
      "cumulativeGasUsed": "0xefb56",
      "logs": [
        {
          "address": "0xf969aee60879c54baaed9f3ed26147db216fd664",
          "topics": [
            "0xddf252ad1be2c89b69c2b068fc378daa952ba7f163c4a11628f55a4df523b3ef",
            "0x0000000000000000000000000000000000000000000000000000000000000000",
            "0x00000000000000000000000091d5e66951c47fbbfafe57c9ff42d45c46b6044c",
            "0x0000000000000000000000000000000000000000000000000000000000001c6f"
          ],
          "data": "0x",
          "blockHash": "0x13442b43fced0e03d0ab8e8304b76eb967ad2a88f3d549d89840ca2b4fac1567",
          "blockNumber": "0x2cf26d0",
          "blockTimestamp": "0x69bcd41c",
          "transactionHash": "0x6b869c63a832ea00b936ee9b7d4d29e76b6ec27e86337c76dceab4a7fd4d7acb",
          "transactionIndex": "0xe",
          "logIndex": "0xc",
          "removed": false
        },
        {
          "address": "0x00b036b58a818b1bc34d502d3fe730db729e62ac",
          "topics": [
            "0xf208f4912782fd25c7f114ca3723a2d5dd6f3bcc3ac8db5af63baa85f711d5ec",
            "0xb9dfa7431da91b065295b8cd92c59bdeb8abd1b6e630b613f3a875c84b8aab7f",
            "0x000000000000000000000000f969aee60879c54baaed9f3ed26147db216fd664"
          ],
          "data": "0xfffffffffffffffffffffffffffffffffffffffffffffffffffffffffff2764c00000000000000000000000000000000000000000000000000000000000d89b400000000000000000000000000000000000000000000003635c9adc5dea000000000000000000000000000000000000000000000000000000000000000001c6f",
          "blockHash": "0x13442b43fced0e03d0ab8e8304b76eb967ad2a88f3d549d89840ca2b4fac1567",
          "blockNumber": "0x2cf26d0",
          "blockTimestamp": "0x69bcd41c",
          "transactionHash": "0x6b869c63a832ea00b936ee9b7d4d29e76b6ec27e86337c76dceab4a7fd4d7acb",
          "transactionIndex": "0xe",
          "logIndex": "0xd",
          "removed": false
        },
        {
          "address": "0x067a34ad7f20aa0e0a5c2627e4288e34b1182c8e",
          "topics": [
            "0xddf252ad1be2c89b69c2b068fc378daa952ba7f163c4a11628f55a4df523b3ef",
            "0x00000000000000000000000091d5e66951c47fbbfafe57c9ff42d45c46b6044c",
            "0x00000000000000000000000000b036b58a818b1bc34d502d3fe730db729e62ac"
          ],
          "data": "0x000000000000000000000000000000000000000000000001215f337b9a10dcf6",
          "blockHash": "0x13442b43fced0e03d0ab8e8304b76eb967ad2a88f3d549d89840ca2b4fac1567",
          "blockNumber": "0x2cf26d0",
          "blockTimestamp": "0x69bcd41c",
          "transactionHash": "0x6b869c63a832ea00b936ee9b7d4d29e76b6ec27e86337c76dceab4a7fd4d7acb",
          "transactionIndex": "0xe",
          "logIndex": "0xe",
          "removed": false
        },
        {
          "address": "0xa262a8fa5c50216458b65ca20803f0bc5019fa75",
          "topics": [
            "0xddf252ad1be2c89b69c2b068fc378daa952ba7f163c4a11628f55a4df523b3ef",
            "0x00000000000000000000000091d5e66951c47fbbfafe57c9ff42d45c46b6044c",
            "0x00000000000000000000000000b036b58a818b1bc34d502d3fe730db729e62ac"
          ],
          "data": "0x000000000000000000000000000000000000000000000a27d3528a7c2f831571",
          "blockHash": "0x13442b43fced0e03d0ab8e8304b76eb967ad2a88f3d549d89840ca2b4fac1567",
          "blockNumber": "0x2cf26d0",
          "blockTimestamp": "0x69bcd41c",
          "transactionHash": "0x6b869c63a832ea00b936ee9b7d4d29e76b6ec27e86337c76dceab4a7fd4d7acb",
          "transactionIndex": "0xe",
          "logIndex": "0xf",
          "removed": false
        }
      ],
      "logsBloom": "0x00000000040000000000000000000000000000000000000000000000000000000000000000000000000000000000000008000008801000000000000000200000000000000000000400000008000000000000008000000000000000001000000000001000420000000000000000004800000000000042000000000010000000000000000001008000000000000008000400000000000000000000000000000000000004000000000000000000000000000800000010000020000000000000000000000002480000000000000000000000000000000000004000000000000020004000000000000000000000000000000004000000000002000000000000002010",
      "type": "0x2",
      "transactionHash": "0x6b869c63a832ea00b936ee9b7d4d29e76b6ec27e86337c76dceab4a7fd4d7acb",
      "transactionIndex": "0xe",
      "blockHash": "0x13442b43fced0e03d0ab8e8304b76eb967ad2a88f3d549d89840ca2b4fac1567",
      "blockNumber": "0x2cf26d0",
      "gasUsed": "0x6fa51",
      "effectiveGasPrice": "0xee72c920",
      "blobGasUsed": "0x1d7e0",
      "from": "0x91d5e66951c47fbbfafe57c9ff42d45c46b6044c",
      "to": "0xf969aee60879c54baaed9f3ed26147db216fd664",
      "contractAddress": null,
      "daFootprintGasScalar": "0x190",
      "l1BaseFeeScalar": "0x7d0",
      "l1BlobBaseFee": "0x1",
      "l1BlobBaseFeeScalar": "0xdbba0",
      "l1Fee": "0x170",
      "l1GasPrice": "0xa",
      "l1GasUsed": "0x12e0"
    },
    {
      "status": "0x1",
      "cumulativeGasUsed": "0x14f487",
      "logs": [
        {
          "address": "0xf969aee60879c54baaed9f3ed26147db216fd664",
          "topics": [
            "0xddf252ad1be2c89b69c2b068fc378daa952ba7f163c4a11628f55a4df523b3ef",
            "0x0000000000000000000000000000000000000000000000000000000000000000",
            "0x00000000000000000000000091d5e66951c47fbbfafe57c9ff42d45c46b6044c",
            "0x0000000000000000000000000000000000000000000000000000000000001c70"
          ],
          "data": "0x",
          "blockHash": "0x13442b43fced0e03d0ab8e8304b76eb967ad2a88f3d549d89840ca2b4fac1567",
          "blockNumber": "0x2cf26d0",
          "blockTimestamp": "0x69bcd41c",
          "transactionHash": "0x70c7196ebfba3ed1e513e71691056b1cc937cad4324d7231f66ab92400647ea1",
          "transactionIndex": "0xf",
          "logIndex": "0x10",
          "removed": false
        },
        {
          "address": "0x00b036b58a818b1bc34d502d3fe730db729e62ac",
          "topics": [
            "0xf208f4912782fd25c7f114ca3723a2d5dd6f3bcc3ac8db5af63baa85f711d5ec",
            "0x5e9b62fde80ce2b4599f96653fc69a6255d1ca62dc82fa0c8e5d193773e1afcd",
            "0x000000000000000000000000f969aee60879c54baaed9f3ed26147db216fd664"
          ],
          "data": "0xfffffffffffffffffffffffffffffffffffffffffffffffffffffffffff2764c00000000000000000000000000000000000000000000000000000000000d89b40000000000000000000000000000000000000000000000000000045c9dd597f00000000000000000000000000000000000000000000000000000000000001c70",
          "blockHash": "0x13442b43fced0e03d0ab8e8304b76eb967ad2a88f3d549d89840ca2b4fac1567",
          "blockNumber": "0x2cf26d0",
          "blockTimestamp": "0x69bcd41c",
          "transactionHash": "0x70c7196ebfba3ed1e513e71691056b1cc937cad4324d7231f66ab92400647ea1",
          "transactionIndex": "0xf",
          "logIndex": "0x11",
          "removed": false
        },
        {
          "address": "0x67592e635186d65c4e9543691ba78fd4295c0fc0",
          "topics": [
            "0xcbc8be1304ed809344446ba1aae2fbe4fece06bdfaff4a9e6ad5c19956f20dc5",
            "0x000000000000000000000000f969aee60879c54baaed9f3ed26147db216fd664"
          ],
          "data": "0x0000000000000000000000000000000000000000000000000000045c9dd597f0",
          "blockHash": "0x13442b43fced0e03d0ab8e8304b76eb967ad2a88f3d549d89840ca2b4fac1567",
          "blockNumber": "0x2cf26d0",
          "blockTimestamp": "0x69bcd41c",
          "transactionHash": "0x70c7196ebfba3ed1e513e71691056b1cc937cad4324d7231f66ab92400647ea1",
          "transactionIndex": "0xf",
          "logIndex": "0x12",
          "removed": false
        },
        {
          "address": "0x31d0220469e10c4e71834a79b1f276d740d3768f",
          "topics": [
            "0xddf252ad1be2c89b69c2b068fc378daa952ba7f163c4a11628f55a4df523b3ef",
            "0x00000000000000000000000091d5e66951c47fbbfafe57c9ff42d45c46b6044c",
            "0x00000000000000000000000000b036b58a818b1bc34d502d3fe730db729e62ac"
          ],
          "data": "0x000000000000000000000000000000000000000000000000000000000db58580",
          "blockHash": "0x13442b43fced0e03d0ab8e8304b76eb967ad2a88f3d549d89840ca2b4fac1567",
          "blockNumber": "0x2cf26d0",
          "blockTimestamp": "0x69bcd41c",
          "transactionHash": "0x70c7196ebfba3ed1e513e71691056b1cc937cad4324d7231f66ab92400647ea1",
          "transactionIndex": "0xf",
          "logIndex": "0x13",
          "removed": false
        }
      ],
      "logsBloom": "0x00000000000201000000000000000000000000020000000000000000000000000000000000000000000000000000000008000000801000008000000000000000100000000000000000000028000000000000000000001000000000001000000000000000020000000000000000004800000000000040000000000010000000000000000001000000000000008008000400000000000000000000000000000000000004000021000080000000000800000800000000000020000000000000000000000002080000000000000000000000000000000000000000000080000020204000000000000000000000001000000004000000000002000000000000002010",
      "type": "0x2",
      "transactionHash": "0x70c7196ebfba3ed1e513e71691056b1cc937cad4324d7231f66ab92400647ea1",
      "transactionIndex": "0xf",
      "blockHash": "0x13442b43fced0e03d0ab8e8304b76eb967ad2a88f3d549d89840ca2b4fac1567",
      "blockNumber": "0x2cf26d0",
      "gasUsed": "0x5f931",
      "effectiveGasPrice": "0xee72c920",
      "blobGasUsed": "0x1aa90",
      "from": "0x91d5e66951c47fbbfafe57c9ff42d45c46b6044c",
      "to": "0xf969aee60879c54baaed9f3ed26147db216fd664",
      "contractAddress": null,
      "daFootprintGasScalar": "0x190",
      "l1BaseFeeScalar": "0x7d0",
      "l1BlobBaseFee": "0x1",
      "l1BlobBaseFeeScalar": "0xdbba0",
      "l1Fee": "0x14d",
      "l1GasPrice": "0xa",
      "l1GasUsed": "0x1119"
    }
  ],
  "libraries": [],
  "pending": [],
  "returns": {},
  "timestamp": 1773982749952,
  "chain": 1301,
  "commit": "e95b1d6"
}