{
  "transactions": [
    {
      "hash": "0xaa661479d5fc8f4824a2277478ab89cc6b4cd92515e96088e8290d4cdb0aa0a5",
      "transactionType": "CALL",
      "contractName": null,
      "contractAddress": "0xce35f7f470e91cac613ca292a930d53a67fd894c",
      "function": "approve(address,uint256)",
      "arguments": [
        "0x000000000022D473030F116dDEE9F6B43aC78BA3",
        "115792089237316195423570985008687907853269984665640564039457584007913129639935"
      ],
      "transaction": {
        "from": "0x91d5e66951c47fbbfafe57c9ff42d45c46b6044c",
        "to": "0xce35f7f470e91cac613ca292a930d53a67fd894c",
        "gas": "0x8fe3",
        "value": "0x0",
        "input": "0x095ea7b3000000000000000000000000000000000022d473030f116ddee9f6b43ac78ba3ffffffffffffffffffffffffffffffffffffffffffffffffffffffffffffffff",
        "nonce": "0x214",
        "chainId": "0x515"
      },
      "additionalContracts": [],
      "isFixedGasLimit": false
    },
    {
      "hash": "0xb4e7f51eb5580f777012a3bd42feaea1a13698cc9162d2c3406098326628d0d8",
      "transactionType": "CALL",
      "contractName": null,
      "contractAddress": "0x000000000022d473030f116ddee9f6b43ac78ba3",
      "function": "approve(address,address,uint160,uint48)",
      "arguments": [
        "0xCe35F7F470E91CAC613ca292A930D53A67fd894C",
        "0xf969Aee60879C54bAAed9F3eD26147Db216Fd664",
        "1461501637330902918203684832716283019655932542975",
        "281474976710655"
      ],
      "transaction": {
        "from": "0x91d5e66951c47fbbfafe57c9ff42d45c46b6044c",
        "to": "0x000000000022d473030f116ddee9f6b43ac78ba3",
        "gas": "0x96a0",
        "value": "0x0",
        "input": "0x87517c45000000000000000000000000ce35f7f470e91cac613ca292a930d53a67fd894c000000000000000000000000f969aee60879c54baaed9f3ed26147db216fd664000000000000000000000000ffffffffffffffffffffffffffffffffffffffff0000000000000000000000000000000000000000000000000000ffffffffffff",
        "nonce": "0x215",
        "chainId": "0x515"
      },
      "additionalContracts": [],
      "isFixedGasLimit": false
    },
    {
      "hash": "0xb71a049b9770dac681e96c15488d1c6ea6501c8c67ba5d462cf9f428d4192d56",
      "transactionType": "CALL",
      "contractName": null,
      "contractAddress": "0x000000000022d473030f116ddee9f6b43ac78ba3",
      "function": "approve(address,address,uint160,uint48)",
      "arguments": [
        "0xCe35F7F470E91CAC613ca292A930D53A67fd894C",
        "0x00B036B58a818B1BC34d502D3fE730Db729e62AC",
        "1461501637330902918203684832716283019655932542975",
        "281474976710655"
      ],
      "transaction": {
        "from": "0x91d5e66951c47fbbfafe57c9ff42d45c46b6044c",
        "to": "0x000000000022d473030f116ddee9f6b43ac78ba3",
        "gas": "0x9f6c",
        "value": "0x0",
        "input": "0x87517c45000000000000000000000000ce35f7f470e91cac613ca292a930d53a67fd894c00000000000000000000000000b036b58a818b1bc34d502d3fe730db729e62ac000000000000000000000000ffffffffffffffffffffffffffffffffffffffff0000000000000000000000000000000000000000000000000000ffffffffffff",
        "nonce": "0x216",
        "chainId": "0x515"
      },
      "additionalContracts": [],
      "isFixedGasLimit": false
    },
    {
      "hash": "0x291a87248e79a4db099e3be08ae44e19371a6e1da3371906645b1d282c3ec110",
      "transactionType": "CALL",
      "contractName": null,
      "contractAddress": "0xffe4d4c8dcb2679de5804b0f2a1aea7f594bed40",
      "function": "approve(address,uint256)",
      "arguments": [
        "0x000000000022D473030F116dDEE9F6B43aC78BA3",
        "115792089237316195423570985008687907853269984665640564039457584007913129639935"
      ],
      "transaction": {
        "from": "0x91d5e66951c47fbbfafe57c9ff42d45c46b6044c",
        "to": "0xffe4d4c8dcb2679de5804b0f2a1aea7f594bed40",
        "gas": "0x8fe3",
        "value": "0x0",
        "input": "0x095ea7b3000000000000000000000000000000000022d473030f116ddee9f6b43ac78ba3ffffffffffffffffffffffffffffffffffffffffffffffffffffffffffffffff",
        "nonce": "0x217",
        "chainId": "0x515"
      },
      "additionalContracts": [],
      "isFixedGasLimit": false
    },
    {
      "hash": "0xf274a5c2f0487a7dc18151c88a4a608da7e908e7286fb6cb0f91b97e90c93d2a",
      "transactionType": "CALL",
      "contractName": null,
      "contractAddress": "0x000000000022d473030f116ddee9f6b43ac78ba3",
      "function": "approve(address,address,uint160,uint48)",
      "arguments": [
        "0xfFE4D4C8DcB2679DE5804b0F2A1aEA7F594Bed40",
        "0xf969Aee60879C54bAAed9F3eD26147Db216Fd664",
        "1461501637330902918203684832716283019655932542975",
        "281474976710655"
      ],
      "transaction": {
        "from": "0x91d5e66951c47fbbfafe57c9ff42d45c46b6044c",
        "to": "0x000000000022d473030f116ddee9f6b43ac78ba3",
        "gas": "0x96a0",
        "value": "0x0",
        "input": "0x87517c45000000000000000000000000ffe4d4c8dcb2679de5804b0f2a1aea7f594bed40000000000000000000000000f969aee60879c54baaed9f3ed26147db216fd664000000000000000000000000ffffffffffffffffffffffffffffffffffffffff0000000000000000000000000000000000000000000000000000ffffffffffff",
        "nonce": "0x218",
        "chainId": "0x515"
      },
      "additionalContracts": [],
      "isFixedGasLimit": false
    },
    {
      "hash": "0x9734d4d39cbffced6eb82ef92e6e1b21745d41e3c2ce59e958ed96aa00825791",
      "transactionType": "CALL",
      "contractName": null,
      "contractAddress": "0x000000000022d473030f116ddee9f6b43ac78ba3",
      "function": "approve(address,address,uint160,uint48)",
      "arguments": [
        "0xfFE4D4C8DcB2679DE5804b0F2A1aEA7F594Bed40",
        "0x00B036B58a818B1BC34d502D3fE730Db729e62AC",
        "1461501637330902918203684832716283019655932542975",
        "281474976710655"
      ],
      "transaction": {
        "from": "0x91d5e66951c47fbbfafe57c9ff42d45c46b6044c",
        "to": "0x000000000022d473030f116ddee9f6b43ac78ba3",
        "gas": "0x9f6c",
        "value": "0x0",
        "input": "0x87517c45000000000000000000000000ffe4d4c8dcb2679de5804b0f2a1aea7f594bed4000000000000000000000000000b036b58a818b1bc34d502d3fe730db729e62ac000000000000000000000000ffffffffffffffffffffffffffffffffffffffff0000000000000000000000000000000000000000000000000000ffffffffffff",
        "nonce": "0x219",
        "chainId": "0x515"
      },
      "additionalContracts": [],
      "isFixedGasLimit": false
    },
    {
      "hash": "0x8e1cfa49963fdbecf61ef453ce20a87a3825e948d631212f5b33e9785a3256a7",
      "transactionType": "CALL",
      "contractName": null,
      "contractAddress": "0x31d0220469e10c4e71834a79b1f276d740d3768f",
      "function": "approve(address,uint256)",
      "arguments": [
        "0x000000000022D473030F116dDEE9F6B43aC78BA3",
        "115792089237316195423570985008687907853269984665640564039457584007913129639935"
      ],
      "transaction": {
        "from": "0x91d5e66951c47fbbfafe57c9ff42d45c46b6044c",
        "to": "0x31d0220469e10c4e71834a79b1f276d740d3768f",
        "gas": "0xdca8",
        "value": "0x0",
        "input": "0x095ea7b3000000000000000000000000000000000022d473030f116ddee9f6b43ac78ba3ffffffffffffffffffffffffffffffffffffffffffffffffffffffffffffffff",
        "nonce": "0x21a",
        "chainId": "0x515"
      },
      "additionalContracts": [],
      "isFixedGasLimit": false
    },
    {
      "hash": "0x4680c561bb3b976130bd28d089b123215c0dd9b89081686711d1e6530a10a144",
      "transactionType": "CALL",
      "contractName": null,
      "contractAddress": "0x000000000022d473030f116ddee9f6b43ac78ba3",
      "function": "approve(address,address,uint160,uint48)",
      "arguments": [
        "0x31d0220469e10c4E71834a79b1f276d740d3768F",
        "0xf969Aee60879C54bAAed9F3eD26147Db216Fd664",
        "1461501637330902918203684832716283019655932542975",
        "281474976710655"
      ],
      "transaction": {
        "from": "0x91d5e66951c47fbbfafe57c9ff42d45c46b6044c",
        "to": "0x000000000022d473030f116ddee9f6b43ac78ba3",
        "gas": "0x96a0",
        "value": "0x0",
        "input": "0x87517c4500000000000000000000000031d0220469e10c4e71834a79b1f276d740d3768f000000000000000000000000f969aee60879c54baaed9f3ed26147db216fd664000000000000000000000000ffffffffffffffffffffffffffffffffffffffff0000000000000000000000000000000000000000000000000000ffffffffffff",
        "nonce": "0x21b",
        "chainId": "0x515"
      },
      "additionalContracts": [],
      "isFixedGasLimit": false
    },
    {
      "hash": "0xed068257c175eb3e8d9bef6e610b66865c820f6f26443c83111c2776475e37be",
      "transactionType": "CALL",
      "contractName": null,
      "contractAddress": "0x000000000022d473030f116ddee9f6b43ac78ba3",
      "function": "approve(address,address,uint160,uint48)",
      "arguments": [
        "0x31d0220469e10c4E71834a79b1f276d740d3768F",
        "0x00B036B58a818B1BC34d502D3fE730Db729e62AC",
        "1461501637330902918203684832716283019655932542975",
        "281474976710655"
      ],
      "transaction": {
        "from": "0x91d5e66951c47fbbfafe57c9ff42d45c46b6044c",
        "to": "0x000000000022d473030f116ddee9f6b43ac78ba3",
        "gas": "0x9f6c",
        "value": "0x0",
        "input": "0x87517c4500000000000000000000000031d0220469e10c4e71834a79b1f276d740d3768f00000000000000000000000000b036b58a818b1bc34d502d3fe730db729e62ac000000000000000000000000ffffffffffffffffffffffffffffffffffffffff0000000000000000000000000000000000000000000000000000ffffffffffff",
        "nonce": "0x21c",
        "chainId": "0x515"
      },
      "additionalContracts": [],
      "isFixedGasLimit": false
    },
    {
      "hash": "0x76b81408260994d7babf80b2517dfe22e3f54cde0cdcf27bab41f6441c35e8b7",
      "transactionType": "CALL",
      "contractName": null,
      "contractAddress": "0x00b036b58a818b1bc34d502d3fe730db729e62ac",
      "function": "initialize((address,address,uint24,int24,address),uint160)",
      "arguments": [
        "(0xCe35F7F470E91CAC613ca292A930D53A67fd894C, 0xfFE4D4C8DcB2679DE5804b0F2A1aEA7F594Bed40, 8388608, 60, 0x0bA4250a4aA44C4F78a50A75a406c453C58bCfC0)",
        "3799649193200520420489001079519"
      ],
      "transaction": {
        "from": "0x91d5e66951c47fbbfafe57c9ff42d45c46b6044c",
        "to": "0x00b036b58a818b1bc34d502d3fe730db729e62ac",
        "gas": "0x113fb",
        "value": "0x0",
        "input": "0x6276cbbe000000000000000000000000ce35f7f470e91cac613ca292a930d53a67fd894c000000000000000000000000ffe4d4c8dcb2679de5804b0f2a1aea7f594bed400000000000000000000000000000000000000000000000000000000000800000000000000000000000000000000000000000000000000000000000000000003c0000000000000000000000000ba4250a4aa44c4f78a50a75a406c453c58bcfc0000000000000000000000000000000000000002ff55425a98a3834790a7e92df",
        "nonce": "0x21d",
        "chainId": "0x515"
      },
      "additionalContracts": [],
      "isFixedGasLimit": false
    },
    {
      "hash": "0x6c1114869e20343c5a20e92afcb7026962f6f55aa5d672eb2de8093632407d91",
      "transactionType": "CALL",
      "contractName": null,
      "contractAddress": "0x00b036b58a818b1bc34d502d3fe730db729e62ac",
      "function": "initialize((address,address,uint24,int24,address),uint160)",
      "arguments": [
        "(0x0000000000000000000000000000000000000000, 0x31d0220469e10c4E71834a79b1f276d740d3768F, 8388608, 60, 0x0bA4250a4aA44C4F78a50A75a406c453C58bCfC0)",
        "3799649193200520420489001"
      ],
      "transaction": {
        "from": "0x91d5e66951c47fbbfafe57c9ff42d45c46b6044c",
        "to": "0x00b036b58a818b1bc34d502d3fe730db729e62ac",
        "gas": "0x1272a",
        "value": "0x0",
        "input": "0x6276cbbe000000000000000000000000000000000000000000000000000000000000000000000000000000000000000031d0220469e10c4e71834a79b1f276d740d3768f0000000000000000000000000000000000000000000000000000000000800000000000000000000000000000000000000000000000000000000000000000003c0000000000000000000000000ba4250a4aa44c4f78a50a75a406c453c58bcfc000000000000000000000000000000000000000000003249b653f53a79af97729",
        "nonce": "0x21e",
        "chainId": "0x515"
      },
      "additionalContracts": [],
      "isFixedGasLimit": false
    },
    {
      "hash": "0x506a2789830947325aa17f71923b0838267632714ad0ed9f6033b19f4ddb35e2",
      "transactionType": "CALL",
      "contractName": null,
      "contractAddress": "0xf969aee60879c54baaed9f3ed26147db216fd664",
      "function": "modifyLiquidities(bytes,uint256)",
      "arguments": [
        "0x000000000000000000000000000000000000000000000000000000000000004000000000000000000000000000000000000000000000000000000000000000800000000000000000000000000000000000000000000000000000000000000004020d14140000000000000000000000000000000000000000000000000000000000000000000000000000000000000000000000000000000000000000000000040000000000000000000000000000000000000000000000000000000000000080000000000000000000000000000000000000000000000000000000000000024000000000000000000000000000000000000000000000000000000000000002a0000000000000000000000000000000000000000000000000000000000000030000000000000000000000000000000000000000000000000000000000000001a0000000000000000000000000ce35f7f470e91cac613ca292a930d53a67fd894c000000000000000000000000ffe4d4c8dcb2679de5804b0f2a1aea7f594bed400000000000000000000000000000000000000000000000000000000000800000000000000000000000000000000000000000000000000000000000000000003c0000000000000000000000000ba4250a4aa44c4f78a50a75a406c453c58bcfc0fffffffffffffffffffffffffffffffffffffffffffffffffffffffffff2764c00000000000000000000000000000000000000000000000000000000000d89b400000000000000000000000000000000000000000000003635c9adc5dea00000000000000000000000000000000000000000000000000001215f337b9a10dcf6000000000000000000000000000000000000000000000a27d3528a7c2f83157100000000000000000000000091d5e66951c47fbbfafe57c9ff42d45c46b6044c000000000000000000000000000000000000000000000000000000000000018000000000000000000000000000000000000000000000000000000000000000000000000000000000000000000000000000000000000000000000000000000040000000000000000000000000ce35f7f470e91cac613ca292a930d53a67fd894c000000000000000000000000ffe4d4c8dcb2679de5804b0f2a1aea7f594bed400000000000000000000000000000000000000000000000000000000000000040000000000000000000000000ce35f7f470e91cac613ca292a930d53a67fd894c00000000000000000000000091d5e66951c47fbbfafe57c9ff42d45c46b6044c0000000000000000000000000000000000000000000000000000000000000040000000000000000000000000ffe4d4c8dcb2679de5804b0f2a1aea7f594bed4000000000000000000000000091d5e66951c47fbbfafe57c9ff42d45c46b6044c",
        "1773956750"
      ],
      "transaction": {
        "from": "0x91d5e66951c47fbbfafe57c9ff42d45c46b6044c",
        "to": "0xf969aee60879c54baaed9f3ed26147db216fd664",
        "gas": "0xa347c",
        "value": "0x0",
        "input": "0xdd46508f00000000000000000000000000000000000000000000000000000000000000400000000000000000000000000000000000000000000000000000000069bc6e8e0000000000000000000000000000000000000000000000000000000000000400000000000000000000000000000000000000000000000000000000000000004000000000000000000000000000000000000000000000000000000000000000800000000000000000000000000000000000000000000000000000000000000004020d14140000000000000000000000000000000000000000000000000000000000000000000000000000000000000000000000000000000000000000000000040000000000000000000000000000000000000000000000000000000000000080000000000000000000000000000000000000000000000000000000000000024000000000000000000000000000000000000000000000000000000000000002a0000000000000000000000000000000000000000000000000000000000000030000000000000000000000000000000000000000000000000000000000000001a0000000000000000000000000ce35f7f470e91cac613ca292a930d53a67fd894c000000000000000000000000ffe4d4c8dcb2679de5804b0f2a1aea7f594bed400000000000000000000000000000000000000000000000000000000000800000000000000000000000000000000000000000000000000000000000000000003c0000000000000000000000000ba4250a4aa44c4f78a50a75a406c453c58bcfc0fffffffffffffffffffffffffffffffffffffffffffffffffffffffffff2764c00000000000000000000000000000000000000000000000000000000000d89b400000000000000000000000000000000000000000000003635c9adc5dea00000000000000000000000000000000000000000000000000001215f337b9a10dcf6000000000000000000000000000000000000000000000a27d3528a7c2f83157100000000000000000000000091d5e66951c47fbbfafe57c9ff42d45c46b6044c000000000000000000000000000000000000000000000000000000000000018000000000000000000000000000000000000000000000000000000000000000000000000000000000000000000000000000000000000000000000000000000040000000000000000000000000ce35f7f470e91cac613ca292a930d53a67fd894c000000000000000000000000ffe4d4c8dcb2679de5804b0f2a1aea7f594bed400000000000000000000000000000000000000000000000000000000000000040000000000000000000000000ce35f7f470e91cac613ca292a930d53a67fd894c00000000000000000000000091d5e66951c47fbbfafe57c9ff42d45c46b6044c0000000000000000000000000000000000000000000000000000000000000040000000000000000000000000ffe4d4c8dcb2679de5804b0f2a1aea7f594bed4000000000000000000000000091d5e66951c47fbbfafe57c9ff42d45c46b6044c",
        "nonce": "0x21f",
        "chainId": "0x515"
      },
      "additionalContracts": [],
      "isFixedGasLimit": false
    },
    {
      "hash": "0x36a87919e8e49c33d758c8779f3cf356bf7557e3f8c4b8873556f556c7b8e9f3",
      "transactionType": "CALL",
      "contractName": null,
      "contractAddress": "0xf969aee60879c54baaed9f3ed26147db216fd664",
      "function": "modifyLiquidities(bytes,uint256)",
      "arguments": [
        "0x000000000000000000000000000000000000000000000000000000000000004000000000000000000000000000000000000000000000000000000000000000800000000000000000000000000000000000000000000000000000000000000004020d14140000000000000000000000000000000000000000000000000000000000000000000000000000000000000000000000000000000000000000000000040000000000000000000000000000000000000000000000000000000000000080000000000000000000000000000000000000000000000000000000000000024000000000000000000000000000000000000000000000000000000000000002a0000000000000000000000000000000000000000000000000000000000000030000000000000000000000000000000000000000000000000000000000000001a0000000000000000000000000000000000000000000000000000000000000000000000000000000000000000031d0220469e10c4e71834a79b1f276d740d3768f0000000000000000000000000000000000000000000000000000000000800000000000000000000000000000000000000000000000000000000000000000003c0000000000000000000000000ba4250a4aa44c4f78a50a75a406c453c58bcfc0fffffffffffffffffffffffffffffffffffffffffffffffffffffffffff2764c00000000000000000000000000000000000000000000000000000000000d89b40000000000000000000000000000000000000000000000000000045c9dd597f0000000000000000000000000000000000000000000000000016345785d89c565000000000000000000000000000000000000000000000000000000000db5858000000000000000000000000091d5e66951c47fbbfafe57c9ff42d45c46b6044c000000000000000000000000000000000000000000000000000000000000018000000000000000000000000000000000000000000000000000000000000000000000000000000000000000000000000000000000000000000000000000000040000000000000000000000000000000000000000000000000000000000000000000000000000000000000000031d0220469e10c4e71834a79b1f276d740d3768f0000000000000000000000000000000000000000000000000000000000000040000000000000000000000000000000000000000000000000000000000000000000000000000000000000000091d5e66951c47fbbfafe57c9ff42d45c46b6044c000000000000000000000000000000000000000000000000000000000000004000000000000000000000000031d0220469e10c4e71834a79b1f276d740d3768f00000000000000000000000091d5e66951c47fbbfafe57c9ff42d45c46b6044c",
        "1773956750"
      ],
      "transaction": {
        "from": "0x91d5e66951c47fbbfafe57c9ff42d45c46b6044c",
        "to": "0xf969aee60879c54baaed9f3ed26147db216fd664",
        "gas": "0x8bc71",
        "value": "0x16345785d89c565",
        "input": "0xdd46508f00000000000000000000000000000000000000000000000000000000000000400000000000000000000000000000000000000000000000000000000069bc6e8e0000000000000000000000000000000000000000000000000000000000000400000000000000000000000000000000000000000000000000000000000000004000000000000000000000000000000000000000000000000000000000000000800000000000000000000000000000000000000000000000000000000000000004020d14140000000000000000000000000000000000000000000000000000000000000000000000000000000000000000000000000000000000000000000000040000000000000000000000000000000000000000000000000000000000000080000000000000000000000000000000000000000000000000000000000000024000000000000000000000000000000000000000000000000000000000000002a0000000000000000000000000000000000000000000000000000000000000030000000000000000000000000000000000000000000000000000000000000001a0000000000000000000000000000000000000000000000000000000000000000000000000000000000000000031d0220469e10c4e71834a79b1f276d740d3768f0000000000000000000000000000000000000000000000000000000000800000000000000000000000000000000000000000000000000000000000000000003c0000000000000000000000000ba4250a4aa44c4f78a50a75a406c453c58bcfc0fffffffffffffffffffffffffffffffffffffffffffffffffffffffffff2764c00000000000000000000000000000000000000000000000000000000000d89b40000000000000000000000000000000000000000000000000000045c9dd597f0000000000000000000000000000000000000000000000000016345785d89c565000000000000000000000000000000000000000000000000000000000db5858000000000000000000000000091d5e66951c47fbbfafe57c9ff42d45c46b6044c000000000000000000000000000000000000000000000000000000000000018000000000000000000000000000000000000000000000000000000000000000000000000000000000000000000000000000000000000000000000000000000040000000000000000000000000000000000000000000000000000000000000000000000000000000000000000031d0220469e10c4e71834a79b1f276d740d3768f0000000000000000000000000000000000000000000000000000000000000040000000000000000000000000000000000000000000000000000000000000000000000000000000000000000091d5e66951c47fbbfafe57c9ff42d45c46b6044c000000000000000000000000000000000000000000000000000000000000004000000000000000000000000031d0220469e10c4e71834a79b1f276d740d3768f00000000000000000000000091d5e66951c47fbbfafe57c9ff42d45c46b6044c",
        "nonce": "0x220",
        "chainId": "0x515"
      },
      "additionalContracts": [],
      "isFixedGasLimit": false
    }
  ],
  "receipts": [
    {
      "status": "0x1",
      "cumulativeGasUsed": "0xc9336",
      "logs": [
        {
          "address": "0xce35f7f470e91cac613ca292a930d53a67fd894c",
          "topics": [
            "0x8c5be1e5ebec7d5bd14f71427d1e84f3dd0314c0f7b2291e5b200ac8c7c3b925",
            "0x00000000000000000000000091d5e66951c47fbbfafe57c9ff42d45c46b6044c",
            "0x000000000000000000000000000000000022d473030f116ddee9f6b43ac78ba3"
          ],
          "data": "0xffffffffffffffffffffffffffffffffffffffffffffffffffffffffffffffff",
          "blockHash": "0x81b72cca562c4d3602c703dcbae5fb80714441ad25789585d88d72fcb287d68b",
          "blockNumber": "0x2ceb356",
          "blockTimestamp": "0x69bc60a2",
          "transactionHash": "0x291a87248e79a4db099e3be08ae44e19371a6e1da3371906645b1d282c3ec110",
          "transactionIndex": "0x8",
          "logIndex": "0x8",
          "removed": false
        }
      ],
      "logsBloom": "0x00000000000000000000000000000000000000000000000000000000000000000000000000400000000000000000000008000000800000000000000000200000000000000000000000004000000000000000000000001800000000000000000000000000000000000000000000000000000000000000000000000000000000000000000000000000000000000000000400000000000000000000000000000000020000000000000000000000000000000000000000000000000000000000000000000000000000000000000000000000000000000000000000000000000000000010000000000000000000000000010000000000000000000000000000000000",
      "type": "0x2",
      "transactionHash": "0x291a87248e79a4db099e3be08ae44e19371a6e1da3371906645b1d282c3ec110",
      "transactionIndex": "0x8",
      "blockHash": "0x81b72cca562c4d3602c703dcbae5fb80714441ad25789585d88d72fcb287d68b",
      "blockNumber": "0x2ceb356",
      "gasUsed": "0x682d",
      "effectiveGasPrice": "0xee72c920",
      "blobGasUsed": "0x9c40",
      "from": "0x91d5e66951c47fbbfafe57c9ff42d45c46b6044c",
      "to": "0xce35f7f470e91cac613ca292a930d53a67fd894c",
      "contractAddress": null,
      "daFootprintGasScalar": "0x190",
      "l1BaseFeeScalar": "0x7d0",
      "l1BlobBaseFee": "0x1",
      "l1BlobBaseFeeScalar": "0xdbba0",
      "l1Fee": "0x7a",
      "l1GasPrice": "0xa",
      "l1GasUsed": "0x640"
    },
    {
      "status": "0x1",
      "cumulativeGasUsed": "0xd0044",
      "logs": [
        {
          "address": "0x000000000022d473030f116ddee9f6b43ac78ba3",
          "topics": [
            "0xda9fa7c1b00402c17d0161b249b1ab8bbec047c5a52207b9c112deffd817036b",
            "0x00000000000000000000000091d5e66951c47fbbfafe57c9ff42d45c46b6044c",
            "0x000000000000000000000000ce35f7f470e91cac613ca292a930d53a67fd894c",
            "0x000000000000000000000000f969aee60879c54baaed9f3ed26147db216fd664"
          ],
          "data": "0x000000000000000000000000ffffffffffffffffffffffffffffffffffffffff0000000000000000000000000000000000000000000000000000ffffffffffff",
          "blockHash": "0x81b72cca562c4d3602c703dcbae5fb80714441ad25789585d88d72fcb287d68b",
          "blockNumber": "0x2ceb356",
          "blockTimestamp": "0x69bc60a2",
          "transactionHash": "0xf274a5c2f0487a7dc18151c88a4a608da7e908e7286fb6cb0f91b97e90c93d2a",
          "transactionIndex": "0x9",
          "logIndex": "0x9",
          "removed": false
        }
      ],
      "logsBloom": "0x00010000000000000000000000000000000000000000000000000000000000000000000000000000000800000000000208000000800000000000000000080000000000000000000000000000000000000000000000000000000000001000000000000000000000000100000000000000000000000040000000000000000000000020000000000000000000000000000400000000000000000000000000000000000000000000000000000000000000000000000000000000000000080000000000000000000000000000000000000000000000000000000040000000000000000000000000000000000000000000000000000000000000000000000000002400",
      "type": "0x2",
      "transactionHash": "0xf274a5c2f0487a7dc18151c88a4a608da7e908e7286fb6cb0f91b97e90c93d2a",
      "transactionIndex": "0x9",
      "blockHash": "0x81b72cca562c4d3602c703dcbae5fb80714441ad25789585d88d72fcb287d68b",
      "blockNumber": "0x2ceb356",
      "gasUsed": "0x6d0e",
      "effectiveGasPrice": "0xee72c920",
      "blobGasUsed": "0xb220",
      "from": "0x91d5e66951c47fbbfafe57c9ff42d45c46b6044c",
      "to": "0x000000000022d473030f116ddee9f6b43ac78ba3",
      "contractAddress": null,
      "daFootprintGasScalar": "0x190",
      "l1BaseFeeScalar": "0x7d0",
      "l1BlobBaseFee": "0x1",
      "l1BlobBaseFeeScalar": "0xdbba0",
      "l1Fee": "0x8b",
      "l1GasPrice": "0xa",
      "l1GasUsed": "0x72a"
    },
    {
      "status": "0x1",
      "cumulativeGasUsed": "0xd6d46",
      "logs": [
        {
          "address": "0x000000000022d473030f116ddee9f6b43ac78ba3",
          "topics": [
            "0xda9fa7c1b00402c17d0161b249b1ab8bbec047c5a52207b9c112deffd817036b",
            "0x00000000000000000000000091d5e66951c47fbbfafe57c9ff42d45c46b6044c",
            "0x000000000000000000000000ce35f7f470e91cac613ca292a930d53a67fd894c",
            "0x00000000000000000000000000b036b58a818b1bc34d502d3fe730db729e62ac"
          ],
          "data": "0x000000000000000000000000ffffffffffffffffffffffffffffffffffffffff0000000000000000000000000000000000000000000000000000ffffffffffff",
          "blockHash": "0x81b72cca562c4d3602c703dcbae5fb80714441ad25789585d88d72fcb287d68b",
          "blockNumber": "0x2ceb356",
          "blockTimestamp": "0x69bc60a2",
          "transactionHash": "0xaa661479d5fc8f4824a2277478ab89cc6b4cd92515e96088e8290d4cdb0aa0a5",
          "transactionIndex": "0xa",
          "logIndex": "0xa",
          "removed": false
        }
      ],
      "logsBloom": "0x00010000000000000000000000000000000000000000000000000000000000000000000000000000000800000000000208000000801000000000000000080000000000000000000000000000000000000000000000000000000000000000000000000000000000000100000000004000000000000000000000000000000000000020000000000000000000000000000400000000000000000000000000000000000000000000000000000000000000000000000000000020000000080000000000000000000000000000000000000000000000000000000040000000000000000000000000000000000000000000000000000000000000000000000000000400",
      "type": "0x2",
      "transactionHash": "0xaa661479d5fc8f4824a2277478ab89cc6b4cd92515e96088e8290d4cdb0aa0a5",
      "transactionIndex": "0xa",
      "blockHash": "0x81b72cca562c4d3602c703dcbae5fb80714441ad25789585d88d72fcb287d68b",
      "blockNumber": "0x2ceb356",
      "gasUsed": "0x6d02",
      "effectiveGasPrice": "0xee72c920",
      "blobGasUsed": "0xb090",
      "from": "0x91d5e66951c47fbbfafe57c9ff42d45c46b6044c",
      "to": "0x000000000022d473030f116ddee9f6b43ac78ba3",
      "contractAddress": null,
      "daFootprintGasScalar": "0x190",
      "l1BaseFeeScalar": "0x7d0",
      "l1BlobBaseFee": "0x1",
      "l1BlobBaseFeeScalar": "0xdbba0",
      "l1Fee": "0x8a",
      "l1GasPrice": "0xa",
      "l1GasUsed": "0x71d"
    },
    {
      "status": "0x1",
      "cumulativeGasUsed": "0xdd573",
      "logs": [
        {
          "address": "0xffe4d4c8dcb2679de5804b0f2a1aea7f594bed40",
          "topics": [
            "0x8c5be1e5ebec7d5bd14f71427d1e84f3dd0314c0f7b2291e5b200ac8c7c3b925",
            "0x00000000000000000000000091d5e66951c47fbbfafe57c9ff42d45c46b6044c",
            "0x000000000000000000000000000000000022d473030f116ddee9f6b43ac78ba3"
          ],
          "data": "0xffffffffffffffffffffffffffffffffffffffffffffffffffffffffffffffff",
          "blockHash": "0x81b72cca562c4d3602c703dcbae5fb80714441ad25789585d88d72fcb287d68b",
          "blockNumber": "0x2ceb356",
          "blockTimestamp": "0x69bc60a2",
          "transactionHash": "0xb71a049b9770dac681e96c15488d1c6ea6501c8c67ba5d462cf9f428d4192d56",
          "transactionIndex": "0xb",
          "logIndex": "0xb",
          "removed": false
        }
      ],
      "logsBloom": "0x00000000000000000000100000000000000000000000000000000000000000000000000000000000000000000000000008000000800000000000000000200000000000000000000000004000000000000000000000000800000000000000000000000000000000000000000000000000000000000000000000000000000000000000000000000000000000000000000400000000000000000000000000000000020000000000000000000000000000000000000000000000000000000000000800000000000000000000000000000000000000000000000000000000000000000010000000000000000000000400000000000000000000000000000000000000",
      "type": "0x2",
      "transactionHash": "0xb71a049b9770dac681e96c15488d1c6ea6501c8c67ba5d462cf9f428d4192d56",
      "transactionIndex": "0xb",
      "blockHash": "0x81b72cca562c4d3602c703dcbae5fb80714441ad25789585d88d72fcb287d68b",
      "blockNumber": "0x2ceb356",
      "gasUsed": "0x682d",
      "effectiveGasPrice": "0xee72c920",
      "blobGasUsed": "0x9c40",
      "from": "0x91d5e66951c47fbbfafe57c9ff42d45c46b6044c",
      "to": "0xffe4d4c8dcb2679de5804b0f2a1aea7f594bed40",
      "contractAddress": null,
      "daFootprintGasScalar": "0x190",
      "l1BaseFeeScalar": "0x7d0",
      "l1BlobBaseFee": "0x1",
      "l1BlobBaseFeeScalar": "0xdbba0",
      "l1Fee": "0x7a",
      "l1GasPrice": "0xa",
      "l1GasUsed": "0x640"
    },
    {
      "status": "0x1",
      "cumulativeGasUsed": "0x2e706",
      "logs": [
        {
          "address": "0x000000000022d473030f116ddee9f6b43ac78ba3",
          "topics": [
            "0xda9fa7c1b00402c17d0161b249b1ab8bbec047c5a52207b9c112deffd817036b",
            "0x00000000000000000000000091d5e66951c47fbbfafe57c9ff42d45c46b6044c",
            "0x000000000000000000000000ffe4d4c8dcb2679de5804b0f2a1aea7f594bed40",
            "0x000000000000000000000000f969aee60879c54baaed9f3ed26147db216fd664"
          ],
          "data": "0x000000000000000000000000ffffffffffffffffffffffffffffffffffffffff0000000000000000000000000000000000000000000000000000ffffffffffff",
          "blockHash": "0xe883e18ac920c55520ca8162e296b0da0a70a7f7bc7311dcb62a49b42e4a97ba",
          "blockNumber": "0x2ceb357",
          "blockTimestamp": "0x69bc60a3",
          "transactionHash": "0x506a2789830947325aa17f71923b0838267632714ad0ed9f6033b19f4ddb35e2",
          "transactionIndex": "0x3",
          "logIndex": "0x1",
          "removed": false
        }
      ],
      "logsBloom": "0x00010000000000000000000000000000000000000000000000000000000000000000000000000000000000000000000008000000800000000000000000080000000000000000000000000000000000000000000002000000000000001000000000000000000000000000000000000000000000000040000000000000000000000020000000000000000000000000000400000000000000000000000000000000000000000000000000000000000000000800000000000000000000080000000000000000000000000000000000000000000000000000000040004000000000000000000000000000000000000000000000000000000000000000000000002400",
      "type": "0x2",
      "transactionHash": "0x506a2789830947325aa17f71923b0838267632714ad0ed9f6033b19f4ddb35e2",
      "transactionIndex": "0x3",
      "blockHash": "0xe883e18ac920c55520ca8162e296b0da0a70a7f7bc7311dcb62a49b42e4a97ba",
      "blockNumber": "0x2ceb357",
      "gasUsed": "0x6d0e",
      "effectiveGasPrice": "0xee72c920",
      "blobGasUsed": "0xb220",
      "from": "0x91d5e66951c47fbbfafe57c9ff42d45c46b6044c",
      "to": "0x000000000022d473030f116ddee9f6b43ac78ba3",
      "contractAddress": null,
      "daFootprintGasScalar": "0x190",
      "l1BaseFeeScalar": "0x7d0",
      "l1BlobBaseFee": "0x1",
      "l1BlobBaseFeeScalar": "0xdbba0",
      "l1Fee": "0x8b",
      "l1GasPrice": "0xa",
      "l1GasUsed": "0x72a"
    },
    {
      "status": "0x1",
      "cumulativeGasUsed": "0x35408",
      "logs": [
        {
          "address": "0x000000000022d473030f116ddee9f6b43ac78ba3",
          "topics": [
            "0xda9fa7c1b00402c17d0161b249b1ab8bbec047c5a52207b9c112deffd817036b",
            "0x00000000000000000000000091d5e66951c47fbbfafe57c9ff42d45c46b6044c",
            "0x000000000000000000000000ffe4d4c8dcb2679de5804b0f2a1aea7f594bed40",
            "0x00000000000000000000000000b036b58a818b1bc34d502d3fe730db729e62ac"
          ],
          "data": "0x000000000000000000000000ffffffffffffffffffffffffffffffffffffffff0000000000000000000000000000000000000000000000000000ffffffffffff",
          "blockHash": "0xe883e18ac920c55520ca8162e296b0da0a70a7f7bc7311dcb62a49b42e4a97ba",
          "blockNumber": "0x2ceb357",
          "blockTimestamp": "0x69bc60a3",
          "transactionHash": "0x36a87919e8e49c33d758c8779f3cf356bf7557e3f8c4b8873556f556c7b8e9f3",
          "transactionIndex": "0x4",
          "logIndex": "0x2",
          "removed": false
        }
      ],
      "logsBloom": "0x00010000000000000000000000000000000000000000000000000000000000000000000000000000000000000000000008000000801000000000000000080000000000000000000000000000000000000000000002000000000000000000000000000000000000000000000000004000000000000000000000000000000000000020000000000000000000000000000400000000000000000000000000000000000000000000000000000000000000000800000000000020000000080000000000000000000000000000000000000000000000000000000040004000000000000000000000000000000000000000000000000000000000000000000000000400",
      "type": "0x2",
      "transactionHash": "0x36a87919e8e49c33d758c8779f3cf356bf7557e3f8c4b8873556f556c7b8e9f3",
      "transactionIndex": "0x4",
      "blockHash": "0xe883e18ac920c55520ca8162e296b0da0a70a7f7bc7311dcb62a49b42e4a97ba",
      "blockNumber": "0x2ceb357",
      "gasUsed": "0x6d02",
      "effectiveGasPrice": "0xee72c920",
      "blobGasUsed": "0xb090",
      "from": "0x91d5e66951c47fbbfafe57c9ff42d45c46b6044c",
      "to": "0x000000000022d473030f116ddee9f6b43ac78ba3",
      "contractAddress": null,
      "daFootprintGasScalar": "0x190",
      "l1BaseFeeScalar": "0x7d0",
      "l1BlobBaseFee": "0x1",
      "l1BlobBaseFeeScalar": "0xdbba0",
      "l1Fee": "0x8a",
      "l1GasPrice": "0xa",
      "l1GasUsed": "0x71d"
    },
    {
      "status": "0x1",
      "cumulativeGasUsed": "0x3eae9",
      "logs": [
        {
          "address": "0x31d0220469e10c4e71834a79b1f276d740d3768f",
          "topics": [
            "0x8c5be1e5ebec7d5bd14f71427d1e84f3dd0314c0f7b2291e5b200ac8c7c3b925",
            "0x00000000000000000000000091d5e66951c47fbbfafe57c9ff42d45c46b6044c",
            "0x000000000000000000000000000000000022d473030f116ddee9f6b43ac78ba3"
          ],
          "data": "0xffffffffffffffffffffffffffffffffffffffffffffffffffffffffffffffff",
          "blockHash": "0xe883e18ac920c55520ca8162e296b0da0a70a7f7bc7311dcb62a49b42e4a97ba",
          "blockNumber": "0x2ceb357",
          "blockTimestamp": "0x69bc60a3",
          "transactionHash": "0x8e1cfa49963fdbecf61ef453ce20a87a3825e948d631212f5b33e9785a3256a7",
          "transactionIndex": "0x5",
          "logIndex": "0x3",
          "removed": false
        }
      ],
      "logsBloom": "0x00000000000000000000000000000000000000000000000000000000000000000000000000000000000000000000000008000000800000000000000000200000000000000000000000004000000000000000000000001800000000000000000000000000000000000000000000000000000000000000000000000000000000000000000000000000000000000000000400000000000000000000000000000000020000000001000080000000000000000000000000000000000000000000000000000000000000000000000000000000000000000000000000000000000000000010000000000000000000000000000000000000000000000000000000000000",
      "type": "0x2",
      "transactionHash": "0x8e1cfa49963fdbecf61ef453ce20a87a3825e948d631212f5b33e9785a3256a7",
      "transactionIndex": "0x5",
      "blockHash": "0xe883e18ac920c55520ca8162e296b0da0a70a7f7bc7311dcb62a49b42e4a97ba",
      "blockNumber": "0x2ceb357",
      "gasUsed": "0x96e1",
      "effectiveGasPrice": "0xee72c920",
      "blobGasUsed": "0x9c40",
      "from": "0x91d5e66951c47fbbfafe57c9ff42d45c46b6044c",
      "to": "0x31d0220469e10c4e71834a79b1f276d740d3768f",
      "contractAddress": null,
      "daFootprintGasScalar": "0x190",
      "l1BaseFeeScalar": "0x7d0",
      "l1BlobBaseFee": "0x1",
      "l1BlobBaseFeeScalar": "0xdbba0",
      "l1Fee": "0x7a",
      "l1GasPrice": "0xa",
      "l1GasUsed": "0x640"
    },
    {
      "status": "0x1",
      "cumulativeGasUsed": "0x457f7",
      "logs": [
        {
          "address": "0x000000000022d473030f116ddee9f6b43ac78ba3",
          "topics": [
            "0xda9fa7c1b00402c17d0161b249b1ab8bbec047c5a52207b9c112deffd817036b",
            "0x00000000000000000000000091d5e66951c47fbbfafe57c9ff42d45c46b6044c",
            "0x00000000000000000000000031d0220469e10c4e71834a79b1f276d740d3768f",
            "0x000000000000000000000000f969aee60879c54baaed9f3ed26147db216fd664"
          ],
          "data": "0x000000000000000000000000ffffffffffffffffffffffffffffffffffffffff0000000000000000000000000000000000000000000000000000ffffffffffff",
          "blockHash": "0xe883e18ac920c55520ca8162e296b0da0a70a7f7bc7311dcb62a49b42e4a97ba",
          "blockNumber": "0x2ceb357",
          "blockTimestamp": "0x69bc60a3",
          "transactionHash": "0x6c1114869e20343c5a20e92afcb7026962f6f55aa5d672eb2de8093632407d91",
          "transactionIndex": "0x6",
          "logIndex": "0x4",
          "removed": false
        }
      ],
      "logsBloom": "0x00010000000000000000000000000000000000000000000000000000000000000000000000000080000000000000000008000000800000000000000000080000000000000000000000000000000000000000000000000000000000001000000000000000000000000000000000000000000000000040000000000000000000000020000000000000000000000000000400000000000000000000000000000000000000000000000000000000000000000000000000000000000000080000000000000000000000008000000000000000000000000000000040000000000000000000000000001000000000000000000000000000000000000000000000002400",
      "type": "0x2",
      "transactionHash": "0x6c1114869e20343c5a20e92afcb7026962f6f55aa5d672eb2de8093632407d91",
      "transactionIndex": "0x6",
      "blockHash": "0xe883e18ac920c55520ca8162e296b0da0a70a7f7bc7311dcb62a49b42e4a97ba",
      "blockNumber": "0x2ceb357",
      "gasUsed": "0x6d0e",
      "effectiveGasPrice": "0xee72c920",
      "blobGasUsed": "0xb220",
      "from": "0x91d5e66951c47fbbfafe57c9ff42d45c46b6044c",
      "to": "0x000000000022d473030f116ddee9f6b43ac78ba3",
      "contractAddress": null,
      "daFootprintGasScalar": "0x190",
      "l1BaseFeeScalar": "0x7d0",
      "l1BlobBaseFee": "0x1",
      "l1BlobBaseFeeScalar": "0xdbba0",
      "l1Fee": "0x8b",
      "l1GasPrice": "0xa",
      "l1GasUsed": "0x72a"
    },
    {
      "status": "0x1",
      "cumulativeGasUsed": "0x4c4f9",
      "logs": [
        {
          "address": "0x000000000022d473030f116ddee9f6b43ac78ba3",
          "topics": [
            "0xda9fa7c1b00402c17d0161b249b1ab8bbec047c5a52207b9c112deffd817036b",
            "0x00000000000000000000000091d5e66951c47fbbfafe57c9ff42d45c46b6044c",
            "0x00000000000000000000000031d0220469e10c4e71834a79b1f276d740d3768f",
            "0x00000000000000000000000000b036b58a818b1bc34d502d3fe730db729e62ac"
          ],
          "data": "0x000000000000000000000000ffffffffffffffffffffffffffffffffffffffff0000000000000000000000000000000000000000000000000000ffffffffffff",
          "blockHash": "0xe883e18ac920c55520ca8162e296b0da0a70a7f7bc7311dcb62a49b42e4a97ba",
          "blockNumber": "0x2ceb357",
          "blockTimestamp": "0x69bc60a3",
          "transactionHash": "0x4680c561bb3b976130bd28d089b123215c0dd9b89081686711d1e6530a10a144",
          "transactionIndex": "0x7",
          "logIndex": "0x5",
          "removed": false
        }
      ],
      "logsBloom": "0x00010000000000000000000000000000000000000000000000000000000000000000000000000080000000000000000008000000801000000000000000080000000000000000000000000000000000000000000000000000000000000000000000000000000000000000000000004000000000000000000000000000000000000020000000000000000000000000000400000000000000000000000000000000000000000000000000000000000000000000000000000020000000080000000000000000000000008000000000000000000000000000000040000000000000000000000000001000000000000000000000000000000000000000000000000400",
      "type": "0x2",
      "transactionHash": "0x4680c561bb3b976130bd28d089b123215c0dd9b89081686711d1e6530a10a144",
      "transactionIndex": "0x7",
      "blockHash": "0xe883e18ac920c55520ca8162e296b0da0a70a7f7bc7311dcb62a49b42e4a97ba",
      "blockNumber": "0x2ceb357",
      "gasUsed": "0x6d02",
      "effectiveGasPrice": "0xee72c920",
      "blobGasUsed": "0xb090",
      "from": "0x91d5e66951c47fbbfafe57c9ff42d45c46b6044c",
      "to": "0x000000000022d473030f116ddee9f6b43ac78ba3",
      "contractAddress": null,
      "daFootprintGasScalar": "0x190",
      "l1BaseFeeScalar": "0x7d0",
      "l1BlobBaseFee": "0x1",
      "l1BlobBaseFeeScalar": "0xdbba0",
      "l1Fee": "0x8a",
      "l1GasPrice": "0xa",
      "l1GasUsed": "0x71d"
    },
    {
      "status": "0x1",
      "cumulativeGasUsed": "0x58cc8",
      "logs": [
        {
          "address": "0x00b036b58a818b1bc34d502d3fe730db729e62ac",
          "topics": [
            "0xdd466e674ea557f56295e2d0218a125ea4b4f0f6f3307b95f85e6110838d6438",
            "0x9a636df745590806bfc6a80e83b1bb78b06b3383082002f5daecee7979b6b338",
            "0x000000000000000000000000ce35f7f470e91cac613ca292a930d53a67fd894c",
            "0x000000000000000000000000ffe4d4c8dcb2679de5804b0f2a1aea7f594bed40"
          ],
          "data": "0x0000000000000000000000000000000000000000000000000000000000800000000000000000000000000000000000000000000000000000000000000000003c0000000000000000000000000ba4250a4aa44c4f78a50a75a406c453c58bcfc0000000000000000000000000000000000000002ff55425a98a3834790a7e92df0000000000000000000000000000000000000000000000000000000000012e62",
          "blockHash": "0xe883e18ac920c55520ca8162e296b0da0a70a7f7bc7311dcb62a49b42e4a97ba",
          "blockNumber": "0x2ceb357",
          "blockTimestamp": "0x69bc60a3",
          "transactionHash": "0x9734d4d39cbffced6eb82ef92e6e1b21745d41e3c2ce59e958ed96aa00825791",
          "transactionIndex": "0x8",
          "logIndex": "0x6",
          "removed": false
        }
      ],
      "logsBloom": "0x00000000000000000000002000000000000000000000000000000000000000000000000000000000000800000000000200000000000000000000000000000000000000000000000000000000000000000000000002000000000000000000000000000000000000000100000000000000000000000000000000000000008000000000000000000008000000000008000000010001000000000000000000200000000000000000000000000000000000000800000000000000000000000000000000000000000000000000000000000000000000000000000000004000000000000000000000000000000000000000000000000000000002000000000000000010",
      "type": "0x2",
      "transactionHash": "0x9734d4d39cbffced6eb82ef92e6e1b21745d41e3c2ce59e958ed96aa00825791",
      "transactionIndex": "0x8",
      "blockHash": "0xe883e18ac920c55520ca8162e296b0da0a70a7f7bc7311dcb62a49b42e4a97ba",
      "blockNumber": "0x2ceb357",
      "gasUsed": "0xc7cf",
      "effectiveGasPrice": "0xee72c920",
      "blobGasUsed": "0xed80",
      "from": "0x91d5e66951c47fbbfafe57c9ff42d45c46b6044c",
      "to": "0x00b036b58a818b1bc34d502d3fe730db729e62ac",
      "contractAddress": null,
      "daFootprintGasScalar": "0x190",
      "l1BaseFeeScalar": "0x7d0",
      "l1BlobBaseFee": "0x1",
      "l1BlobBaseFeeScalar": "0xdbba0",
      "l1Fee": "0xb9",
      "l1GasPrice": "0xa",
      "l1GasUsed": "0x985"
    },
    {
      "status": "0x1",
      "cumulativeGasUsed": "0x6569b",
      "logs": [
        {
          "address": "0x00b036b58a818b1bc34d502d3fe730db729e62ac",
          "topics": [
            "0xdd466e674ea557f56295e2d0218a125ea4b4f0f6f3307b95f85e6110838d6438",
            "0x758e11ca0fe5288f4473c9da2df97e75f3ac9dabb5a6c94be940e545ed463663",
            "0x0000000000000000000000000000000000000000000000000000000000000000",
            "0x00000000000000000000000031d0220469e10c4e71834a79b1f276d740d3768f"
          ],
          "data": "0x0000000000000000000000000000000000000000000000000000000000800000000000000000000000000000000000000000000000000000000000000000003c0000000000000000000000000ba4250a4aa44c4f78a50a75a406c453c58bcfc000000000000000000000000000000000000000000003249b653f53a79af97729fffffffffffffffffffffffffffffffffffffffffffffffffffffffffffcf6fe",
          "blockHash": "0xe883e18ac920c55520ca8162e296b0da0a70a7f7bc7311dcb62a49b42e4a97ba",
          "blockNumber": "0x2ceb357",
          "blockTimestamp": "0x69bc60a3",
          "transactionHash": "0xb4e7f51eb5580f777012a3bd42feaea1a13698cc9162d2c3406098326628d0d8",
          "transactionIndex": "0x9",
          "logIndex": "0x7",
          "removed": false
        }
      ],
      "logsBloom": "0x00000000000000000000000000000000000000000000000000000000000000000000000000000080000000000000000000000000000000000000000000000000000000000000000000000000080000000000000000000000000000000000000000000000020000000000000000000800000000000000000000000000000000000000000000000008000000000008000000000001000000000000000000200000000000100000000000000000020000000000000000000000000000000000000000000000000000008000000000000000000000000000000000000000000020000000000000001000000000000000000000000000000002000000000000000010",
      "type": "0x2",
      "transactionHash": "0xb4e7f51eb5580f777012a3bd42feaea1a13698cc9162d2c3406098326628d0d8",
      "transactionIndex": "0x9",
      "blockHash": "0xe883e18ac920c55520ca8162e296b0da0a70a7f7bc7311dcb62a49b42e4a97ba",
      "blockNumber": "0x2ceb357",
      "gasUsed": "0xc9d3",
      "effectiveGasPrice": "0xee72c920",
      "blobGasUsed": "0xc800",
      "from": "0x91d5e66951c47fbbfafe57c9ff42d45c46b6044c",
      "to": "0x00b036b58a818b1bc34d502d3fe730db729e62ac",
      "contractAddress": null,
      "daFootprintGasScalar": "0x190",
      "l1BaseFeeScalar": "0x7d0",
      "l1BlobBaseFee": "0x1",
      "l1BlobBaseFeeScalar": "0xdbba0",
      "l1Fee": "0x9c",
      "l1GasPrice": "0xa",
      "l1GasUsed": "0x800"
    },
    {
      "status": "0x1",
      "cumulativeGasUsed": "0xd50ec",
      "logs": [
        {
          "address": "0xf969aee60879c54baaed9f3ed26147db216fd664",
          "topics": [
            "0xddf252ad1be2c89b69c2b068fc378daa952ba7f163c4a11628f55a4df523b3ef",
            "0x0000000000000000000000000000000000000000000000000000000000000000",
            "0x00000000000000000000000091d5e66951c47fbbfafe57c9ff42d45c46b6044c",
            "0x0000000000000000000000000000000000000000000000000000000000001c6b"
          ],
          "data": "0x",
          "blockHash": "0xe883e18ac920c55520ca8162e296b0da0a70a7f7bc7311dcb62a49b42e4a97ba",
          "blockNumber": "0x2ceb357",
          "blockTimestamp": "0x69bc60a3",
          "transactionHash": "0xed068257c175eb3e8d9bef6e610b66865c820f6f26443c83111c2776475e37be",
          "transactionIndex": "0xa",
          "logIndex": "0x8",
          "removed": false
        },
        {
          "address": "0x00b036b58a818b1bc34d502d3fe730db729e62ac",
          "topics": [
            "0xf208f4912782fd25c7f114ca3723a2d5dd6f3bcc3ac8db5af63baa85f711d5ec",
            "0x9a636df745590806bfc6a80e83b1bb78b06b3383082002f5daecee7979b6b338",
            "0x000000000000000000000000f969aee60879c54baaed9f3ed26147db216fd664"
          ],
          "data": "0xfffffffffffffffffffffffffffffffffffffffffffffffffffffffffff2764c00000000000000000000000000000000000000000000000000000000000d89b400000000000000000000000000000000000000000000003635c9adc5dea000000000000000000000000000000000000000000000000000000000000000001c6b",
          "blockHash": "0xe883e18ac920c55520ca8162e296b0da0a70a7f7bc7311dcb62a49b42e4a97ba",
          "blockNumber": "0x2ceb357",
          "blockTimestamp": "0x69bc60a3",
          "transactionHash": "0xed068257c175eb3e8d9bef6e610b66865c820f6f26443c83111c2776475e37be",
          "transactionIndex": "0xa",
          "logIndex": "0x9",
          "removed": false
        },
        {
          "address": "0xce35f7f470e91cac613ca292a930d53a67fd894c",
          "topics": [
            "0xddf252ad1be2c89b69c2b068fc378daa952ba7f163c4a11628f55a4df523b3ef",
            "0x00000000000000000000000091d5e66951c47fbbfafe57c9ff42d45c46b6044c",
            "0x00000000000000000000000000b036b58a818b1bc34d502d3fe730db729e62ac"
          ],
          "data": "0x000000000000000000000000000000000000000000000001215f337b9a10dcf6",
          "blockHash": "0xe883e18ac920c55520ca8162e296b0da0a70a7f7bc7311dcb62a49b42e4a97ba",
          "blockNumber": "0x2ceb357",
          "blockTimestamp": "0x69bc60a3",
          "transactionHash": "0xed068257c175eb3e8d9bef6e610b66865c820f6f26443c83111c2776475e37be",
          "transactionIndex": "0xa",
          "logIndex": "0xa",
          "removed": false
        },
        {
          "address": "0xffe4d4c8dcb2679de5804b0f2a1aea7f594bed40",
          "topics": [
            "0xddf252ad1be2c89b69c2b068fc378daa952ba7f163c4a11628f55a4df523b3ef",
            "0x00000000000000000000000091d5e66951c47fbbfafe57c9ff42d45c46b6044c",
            "0x00000000000000000000000000b036b58a818b1bc34d502d3fe730db729e62ac"
          ],
          "data": "0x000000000000000000000000000000000000000000000a27d3528a7c2f831571",
          "blockHash": "0xe883e18ac920c55520ca8162e296b0da0a70a7f7bc7311dcb62a49b42e4a97ba",
          "blockNumber": "0x2ceb357",
          "blockTimestamp": "0x69bc60a3",
          "transactionHash": "0xed068257c175eb3e8d9bef6e610b66865c820f6f26443c83111c2776475e37be",
          "transactionIndex": "0xa",
          "logIndex": "0xb",
          "removed": false
        }
      ],
      "logsBloom": "0x00000000000000000000102000000000000000000000000000000000000000000000000000400000000000000000000008000000801000000000000000000000000000000000000000000008000000000000000000001000000000001000000000000000020000000000000000004800000000000040000000000010008000000000000041000000000000000008000400010000000000000000000000000000000004000000000000000000000000000800000000000020000000000000000800000002080000000000000000000000000000000000000000000000000020004000000000000000000000000500010004000000000002000000000000002110",
      "type": "0x2",
      "transactionHash": "0xed068257c175eb3e8d9bef6e610b66865c820f6f26443c83111c2776475e37be",
      "transactionIndex": "0xa",
      "blockHash": "0xe883e18ac920c55520ca8162e296b0da0a70a7f7bc7311dcb62a49b42e4a97ba",
      "blockNumber": "0x2ceb357",
      "gasUsed": "0x6fa51",
      "effectiveGasPrice": "0xee72c920",
      "blobGasUsed": "0x1d010",
      "from": "0x91d5e66951c47fbbfafe57c9ff42d45c46b6044c",
      "to": "0xf969aee60879c54baaed9f3ed26147db216fd664",
      "contractAddress": null,
      "daFootprintGasScalar": "0x190",
      "l1BaseFeeScalar": "0x7d0",
      "l1BlobBaseFee": "0x1",
      "l1BlobBaseFeeScalar": "0xdbba0",
      "l1Fee": "0x16b",
      "l1GasPrice": "0xa",
      "l1GasUsed": "0x129d"
    },
    {
      "status": "0x1",
      "cumulativeGasUsed": "0x134a1d",
      "logs": [
        {
          "address": "0xf969aee60879c54baaed9f3ed26147db216fd664",
          "topics": [
            "0xddf252ad1be2c89b69c2b068fc378daa952ba7f163c4a11628f55a4df523b3ef",
            "0x0000000000000000000000000000000000000000000000000000000000000000",
            "0x00000000000000000000000091d5e66951c47fbbfafe57c9ff42d45c46b6044c",
            "0x0000000000000000000000000000000000000000000000000000000000001c6c"
          ],
          "data": "0x",
          "blockHash": "0xe883e18ac920c55520ca8162e296b0da0a70a7f7bc7311dcb62a49b42e4a97ba",
          "blockNumber": "0x2ceb357",
          "blockTimestamp": "0x69bc60a3",
          "transactionHash": "0x76b81408260994d7babf80b2517dfe22e3f54cde0cdcf27bab41f6441c35e8b7",
          "transactionIndex": "0xb",
          "logIndex": "0xc",
          "removed": false
        },
        {
          "address": "0x00b036b58a818b1bc34d502d3fe730db729e62ac",
          "topics": [
            "0xf208f4912782fd25c7f114ca3723a2d5dd6f3bcc3ac8db5af63baa85f711d5ec",
            "0x758e11ca0fe5288f4473c9da2df97e75f3ac9dabb5a6c94be940e545ed463663",
            "0x000000000000000000000000f969aee60879c54baaed9f3ed26147db216fd664"
          ],
          "data": "0xfffffffffffffffffffffffffffffffffffffffffffffffffffffffffff2764c00000000000000000000000000000000000000000000000000000000000d89b40000000000000000000000000000000000000000000000000000045c9dd597f00000000000000000000000000000000000000000000000000000000000001c6c",
          "blockHash": "0xe883e18ac920c55520ca8162e296b0da0a70a7f7bc7311dcb62a49b42e4a97ba",
          "blockNumber": "0x2ceb357",
          "blockTimestamp": "0x69bc60a3",
          "transactionHash": "0x76b81408260994d7babf80b2517dfe22e3f54cde0cdcf27bab41f6441c35e8b7",
          "transactionIndex": "0xb",
          "logIndex": "0xd",
          "removed": false
        },
        {
          "address": "0x0ba4250a4aa44c4f78a50a75a406c453c58bcfc0",
          "topics": [
            "0xcbc8be1304ed809344446ba1aae2fbe4fece06bdfaff4a9e6ad5c19956f20dc5",
            "0x000000000000000000000000f969aee60879c54baaed9f3ed26147db216fd664"
          ],
          "data": "0x0000000000000000000000000000000000000000000000000000045c9dd597f0",
          "blockHash": "0xe883e18ac920c55520ca8162e296b0da0a70a7f7bc7311dcb62a49b42e4a97ba",
          "blockNumber": "0x2ceb357",
          "blockTimestamp": "0x69bc60a3",
          "transactionHash": "0x76b81408260994d7babf80b2517dfe22e3f54cde0cdcf27bab41f6441c35e8b7",
          "transactionIndex": "0xb",
          "logIndex": "0xe",
          "removed": false
        },
        {
          "address": "0x31d0220469e10c4e71834a79b1f276d740d3768f",
          "topics": [
            "0xddf252ad1be2c89b69c2b068fc378daa952ba7f163c4a11628f55a4df523b3ef",
            "0x00000000000000000000000091d5e66951c47fbbfafe57c9ff42d45c46b6044c",
            "0x00000000000000000000000000b036b58a818b1bc34d502d3fe730db729e62ac"
          ],
          "data": "0x000000000000000000000000000000000000000000000000000000000db58580",
          "blockHash": "0xe883e18ac920c55520ca8162e296b0da0a70a7f7bc7311dcb62a49b42e4a97ba",
          "blockNumber": "0x2ceb357",
          "blockTimestamp": "0x69bc60a3",
          "transactionHash": "0x76b81408260994d7babf80b2517dfe22e3f54cde0cdcf27bab41f6441c35e8b7",
          "transactionIndex": "0xb",
          "logIndex": "0xf",
          "removed": false
        }
      ],
      "logsBloom": "0x00000000000000000000000000000000000000000000000000000000000000000000000000000000000000000000000008000000801800000000000000000000100000000000000000000008080000000000000000001000000000001000000000000000020000000000000000004800000000000040000000000010000000000000000001000000000000008008000400000000000000000000000000000000000004100001000080000000020000000800000008000020000000000000000000000002080000000000000000000000000000000400000000000080000020004000000000000000000000000000000004002000000002010000000000002010",
      "type": "0x2",
      "transactionHash": "0x76b81408260994d7babf80b2517dfe22e3f54cde0cdcf27bab41f6441c35e8b7",
      "transactionIndex": "0xb",
      "blockHash": "0xe883e18ac920c55520ca8162e296b0da0a70a7f7bc7311dcb62a49b42e4a97ba",
      "blockNumber": "0x2ceb357",
      "gasUsed": "0x5f931",
      "effectiveGasPrice": "0xee72c920",
      "blobGasUsed": "0x1aa90",
      "from": "0x91d5e66951c47fbbfafe57c9ff42d45c46b6044c",
      "to": "0xf969aee60879c54baaed9f3ed26147db216fd664",
      "contractAddress": null,
      "daFootprintGasScalar": "0x190",
      "l1BaseFeeScalar": "0x7d0",
      "l1BlobBaseFee": "0x1",
      "l1BlobBaseFeeScalar": "0xdbba0",
      "l1Fee": "0x14d",
      "l1GasPrice": "0xa",
      "l1GasUsed": "0x1119"
    }
  ],
  "libraries": [],
  "pending": [],
  "returns": {},
  "timestamp": 1773953188576,
  "chain": 1301,
  "commit": "e95b1d6"
}