{
  "transactions": [
    {
      "hash": "0x252ab0859bd1ab3290e341abc57127e9aecc6d3df0e6222996a845529cceaddf",
      "transactionType": "CALL",
      "contractName": null,
      "contractAddress": "0x80987c244388381cc1cafb0d5cc869cc8f4529f0",
      "function": "approve(address,uint256)",
      "arguments": [
        "0x000000000022D473030F116dDEE9F6B43aC78BA3",
        "115792089237316195423570985008687907853269984665640564039457584007913129639935"
      ],
      "transaction": {
        "from": "0x91d5e66951c47fbbfafe57c9ff42d45c46b6044c",
        "to": "0x80987c244388381cc1cafb0d5cc869cc8f4529f0",
        "gas": "0x9047",
        "value": "0x0",
        "input": "0x095ea7b3000000000000000000000000000000000022d473030f116ddee9f6b43ac78ba3ffffffffffffffffffffffffffffffffffffffffffffffffffffffffffffffff",
        "nonce": "0x2be",
        "chainId": "0x515"
      },
      "additionalContracts": [],
      "isFixedGasLimit": false
    },
    {
      "hash": "0xc8b9971456bd180b6dc94d3d2b82187d848c85fd6edc03bcf7425bb430223305",
      "transactionType": "CALL",
      "contractName": null,
      "contractAddress": "0x000000000022d473030f116ddee9f6b43ac78ba3",
      "function": "approve(address,address,uint160,uint48)",
      "arguments": [
        "0x80987c244388381CC1CAFb0d5Cc869CC8F4529f0",
        "0xf969Aee60879C54bAAed9F3eD26147Db216Fd664",
        "1461501637330902918203684832716283019655932542975",
        "281474976710655"
      ],
      "transaction": {
        "from": "0x91d5e66951c47fbbfafe57c9ff42d45c46b6044c",
        "to": "0x000000000022d473030f116ddee9f6b43ac78ba3",
        "gas": "0x96a0",
        "value": "0x0",
        "input": "0x87517c4500000000000000000000000080987c244388381cc1cafb0d5cc869cc8f4529f0000000000000000000000000f969aee60879c54baaed9f3ed26147db216fd664000000000000000000000000ffffffffffffffffffffffffffffffffffffffff0000000000000000000000000000000000000000000000000000ffffffffffff",
        "nonce": "0x2bf",
        "chainId": "0x515"
      },
      "additionalContracts": [],
      "isFixedGasLimit": false
    },
    {
      "hash": "0xb74dafdaf7427c368d7638cf46f8d93d8f825e89d77fe151f434751096972ed2",
      "transactionType": "CALL",
      "contractName": null,
      "contractAddress": "0x000000000022d473030f116ddee9f6b43ac78ba3",
      "function": "approve(address,address,uint160,uint48)",
      "arguments": [
        "0x80987c244388381CC1CAFb0d5Cc869CC8F4529f0",
        "0x00B036B58a818B1BC34d502D3fE730Db729e62AC",
        "1461501637330902918203684832716283019655932542975",
        "281474976710655"
      ],
      "transaction": {
        "from": "0x91d5e66951c47fbbfafe57c9ff42d45c46b6044c",
        "to": "0x000000000022d473030f116ddee9f6b43ac78ba3",
        "gas": "0x9f6c",
        "value": "0x0",
        "input": "0x87517c4500000000000000000000000080987c244388381cc1cafb0d5cc869cc8f4529f000000000000000000000000000b036b58a818b1bc34d502d3fe730db729e62ac000000000000000000000000ffffffffffffffffffffffffffffffffffffffff0000000000000000000000000000000000000000000000000000ffffffffffff",
        "nonce": "0x2c0",
        "chainId": "0x515"
      },
      "additionalContracts": [],
      "isFixedGasLimit": false
    },
    {
      "hash": "0x0c897ad57ab9f6d925e525d2af6b8c6dca89920c5046398f4f258e36bdfe0cc1",
      "transactionType": "CALL",
      "contractName": null,
      "contractAddress": "0x9fdef189c2a4f7469f7d70603f24c4bdf27ac65e",
      "function": "approve(address,uint256)",
      "arguments": [
        "0x000000000022D473030F116dDEE9F6B43aC78BA3",
        "115792089237316195423570985008687907853269984665640564039457584007913129639935"
      ],
      "transaction": {
        "from": "0x91d5e66951c47fbbfafe57c9ff42d45c46b6044c",
        "to": "0x9fdef189c2a4f7469f7d70603f24c4bdf27ac65e",
        "gas": "0x9047",
        "value": "0x0",
        "input": "0x095ea7b3000000000000000000000000000000000022d473030f116ddee9f6b43ac78ba3ffffffffffffffffffffffffffffffffffffffffffffffffffffffffffffffff",
        "nonce": "0x2c1",
        "chainId": "0x515"
      },
      "additionalContracts": [],
      "isFixedGasLimit": false
    },
    {
      "hash": "0x15c2fc4f5f7c1d23a37589777228acc7c5f61a256bb7ea988fdf6ad7fa0bf675",
      "transactionType": "CALL",
      "contractName": null,
      "contractAddress": "0x000000000022d473030f116ddee9f6b43ac78ba3",
      "function": "approve(address,address,uint160,uint48)",
      "arguments": [
        "0x9fdEF189C2A4F7469F7D70603f24C4BDf27aC65E",
        "0xf969Aee60879C54bAAed9F3eD26147Db216Fd664",
        "1461501637330902918203684832716283019655932542975",
        "281474976710655"
      ],
      "transaction": {
        "from": "0x91d5e66951c47fbbfafe57c9ff42d45c46b6044c",
        "to": "0x000000000022d473030f116ddee9f6b43ac78ba3",
        "gas": "0x96a0",
        "value": "0x0",
        "input": "0x87517c450000000000000000000000009fdef189c2a4f7469f7d70603f24c4bdf27ac65e000000000000000000000000f969aee60879c54baaed9f3ed26147db216fd664000000000000000000000000ffffffffffffffffffffffffffffffffffffffff0000000000000000000000000000000000000000000000000000ffffffffffff",
        "nonce": "0x2c2",
        "chainId": "0x515"
      },
      "additionalContracts": [],
      "isFixedGasLimit": false
    },
    {
      "hash": "0x9268ed4fbb91f26511988c403934a5cf08f4064a228b07e34a2eea207a4c02d6",
      "transactionType": "CALL",
      "contractName": null,
      "contractAddress": "0x000000000022d473030f116ddee9f6b43ac78ba3",
      "function": "approve(address,address,uint160,uint48)",
      "arguments": [
        "0x9fdEF189C2A4F7469F7D70603f24C4BDf27aC65E",
        "0x00B036B58a818B1BC34d502D3fE730Db729e62AC",
        "1461501637330902918203684832716283019655932542975",
        "281474976710655"
      ],
      "transaction": {
        "from": "0x91d5e66951c47fbbfafe57c9ff42d45c46b6044c",
        "to": "0x000000000022d473030f116ddee9f6b43ac78ba3",
        "gas": "0x9f6c",
        "value": "0x0",
        "input": "0x87517c450000000000000000000000009fdef189c2a4f7469f7d70603f24c4bdf27ac65e00000000000000000000000000b036b58a818b1bc34d502d3fe730db729e62ac000000000000000000000000ffffffffffffffffffffffffffffffffffffffff0000000000000000000000000000000000000000000000000000ffffffffffff",
        "nonce": "0x2c3",
        "chainId": "0x515"
      },
      "additionalContracts": [],
      "isFixedGasLimit": false
    },
    {
      "hash": "0xe14f83eab24427bb65bc5c794d5894a821a5e7019795a1c6369962880ae11598",
      "transactionType": "CALL",
      "contractName": null,
      "contractAddress": "0x31d0220469e10c4e71834a79b1f276d740d3768f",
      "function": "approve(address,uint256)",
      "arguments": [
        "0x000000000022D473030F116dDEE9F6B43aC78BA3",
        "115792089237316195423570985008687907853269984665640564039457584007913129639935"
      ],
      "transaction": {
        "from": "0x91d5e66951c47fbbfafe57c9ff42d45c46b6044c",
        "to": "0x31d0220469e10c4e71834a79b1f276d740d3768f",
        "gas": "0xdca8",
        "value": "0x0",
        "input": "0x095ea7b3000000000000000000000000000000000022d473030f116ddee9f6b43ac78ba3ffffffffffffffffffffffffffffffffffffffffffffffffffffffffffffffff",
        "nonce": "0x2c4",
        "chainId": "0x515"
      },
      "additionalContracts": [],
      "isFixedGasLimit": false
    },
    {
      "hash": "0x0f841c491b5fc461fb8fad94da24c43c4e70c084b7a7456f0a6d78e8251ac6ae",
      "transactionType": "CALL",
      "contractName": null,
      "contractAddress": "0x000000000022d473030f116ddee9f6b43ac78ba3",
      "function": "approve(address,address,uint160,uint48)",
      "arguments": [
        "0x31d0220469e10c4E71834a79b1f276d740d3768F",
        "0xf969Aee60879C54bAAed9F3eD26147Db216Fd664",
        "1461501637330902918203684832716283019655932542975",
        "281474976710655"
      ],
      "transaction": {
        "from": "0x91d5e66951c47fbbfafe57c9ff42d45c46b6044c",
        "to": "0x000000000022d473030f116ddee9f6b43ac78ba3",
        "gas": "0x96a0",
        "value": "0x0",
        "input": "0x87517c4500000000000000000000000031d0220469e10c4e71834a79b1f276d740d3768f000000000000000000000000f969aee60879c54baaed9f3ed26147db216fd664000000000000000000000000ffffffffffffffffffffffffffffffffffffffff0000000000000000000000000000000000000000000000000000ffffffffffff",
        "nonce": "0x2c5",
        "chainId": "0x515"
      },
      "additionalContracts": [],
      "isFixedGasLimit": false
    },
    {
      "hash": "0x130a88634a6a228e753d2977974de780b315efe5b2601a275950e895252a3629",
      "transactionType": "CALL",
      "contractName": null,
      "contractAddress": "0x000000000022d473030f116ddee9f6b43ac78ba3",
      "function": "approve(address,address,uint160,uint48)",
      "arguments": [
        "0x31d0220469e10c4E71834a79b1f276d740d3768F",
        "0x00B036B58a818B1BC34d502D3fE730Db729e62AC",
        "1461501637330902918203684832716283019655932542975",
        "281474976710655"
      ],
      "transaction": {
        "from": "0x91d5e66951c47fbbfafe57c9ff42d45c46b6044c",
        "to": "0x000000000022d473030f116ddee9f6b43ac78ba3",
        "gas": "0x9f6c",
        "value": "0x0",
        "input": "0x87517c4500000000000000000000000031d0220469e10c4e71834a79b1f276d740d3768f00000000000000000000000000b036b58a818b1bc34d502d3fe730db729e62ac000000000000000000000000ffffffffffffffffffffffffffffffffffffffff0000000000000000000000000000000000000000000000000000ffffffffffff",
        "nonce": "0x2c6",
        "chainId": "0x515"
      },
      "additionalContracts": [],
      "isFixedGasLimit": false
    },
    {
      "hash": "0x08349b1168f337948e7e4aa8e23709207fac9669f8c9883f4b929a858668cab9",
      "transactionType": "CALL",
      "contractName": null,
      "contractAddress": "0x00b036b58a818b1bc34d502d3fe730db729e62ac",
      "function": "initialize((address,address,uint24,int24,address),uint160)",
      "arguments": [
        "(0x80987c244388381CC1CAFb0d5Cc869CC8F4529f0, 0x9fdEF189C2A4F7469F7D70603f24C4BDf27aC65E, 8388608, 60, 0x0b4137B66Ff5802A08Bf238E6606E658c1eA8FC0)",
        "3799649193200520420489001079519"
      ],
      "transaction": {
        "from": "0x91d5e66951c47fbbfafe57c9ff42d45c46b6044c",
        "to": "0x00b036b58a818b1bc34d502d3fe730db729e62ac",
        "gas": "0x113fb",
        "value": "0x0",
        "input": "0x6276cbbe00000000000000000000000080987c244388381cc1cafb0d5cc869cc8f4529f00000000000000000000000009fdef189c2a4f7469f7d70603f24c4bdf27ac65e0000000000000000000000000000000000000000000000000000000000800000000000000000000000000000000000000000000000000000000000000000003c0000000000000000000000000b4137b66ff5802a08bf238e6606e658c1ea8fc0000000000000000000000000000000000000002ff55425a98a3834790a7e92df",
        "nonce": "0x2c7",
        "chainId": "0x515"
      },
      "additionalContracts": [],
      "isFixedGasLimit": false
    },
    {
      "hash": "0x28bddf8009e82b2d948fefc36d2873432f05ecc39a43827c7073972f924880b3",
      "transactionType": "CALL",
      "contractName": null,
      "contractAddress": "0x00b036b58a818b1bc34d502d3fe730db729e62ac",
      "function": "initialize((address,address,uint24,int24,address),uint160)",
      "arguments": [
        "(0x0000000000000000000000000000000000000000, 0x31d0220469e10c4E71834a79b1f276d740d3768F, 8388608, 60, 0x0b4137B66Ff5802A08Bf238E6606E658c1eA8FC0)",
        "3799649193200520420489001"
      ],
      "transaction": {
        "from": "0x91d5e66951c47fbbfafe57c9ff42d45c46b6044c",
        "to": "0x00b036b58a818b1bc34d502d3fe730db729e62ac",
        "gas": "0x1272a",
        "value": "0x0",
        "input": "0x6276cbbe000000000000000000000000000000000000000000000000000000000000000000000000000000000000000031d0220469e10c4e71834a79b1f276d740d3768f0000000000000000000000000000000000000000000000000000000000800000000000000000000000000000000000000000000000000000000000000000003c0000000000000000000000000b4137b66ff5802a08bf238e6606e658c1ea8fc000000000000000000000000000000000000000000003249b653f53a79af97729",
        "nonce": "0x2c8",
        "chainId": "0x515"
      },
      "additionalContracts": [],
      "isFixedGasLimit": false
    },
    {
      "hash": "0xa5c2c1f1435182d16dbf8137a3c86b5d45b353bbada3753c202f27fa3587a159",
      "transactionType": "CALL",
      "contractName": null,
      "contractAddress": "0xf969aee60879c54baaed9f3ed26147db216fd664",
      "function": "modifyLiquidities(bytes,uint256)",
      "arguments": [
        "0x000000000000000000000000000000000000000000000000000000000000004000000000000000000000000000000000000000000000000000000000000000800000000000000000000000000000000000000000000000000000000000000004020d14140000000000000000000000000000000000000000000000000000000000000000000000000000000000000000000000000000000000000000000000040000000000000000000000000000000000000000000000000000000000000080000000000000000000000000000000000000000000000000000000000000024000000000000000000000000000000000000000000000000000000000000002a0000000000000000000000000000000000000000000000000000000000000030000000000000000000000000000000000000000000000000000000000000001a000000000000000000000000080987c244388381cc1cafb0d5cc869cc8f4529f00000000000000000000000009fdef189c2a4f7469f7d70603f24c4bdf27ac65e0000000000000000000000000000000000000000000000000000000000800000000000000000000000000000000000000000000000000000000000000000003c0000000000000000000000000b4137b66ff5802a08bf238e6606e658c1ea8fc0fffffffffffffffffffffffffffffffffffffffffffffffffffffffffff2764c00000000000000000000000000000000000000000000000000000000000d89b400000000000000000000000000000000000000000000003635c9adc5dea00000000000000000000000000000000000000000000000000001215f337b9a10dcf6000000000000000000000000000000000000000000000a27d3528a7c2f83157100000000000000000000000091d5e66951c47fbbfafe57c9ff42d45c46b6044c00000000000000000000000000000000000000000000000000000000000001800000000000000000000000000000000000000000000000000000000000000000000000000000000000000000000000000000000000000000000000000000004000000000000000000000000080987c244388381cc1cafb0d5cc869cc8f4529f00000000000000000000000009fdef189c2a4f7469f7d70603f24c4bdf27ac65e000000000000000000000000000000000000000000000000000000000000004000000000000000000000000080987c244388381cc1cafb0d5cc869cc8f4529f000000000000000000000000091d5e66951c47fbbfafe57c9ff42d45c46b6044c00000000000000000000000000000000000000000000000000000000000000400000000000000000000000009fdef189c2a4f7469f7d70603f24c4bdf27ac65e00000000000000000000000091d5e66951c47fbbfafe57c9ff42d45c46b6044c",
        "1773997772"
      ],
      "transaction": {
        "from": "0x91d5e66951c47fbbfafe57c9ff42d45c46b6044c",
        "to": "0xf969aee60879c54baaed9f3ed26147db216fd664",
        "gas": "0x9a6fd",
        "value": "0x0",
        "input": "0xdd46508f00000000000000000000000000000000000000000000000000000000000000400000000000000000000000000000000000000000000000000000000069bd0ecc0000000000000000000000000000000000000000000000000000000000000400000000000000000000000000000000000000000000000000000000000000004000000000000000000000000000000000000000000000000000000000000000800000000000000000000000000000000000000000000000000000000000000004020d14140000000000000000000000000000000000000000000000000000000000000000000000000000000000000000000000000000000000000000000000040000000000000000000000000000000000000000000000000000000000000080000000000000000000000000000000000000000000000000000000000000024000000000000000000000000000000000000000000000000000000000000002a0000000000000000000000000000000000000000000000000000000000000030000000000000000000000000000000000000000000000000000000000000001a000000000000000000000000080987c244388381cc1cafb0d5cc869cc8f4529f00000000000000000000000009fdef189c2a4f7469f7d70603f24c4bdf27ac65e0000000000000000000000000000000000000000000000000000000000800000000000000000000000000000000000000000000000000000000000000000003c0000000000000000000000000b4137b66ff5802a08bf238e6606e658c1ea8fc0fffffffffffffffffffffffffffffffffffffffffffffffffffffffffff2764c00000000000000000000000000000000000000000000000000000000000d89b400000000000000000000000000000000000000000000003635c9adc5dea00000000000000000000000000000000000000000000000000001215f337b9a10dcf6000000000000000000000000000000000000000000000a27d3528a7c2f83157100000000000000000000000091d5e66951c47fbbfafe57c9ff42d45c46b6044c00000000000000000000000000000000000000000000000000000000000001800000000000000000000000000000000000000000000000000000000000000000000000000000000000000000000000000000000000000000000000000000004000000000000000000000000080987c244388381cc1cafb0d5cc869cc8f4529f00000000000000000000000009fdef189c2a4f7469f7d70603f24c4bdf27ac65e000000000000000000000000000000000000000000000000000000000000004000000000000000000000000080987c244388381cc1cafb0d5cc869cc8f4529f000000000000000000000000091d5e66951c47fbbfafe57c9ff42d45c46b6044c00000000000000000000000000000000000000000000000000000000000000400000000000000000000000009fdef189c2a4f7469f7d70603f24c4bdf27ac65e00000000000000000000000091d5e66951c47fbbfafe57c9ff42d45c46b6044c",
        "nonce": "0x2c9",
        "chainId": "0x515"
      },
      "additionalContracts": [],
      "isFixedGasLimit": false
    },
    {
      "hash": "0x602fe78787bd2b50e294b63719b51195215b4d87b529673077a527011fa84e7d",
      "transactionType": "CALL",
      "contractName": null,
      "contractAddress": "0xf969aee60879c54baaed9f3ed26147db216fd664",
      "function": "modifyLiquidities(bytes,uint256)",
      "arguments": [
        "0x000000000000000000000000000000000000000000000000000000000000004000000000000000000000000000000000000000000000000000000000000000800000000000000000000000000000000000000000000000000000000000000004020d14140000000000000000000000000000000000000000000000000000000000000000000000000000000000000000000000000000000000000000000000040000000000000000000000000000000000000000000000000000000000000080000000000000000000000000000000000000000000000000000000000000024000000000000000000000000000000000000000000000000000000000000002a0000000000000000000000000000000000000000000000000000000000000030000000000000000000000000000000000000000000000000000000000000001a0000000000000000000000000000000000000000000000000000000000000000000000000000000000000000031d0220469e10c4e71834a79b1f276d740d3768f0000000000000000000000000000000000000000000000000000000000800000000000000000000000000000000000000000000000000000000000000000003c0000000000000000000000000b4137b66ff5802a08bf238e6606e658c1ea8fc0fffffffffffffffffffffffffffffffffffffffffffffffffffffffffff2764c00000000000000000000000000000000000000000000000000000000000d89b40000000000000000000000000000000000000000000000000000045c9dd597f0000000000000000000000000000000000000000000000000016345785d89c565000000000000000000000000000000000000000000000000000000000db5858000000000000000000000000091d5e66951c47fbbfafe57c9ff42d45c46b6044c000000000000000000000000000000000000000000000000000000000000018000000000000000000000000000000000000000000000000000000000000000000000000000000000000000000000000000000000000000000000000000000040000000000000000000000000000000000000000000000000000000000000000000000000000000000000000031d0220469e10c4e71834a79b1f276d740d3768f0000000000000000000000000000000000000000000000000000000000000040000000000000000000000000000000000000000000000000000000000000000000000000000000000000000091d5e66951c47fbbfafe57c9ff42d45c46b6044c000000000000000000000000000000000000000000000000000000000000004000000000000000000000000031d0220469e10c4e71834a79b1f276d740d3768f00000000000000000000000091d5e66951c47fbbfafe57c9ff42d45c46b6044c",
        "1773997772"
      ],
      "transaction": {
        "from": "0x91d5e66951c47fbbfafe57c9ff42d45c46b6044c",
        "to": "0xf969aee60879c54baaed9f3ed26147db216fd664",
        "gas": "0x8bd2c",
        "value": "0x16345785d89c565",
        "input": "0xdd46508f00000000000000000000000000000000000000000000000000000000000000400000000000000000000000000000000000000000000000000000000069bd0ecc0000000000000000000000000000000000000000000000000000000000000400000000000000000000000000000000000000000000000000000000000000004000000000000000000000000000000000000000000000000000000000000000800000000000000000000000000000000000000000000000000000000000000004020d14140000000000000000000000000000000000000000000000000000000000000000000000000000000000000000000000000000000000000000000000040000000000000000000000000000000000000000000000000000000000000080000000000000000000000000000000000000000000000000000000000000024000000000000000000000000000000000000000000000000000000000000002a0000000000000000000000000000000000000000000000000000000000000030000000000000000000000000000000000000000000000000000000000000001a0000000000000000000000000000000000000000000000000000000000000000000000000000000000000000031d0220469e10c4e71834a79b1f276d740d3768f0000000000000000000000000000000000000000000000000000000000800000000000000000000000000000000000000000000000000000000000000000003c0000000000000000000000000b4137b66ff5802a08bf238e6606e658c1ea8fc0fffffffffffffffffffffffffffffffffffffffffffffffffffffffffff2764c00000000000000000000000000000000000000000000000000000000000d89b40000000000000000000000000000000000000000000000000000045c9dd597f0000000000000000000000000000000000000000000000000016345785d89c565000000000000000000000000000000000000000000000000000000000db5858000000000000000000000000091d5e66951c47fbbfafe57c9ff42d45c46b6044c000000000000000000000000000000000000000000000000000000000000018000000000000000000000000000000000000000000000000000000000000000000000000000000000000000000000000000000000000000000000000000000040000000000000000000000000000000000000000000000000000000000000000000000000000000000000000031d0220469e10c4e71834a79b1f276d740d3768f0000000000000000000000000000000000000000000000000000000000000040000000000000000000000000000000000000000000000000000000000000000000000000000000000000000091d5e66951c47fbbfafe57c9ff42d45c46b6044c000000000000000000000000000000000000000000000000000000000000004000000000000000000000000031d0220469e10c4e71834a79b1f276d740d3768f00000000000000000000000091d5e66951c47fbbfafe57c9ff42d45c46b6044c",
        "nonce": "0x2ca",
        "chainId": "0x515"
      },
      "additionalContracts": [],
      "isFixedGasLimit": false
    }
  ],
  "receipts": [
    {
      "status": "0x1",
      "cumulativeGasUsed": "0x45287",
      "logs": [
        {
          "address": "0x80987c244388381cc1cafb0d5cc869cc8f4529f0",
          "topics": [
            "0x8c5be1e5ebec7d5bd14f71427d1e84f3dd0314c0f7b2291e5b200ac8c7c3b925",
            "0x00000000000000000000000091d5e66951c47fbbfafe57c9ff42d45c46b6044c",
            "0x000000000000000000000000000000000022d473030f116ddee9f6b43ac78ba3"
          ],
          "data": "0xffffffffffffffffffffffffffffffffffffffffffffffffffffffffffffffff",
          "blockHash": "0x04788067ac2af9769d4479381a79023085a69c2a9dc4c77e233fd2a40a3c3cbe",
          "blockNumber": "0x2cf5394",
          "blockTimestamp": "0x69bd00e0",
          "transactionHash": "0x9268ed4fbb91f26511988c403934a5cf08f4064a228b07e34a2eea207a4c02d6",
          "transactionIndex": "0x4",
          "logIndex": "0x2",
          "removed": false
        }
      ],
      "logsBloom": "0x00000000000000000000000000000000000000000000000000000000000000000000000000000000000000000000000008000000800000000000000000200000000000000000000000004000000000000000000000000800000000000000000000000000000000000000000000000000000000000000000000000000000000000000000000000000080000000000000400000000000000000000000000000000020000000000000000000000000000000000040000000000000000000000000000000000000000000000000000000000000000000000000000000000000000000010000000002000000000000000000000000000000000000000000000000000",
      "type": "0x2",
      "transactionHash": "0x9268ed4fbb91f26511988c403934a5cf08f4064a228b07e34a2eea207a4c02d6",
      "transactionIndex": "0x4",
      "blockHash": "0x04788067ac2af9769d4479381a79023085a69c2a9dc4c77e233fd2a40a3c3cbe",
      "blockNumber": "0x2cf5394",
      "gasUsed": "0x6875",
      "effectiveGasPrice": "0xee72c920",
      "blobGasUsed": "0x9c40",
      "from": "0x91d5e66951c47fbbfafe57c9ff42d45c46b6044c",
      "to": "0x80987c244388381cc1cafb0d5cc869cc8f4529f0",
      "contractAddress": null,
      "daFootprintGasScalar": "0x190",
      "l1BaseFeeScalar": "0x7d0",
      "l1BlobBaseFee": "0x1",
      "l1BlobBaseFeeScalar": "0xdbba0",
      "l1Fee": "0x80",
      "l1GasPrice": "0xc",
      "l1GasUsed": "0x640"
    },
    {
      "status": "0x1",
      "cumulativeGasUsed": "0x4bf95",
      "logs": [
        {
          "address": "0x000000000022d473030f116ddee9f6b43ac78ba3",
          "topics": [
            "0xda9fa7c1b00402c17d0161b249b1ab8bbec047c5a52207b9c112deffd817036b",
            "0x00000000000000000000000091d5e66951c47fbbfafe57c9ff42d45c46b6044c",
            "0x00000000000000000000000080987c244388381cc1cafb0d5cc869cc8f4529f0",
            "0x000000000000000000000000f969aee60879c54baaed9f3ed26147db216fd664"
          ],
          "data": "0x000000000000000000000000ffffffffffffffffffffffffffffffffffffffff0000000000000000000000000000000000000000000000000000ffffffffffff",
          "blockHash": "0x04788067ac2af9769d4479381a79023085a69c2a9dc4c77e233fd2a40a3c3cbe",
          "blockNumber": "0x2cf5394",
          "blockTimestamp": "0x69bd00e0",
          "transactionHash": "0x252ab0859bd1ab3290e341abc57127e9aecc6d3df0e6222996a845529cceaddf",
          "transactionIndex": "0x5",
          "logIndex": "0x3",
          "removed": false
        }
      ],
      "logsBloom": "0x00010000000000000000000000000000000000000000000000000000000000000000000000000000000000000000000008000000800000000000000000080000000000000000000000000000000000000000000000000000000000001001000000000000000000000000000000000000000000000040000000000000000000000020000000001000000000000000000400000000000000000000000000000000000000000000000000000000040000000000000000000000000000080000000000000000000000000000000000000000000000000000000040000000000000000000000000000000000000000000000000000000000000000000000000002400",
      "type": "0x2",
      "transactionHash": "0x252ab0859bd1ab3290e341abc57127e9aecc6d3df0e6222996a845529cceaddf",
      "transactionIndex": "0x5",
      "blockHash": "0x04788067ac2af9769d4479381a79023085a69c2a9dc4c77e233fd2a40a3c3cbe",
      "blockNumber": "0x2cf5394",
      "gasUsed": "0x6d0e",
      "effectiveGasPrice": "0xee72c920",
      "blobGasUsed": "0xb220",
      "from": "0x91d5e66951c47fbbfafe57c9ff42d45c46b6044c",
      "to": "0x000000000022d473030f116ddee9f6b43ac78ba3",
      "contractAddress": null,
      "daFootprintGasScalar": "0x190",
      "l1BaseFeeScalar": "0x7d0",
      "l1BlobBaseFee": "0x1",
      "l1BlobBaseFeeScalar": "0xdbba0",
      "l1Fee": "0x93",
      "l1GasPrice": "0xc",
      "l1GasUsed": "0x72a"
    },
    {
      "status": "0x1",
      "cumulativeGasUsed": "0x52c97",
      "logs": [
        {
          "address": "0x000000000022d473030f116ddee9f6b43ac78ba3",
          "topics": [
            "0xda9fa7c1b00402c17d0161b249b1ab8bbec047c5a52207b9c112deffd817036b",
            "0x00000000000000000000000091d5e66951c47fbbfafe57c9ff42d45c46b6044c",
            "0x00000000000000000000000080987c244388381cc1cafb0d5cc869cc8f4529f0",
            "0x00000000000000000000000000b036b58a818b1bc34d502d3fe730db729e62ac"
          ],
          "data": "0x000000000000000000000000ffffffffffffffffffffffffffffffffffffffff0000000000000000000000000000000000000000000000000000ffffffffffff",
          "blockHash": "0x04788067ac2af9769d4479381a79023085a69c2a9dc4c77e233fd2a40a3c3cbe",
          "blockNumber": "0x2cf5394",
          "blockTimestamp": "0x69bd00e0",
          "transactionHash": "0x28bddf8009e82b2d948fefc36d2873432f05ecc39a43827c7073972f924880b3",
          "transactionIndex": "0x6",
          "logIndex": "0x4",
          "removed": false
        }
      ],
      "logsBloom": "0x00010000000000000000000000000000000000000000000000000000000000000000000000000000000000000000000008000000801000000000000000080000000000000000000000000000000000000000000000000000000000000001000000000000000000000000000000004000000000000000000000000000000000000020000000001000000000000000000400000000000000000000000000000000000000000000000000000000040000000000000000000020000000080000000000000000000000000000000000000000000000000000000040000000000000000000000000000000000000000000000000000000000000000000000000000400",
      "type": "0x2",
      "transactionHash": "0x28bddf8009e82b2d948fefc36d2873432f05ecc39a43827c7073972f924880b3",
      "transactionIndex": "0x6",
      "blockHash": "0x04788067ac2af9769d4479381a79023085a69c2a9dc4c77e233fd2a40a3c3cbe",
      "blockNumber": "0x2cf5394",
      "gasUsed": "0x6d02",
      "effectiveGasPrice": "0xee72c920",
      "blobGasUsed": "0xb090",
      "from": "0x91d5e66951c47fbbfafe57c9ff42d45c46b6044c",
      "to": "0x000000000022d473030f116ddee9f6b43ac78ba3",
      "contractAddress": null,
      "daFootprintGasScalar": "0x190",
      "l1BaseFeeScalar": "0x7d0",
      "l1BlobBaseFee": "0x1",
      "l1BlobBaseFeeScalar": "0xdbba0",
      "l1Fee": "0x92",
      "l1GasPrice": "0xc",
      "l1GasUsed": "0x71d"
    },
    {
      "status": "0x1",
      "cumulativeGasUsed": "0x5950c",
      "logs": [
        {
          "address": "0x9fdef189c2a4f7469f7d70603f24c4bdf27ac65e",
          "topics": [
            "0x8c5be1e5ebec7d5bd14f71427d1e84f3dd0314c0f7b2291e5b200ac8c7c3b925",
            "0x00000000000000000000000091d5e66951c47fbbfafe57c9ff42d45c46b6044c",
            "0x000000000000000000000000000000000022d473030f116ddee9f6b43ac78ba3"
          ],
          "data": "0xffffffffffffffffffffffffffffffffffffffffffffffffffffffffffffffff",
          "blockHash": "0x04788067ac2af9769d4479381a79023085a69c2a9dc4c77e233fd2a40a3c3cbe",
          "blockNumber": "0x2cf5394",
          "blockTimestamp": "0x69bd00e0",
          "transactionHash": "0x15c2fc4f5f7c1d23a37589777228acc7c5f61a256bb7ea988fdf6ad7fa0bf675",
          "transactionIndex": "0x7",
          "logIndex": "0x5",
          "removed": false
        }
      ],
      "logsBloom": "0x00000000000000000000000000000000000000000000000000000000000000000000000000000000000000000000000008000000800000000000000000200000000000000000000000004000000000000000000000000800000000000000000000000000000000000000000000000000000000000000000000000000000000000000000000000000000000000000000400400000000000000000000000000000020010000000000000000000000000000000000000000000000000000000000000000000000000000000000000000000000000000000000000000000000000000010000000000000000000000000040000000000000000000000000000000000",
      "type": "0x2",
      "transactionHash": "0x15c2fc4f5f7c1d23a37589777228acc7c5f61a256bb7ea988fdf6ad7fa0bf675",
      "transactionIndex": "0x7",
      "blockHash": "0x04788067ac2af9769d4479381a79023085a69c2a9dc4c77e233fd2a40a3c3cbe",
      "blockNumber": "0x2cf5394",
      "gasUsed": "0x6875",
      "effectiveGasPrice": "0xee72c920",
      "blobGasUsed": "0x9c40",
      "from": "0x91d5e66951c47fbbfafe57c9ff42d45c46b6044c",
      "to": "0x9fdef189c2a4f7469f7d70603f24c4bdf27ac65e",
      "contractAddress": null,
      "daFootprintGasScalar": "0x190",
      "l1BaseFeeScalar": "0x7d0",
      "l1BlobBaseFee": "0x1",
      "l1BlobBaseFeeScalar": "0xdbba0",
      "l1Fee": "0x80",
      "l1GasPrice": "0xc",
      "l1GasUsed": "0x640"
    },
    {
      "status": "0x1",
      "cumulativeGasUsed": "0x6021a",
      "logs": [
        {
          "address": "0x000000000022d473030f116ddee9f6b43ac78ba3",
          "topics": [
            "0xda9fa7c1b00402c17d0161b249b1ab8bbec047c5a52207b9c112deffd817036b",
            "0x00000000000000000000000091d5e66951c47fbbfafe57c9ff42d45c46b6044c",
            "0x0000000000000000000000009fdef189c2a4f7469f7d70603f24c4bdf27ac65e",
            "0x000000000000000000000000f969aee60879c54baaed9f3ed26147db216fd664"
          ],
          "data": "0x000000000000000000000000ffffffffffffffffffffffffffffffffffffffff0000000000000000000000000000000000000000000000000000ffffffffffff",
          "blockHash": "0x04788067ac2af9769d4479381a79023085a69c2a9dc4c77e233fd2a40a3c3cbe",
          "blockNumber": "0x2cf5394",
          "blockTimestamp": "0x69bd00e0",
          "transactionHash": "0x0c897ad57ab9f6d925e525d2af6b8c6dca89920c5046398f4f258e36bdfe0cc1",
          "transactionIndex": "0x8",
          "logIndex": "0x6",
          "removed": false
        }
      ],
      "logsBloom": "0x00010000000000000000000000000000000000000000000000000000000000000000000000000000000000000000000008000000800000000000020000080000000000000000000000000000000000000000000000000000000000001000000000000000000000000000000000000000000000000040000000000000000000000020000000000000000000000000000400001000000000000000000000000000000000000000000000000000000000000000000000000000000000080000000000000000000200000000000000000000000000000000000040000000000000000000000000000000000000000000000000000000000000000000000000002400",
      "type": "0x2",
      "transactionHash": "0x0c897ad57ab9f6d925e525d2af6b8c6dca89920c5046398f4f258e36bdfe0cc1",
      "transactionIndex": "0x8",
      "blockHash": "0x04788067ac2af9769d4479381a79023085a69c2a9dc4c77e233fd2a40a3c3cbe",
      "blockNumber": "0x2cf5394",
      "gasUsed": "0x6d0e",
      "effectiveGasPrice": "0xee72c920",
      "blobGasUsed": "0xb220",
      "from": "0x91d5e66951c47fbbfafe57c9ff42d45c46b6044c",
      "to": "0x000000000022d473030f116ddee9f6b43ac78ba3",
      "contractAddress": null,
      "daFootprintGasScalar": "0x190",
      "l1BaseFeeScalar": "0x7d0",
      "l1BlobBaseFee": "0x1",
      "l1BlobBaseFeeScalar": "0xdbba0",
      "l1Fee": "0x93",
      "l1GasPrice": "0xc",
      "l1GasUsed": "0x72a"
    },
    {
      "status": "0x1",
      "cumulativeGasUsed": "0x66f1c",
      "logs": [
        {
          "address": "0x000000000022d473030f116ddee9f6b43ac78ba3",
          "topics": [
            "0xda9fa7c1b00402c17d0161b249b1ab8bbec047c5a52207b9c112deffd817036b",
            "0x00000000000000000000000091d5e66951c47fbbfafe57c9ff42d45c46b6044c",
            "0x0000000000000000000000009fdef189c2a4f7469f7d70603f24c4bdf27ac65e",
            "0x00000000000000000000000000b036b58a818b1bc34d502d3fe730db729e62ac"
          ],
          "data": "0x000000000000000000000000ffffffffffffffffffffffffffffffffffffffff0000000000000000000000000000000000000000000000000000ffffffffffff",
          "blockHash": "0x04788067ac2af9769d4479381a79023085a69c2a9dc4c77e233fd2a40a3c3cbe",
          "blockNumber": "0x2cf5394",
          "blockTimestamp": "0x69bd00e0",
          "transactionHash": "0xb74dafdaf7427c368d7638cf46f8d93d8f825e89d77fe151f434751096972ed2",
          "transactionIndex": "0x9",
          "logIndex": "0x7",
          "removed": false
        }
      ],
      "logsBloom": "0x00010000000000000000000000000000000000000000000000000000000000000000000000000000000000000000000008000000801000000000020000080000000000000000000000000000000000000000000000000000000000000000000000000000000000000000000000004000000000000000000000000000000000000020000000000000000000000000000400001000000000000000000000000000000000000000000000000000000000000000000000000020000000080000000000000000000200000000000000000000000000000000000040000000000000000000000000000000000000000000000000000000000000000000000000000400",
      "type": "0x2",
      "transactionHash": "0xb74dafdaf7427c368d7638cf46f8d93d8f825e89d77fe151f434751096972ed2",
      "transactionIndex": "0x9",
      "blockHash": "0x04788067ac2af9769d4479381a79023085a69c2a9dc4c77e233fd2a40a3c3cbe",
      "blockNumber": "0x2cf5394",
      "gasUsed": "0x6d02",
      "effectiveGasPrice": "0xee72c920",
      "blobGasUsed": "0xb090",
      "from": "0x91d5e66951c47fbbfafe57c9ff42d45c46b6044c",
      "to": "0x000000000022d473030f116ddee9f6b43ac78ba3",
      "contractAddress": null,
      "daFootprintGasScalar": "0x190",
      "l1BaseFeeScalar": "0x7d0",
      "l1BlobBaseFee": "0x1",
      "l1BlobBaseFeeScalar": "0xdbba0",
      "l1Fee": "0x92",
      "l1GasPrice": "0xc",
      "l1GasUsed": "0x71d"
    },
    {
      "status": "0x1",
      "cumulativeGasUsed": "0x705fd",
      "logs": [
        {
          "address": "0x31d0220469e10c4e71834a79b1f276d740d3768f",
          "topics": [
            "0x8c5be1e5ebec7d5bd14f71427d1e84f3dd0314c0f7b2291e5b200ac8c7c3b925",
            "0x00000000000000000000000091d5e66951c47fbbfafe57c9ff42d45c46b6044c",
            "0x000000000000000000000000000000000022d473030f116ddee9f6b43ac78ba3"
          ],
          "data": "0xffffffffffffffffffffffffffffffffffffffffffffffffffffffffffffffff",
          "blockHash": "0x04788067ac2af9769d4479381a79023085a69c2a9dc4c77e233fd2a40a3c3cbe",
          "blockNumber": "0x2cf5394",
          "blockTimestamp": "0x69bd00e0",
          "transactionHash": "0xa5c2c1f1435182d16dbf8137a3c86b5d45b353bbada3753c202f27fa3587a159",
          "transactionIndex": "0xa",
          "logIndex": "0x8",
          "removed": false
        }
      ],
      "logsBloom": "0x00000000000000000000000000000000000000000000000000000000000000000000000000000000000000000000000008000000800000000000000000200000000000000000000000004000000000000000000000001800000000000000000000000000000000000000000000000000000000000000000000000000000000000000000000000000000000000000000400000000000000000000000000000000020000000001000080000000000000000000000000000000000000000000000000000000000000000000000000000000000000000000000000000000000000000010000000000000000000000000000000000000000000000000000000000000",
      "type": "0x2",
      "transactionHash": "0xa5c2c1f1435182d16dbf8137a3c86b5d45b353bbada3753c202f27fa3587a159",
      "transactionIndex": "0xa",
      "blockHash": "0x04788067ac2af9769d4479381a79023085a69c2a9dc4c77e233fd2a40a3c3cbe",
      "blockNumber": "0x2cf5394",
      "gasUsed": "0x96e1",
      "effectiveGasPrice": "0xee72c920",
      "blobGasUsed": "0x9c40",
      "from": "0x91d5e66951c47fbbfafe57c9ff42d45c46b6044c",
      "to": "0x31d0220469e10c4e71834a79b1f276d740d3768f",
      "contractAddress": null,
      "daFootprintGasScalar": "0x190",
      "l1BaseFeeScalar": "0x7d0",
      "l1BlobBaseFee": "0x1",
      "l1BlobBaseFeeScalar": "0xdbba0",
      "l1Fee": "0x80",
      "l1GasPrice": "0xc",
      "l1GasUsed": "0x640"
    },
    {
      "status": "0x1",
      "cumulativeGasUsed": "0x7730b",
      "logs": [
        {
          "address": "0x000000000022d473030f116ddee9f6b43ac78ba3",
          "topics": [
            "0xda9fa7c1b00402c17d0161b249b1ab8bbec047c5a52207b9c112deffd817036b",
            "0x00000000000000000000000091d5e66951c47fbbfafe57c9ff42d45c46b6044c",
            "0x00000000000000000000000031d0220469e10c4e71834a79b1f276d740d3768f",
            "0x000000000000000000000000f969aee60879c54baaed9f3ed26147db216fd664"
          ],
          "data": "0x000000000000000000000000ffffffffffffffffffffffffffffffffffffffff0000000000000000000000000000000000000000000000000000ffffffffffff",
          "blockHash": "0x04788067ac2af9769d4479381a79023085a69c2a9dc4c77e233fd2a40a3c3cbe",
          "blockNumber": "0x2cf5394",
          "blockTimestamp": "0x69bd00e0",
          "transactionHash": "0x602fe78787bd2b50e294b63719b51195215b4d87b529673077a527011fa84e7d",
          "transactionIndex": "0xb",
          "logIndex": "0x9",
          "removed": false
        }
      ],
      "logsBloom": "0x00010000000000000000000000000000000000000000000000000000000000000000000000000080000000000000000008000000800000000000000000080000000000000000000000000000000000000000000000000000000000001000000000000000000000000000000000000000000000000040000000000000000000000020000000000000000000000000000400000000000000000000000000000000000000000000000000000000000000000000000000000000000000080000000000000000000000008000000000000000000000000000000040000000000000000000000000001000000000000000000000000000000000000000000000002400",
      "type": "0x2",
      "transactionHash": "0x602fe78787bd2b50e294b63719b51195215b4d87b529673077a527011fa84e7d",
      "transactionIndex": "0xb",
      "blockHash": "0x04788067ac2af9769d4479381a79023085a69c2a9dc4c77e233fd2a40a3c3cbe",
      "blockNumber": "0x2cf5394",
      "gasUsed": "0x6d0e",
      "effectiveGasPrice": "0xee72c920",
      "blobGasUsed": "0xb220",
      "from": "0x91d5e66951c47fbbfafe57c9ff42d45c46b6044c",
      "to": "0x000000000022d473030f116ddee9f6b43ac78ba3",
      "contractAddress": null,
      "daFootprintGasScalar": "0x190",
      "l1BaseFeeScalar": "0x7d0",
      "l1BlobBaseFee": "0x1",
      "l1BlobBaseFeeScalar": "0xdbba0",
      "l1Fee": "0x93",
      "l1GasPrice": "0xc",
      "l1GasUsed": "0x72a"
    },
    {
      "status": "0x1",
      "cumulativeGasUsed": "0x7e00d",
      "logs": [
        {
          "address": "0x000000000022d473030f116ddee9f6b43ac78ba3",
          "topics": [
            "0xda9fa7c1b00402c17d0161b249b1ab8bbec047c5a52207b9c112deffd817036b",
            "0x00000000000000000000000091d5e66951c47fbbfafe57c9ff42d45c46b6044c",
            "0x00000000000000000000000031d0220469e10c4e71834a79b1f276d740d3768f",
            "0x00000000000000000000000000b036b58a818b1bc34d502d3fe730db729e62ac"
          ],
          "data": "0x000000000000000000000000ffffffffffffffffffffffffffffffffffffffff0000000000000000000000000000000000000000000000000000ffffffffffff",
          "blockHash": "0x04788067ac2af9769d4479381a79023085a69c2a9dc4c77e233fd2a40a3c3cbe",
          "blockNumber": "0x2cf5394",
          "blockTimestamp": "0x69bd00e0",
          "transactionHash": "0xe14f83eab24427bb65bc5c794d5894a821a5e7019795a1c6369962880ae11598",
          "transactionIndex": "0xc",
          "logIndex": "0xa",
          "removed": false
        }
      ],
      "logsBloom": "0x00010000000000000000000000000000000000000000000000000000000000000000000000000080000000000000000008000000801000000000000000080000000000000000000000000000000000000000000000000000000000000000000000000000000000000000000000004000000000000000000000000000000000000020000000000000000000000000000400000000000000000000000000000000000000000000000000000000000000000000000000000020000000080000000000000000000000008000000000000000000000000000000040000000000000000000000000001000000000000000000000000000000000000000000000000400",
      "type": "0x2",
      "transactionHash": "0xe14f83eab24427bb65bc5c794d5894a821a5e7019795a1c6369962880ae11598",
      "transactionIndex": "0xc",
      "blockHash": "0x04788067ac2af9769d4479381a79023085a69c2a9dc4c77e233fd2a40a3c3cbe",
      "blockNumber": "0x2cf5394",
      "gasUsed": "0x6d02",
      "effectiveGasPrice": "0xee72c920",
      "blobGasUsed": "0xb090",
      "from": "0x91d5e66951c47fbbfafe57c9ff42d45c46b6044c",
      "to": "0x000000000022d473030f116ddee9f6b43ac78ba3",
      "contractAddress": null,
      "daFootprintGasScalar": "0x190",
      "l1BaseFeeScalar": "0x7d0",
      "l1BlobBaseFee": "0x1",
      "l1BlobBaseFeeScalar": "0xdbba0",
      "l1Fee": "0x92",
      "l1GasPrice": "0xc",
      "l1GasUsed": "0x71d"
    },
    {
      "status": "0x1",
      "cumulativeGasUsed": "0x8a7dc",
      "logs": [
        {
          "address": "0x00b036b58a818b1bc34d502d3fe730db729e62ac",
          "topics": [
            "0xdd466e674ea557f56295e2d0218a125ea4b4f0f6f3307b95f85e6110838d6438",
            "0xc8b18a4668e1ae31722158641d719e1fc0877defe5b334a472698a3a6b70089e",
            "0x00000000000000000000000080987c244388381cc1cafb0d5cc869cc8f4529f0",
            "0x0000000000000000000000009fdef189c2a4f7469f7d70603f24c4bdf27ac65e"
          ],
          "data": "0x0000000000000000000000000000000000000000000000000000000000800000000000000000000000000000000000000000000000000000000000000000003c0000000000000000000000000b4137b66ff5802a08bf238e6606e658c1ea8fc0000000000000000000000000000000000000002ff55425a98a3834790a7e92df0000000000000000000000000000000000000000000000000000000000012e62",
          "blockHash": "0x04788067ac2af9769d4479381a79023085a69c2a9dc4c77e233fd2a40a3c3cbe",
          "blockNumber": "0x2cf5394",
          "blockTimestamp": "0x69bd00e0",
          "transactionHash": "0x0f841c491b5fc461fb8fad94da24c43c4e70c084b7a7456f0a6d78e8251ac6ae",
          "transactionIndex": "0xd",
          "logIndex": "0xb",
          "removed": false
        }
      ],
      "logsBloom": "0x40000000000000000000000008000000000000000000000000000000000000000000000000000000000000000000000000000000000000000000020000000000000000000000000000000000000000000000000000000000000000000001000000000000000000000000000000000000000000000000000000000000000000000000000000001008000000000008000000001001000000400000000000200000000000000000000000000000040000000000000000000000000000000000000000000000000200000000000000000000000000000000000000000000000000000000000000000000000000000000000000000000000002000000000000000010",
      "type": "0x2",
      "transactionHash": "0x0f841c491b5fc461fb8fad94da24c43c4e70c084b7a7456f0a6d78e8251ac6ae",
      "transactionIndex": "0xd",
      "blockHash": "0x04788067ac2af9769d4479381a79023085a69c2a9dc4c77e233fd2a40a3c3cbe",
      "blockNumber": "0x2cf5394",
      "gasUsed": "0xc7cf",
      "effectiveGasPrice": "0xee72c920",
      "blobGasUsed": "0xed80",
      "from": "0x91d5e66951c47fbbfafe57c9ff42d45c46b6044c",
      "to": "0x00b036b58a818b1bc34d502d3fe730db729e62ac",
      "contractAddress": null,
      "daFootprintGasScalar": "0x190",
      "l1BaseFeeScalar": "0x7d0",
      "l1BlobBaseFee": "0x1",
      "l1BlobBaseFeeScalar": "0xdbba0",
      "l1Fee": "0xc3",
      "l1GasPrice": "0xc",
      "l1GasUsed": "0x985"
    },
    {
      "status": "0x1",
      "cumulativeGasUsed": "0x971af",
      "logs": [
        {
          "address": "0x00b036b58a818b1bc34d502d3fe730db729e62ac",
          "topics": [
            "0xdd466e674ea557f56295e2d0218a125ea4b4f0f6f3307b95f85e6110838d6438",
            "0x2df4ffcfaed70d6111bd0c058488f8af10e74951f11670634fc96ed60b798b95",
            "0x0000000000000000000000000000000000000000000000000000000000000000",
            "0x00000000000000000000000031d0220469e10c4e71834a79b1f276d740d3768f"
          ],
          "data": "0x0000000000000000000000000000000000000000000000000000000000800000000000000000000000000000000000000000000000000000000000000000003c0000000000000000000000000b4137b66ff5802a08bf238e6606e658c1ea8fc000000000000000000000000000000000000000000003249b653f53a79af97729fffffffffffffffffffffffffffffffffffffffffffffffffffffffffffcf6fe",
          "blockHash": "0x04788067ac2af9769d4479381a79023085a69c2a9dc4c77e233fd2a40a3c3cbe",
          "blockNumber": "0x2cf5394",
          "blockTimestamp": "0x69bd00e0",
          "transactionHash": "0xc8b9971456bd180b6dc94d3d2b82187d848c85fd6edc03bcf7425bb430223305",
          "transactionIndex": "0xe",
          "logIndex": "0xc",
          "removed": false
        }
      ],
      "logsBloom": "0x00000000000000000000000000000000000000000000000000000000000000000000000000000080000000000000000000000000000000000000000000000000000000000000000000000000000000000000010000000000000000000000000000000000020000000000000000000800000000000000000000000000000000000000000000000008000000040008000000000001000000000000000000200000000000000000000000000000000000000000000008000000000000000000000000000000000000008000000000000000000000000000000000000000000020000000000000001000000000000000000000000000000002000000000000000010",
      "type": "0x2",
      "transactionHash": "0xc8b9971456bd180b6dc94d3d2b82187d848c85fd6edc03bcf7425bb430223305",
      "transactionIndex": "0xe",
      "blockHash": "0x04788067ac2af9769d4479381a79023085a69c2a9dc4c77e233fd2a40a3c3cbe",
      "blockNumber": "0x2cf5394",
      "gasUsed": "0xc9d3",
      "effectiveGasPrice": "0xee72c920",
      "blobGasUsed": "0xc800",
      "from": "0x91d5e66951c47fbbfafe57c9ff42d45c46b6044c",
      "to": "0x00b036b58a818b1bc34d502d3fe730db729e62ac",
      "contractAddress": null,
      "daFootprintGasScalar": "0x190",
      "l1BaseFeeScalar": "0x7d0",
      "l1BlobBaseFee": "0x1",
      "l1BlobBaseFeeScalar": "0xdbba0",
      "l1Fee": "0xa4",
      "l1GasPrice": "0xc",
      "l1GasUsed": "0x800"
    },
    {
      "status": "0x1",
      "cumulativeGasUsed": "0x106ea3",
      "logs": [
        {
          "address": "0xf969aee60879c54baaed9f3ed26147db216fd664",
          "topics": [
            "0xddf252ad1be2c89b69c2b068fc378daa952ba7f163c4a11628f55a4df523b3ef",
            "0x0000000000000000000000000000000000000000000000000000000000000000",
            "0x00000000000000000000000091d5e66951c47fbbfafe57c9ff42d45c46b6044c",
            "0x0000000000000000000000000000000000000000000000000000000000001c72"
          ],
          "data": "0x",
          "blockHash": "0x04788067ac2af9769d4479381a79023085a69c2a9dc4c77e233fd2a40a3c3cbe",
          "blockNumber": "0x2cf5394",
          "blockTimestamp": "0x69bd00e0",
          "transactionHash": "0x08349b1168f337948e7e4aa8e23709207fac9669f8c9883f4b929a858668cab9",
          "transactionIndex": "0xf",
          "logIndex": "0xd",
          "removed": false
        },
        {
          "address": "0x00b036b58a818b1bc34d502d3fe730db729e62ac",
          "topics": [
            "0xf208f4912782fd25c7f114ca3723a2d5dd6f3bcc3ac8db5af63baa85f711d5ec",
            "0xc8b18a4668e1ae31722158641d719e1fc0877defe5b334a472698a3a6b70089e",
            "0x000000000000000000000000f969aee60879c54baaed9f3ed26147db216fd664"
          ],
          "data": "0xfffffffffffffffffffffffffffffffffffffffffffffffffffffffffff2764c00000000000000000000000000000000000000000000000000000000000d89b400000000000000000000000000000000000000000000003635c9adc5dea000000000000000000000000000000000000000000000000000000000000000001c72",
          "blockHash": "0x04788067ac2af9769d4479381a79023085a69c2a9dc4c77e233fd2a40a3c3cbe",
          "blockNumber": "0x2cf5394",
          "blockTimestamp": "0x69bd00e0",
          "transactionHash": "0x08349b1168f337948e7e4aa8e23709207fac9669f8c9883f4b929a858668cab9",
          "transactionIndex": "0xf",
          "logIndex": "0xe",
          "removed": false
        },
        {
          "address": "0x80987c244388381cc1cafb0d5cc869cc8f4529f0",
          "topics": [
            "0xddf252ad1be2c89b69c2b068fc378daa952ba7f163c4a11628f55a4df523b3ef",
            "0x00000000000000000000000091d5e66951c47fbbfafe57c9ff42d45c46b6044c",
            "0x00000000000000000000000000b036b58a818b1bc34d502d3fe730db729e62ac"
          ],
          "data": "0x000000000000000000000000000000000000000000000001215f337b9a10dcf6",
          "blockHash": "0x04788067ac2af9769d4479381a79023085a69c2a9dc4c77e233fd2a40a3c3cbe",
          "blockNumber": "0x2cf5394",
          "blockTimestamp": "0x69bd00e0",
          "transactionHash": "0x08349b1168f337948e7e4aa8e23709207fac9669f8c9883f4b929a858668cab9",
          "transactionIndex": "0xf",
          "logIndex": "0xf",
          "removed": false
        },
        {
          "address": "0x9fdef189c2a4f7469f7d70603f24c4bdf27ac65e",
          "topics": [
            "0xddf252ad1be2c89b69c2b068fc378daa952ba7f163c4a11628f55a4df523b3ef",
            "0x00000000000000000000000091d5e66951c47fbbfafe57c9ff42d45c46b6044c",
            "0x00000000000000000000000000b036b58a818b1bc34d502d3fe730db729e62ac"
          ],
          "data": "0x000000000000000000000000000000000000000000000a27d3528a7c2f831571",
          "blockHash": "0x04788067ac2af9769d4479381a79023085a69c2a9dc4c77e233fd2a40a3c3cbe",
          "blockNumber": "0x2cf5394",
          "blockTimestamp": "0x69bd00e0",
          "transactionHash": "0x08349b1168f337948e7e4aa8e23709207fac9669f8c9883f4b929a858668cab9",
          "transactionIndex": "0xf",
          "logIndex": "0x10",
          "removed": false
        }
      ],
      "logsBloom": "0x40000000000000000000000008000000000000000000000000000000000000000000000000000000004000000000000008000000801000000000000000000000000000000000000000000008000000000000000000000000000000001000000000000000020000000000000000004800000000000040000000000010000002000000000001000000080000000008000400400000000000400000000000000000000014000000000000000000000000000800040000000020000000000000000000000002080000000000000000000000000000000000000000200000000020004000000000002000000000000000040004000000000002000000000000002010",
      "type": "0x2",
      "transactionHash": "0x08349b1168f337948e7e4aa8e23709207fac9669f8c9883f4b929a858668cab9",
      "transactionIndex": "0xf",
      "blockHash": "0x04788067ac2af9769d4479381a79023085a69c2a9dc4c77e233fd2a40a3c3cbe",
      "blockNumber": "0x2cf5394",
      "gasUsed": "0x6fcf4",
      "effectiveGasPrice": "0xee72c920",
      "blobGasUsed": "0x1d7e0",
      "from": "0x91d5e66951c47fbbfafe57c9ff42d45c46b6044c",
      "to": "0xf969aee60879c54baaed9f3ed26147db216fd664",
      "contractAddress": null,
      "daFootprintGasScalar": "0x190",
      "l1BaseFeeScalar": "0x7d0",
      "l1BlobBaseFee": "0x1",
      "l1BlobBaseFeeScalar": "0xdbba0",
      "l1Fee": "0x183",
      "l1GasPrice": "0xc",
      "l1GasUsed": "0x12e0"
    },
    {
      "status": "0x1",
      "cumulativeGasUsed": "0x166854",
      "logs": [
        {
          "address": "0xf969aee60879c54baaed9f3ed26147db216fd664",
          "topics": [
            "0xddf252ad1be2c89b69c2b068fc378daa952ba7f163c4a11628f55a4df523b3ef",
            "0x0000000000000000000000000000000000000000000000000000000000000000",
            "0x00000000000000000000000091d5e66951c47fbbfafe57c9ff42d45c46b6044c",
            "0x0000000000000000000000000000000000000000000000000000000000001c73"
          ],
          "data": "0x",
          "blockHash": "0x04788067ac2af9769d4479381a79023085a69c2a9dc4c77e233fd2a40a3c3cbe",
          "blockNumber": "0x2cf5394",
          "blockTimestamp": "0x69bd00e0",
          "transactionHash": "0x130a88634a6a228e753d2977974de780b315efe5b2601a275950e895252a3629",
          "transactionIndex": "0x10",
          "logIndex": "0x11",
          "removed": false
        },
        {
          "address": "0x00b036b58a818b1bc34d502d3fe730db729e62ac",
          "topics": [
            "0xf208f4912782fd25c7f114ca3723a2d5dd6f3bcc3ac8db5af63baa85f711d5ec",
            "0x2df4ffcfaed70d6111bd0c058488f8af10e74951f11670634fc96ed60b798b95",
            "0x000000000000000000000000f969aee60879c54baaed9f3ed26147db216fd664"
          ],
          "data": "0xfffffffffffffffffffffffffffffffffffffffffffffffffffffffffff2764c00000000000000000000000000000000000000000000000000000000000d89b40000000000000000000000000000000000000000000000000000045c9dd597f00000000000000000000000000000000000000000000000000000000000001c73",
          "blockHash": "0x04788067ac2af9769d4479381a79023085a69c2a9dc4c77e233fd2a40a3c3cbe",
          "blockNumber": "0x2cf5394",
          "blockTimestamp": "0x69bd00e0",
          "transactionHash": "0x130a88634a6a228e753d2977974de780b315efe5b2601a275950e895252a3629",
          "transactionIndex": "0x10",
          "logIndex": "0x12",
          "removed": false
        },
        {
          "address": "0x0b4137b66ff5802a08bf238e6606e658c1ea8fc0",
          "topics": [
            "0xcbc8be1304ed809344446ba1aae2fbe4fece06bdfaff4a9e6ad5c19956f20dc5",
            "0x000000000000000000000000f969aee60879c54baaed9f3ed26147db216fd664"
          ],
          "data": "0x0000000000000000000000000000000000000000000000000000045c9dd597f0",
          "blockHash": "0x04788067ac2af9769d4479381a79023085a69c2a9dc4c77e233fd2a40a3c3cbe",
          "blockNumber": "0x2cf5394",
          "blockTimestamp": "0x69bd00e0",
          "transactionHash": "0x130a88634a6a228e753d2977974de780b315efe5b2601a275950e895252a3629",
          "transactionIndex": "0x10",
          "logIndex": "0x13",
          "removed": false
        },
        {
          "address": "0x31d0220469e10c4e71834a79b1f276d740d3768f",
          "topics": [
            "0xddf252ad1be2c89b69c2b068fc378daa952ba7f163c4a11628f55a4df523b3ef",
            "0x00000000000000000000000091d5e66951c47fbbfafe57c9ff42d45c46b6044c",
            "0x00000000000000000000000000b036b58a818b1bc34d502d3fe730db729e62ac"
          ],
          "data": "0x000000000000000000000000000000000000000000000000000000000db58580",
          "blockHash": "0x04788067ac2af9769d4479381a79023085a69c2a9dc4c77e233fd2a40a3c3cbe",
          "blockNumber": "0x2cf5394",
          "blockTimestamp": "0x69bd00e0",
          "transactionHash": "0x130a88634a6a228e753d2977974de780b315efe5b2601a275950e895252a3629",
          "transactionIndex": "0x10",
          "logIndex": "0x14",
          "removed": false
        }
      ],
      "logsBloom": "0x00000000000000010000000000000000000000000000000800000000000000000000000000000000000000000000000008000000801000000000000000000000100000000000020000000008000000000000010000001000000000001000000000000000020000000000000000004800000000000040000000080010000000000000000001000000000000048008000400000000000000000000000000000000000004000001000080000000000000000c00000008000020000000000000000000000002080000000000000000000000000000000000000000000080000020004000000000000000000000000080000004000000000002000000000000002010",
      "type": "0x2",
      "transactionHash": "0x130a88634a6a228e753d2977974de780b315efe5b2601a275950e895252a3629",
      "transactionIndex": "0x10",
      "blockHash": "0x04788067ac2af9769d4479381a79023085a69c2a9dc4c77e233fd2a40a3c3cbe",
      "blockNumber": "0x2cf5394",
      "gasUsed": "0x5f9b1",
      "effectiveGasPrice": "0xee72c920",
      "blobGasUsed": "0x1aa90",
      "from": "0x91d5e66951c47fbbfafe57c9ff42d45c46b6044c",
      "to": "0xf969aee60879c54baaed9f3ed26147db216fd664",
      "contractAddress": null,
      "daFootprintGasScalar": "0x190",
      "l1BaseFeeScalar": "0x7d0",
      "l1BlobBaseFee": "0x1",
      "l1BlobBaseFeeScalar": "0xdbba0",
      "l1Fee": "0x15f",
      "l1GasPrice": "0xc",
      "l1GasUsed": "0x1119"
    }
  ],
  "libraries": [],
  "pending": [],
  "returns": {},
  "timestamp": 1773994210124,
  "chain": 1301,
  "commit": "c4706da"
}