{
  "transactions": [
    {
      "hash": "0x221a7a46a44b9551c7d488015a0b5d0203f231d0dae6033d5aceeb673e943444",
      "transactionType": "CALL",
      "contractName": null,
      "contractAddress": "0xf969aee60879c54baaed9f3ed26147db216fd664",
      "function": "modifyLiquidities(bytes,uint256)",
      "arguments": [
        "0x000000000000000000000000000000000000000000000000000000000000004000000000000000000000000000000000000000000000000000000000000000800000000000000000000000000000000000000000000000000000000000000004020d14140000000000000000000000000000000000000000000000000000000000000000000000000000000000000000000000000000000000000000000000040000000000000000000000000000000000000000000000000000000000000080000000000000000000000000000000000000000000000000000000000000024000000000000000000000000000000000000000000000000000000000000002a0000000000000000000000000000000000000000000000000000000000000030000000000000000000000000000000000000000000000000000000000000001a0000000000000000000000000000000000000000000000000000000000000000000000000000000000000000031d0220469e10c4e71834a79b1f276d740d3768f0000000000000000000000000000000000000000000000000000000000800000000000000000000000000000000000000000000000000000000000000000003c000000000000000000000000ab680faff2fb5edd44e7df8b4a3d698ac6b70fc0fffffffffffffffffffffffffffffffffffffffffffffffffffffffffff2764c00000000000000000000000000000000000000000000000000000000000d89b40000000000000000000000000000000000000000000000000000045c9dd597f0000000000000000000000000000000000000000000000000016345785d89c565000000000000000000000000000000000000000000000000000000000db5858000000000000000000000000091d5e66951c47fbbfafe57c9ff42d45c46b6044c000000000000000000000000000000000000000000000000000000000000018000000000000000000000000000000000000000000000000000000000000000000000000000000000000000000000000000000000000000000000000000000040000000000000000000000000000000000000000000000000000000000000000000000000000000000000000031d0220469e10c4e71834a79b1f276d740d3768f0000000000000000000000000000000000000000000000000000000000000040000000000000000000000000000000000000000000000000000000000000000000000000000000000000000091d5e66951c47fbbfafe57c9ff42d45c46b6044c000000000000000000000000000000000000000000000000000000000000004000000000000000000000000031d0220469e10c4e71834a79b1f276d740d3768f00000000000000000000000091d5e66951c47fbbfafe57c9ff42d45c46b6044c",
        "1773940513"
      ],
      "transaction": {
        "from": "0x91d5e66951c47fbbfafe57c9ff42d45c46b6044c",
        "to": "0xf969aee60879c54baaed9f3ed26147db216fd664",
        "gas": "0x8bc71",
        "value": "0x16345785d89c565",
        "input": "0xdd46508f00000000000000000000000000000000000000000000000000000000000000400000000000000000000000000000000000000000000000000000000069bc2f210000000000000000000000000000000000000000000000000000000000000400000000000000000000000000000000000000000000000000000000000000004000000000000000000000000000000000000000000000000000000000000000800000000000000000000000000000000000000000000000000000000000000004020d14140000000000000000000000000000000000000000000000000000000000000000000000000000000000000000000000000000000000000000000000040000000000000000000000000000000000000000000000000000000000000080000000000000000000000000000000000000000000000000000000000000024000000000000000000000000000000000000000000000000000000000000002a0000000000000000000000000000000000000000000000000000000000000030000000000000000000000000000000000000000000000000000000000000001a0000000000000000000000000000000000000000000000000000000000000000000000000000000000000000031d0220469e10c4e71834a79b1f276d740d3768f0000000000000000000000000000000000000000000000000000000000800000000000000000000000000000000000000000000000000000000000000000003c000000000000000000000000ab680faff2fb5edd44e7df8b4a3d698ac6b70fc0fffffffffffffffffffffffffffffffffffffffffffffffffffffffffff2764c00000000000000000000000000000000000000000000000000000000000d89b40000000000000000000000000000000000000000000000000000045c9dd597f0000000000000000000000000000000000000000000000000016345785d89c565000000000000000000000000000000000000000000000000000000000db5858000000000000000000000000091d5e66951c47fbbfafe57c9ff42d45c46b6044c000000000000000000000000000000000000000000000000000000000000018000000000000000000000000000000000000000000000000000000000000000000000000000000000000000000000000000000000000000000000000000000040000000000000000000000000000000000000000000000000000000000000000000000000000000000000000031d0220469e10c4e71834a79b1f276d740d3768f0000000000000000000000000000000000000000000000000000000000000040000000000000000000000000000000000000000000000000000000000000000000000000000000000000000091d5e66951c47fbbfafe57c9ff42d45c46b6044c000000000000000000000000000000000000000000000000000000000000004000000000000000000000000031d0220469e10c4e71834a79b1f276d740d3768f00000000000000000000000091d5e66951c47fbbfafe57c9ff42d45c46b6044c",
        "nonce": "0x1d5",
        "chainId": "0x515"
      },
      "additionalContracts": [],
      "isFixedGasLimit": false
    }
  ],
  "receipts": [
    {
      "status": "0x1",
      "cumulativeGasUsed": "0xe33f1",
      "logs": [
        {
          "address": "0xf969aee60879c54baaed9f3ed26147db216fd664",
          "topics": [
            "0xddf252ad1be2c89b69c2b068fc378daa952ba7f163c4a11628f55a4df523b3ef",
            "0x0000000000000000000000000000000000000000000000000000000000000000",
            "0x00000000000000000000000091d5e66951c47fbbfafe57c9ff42d45c46b6044c",
            "0x0000000000000000000000000000000000000000000000000000000000001c63"
          ],
          "data": "0x",
          "blockHash": "0x2d5dfdb0c46ca2aa6a3a44ba1bd0cff98a351c091284c30f295ce74c5e18494e",
          "blockNumber": "0x2ce73dc",
          "blockTimestamp": "0x69bc2128",
          "transactionHash": "0x221a7a46a44b9551c7d488015a0b5d0203f231d0dae6033d5aceeb673e943444",
          "transactionIndex": "0x7",
          "logIndex": "0x5",
          "removed": false
        },
        {
          "address": "0x00b036b58a818b1bc34d502d3fe730db729e62ac",
          "topics": [
            "0xf208f4912782fd25c7f114ca3723a2d5dd6f3bcc3ac8db5af63baa85f711d5ec",
            "0x1aefda54e15367b439f336ac47152ea8011b876017c4d193811258c72ce36615",
            "0x000000000000000000000000f969aee60879c54baaed9f3ed26147db216fd664"
          ],
          "data": "0xfffffffffffffffffffffffffffffffffffffffffffffffffffffffffff2764c00000000000000000000000000000000000000000000000000000000000d89b40000000000000000000000000000000000000000000000000000045c9dd597f00000000000000000000000000000000000000000000000000000000000001c63",
          "blockHash": "0x2d5dfdb0c46ca2aa6a3a44ba1bd0cff98a351c091284c30f295ce74c5e18494e",
          "blockNumber": "0x2ce73dc",
          "blockTimestamp": "0x69bc2128",
          "transactionHash": "0x221a7a46a44b9551c7d488015a0b5d0203f231d0dae6033d5aceeb673e943444",
          "transactionIndex": "0x7",
          "logIndex": "0x6",
          "removed": false
        },
        {
          "address": "0xab680faff2fb5edd44e7df8b4a3d698ac6b70fc0",
          "topics": [
            "0xcbc8be1304ed809344446ba1aae2fbe4fece06bdfaff4a9e6ad5c19956f20dc5",
            "0x000000000000000000000000f969aee60879c54baaed9f3ed26147db216fd664"
          ],
          "data": "0x0000000000000000000000000000000000000000000000000000045c9dd597f0",
          "blockHash": "0x2d5dfdb0c46ca2aa6a3a44ba1bd0cff98a351c091284c30f295ce74c5e18494e",
          "blockNumber": "0x2ce73dc",
          "blockTimestamp": "0x69bc2128",
          "transactionHash": "0x221a7a46a44b9551c7d488015a0b5d0203f231d0dae6033d5aceeb673e943444",
          "transactionIndex": "0x7",
          "logIndex": "0x7",
          "removed": false
        },
        {
          "address": "0x31d0220469e10c4e71834a79b1f276d740d3768f",
          "topics": [
            "0xddf252ad1be2c89b69c2b068fc378daa952ba7f163c4a11628f55a4df523b3ef",
            "0x00000000000000000000000091d5e66951c47fbbfafe57c9ff42d45c46b6044c",
            "0x00000000000000000000000000b036b58a818b1bc34d502d3fe730db729e62ac"
          ],
          "data": "0x000000000000000000000000000000000000000000000000000000000db58580",
          "blockHash": "0x2d5dfdb0c46ca2aa6a3a44ba1bd0cff98a351c091284c30f295ce74c5e18494e",
          "blockNumber": "0x2ce73dc",
          "blockTimestamp": "0x69bc2128",
          "transactionHash": "0x221a7a46a44b9551c7d488015a0b5d0203f231d0dae6033d5aceeb673e943444",
          "transactionIndex": "0x7",
          "logIndex": "0x8",
          "removed": false
        }
      ],
      "logsBloom": "0x00000000020000000000000000000000000000000000000000000000000000000000000000000080000008000000000008000000801000000000000000000000100000000040000000000008000000002000200000001000000000001000000000000000020000000000000000004800000800001040000000000010000000000010000001000000000000008008000400000000000000000000000000000000000004000001000080000000000000000800000000000020000000000000000000000002080000000000000000000000000000000000000000000080000020004000000000000000000000000000000004000000000002000000000000002010",
      "type": "0x2",
      "transactionHash": "0x221a7a46a44b9551c7d488015a0b5d0203f231d0dae6033d5aceeb673e943444",
      "transactionIndex": "0x7",
      "blockHash": "0x2d5dfdb0c46ca2aa6a3a44ba1bd0cff98a351c091284c30f295ce74c5e18494e",
      "blockNumber": "0x2ce73dc",
      "gasUsed": "0x5f931",
      "effectiveGasPrice": "0xee72c920",
      "blobGasUsed": "0x1aa90",
      "from": "0x91d5e66951c47fbbfafe57c9ff42d45c46b6044c",
      "to": "0xf969aee60879c54baaed9f3ed26147db216fd664",
      "contractAddress": null,
      "daFootprintGasScalar": "0x190",
      "l1BaseFeeScalar": "0x7d0",
      "l1BlobBaseFee": "0x2",
      "l1BlobBaseFeeScalar": "0xdbba0",
      "l1Fee": "0x23b",
      "l1GasPrice": "0x9",
      "l1GasUsed": "0x1119"
    }
  ],
  "libraries": [],
  "pending": [],
  "returns": {},
  "timestamp": 1773936936483,
  "chain": 1301,
  "commit": "29b3163"
}