{
  "transactions": [
    {
      "hash": "0xcd7115fc5aff5656165770857e0487a7012edc878d43762efc3e3664abe0c83d",
      "transactionType": "CALL",
      "contractName": null,
      "contractAddress": "0xf969aee60879c54baaed9f3ed26147db216fd664",
      "function": "modifyLiquidities(bytes,uint256)",
      "arguments": [
        "0x000000000000000000000000000000000000000000000000000000000000004000000000000000000000000000000000000000000000000000000000000000800000000000000000000000000000000000000000000000000000000000000004020d14140000000000000000000000000000000000000000000000000000000000000000000000000000000000000000000000000000000000000000000000040000000000000000000000000000000000000000000000000000000000000080000000000000000000000000000000000000000000000000000000000000024000000000000000000000000000000000000000000000000000000000000002a0000000000000000000000000000000000000000000000000000000000000030000000000000000000000000000000000000000000000000000000000000001a0000000000000000000000000000000000000000000000000000000000000000000000000000000000000000031d0220469e10c4e71834a79b1f276d740d3768f0000000000000000000000000000000000000000000000000000000000800000000000000000000000000000000000000000000000000000000000000000003c000000000000000000000000244042445e2f0687b18c8f35566c87e08492cfc0fffffffffffffffffffffffffffffffffffffffffffffffffffffffffff2764c00000000000000000000000000000000000000000000000000000000000d89b40000000000000000000000000000000000000000000000000000045c9dd597f0000000000000000000000000000000000000000000000000016345785d89c565000000000000000000000000000000000000000000000000000000000db5858000000000000000000000000091d5e66951c47fbbfafe57c9ff42d45c46b6044c000000000000000000000000000000000000000000000000000000000000018000000000000000000000000000000000000000000000000000000000000000000000000000000000000000000000000000000000000000000000000000000040000000000000000000000000000000000000000000000000000000000000000000000000000000000000000031d0220469e10c4e71834a79b1f276d740d3768f0000000000000000000000000000000000000000000000000000000000000040000000000000000000000000000000000000000000000000000000000000000000000000000000000000000091d5e66951c47fbbfafe57c9ff42d45c46b6044c000000000000000000000000000000000000000000000000000000000000004000000000000000000000000031d0220469e10c4e71834a79b1f276d740d3768f00000000000000000000000091d5e66951c47fbbfafe57c9ff42d45c46b6044c",
        "1773921050"
      ],
      "transaction": {
        "from": "0x91d5e66951c47fbbfafe57c9ff42d45c46b6044c",
        "to": "0xf969aee60879c54baaed9f3ed26147db216fd664",
        "gas": "0x8bc71",
        "value": "0x16345785d89c565",
        "input": "0xdd46508f00000000000000000000000000000000000000000000000000000000000000400000000000000000000000000000000000000000000000000000000069bbe31a0000000000000000000000000000000000000000000000000000000000000400000000000000000000000000000000000000000000000000000000000000004000000000000000000000000000000000000000000000000000000000000000800000000000000000000000000000000000000000000000000000000000000004020d14140000000000000000000000000000000000000000000000000000000000000000000000000000000000000000000000000000000000000000000000040000000000000000000000000000000000000000000000000000000000000080000000000000000000000000000000000000000000000000000000000000024000000000000000000000000000000000000000000000000000000000000002a0000000000000000000000000000000000000000000000000000000000000030000000000000000000000000000000000000000000000000000000000000001a0000000000000000000000000000000000000000000000000000000000000000000000000000000000000000031d0220469e10c4e71834a79b1f276d740d3768f0000000000000000000000000000000000000000000000000000000000800000000000000000000000000000000000000000000000000000000000000000003c000000000000000000000000244042445e2f0687b18c8f35566c87e08492cfc0fffffffffffffffffffffffffffffffffffffffffffffffffffffffffff2764c00000000000000000000000000000000000000000000000000000000000d89b40000000000000000000000000000000000000000000000000000045c9dd597f0000000000000000000000000000000000000000000000000016345785d89c565000000000000000000000000000000000000000000000000000000000db5858000000000000000000000000091d5e66951c47fbbfafe57c9ff42d45c46b6044c000000000000000000000000000000000000000000000000000000000000018000000000000000000000000000000000000000000000000000000000000000000000000000000000000000000000000000000000000000000000000000000040000000000000000000000000000000000000000000000000000000000000000000000000000000000000000031d0220469e10c4e71834a79b1f276d740d3768f0000000000000000000000000000000000000000000000000000000000000040000000000000000000000000000000000000000000000000000000000000000000000000000000000000000091d5e66951c47fbbfafe57c9ff42d45c46b6044c000000000000000000000000000000000000000000000000000000000000004000000000000000000000000031d0220469e10c4e71834a79b1f276d740d3768f00000000000000000000000091d5e66951c47fbbfafe57c9ff42d45c46b6044c",
        "nonce": "0x189",
        "chainId": "0x515"
      },
      "additionalContracts": [],
      "isFixedGasLimit": false
    }
  ],
  "receipts": [
    {
      "status": "0x1",
      "cumulativeGasUsed": "0xcc3b3",
      "logs": [
        {
          "address": "0xf969aee60879c54baaed9f3ed26147db216fd664",
          "topics": [
            "0xddf252ad1be2c89b69c2b068fc378daa952ba7f163c4a11628f55a4df523b3ef",
            "0x0000000000000000000000000000000000000000000000000000000000000000",
            "0x00000000000000000000000091d5e66951c47fbbfafe57c9ff42d45c46b6044c",
            "0x0000000000000000000000000000000000000000000000000000000000001c53"
          ],
          "data": "0x",
          "blockHash": "0x565cf4f38b184e058da239c33f87a22057d9d0bfca83c295c8f126ec56bd5130",
          "blockNumber": "0x2ce27d3",
          "blockTimestamp": "0x69bbd51f",
          "transactionHash": "0xcd7115fc5aff5656165770857e0487a7012edc878d43762efc3e3664abe0c83d",
          "transactionIndex": "0x6",
          "logIndex": "0x4",
          "removed": false
        },
        {
          "address": "0x00b036b58a818b1bc34d502d3fe730db729e62ac",
          "topics": [
            "0xf208f4912782fd25c7f114ca3723a2d5dd6f3bcc3ac8db5af63baa85f711d5ec",
            "0x77274777d9ccf2991da906b9a448b742a0772c7a5ee28be546a9cf11a0e8cb09",
            "0x000000000000000000000000f969aee60879c54baaed9f3ed26147db216fd664"
          ],
          "data": "0xfffffffffffffffffffffffffffffffffffffffffffffffffffffffffff2764c00000000000000000000000000000000000000000000000000000000000d89b40000000000000000000000000000000000000000000000000000045c9dd597f00000000000000000000000000000000000000000000000000000000000001c53",
          "blockHash": "0x565cf4f38b184e058da239c33f87a22057d9d0bfca83c295c8f126ec56bd5130",
          "blockNumber": "0x2ce27d3",
          "blockTimestamp": "0x69bbd51f",
          "transactionHash": "0xcd7115fc5aff5656165770857e0487a7012edc878d43762efc3e3664abe0c83d",
          "transactionIndex": "0x6",
          "logIndex": "0x5",
          "removed": false
        },
        {
          "address": "0x244042445e2f0687b18c8f35566c87e08492cfc0",
          "topics": [
            "0xcbc8be1304ed809344446ba1aae2fbe4fece06bdfaff4a9e6ad5c19956f20dc5",
            "0x000000000000000000000000f969aee60879c54baaed9f3ed26147db216fd664"
          ],
          "data": "0x0000000000000000000000000000000000000000000000000000045c9dd597f0",
          "blockHash": "0x565cf4f38b184e058da239c33f87a22057d9d0bfca83c295c8f126ec56bd5130",
          "blockNumber": "0x2ce27d3",
          "blockTimestamp": "0x69bbd51f",
          "transactionHash": "0xcd7115fc5aff5656165770857e0487a7012edc878d43762efc3e3664abe0c83d",
          "transactionIndex": "0x6",
          "logIndex": "0x6",
          "removed": false
        },
        {
          "address": "0x31d0220469e10c4e71834a79b1f276d740d3768f",
          "topics": [
            "0xddf252ad1be2c89b69c2b068fc378daa952ba7f163c4a11628f55a4df523b3ef",
            "0x00000000000000000000000091d5e66951c47fbbfafe57c9ff42d45c46b6044c",
            "0x00000000000000000000000000b036b58a818b1bc34d502d3fe730db729e62ac"
          ],
          "data": "0x000000000000000000000000000000000000000000000000000000000db58580",
          "blockHash": "0x565cf4f38b184e058da239c33f87a22057d9d0bfca83c295c8f126ec56bd5130",
          "blockNumber": "0x2ce27d3",
          "blockTimestamp": "0x69bbd51f",
          "transactionHash": "0xcd7115fc5aff5656165770857e0487a7012edc878d43762efc3e3664abe0c83d",
          "transactionIndex": "0x6",
          "logIndex": "0x7",
          "removed": false
        }
      ],
      "logsBloom": "0x00000000000000000000000000000000000000000000000000000000000000000000000000000000000000000000000008000000801000000000001000000000100000000000000000000008000000040000000000001000000000001000000000000000020000000000000000004800000000000040000000000010000040000000000001000000000000008008000400000000000000000001000000000000000804000801000080000000000000000800000000000020000000000000000000010002080000000000000000000000000000000000000000000080000020004000000000000000000000000000000004000200000002000000000000002010",
      "type": "0x2",
      "transactionHash": "0xcd7115fc5aff5656165770857e0487a7012edc878d43762efc3e3664abe0c83d",
      "transactionIndex": "0x6",
      "blockHash": "0x565cf4f38b184e058da239c33f87a22057d9d0bfca83c295c8f126ec56bd5130",
      "blockNumber": "0x2ce27d3",
      "gasUsed": "0x5f931",
      "effectiveGasPrice": "0xee72c920",
      "blobGasUsed": "0x1aa90",
      "from": "0x91d5e66951c47fbbfafe57c9ff42d45c46b6044c",
      "to": "0xf969aee60879c54baaed9f3ed26147db216fd664",
      "contractAddress": null,
      "daFootprintGasScalar": "0x190",
      "l1BaseFeeScalar": "0x7d0",
      "l1BlobBaseFee": "0x1",
      "l1BlobBaseFeeScalar": "0xdbba0",
      "l1Fee": "0x156",
      "l1GasPrice": "0xb",
      "l1GasUsed": "0x1119"
    }
  ],
  "libraries": [],
  "pending": [],
  "returns": {},
  "timestamp": 1773917471420,
  "chain": 1301,
  "commit": "29b3163"
}