{
  "transactions": [
    {
      "hash": "0xb8fd921a48ede83cb46f09c673726c20fd15c589f4d35b848741f5c2e1cfa46d",
      "transactionType": "CALL",
      "contractName": null,
      "contractAddress": "0x0397eea5b5ed85290a94f6470213295077ed1dbb",
      "function": "openPosition((bool,uint256,uint160,bytes))",
      "arguments": [
        "(false, 500000000000000000, 0, 0x)"
      ],
      "transaction": {
        "from": "0x91d5e66951c47fbbfafe57c9ff42d45c46b6044c",
        "to": "0x0397eea5b5ed85290a94f6470213295077ed1dbb",
        "gas": "0x96d98",
        "value": "0x0",
        "input": "0x5b8995e90000000000000000000000000000000000000000000000000000000000000020000000000000000000000000000000000000000000000000000000000000000000000000000000000000000000000000000000000000000006f05b59d3b20000000000000000000000000000000000000000000000000000000000000000000000000000000000000000000000000000000000000000000000000000000000800000000000000000000000000000000000000000000000000000000000000000",
        "nonce": "0x2cd",
        "chainId": "0x515"
      },
      "additionalContracts": [],
      "isFixedGasLimit": false
    }
  ],
  "receipts": [
    {
      "status": "0x1",
      "cumulativeGasUsed": "0xbccaf",
      "logs": [
        {
          "address": "0x0b4137b66ff5802a08bf238e6606e658c1ea8fc0",
          "topics": [
            "0xdcbb932f66b03cd31756bb3437ee3f50a8f3c6d11336236c36c3b752c2533c68",
            "0x0000000000000000000000000397eea5b5ed85290a94f6470213295077ed1dbb"
          ],
          "data": "0x",
          "blockHash": "0x77838961cb9464576f8f277f392c9bc35a9f29c2831e1fb9b383fa5392a51f0f",
          "blockNumber": "0x2cf554f",
          "blockTimestamp": "0x69bd029b",
          "transactionHash": "0xb8fd921a48ede83cb46f09c673726c20fd15c589f4d35b848741f5c2e1cfa46d",
          "transactionIndex": "0x5",
          "logIndex": "0x3",
          "removed": false
        },
        {
          "address": "0x00b036b58a818b1bc34d502d3fe730db729e62ac",
          "topics": [
            "0x40e9cecb9f5f1f1c5b9c97dec2917b7ee92e57ba5563708daca94dd84ad7112f",
            "0xc8b18a4668e1ae31722158641d719e1fc0877defe5b334a472698a3a6b70089e",
            "0x0000000000000000000000000397eea5b5ed85290a94f6470213295077ed1dbb"
          ],
          "data": "0x00000000000000000000000000000000000000000000000006f05b59d3b20000ffffffffffffffffffffffffffffffffffffffffffffffbfc94c7c45f1144531000000000000000000000000000000000000003144d86c45ed8ea56d83a5d42f00000000000000000000000000000000000000000000003635c9adc5dea00000000000000000000000000000000000000000000000000000000000000001307d0000000000000000000000000000000000000000000000000000000000000000",
          "blockHash": "0x77838961cb9464576f8f277f392c9bc35a9f29c2831e1fb9b383fa5392a51f0f",
          "blockNumber": "0x2cf554f",
          "blockTimestamp": "0x69bd029b",
          "transactionHash": "0xb8fd921a48ede83cb46f09c673726c20fd15c589f4d35b848741f5c2e1cfa46d",
          "transactionIndex": "0x5",
          "logIndex": "0x4",
          "removed": false
        },
        {
          "address": "0x0b4137b66ff5802a08bf238e6606e658c1ea8fc0",
          "topics": [
            "0x6e01e1363ad628285db6555186dcc5d5b7fc89ee1efe90ab7e31a0ef0c706c4b",
            "0x0000000000000000000000000397eea5b5ed85290a94f6470213295077ed1dbb"
          ],
          "data": "0x000000000000000006f05b59d3b20000ffffffffffffffbfc94c7c45f1144531",
          "blockHash": "0x77838961cb9464576f8f277f392c9bc35a9f29c2831e1fb9b383fa5392a51f0f",
          "blockNumber": "0x2cf554f",
          "blockTimestamp": "0x69bd029b",
          "transactionHash": "0xb8fd921a48ede83cb46f09c673726c20fd15c589f4d35b848741f5c2e1cfa46d",
          "transactionIndex": "0x5",
          "logIndex": "0x5",
          "removed": false
        },
        {
          "address": "0x80987c244388381cc1cafb0d5cc869cc8f4529f0",
          "topics": [
            "0xddf252ad1be2c89b69c2b068fc378daa952ba7f163c4a11628f55a4df523b3ef",
            "0x00000000000000000000000000b036b58a818b1bc34d502d3fe730db729e62ac",
            "0x0000000000000000000000000397eea5b5ed85290a94f6470213295077ed1dbb"
          ],
          "data": "0x00000000000000000000000000000000000000000000000006f05b59d3b20000",
          "blockHash": "0x77838961cb9464576f8f277f392c9bc35a9f29c2831e1fb9b383fa5392a51f0f",
          "blockNumber": "0x2cf554f",
          "blockTimestamp": "0x69bd029b",
          "transactionHash": "0xb8fd921a48ede83cb46f09c673726c20fd15c589f4d35b848741f5c2e1cfa46d",
          "transactionIndex": "0x5",
          "logIndex": "0x6",
          "removed": false
        },
        {
          "address": "0x9fdef189c2a4f7469f7d70603f24c4bdf27ac65e",
          "topics": [
            "0xddf252ad1be2c89b69c2b068fc378daa952ba7f163c4a11628f55a4df523b3ef",
            "0x0000000000000000000000000397eea5b5ed85290a94f6470213295077ed1dbb",
            "0x00000000000000000000000000b036b58a818b1bc34d502d3fe730db729e62ac"
          ],
          "data": "0x00000000000000000000000000000000000000000000004036b383ba0eebbacf",
          "blockHash": "0x77838961cb9464576f8f277f392c9bc35a9f29c2831e1fb9b383fa5392a51f0f",
          "blockNumber": "0x2cf554f",
          "blockTimestamp": "0x69bd029b",
          "transactionHash": "0xb8fd921a48ede83cb46f09c673726c20fd15c589f4d35b848741f5c2e1cfa46d",
          "transactionIndex": "0x5",
          "logIndex": "0x7",
          "removed": false
        },
        {
          "address": "0x153d1e965a5f58cefa5c27650eb1d411c51146d0",
          "topics": [
            "0xe004e1007b4aba41a2a9fb673c2e9acbadc4eca1ef6f9f2a81c3d90d8622d47f",
            "0x00000000000000000000000091d5e66951c47fbbfafe57c9ff42d45c46b6044c"
          ],
          "data": "0x00000000000000000000000000000000000000000000005afb1836e845aa98db0000000000000000000000000000000000000000000000000000000000000000",
          "blockHash": "0x77838961cb9464576f8f277f392c9bc35a9f29c2831e1fb9b383fa5392a51f0f",
          "blockNumber": "0x2cf554f",
          "blockTimestamp": "0x69bd029b",
          "transactionHash": "0xb8fd921a48ede83cb46f09c673726c20fd15c589f4d35b848741f5c2e1cfa46d",
          "transactionIndex": "0x5",
          "logIndex": "0x8",
          "removed": false
        },
        {
          "address": "0x0397eea5b5ed85290a94f6470213295077ed1dbb",
          "topics": [
            "0x1168e77709af53712745df7ded9da223778667bd203fdddff1fc54b06be90f80",
            "0x00000000000000000000000091d5e66951c47fbbfafe57c9ff42d45c46b6044c"
          ],
          "data": "0x00000000000000000000000000000000000000000000000006f05b59d3b20000ffffffffffffffffffffffffffffffffffffffffffffffbfc94c7c45f1144531",
          "blockHash": "0x77838961cb9464576f8f277f392c9bc35a9f29c2831e1fb9b383fa5392a51f0f",
          "blockNumber": "0x2cf554f",
          "blockTimestamp": "0x69bd029b",
          "transactionHash": "0xb8fd921a48ede83cb46f09c673726c20fd15c589f4d35b848741f5c2e1cfa46d",
          "transactionIndex": "0x5",
          "logIndex": "0x9",
          "removed": false
        }
      ],
      "logsBloom": "0x4000000000000001000000000800000000000000000000000000004a0000020000000000000000000000000000400000080080008410080000000000800000000000000000800a0000000008000000001000000000000020000000000000000000000000000000000000000000004080000000000000000000000010000000020000000002000080080000000008000400400000000000400000000000000000000010000000000000000000000000000000040000000020000000000000000000000002000000000001000000000020000000000000000000000000000000000000000000002000004000004280048000000000000002000040000000000010",
      "type": "0x2",
      "transactionHash": "0xb8fd921a48ede83cb46f09c673726c20fd15c589f4d35b848741f5c2e1cfa46d",
      "transactionIndex": "0x5",
      "blockHash": "0x77838961cb9464576f8f277f392c9bc35a9f29c2831e1fb9b383fa5392a51f0f",
      "blockNumber": "0x2cf554f",
      "gasUsed": "0x67253",
      "effectiveGasPrice": "0xee72c920",
      "blobGasUsed": "0x9c40",
      "from": "0x91d5e66951c47fbbfafe57c9ff42d45c46b6044c",
      "to": "0x0397eea5b5ed85290a94f6470213295077ed1dbb",
      "contractAddress": null,
      "daFootprintGasScalar": "0x190",
      "l1BaseFeeScalar": "0x7d0",
      "l1BlobBaseFee": "0x1",
      "l1BlobBaseFeeScalar": "0xdbba0",
      "l1Fee": "0x7d",
      "l1GasPrice": "0xb",
      "l1GasUsed": "0x640"
    }
  ],
  "libraries": [],
  "pending": [],
  "returns": {},
  "timestamp": 1773994651468,
  "chain": 1301,
  "commit": "c4706da"
}