{
  "transactions": [
    {
      "hash": "0x855d891066befabd2bf76a3c1bdf3d981bce2de28898c867415538c7f25913bd",
      "transactionType": "CALL",
      "contractName": null,
      "contractAddress": "0xa155c64e596b95799e90395c55d7bb9582e7f571",
      "function": "approve(address,uint256)",
      "arguments": [
        "0x000000000022D473030F116dDEE9F6B43aC78BA3",
        "115792089237316195423570985008687907853269984665640564039457584007913129639935"
      ],
      "transaction": {
        "from": "0x91d5e66951c47fbbfafe57c9ff42d45c46b6044c",
        "to": "0xa155c64e596b95799e90395c55d7bb9582e7f571",
        "gas": "0x8fe3",
        "value": "0x0",
        "input": "0x095ea7b3000000000000000000000000000000000022d473030f116ddee9f6b43ac78ba3ffffffffffffffffffffffffffffffffffffffffffffffffffffffffffffffff",
        "nonce": "0x1c9",
        "chainId": "0x515"
      },
      "additionalContracts": [],
      "isFixedGasLimit": false
    },
    {
      "hash": "0x2cedb1ac7016771eb859c17357eab4498717978a09f01462fa6e8f53517a72d7",
      "transactionType": "CALL",
      "contractName": null,
      "contractAddress": "0x000000000022d473030f116ddee9f6b43ac78ba3",
      "function": "approve(address,address,uint160,uint48)",
      "arguments": [
        "0xa155C64e596B95799E90395C55d7BB9582E7F571",
        "0xf969Aee60879C54bAAed9F3eD26147Db216Fd664",
        "1461501637330902918203684832716283019655932542975",
        "281474976710655"
      ],
      "transaction": {
        "from": "0x91d5e66951c47fbbfafe57c9ff42d45c46b6044c",
        "to": "0x000000000022d473030f116ddee9f6b43ac78ba3",
        "gas": "0x96a0",
        "value": "0x0",
        "input": "0x87517c45000000000000000000000000a155c64e596b95799e90395c55d7bb9582e7f571000000000000000000000000f969aee60879c54baaed9f3ed26147db216fd664000000000000000000000000ffffffffffffffffffffffffffffffffffffffff0000000000000000000000000000000000000000000000000000ffffffffffff",
        "nonce": "0x1ca",
        "chainId": "0x515"
      },
      "additionalContracts": [],
      "isFixedGasLimit": false
    },
    {
      "hash": "0xf601517a6e323481af4f46db284ad77edc64ba0ed46917469c06c1d5bc509d84",
      "transactionType": "CALL",
      "contractName": null,
      "contractAddress": "0x000000000022d473030f116ddee9f6b43ac78ba3",
      "function": "approve(address,address,uint160,uint48)",
      "arguments": [
        "0xa155C64e596B95799E90395C55d7BB9582E7F571",
        "0x00B036B58a818B1BC34d502D3fE730Db729e62AC",
        "1461501637330902918203684832716283019655932542975",
        "281474976710655"
      ],
      "transaction": {
        "from": "0x91d5e66951c47fbbfafe57c9ff42d45c46b6044c",
        "to": "0x000000000022d473030f116ddee9f6b43ac78ba3",
        "gas": "0x9f6c",
        "value": "0x0",
        "input": "0x87517c45000000000000000000000000a155c64e596b95799e90395c55d7bb9582e7f57100000000000000000000000000b036b58a818b1bc34d502d3fe730db729e62ac000000000000000000000000ffffffffffffffffffffffffffffffffffffffff0000000000000000000000000000000000000000000000000000ffffffffffff",
        "nonce": "0x1cb",
        "chainId": "0x515"
      },
      "additionalContracts": [],
      "isFixedGasLimit": false
    },
    {
      "hash": "0xd89785f83cd518307623cac455597763b5b4b850b26cf2e9c6affa706650aaed",
      "transactionType": "CALL",
      "contractName": null,
      "contractAddress": "0x15207845fbf12ec6dce838141cbfe7fdfded1281",
      "function": "approve(address,uint256)",
      "arguments": [
        "0x000000000022D473030F116dDEE9F6B43aC78BA3",
        "115792089237316195423570985008687907853269984665640564039457584007913129639935"
      ],
      "transaction": {
        "from": "0x91d5e66951c47fbbfafe57c9ff42d45c46b6044c",
        "to": "0x15207845fbf12ec6dce838141cbfe7fdfded1281",
        "gas": "0x8fe3",
        "value": "0x0",
        "input": "0x095ea7b3000000000000000000000000000000000022d473030f116ddee9f6b43ac78ba3ffffffffffffffffffffffffffffffffffffffffffffffffffffffffffffffff",
        "nonce": "0x1cc",
        "chainId": "0x515"
      },
      "additionalContracts": [],
      "isFixedGasLimit": false
    },
    {
      "hash": "0xa0375dedf637ef357ae8b34ca48bb19b9531024a85381394ddf5c6aafa355a21",
      "transactionType": "CALL",
      "contractName": null,
      "contractAddress": "0x000000000022d473030f116ddee9f6b43ac78ba3",
      "function": "approve(address,address,uint160,uint48)",
      "arguments": [
        "0x15207845fBF12Ec6dCe838141cbfe7FdfDEd1281",
        "0xf969Aee60879C54bAAed9F3eD26147Db216Fd664",
        "1461501637330902918203684832716283019655932542975",
        "281474976710655"
      ],
      "transaction": {
        "from": "0x91d5e66951c47fbbfafe57c9ff42d45c46b6044c",
        "to": "0x000000000022d473030f116ddee9f6b43ac78ba3",
        "gas": "0x96a0",
        "value": "0x0",
        "input": "0x87517c4500000000000000000000000015207845fbf12ec6dce838141cbfe7fdfded1281000000000000000000000000f969aee60879c54baaed9f3ed26147db216fd664000000000000000000000000ffffffffffffffffffffffffffffffffffffffff0000000000000000000000000000000000000000000000000000ffffffffffff",
        "nonce": "0x1cd",
        "chainId": "0x515"
      },
      "additionalContracts": [],
      "isFixedGasLimit": false
    },
    {
      "hash": "0xb2f2ae362374c8a48fc7f800f292d06b4100fd5ed93b22e7c136b662b54b4c23",
      "transactionType": "CALL",
      "contractName": null,
      "contractAddress": "0x000000000022d473030f116ddee9f6b43ac78ba3",
      "function": "approve(address,address,uint160,uint48)",
      "arguments": [
        "0x15207845fBF12Ec6dCe838141cbfe7FdfDEd1281",
        "0x00B036B58a818B1BC34d502D3fE730Db729e62AC",
        "1461501637330902918203684832716283019655932542975",
        "281474976710655"
      ],
      "transaction": {
        "from": "0x91d5e66951c47fbbfafe57c9ff42d45c46b6044c",
        "to": "0x000000000022d473030f116ddee9f6b43ac78ba3",
        "gas": "0x9f6c",
        "value": "0x0",
        "input": "0x87517c4500000000000000000000000015207845fbf12ec6dce838141cbfe7fdfded128100000000000000000000000000b036b58a818b1bc34d502d3fe730db729e62ac000000000000000000000000ffffffffffffffffffffffffffffffffffffffff0000000000000000000000000000000000000000000000000000ffffffffffff",
        "nonce": "0x1ce",
        "chainId": "0x515"
      },
      "additionalContracts": [],
      "isFixedGasLimit": false
    },
    {
      "hash": "0xefdbc490e6f094e78d83ec9658d05d7740bb68262c096689081139c1df23e24d",
      "transactionType": "CALL",
      "contractName": null,
      "contractAddress": "0x31d0220469e10c4e71834a79b1f276d740d3768f",
      "function": "approve(address,uint256)",
      "arguments": [
        "0x000000000022D473030F116dDEE9F6B43aC78BA3",
        "115792089237316195423570985008687907853269984665640564039457584007913129639935"
      ],
      "transaction": {
        "from": "0x91d5e66951c47fbbfafe57c9ff42d45c46b6044c",
        "to": "0x31d0220469e10c4e71834a79b1f276d740d3768f",
        "gas": "0xdca8",
        "value": "0x0",
        "input": "0x095ea7b3000000000000000000000000000000000022d473030f116ddee9f6b43ac78ba3ffffffffffffffffffffffffffffffffffffffffffffffffffffffffffffffff",
        "nonce": "0x1cf",
        "chainId": "0x515"
      },
      "additionalContracts": [],
      "isFixedGasLimit": false
    },
    {
      "hash": "0xcafc683eae8e268bde6ea5fb1243bf3f089ee70548e5a64611fa3fcf62d4e4be",
      "transactionType": "CALL",
      "contractName": null,
      "contractAddress": "0x000000000022d473030f116ddee9f6b43ac78ba3",
      "function": "approve(address,address,uint160,uint48)",
      "arguments": [
        "0x31d0220469e10c4E71834a79b1f276d740d3768F",
        "0xf969Aee60879C54bAAed9F3eD26147Db216Fd664",
        "1461501637330902918203684832716283019655932542975",
        "281474976710655"
      ],
      "transaction": {
        "from": "0x91d5e66951c47fbbfafe57c9ff42d45c46b6044c",
        "to": "0x000000000022d473030f116ddee9f6b43ac78ba3",
        "gas": "0x96a0",
        "value": "0x0",
        "input": "0x87517c4500000000000000000000000031d0220469e10c4e71834a79b1f276d740d3768f000000000000000000000000f969aee60879c54baaed9f3ed26147db216fd664000000000000000000000000ffffffffffffffffffffffffffffffffffffffff0000000000000000000000000000000000000000000000000000ffffffffffff",
        "nonce": "0x1d0",
        "chainId": "0x515"
      },
      "additionalContracts": [],
      "isFixedGasLimit": false
    },
    {
      "hash": "0x7be1d4ecbb13ed124464ca3058112f55c5a856c3c8d57693d310506fc3663a30",
      "transactionType": "CALL",
      "contractName": null,
      "contractAddress": "0x000000000022d473030f116ddee9f6b43ac78ba3",
      "function": "approve(address,address,uint160,uint48)",
      "arguments": [
        "0x31d0220469e10c4E71834a79b1f276d740d3768F",
        "0x00B036B58a818B1BC34d502D3fE730Db729e62AC",
        "1461501637330902918203684832716283019655932542975",
        "281474976710655"
      ],
      "transaction": {
        "from": "0x91d5e66951c47fbbfafe57c9ff42d45c46b6044c",
        "to": "0x000000000022d473030f116ddee9f6b43ac78ba3",
        "gas": "0x9f6c",
        "value": "0x0",
        "input": "0x87517c4500000000000000000000000031d0220469e10c4e71834a79b1f276d740d3768f00000000000000000000000000b036b58a818b1bc34d502d3fe730db729e62ac000000000000000000000000ffffffffffffffffffffffffffffffffffffffff0000000000000000000000000000000000000000000000000000ffffffffffff",
        "nonce": "0x1d1",
        "chainId": "0x515"
      },
      "additionalContracts": [],
      "isFixedGasLimit": false
    }
  ],
  "receipts": [
    {
      "status": "0x1",
      "cumulativeGasUsed": "0x2e219",
      "logs": [
        {
          "address": "0xa155c64e596b95799e90395c55d7bb9582e7f571",
          "topics": [
            "0x8c5be1e5ebec7d5bd14f71427d1e84f3dd0314c0f7b2291e5b200ac8c7c3b925",
            "0x00000000000000000000000091d5e66951c47fbbfafe57c9ff42d45c46b6044c",
            "0x000000000000000000000000000000000022d473030f116ddee9f6b43ac78ba3"
          ],
          "data": "0xffffffffffffffffffffffffffffffffffffffffffffffffffffffffffffffff",
          "blockHash": "0x5ea1f6b5da2ae4d1af46e7a562e47ef825acc4469a5e3253c8d0027b93bd6b18",
          "blockNumber": "0x2ce736b",
          "blockTimestamp": "0x69bc20b7",
          "transactionHash": "0xf601517a6e323481af4f46db284ad77edc64ba0ed46917469c06c1d5bc509d84",
          "transactionIndex": "0x3",
          "logIndex": "0x1",
          "removed": false
        }
      ],
      "logsBloom": "0x00000000000008000000000000000000000000000000000000000000000000000000000000000000000000000000000008000000800000000000000000200000000000000000000000004000000000000000000020000800000000000000000000000000000000000000000000000000000000000000000000000000000000000000000000000000000000000000000400000000000000000004000000000000020000000000000000000000000000000000000000000000000000000000000000000000000000000000000000000000000000000000000000000000000000000010000000000000000000000000000000000000000000000000000000000000",
      "type": "0x2",
      "transactionHash": "0xf601517a6e323481af4f46db284ad77edc64ba0ed46917469c06c1d5bc509d84",
      "transactionIndex": "0x3",
      "blockHash": "0x5ea1f6b5da2ae4d1af46e7a562e47ef825acc4469a5e3253c8d0027b93bd6b18",
      "blockNumber": "0x2ce736b",
      "gasUsed": "0x682d",
      "effectiveGasPrice": "0xee72c920",
      "blobGasUsed": "0x9c40",
      "from": "0x91d5e66951c47fbbfafe57c9ff42d45c46b6044c",
      "to": "0xa155c64e596b95799e90395c55d7bb9582e7f571",
      "contractAddress": null,
      "daFootprintGasScalar": "0x190",
      "l1BaseFeeScalar": "0x7d0",
      "l1BlobBaseFee": "0x3",
      "l1BlobBaseFeeScalar": "0xdbba0",
      "l1Fee": "0x12e",
      "l1GasPrice": "0xa",
      "l1GasUsed": "0x640"
    },
    {
      "status": "0x1",
      "cumulativeGasUsed": "0x34f27",
      "logs": [
        {
          "address": "0x000000000022d473030f116ddee9f6b43ac78ba3",
          "topics": [
            "0xda9fa7c1b00402c17d0161b249b1ab8bbec047c5a52207b9c112deffd817036b",
            "0x00000000000000000000000091d5e66951c47fbbfafe57c9ff42d45c46b6044c",
            "0x000000000000000000000000a155c64e596b95799e90395c55d7bb9582e7f571",
            "0x000000000000000000000000f969aee60879c54baaed9f3ed26147db216fd664"
          ],
          "data": "0x000000000000000000000000ffffffffffffffffffffffffffffffffffffffff0000000000000000000000000000000000000000000000000000ffffffffffff",
          "blockHash": "0x5ea1f6b5da2ae4d1af46e7a562e47ef825acc4469a5e3253c8d0027b93bd6b18",
          "blockNumber": "0x2ce736b",
          "blockTimestamp": "0x69bc20b7",
          "transactionHash": "0xd89785f83cd518307623cac455597763b5b4b850b26cf2e9c6affa706650aaed",
          "transactionIndex": "0x4",
          "logIndex": "0x2",
          "removed": false
        }
      ],
      "logsBloom": "0x00010000000000000000000000000000000000000000000000000000000000000000000000000000000000000000000008000000800000000000000000080000000000000000000000000000000000000000040000000000000000001000000000000000000000000000000000000000000000000040000000000000000000000020000000000000000000000000000400000000000000000000000000000000000000000000000000000000000400000000000000000000000000080000000000000000000000000000000000000000000000000000000040000000000000000000000000000000000000200000000000000000000000000000000000002400",
      "type": "0x2",
      "transactionHash": "0xd89785f83cd518307623cac455597763b5b4b850b26cf2e9c6affa706650aaed",
      "transactionIndex": "0x4",
      "blockHash": "0x5ea1f6b5da2ae4d1af46e7a562e47ef825acc4469a5e3253c8d0027b93bd6b18",
      "blockNumber": "0x2ce736b",
      "gasUsed": "0x6d0e",
      "effectiveGasPrice": "0xee72c920",
      "blobGasUsed": "0xb220",
      "from": "0x91d5e66951c47fbbfafe57c9ff42d45c46b6044c",
      "to": "0x000000000022d473030f116ddee9f6b43ac78ba3",
      "contractAddress": null,
      "daFootprintGasScalar": "0x190",
      "l1BaseFeeScalar": "0x7d0",
      "l1BlobBaseFee": "0x3",
      "l1BlobBaseFeeScalar": "0xdbba0",
      "l1Fee": "0x15a",
      "l1GasPrice": "0xa",
      "l1GasUsed": "0x72a"
    },
    {
      "status": "0x1",
      "cumulativeGasUsed": "0x3bc29",
      "logs": [
        {
          "address": "0x000000000022d473030f116ddee9f6b43ac78ba3",
          "topics": [
            "0xda9fa7c1b00402c17d0161b249b1ab8bbec047c5a52207b9c112deffd817036b",
            "0x00000000000000000000000091d5e66951c47fbbfafe57c9ff42d45c46b6044c",
            "0x000000000000000000000000a155c64e596b95799e90395c55d7bb9582e7f571",
            "0x00000000000000000000000000b036b58a818b1bc34d502d3fe730db729e62ac"
          ],
          "data": "0x000000000000000000000000ffffffffffffffffffffffffffffffffffffffff0000000000000000000000000000000000000000000000000000ffffffffffff",
          "blockHash": "0x5ea1f6b5da2ae4d1af46e7a562e47ef825acc4469a5e3253c8d0027b93bd6b18",
          "blockNumber": "0x2ce736b",
          "blockTimestamp": "0x69bc20b7",
          "transactionHash": "0x855d891066befabd2bf76a3c1bdf3d981bce2de28898c867415538c7f25913bd",
          "transactionIndex": "0x5",
          "logIndex": "0x3",
          "removed": false
        }
      ],
      "logsBloom": "0x00010000000000000000000000000000000000000000000000000000000000000000000000000000000000000000000008000000801000000000000000080000000000000000000000000000000000000000040000000000000000000000000000000000000000000000000000004000000000000000000000000000000000000020000000000000000000000000000400000000000000000000000000000000000000000000000000000000000400000000000000000020000000080000000000000000000000000000000000000000000000000000000040000000000000000000000000000000000000200000000000000000000000000000000000000400",
      "type": "0x2",
      "transactionHash": "0x855d891066befabd2bf76a3c1bdf3d981bce2de28898c867415538c7f25913bd",
      "transactionIndex": "0x5",
      "blockHash": "0x5ea1f6b5da2ae4d1af46e7a562e47ef825acc4469a5e3253c8d0027b93bd6b18",
      "blockNumber": "0x2ce736b",
      "gasUsed": "0x6d02",
      "effectiveGasPrice": "0xee72c920",
      "blobGasUsed": "0xb090",
      "from": "0x91d5e66951c47fbbfafe57c9ff42d45c46b6044c",
      "to": "0x000000000022d473030f116ddee9f6b43ac78ba3",
      "contractAddress": null,
      "daFootprintGasScalar": "0x190",
      "l1BaseFeeScalar": "0x7d0",
      "l1BlobBaseFee": "0x3",
      "l1BlobBaseFeeScalar": "0xdbba0",
      "l1Fee": "0x157",
      "l1GasPrice": "0xa",
      "l1GasUsed": "0x71d"
    },
    {
      "status": "0x1",
      "cumulativeGasUsed": "0x42456",
      "logs": [
        {
          "address": "0x15207845fbf12ec6dce838141cbfe7fdfded1281",
          "topics": [
            "0x8c5be1e5ebec7d5bd14f71427d1e84f3dd0314c0f7b2291e5b200ac8c7c3b925",
            "0x00000000000000000000000091d5e66951c47fbbfafe57c9ff42d45c46b6044c",
            "0x000000000000000000000000000000000022d473030f116ddee9f6b43ac78ba3"
          ],
          "data": "0xffffffffffffffffffffffffffffffffffffffffffffffffffffffffffffffff",
          "blockHash": "0x5ea1f6b5da2ae4d1af46e7a562e47ef825acc4469a5e3253c8d0027b93bd6b18",
          "blockNumber": "0x2ce736b",
          "blockTimestamp": "0x69bc20b7",
          "transactionHash": "0xb2f2ae362374c8a48fc7f800f292d06b4100fd5ed93b22e7c136b662b54b4c23",
          "transactionIndex": "0x6",
          "logIndex": "0x4",
          "removed": false
        }
      ],
      "logsBloom": "0x00000000000000000000000000000000000000000000000000000000000000000000000000000000000000000000000008010000800000000000000000200000080000000000000000004000000000000000000000000800000000000000000000000000000000000000000000000000000000000000000000000000000000000000000000000000000000000000000400000000000000000000000000000000020000000000000000000000000000000000000000000000000000000000000000000000000000000000000000000000000000000000000000000000000000000010000000000000000000000000000000001000000000000000000000000000",
      "type": "0x2",
      "transactionHash": "0xb2f2ae362374c8a48fc7f800f292d06b4100fd5ed93b22e7c136b662b54b4c23",
      "transactionIndex": "0x6",
      "blockHash": "0x5ea1f6b5da2ae4d1af46e7a562e47ef825acc4469a5e3253c8d0027b93bd6b18",
      "blockNumber": "0x2ce736b",
      "gasUsed": "0x682d",
      "effectiveGasPrice": "0xee72c920",
      "blobGasUsed": "0x9c40",
      "from": "0x91d5e66951c47fbbfafe57c9ff42d45c46b6044c",
      "to": "0x15207845fbf12ec6dce838141cbfe7fdfded1281",
      "contractAddress": null,
      "daFootprintGasScalar": "0x190",
      "l1BaseFeeScalar": "0x7d0",
      "l1BlobBaseFee": "0x3",
      "l1BlobBaseFeeScalar": "0xdbba0",
      "l1Fee": "0x12e",
      "l1GasPrice": "0xa",
      "l1GasUsed": "0x640"
    },
    {
      "status": "0x1",
      "cumulativeGasUsed": "0x49164",
      "logs": [
        {
          "address": "0x000000000022d473030f116ddee9f6b43ac78ba3",
          "topics": [
            "0xda9fa7c1b00402c17d0161b249b1ab8bbec047c5a52207b9c112deffd817036b",
            "0x00000000000000000000000091d5e66951c47fbbfafe57c9ff42d45c46b6044c",
            "0x00000000000000000000000015207845fbf12ec6dce838141cbfe7fdfded1281",
            "0x000000000000000000000000f969aee60879c54baaed9f3ed26147db216fd664"
          ],
          "data": "0x000000000000000000000000ffffffffffffffffffffffffffffffffffffffff0000000000000000000000000000000000000000000000000000ffffffffffff",
          "blockHash": "0x5ea1f6b5da2ae4d1af46e7a562e47ef825acc4469a5e3253c8d0027b93bd6b18",
          "blockNumber": "0x2ce736b",
          "blockTimestamp": "0x69bc20b7",
          "transactionHash": "0xefdbc490e6f094e78d83ec9658d05d7740bb68262c096689081139c1df23e24d",
          "transactionIndex": "0x7",
          "logIndex": "0x5",
          "removed": false
        }
      ],
      "logsBloom": "0x00010000000000000000000000000000000000000000000000000000000000000000000000000000000000000000000008000000800000000000000000080000000000000000000000000000000000000000000000000000000000001000000000008000000000000000000000000000000000000040000000000000000000000020000000000000000000000000000400001000000000000000000000000000000000000000000000000000000000000000000000000000000000080000000000000000000000000000000000000000000000000000000040000000000000000000000000000000000000000000000000000000000000000008000000002400",
      "type": "0x2",
      "transactionHash": "0xefdbc490e6f094e78d83ec9658d05d7740bb68262c096689081139c1df23e24d",
      "transactionIndex": "0x7",
      "blockHash": "0x5ea1f6b5da2ae4d1af46e7a562e47ef825acc4469a5e3253c8d0027b93bd6b18",
      "blockNumber": "0x2ce736b",
      "gasUsed": "0x6d0e",
      "effectiveGasPrice": "0xee72c920",
      "blobGasUsed": "0xb220",
      "from": "0x91d5e66951c47fbbfafe57c9ff42d45c46b6044c",
      "to": "0x000000000022d473030f116ddee9f6b43ac78ba3",
      "contractAddress": null,
      "daFootprintGasScalar": "0x190",
      "l1BaseFeeScalar": "0x7d0",
      "l1BlobBaseFee": "0x3",
      "l1BlobBaseFeeScalar": "0xdbba0",
      "l1Fee": "0x15a",
      "l1GasPrice": "0xa",
      "l1GasUsed": "0x72a"
    },
    {
      "status": "0x1",
      "cumulativeGasUsed": "0x4fe66",
      "logs": [
        {
          "address": "0x000000000022d473030f116ddee9f6b43ac78ba3",
          "topics": [
            "0xda9fa7c1b00402c17d0161b249b1ab8bbec047c5a52207b9c112deffd817036b",
            "0x00000000000000000000000091d5e66951c47fbbfafe57c9ff42d45c46b6044c",
            "0x00000000000000000000000015207845fbf12ec6dce838141cbfe7fdfded1281",
            "0x00000000000000000000000000b036b58a818b1bc34d502d3fe730db729e62ac"
          ],
          "data": "0x000000000000000000000000ffffffffffffffffffffffffffffffffffffffff0000000000000000000000000000000000000000000000000000ffffffffffff",
          "blockHash": "0x5ea1f6b5da2ae4d1af46e7a562e47ef825acc4469a5e3253c8d0027b93bd6b18",
          "blockNumber": "0x2ce736b",
          "blockTimestamp": "0x69bc20b7",
          "transactionHash": "0xa0375dedf637ef357ae8b34ca48bb19b9531024a85381394ddf5c6aafa355a21",
          "transactionIndex": "0x8",
          "logIndex": "0x6",
          "removed": false
        }
      ],
      "logsBloom": "0x00010000000000000000000000000000000000000000000000000000000000000000000000000000000000000000000008000000801000000000000000080000000000000000000000000000000000000000000000000000000000000000000000008000000000000000000000004000000000000000000000000000000000000020000000000000000000000000000400001000000000000000000000000000000000000000000000000000000000000000000000000020000000080000000000000000000000000000000000000000000000000000000040000000000000000000000000000000000000000000000000000000000000000008000000000400",
      "type": "0x2",
      "transactionHash": "0xa0375dedf637ef357ae8b34ca48bb19b9531024a85381394ddf5c6aafa355a21",
      "transactionIndex": "0x8",
      "blockHash": "0x5ea1f6b5da2ae4d1af46e7a562e47ef825acc4469a5e3253c8d0027b93bd6b18",
      "blockNumber": "0x2ce736b",
      "gasUsed": "0x6d02",
      "effectiveGasPrice": "0xee72c920",
      "blobGasUsed": "0xb090",
      "from": "0x91d5e66951c47fbbfafe57c9ff42d45c46b6044c",
      "to": "0x000000000022d473030f116ddee9f6b43ac78ba3",
      "contractAddress": null,
      "daFootprintGasScalar": "0x190",
      "l1BaseFeeScalar": "0x7d0",
      "l1BlobBaseFee": "0x3",
      "l1BlobBaseFeeScalar": "0xdbba0",
      "l1Fee": "0x157",
      "l1GasPrice": "0xa",
      "l1GasUsed": "0x71d"
    },
    {
      "status": "0x1",
      "cumulativeGasUsed": "0x59547",
      "logs": [
        {
          "address": "0x31d0220469e10c4e71834a79b1f276d740d3768f",
          "topics": [
            "0x8c5be1e5ebec7d5bd14f71427d1e84f3dd0314c0f7b2291e5b200ac8c7c3b925",
            "0x00000000000000000000000091d5e66951c47fbbfafe57c9ff42d45c46b6044c",
            "0x000000000000000000000000000000000022d473030f116ddee9f6b43ac78ba3"
          ],
          "data": "0xffffffffffffffffffffffffffffffffffffffffffffffffffffffffffffffff",
          "blockHash": "0x5ea1f6b5da2ae4d1af46e7a562e47ef825acc4469a5e3253c8d0027b93bd6b18",
          "blockNumber": "0x2ce736b",
          "blockTimestamp": "0x69bc20b7",
          "transactionHash": "0xcafc683eae8e268bde6ea5fb1243bf3f089ee70548e5a64611fa3fcf62d4e4be",
          "transactionIndex": "0x9",
          "logIndex": "0x7",
          "removed": false
        }
      ],
      "logsBloom": "0x00000000000000000000000000000000000000000000000000000000000000000000000000000000000000000000000008000000800000000000000000200000000000000000000000004000000000000000000000001800000000000000000000000000000000000000000000000000000000000000000000000000000000000000000000000000000000000000000400000000000000000000000000000000020000000001000080000000000000000000000000000000000000000000000000000000000000000000000000000000000000000000000000000000000000000010000000000000000000000000000000000000000000000000000000000000",
      "type": "0x2",
      "transactionHash": "0xcafc683eae8e268bde6ea5fb1243bf3f089ee70548e5a64611fa3fcf62d4e4be",
      "transactionIndex": "0x9",
      "blockHash": "0x5ea1f6b5da2ae4d1af46e7a562e47ef825acc4469a5e3253c8d0027b93bd6b18",
      "blockNumber": "0x2ce736b",
      "gasUsed": "0x96e1",
      "effectiveGasPrice": "0xee72c920",
      "blobGasUsed": "0x9c40",
      "from": "0x91d5e66951c47fbbfafe57c9ff42d45c46b6044c",
      "to": "0x31d0220469e10c4e71834a79b1f276d740d3768f",
      "contractAddress": null,
      "daFootprintGasScalar": "0x190",
      "l1BaseFeeScalar": "0x7d0",
      "l1BlobBaseFee": "0x3",
      "l1BlobBaseFeeScalar": "0xdbba0",
      "l1Fee": "0x12e",
      "l1GasPrice": "0xa",
      "l1GasUsed": "0x640"
    },
    {
      "status": "0x1",
      "cumulativeGasUsed": "0x60255",
      "logs": [
        {
          "address": "0x000000000022d473030f116ddee9f6b43ac78ba3",
          "topics": [
            "0xda9fa7c1b00402c17d0161b249b1ab8bbec047c5a52207b9c112deffd817036b",
            "0x00000000000000000000000091d5e66951c47fbbfafe57c9ff42d45c46b6044c",
            "0x00000000000000000000000031d0220469e10c4e71834a79b1f276d740d3768f",
            "0x000000000000000000000000f969aee60879c54baaed9f3ed26147db216fd664"
          ],
          "data": "0x000000000000000000000000ffffffffffffffffffffffffffffffffffffffff0000000000000000000000000000000000000000000000000000ffffffffffff",
          "blockHash": "0x5ea1f6b5da2ae4d1af46e7a562e47ef825acc4469a5e3253c8d0027b93bd6b18",
          "blockNumber": "0x2ce736b",
          "blockTimestamp": "0x69bc20b7",
          "transactionHash": "0x7be1d4ecbb13ed124464ca3058112f55c5a856c3c8d57693d310506fc3663a30",
          "transactionIndex": "0xa",
          "logIndex": "0x8",
          "removed": false
        }
      ],
      "logsBloom": "0x00010000000000000000000000000000000000000000000000000000000000000000000000000080000000000000000008000000800000000000000000080000000000000000000000000000000000000000000000000000000000001000000000000000000000000000000000000000000000000040000000000000000000000020000000000000000000000000000400000000000000000000000000000000000000000000000000000000000000000000000000000000000000080000000000000000000000008000000000000000000000000000000040000000000000000000000000001000000000000000000000000000000000000000000000002400",
      "type": "0x2",
      "transactionHash": "0x7be1d4ecbb13ed124464ca3058112f55c5a856c3c8d57693d310506fc3663a30",
      "transactionIndex": "0xa",
      "blockHash": "0x5ea1f6b5da2ae4d1af46e7a562e47ef825acc4469a5e3253c8d0027b93bd6b18",
      "blockNumber": "0x2ce736b",
      "gasUsed": "0x6d0e",
      "effectiveGasPrice": "0xee72c920",
      "blobGasUsed": "0xb220",
      "from": "0x91d5e66951c47fbbfafe57c9ff42d45c46b6044c",
      "to": "0x000000000022d473030f116ddee9f6b43ac78ba3",
      "contractAddress": null,
      "daFootprintGasScalar": "0x190",
      "l1BaseFeeScalar": "0x7d0",
      "l1BlobBaseFee": "0x3",
      "l1BlobBaseFeeScalar": "0xdbba0",
      "l1Fee": "0x15a",
      "l1GasPrice": "0xa",
      "l1GasUsed": "0x72a"
    },
    {
      "status": "0x1",
      "cumulativeGasUsed": "0x66f57",
      "logs": [
        {
          "address": "0x000000000022d473030f116ddee9f6b43ac78ba3",
          "topics": [
            "0xda9fa7c1b00402c17d0161b249b1ab8bbec047c5a52207b9c112deffd817036b",
            "0x00000000000000000000000091d5e66951c47fbbfafe57c9ff42d45c46b6044c",
            "0x00000000000000000000000031d0220469e10c4e71834a79b1f276d740d3768f",
            "0x00000000000000000000000000b036b58a818b1bc34d502d3fe730db729e62ac"
          ],
          "data": "0x000000000000000000000000ffffffffffffffffffffffffffffffffffffffff0000000000000000000000000000000000000000000000000000ffffffffffff",
          "blockHash": "0x5ea1f6b5da2ae4d1af46e7a562e47ef825acc4469a5e3253c8d0027b93bd6b18",
          "blockNumber": "0x2ce736b",
          "blockTimestamp": "0x69bc20b7",
          "transactionHash": "0x2cedb1ac7016771eb859c17357eab4498717978a09f01462fa6e8f53517a72d7",
          "transactionIndex": "0xb",
          "logIndex": "0x9",
          "removed": false
        }
      ],
      "logsBloom": "0x00010000000000000000000000000000000000000000000000000000000000000000000000000080000000000000000008000000801000000000000000080000000000000000000000000000000000000000000000000000000000000000000000000000000000000000000000004000000000000000000000000000000000000020000000000000000000000000000400000000000000000000000000000000000000000000000000000000000000000000000000000020000000080000000000000000000000008000000000000000000000000000000040000000000000000000000000001000000000000000000000000000000000000000000000000400",
      "type": "0x2",
      "transactionHash": "0x2cedb1ac7016771eb859c17357eab4498717978a09f01462fa6e8f53517a72d7",
      "transactionIndex": "0xb",
      "blockHash": "0x5ea1f6b5da2ae4d1af46e7a562e47ef825acc4469a5e3253c8d0027b93bd6b18",
      "blockNumber": "0x2ce736b",
      "gasUsed": "0x6d02",
      "effectiveGasPrice": "0xee72c920",
      "blobGasUsed": "0xb090",
      "from": "0x91d5e66951c47fbbfafe57c9ff42d45c46b6044c",
      "to": "0x000000000022d473030f116ddee9f6b43ac78ba3",
      "contractAddress": null,
      "daFootprintGasScalar": "0x190",
      "l1BaseFeeScalar": "0x7d0",
      "l1BlobBaseFee": "0x3",
      "l1BlobBaseFeeScalar": "0xdbba0",
      "l1Fee": "0x157",
      "l1GasPrice": "0xa",
      "l1GasUsed": "0x71d"
    }
  ],
  "libraries": [],
  "pending": [],
  "returns": {},
  "timestamp": 1773936824764,
  "chain": 1301,
  "commit": "29b3163"
}