{
  "transactions": [
    {
      "hash": "0x0c9a63ae41834dfbd7581ac6a4986cf65d7dcfc5e8e9fbb884f7c274a0c4bc69",
      "transactionType": "CALL",
      "contractName": null,
      "contractAddress": "0xc519a28d5c91fb6e87654f638c5563a4941b163b",
      "function": "approve(address,uint256)",
      "arguments": [
        "0x000000000022D473030F116dDEE9F6B43aC78BA3",
        "115792089237316195423570985008687907853269984665640564039457584007913129639935"
      ],
      "transaction": {
        "from": "0x91d5e66951c47fbbfafe57c9ff42d45c46b6044c",
        "to": "0xc519a28d5c91fb6e87654f638c5563a4941b163b",
        "gas": "0x8fe3",
        "value": "0x0",
        "input": "0x095ea7b3000000000000000000000000000000000022d473030f116ddee9f6b43ac78ba3ffffffffffffffffffffffffffffffffffffffffffffffffffffffffffffffff",
        "nonce": "0x12a",
        "chainId": "0x515"
      },
      "additionalContracts": [],
      "isFixedGasLimit": false
    },
    {
      "hash": "0x4203d586b9f6ab446ce5f8e58a50b05dbfe89348eb1b3ef50d6a675e32a6ecac",
      "transactionType": "CALL",
      "contractName": null,
      "contractAddress": "0x000000000022d473030f116ddee9f6b43ac78ba3",
      "function": "approve(address,address,uint160,uint48)",
      "arguments": [
        "0xC519A28d5c91fB6E87654f638C5563A4941b163b",
        "0xf969Aee60879C54bAAed9F3eD26147Db216Fd664",
        "1461501637330902918203684832716283019655932542975",
        "281474976710655"
      ],
      "transaction": {
        "from": "0x91d5e66951c47fbbfafe57c9ff42d45c46b6044c",
        "to": "0x000000000022d473030f116ddee9f6b43ac78ba3",
        "gas": "0x96a0",
        "value": "0x0",
        "input": "0x87517c45000000000000000000000000c519a28d5c91fb6e87654f638c5563a4941b163b000000000000000000000000f969aee60879c54baaed9f3ed26147db216fd664000000000000000000000000ffffffffffffffffffffffffffffffffffffffff0000000000000000000000000000000000000000000000000000ffffffffffff",
        "nonce": "0x12b",
        "chainId": "0x515"
      },
      "additionalContracts": [],
      "isFixedGasLimit": false
    },
    {
      "hash": "0x4a182e9ede4243af20eacf835e369ee2dad8256ff3e7657bdd94808d6cb2d8fc",
      "transactionType": "CALL",
      "contractName": null,
      "contractAddress": "0x000000000022d473030f116ddee9f6b43ac78ba3",
      "function": "approve(address,address,uint160,uint48)",
      "arguments": [
        "0xC519A28d5c91fB6E87654f638C5563A4941b163b",
        "0x00B036B58a818B1BC34d502D3fE730Db729e62AC",
        "1461501637330902918203684832716283019655932542975",
        "281474976710655"
      ],
      "transaction": {
        "from": "0x91d5e66951c47fbbfafe57c9ff42d45c46b6044c",
        "to": "0x000000000022d473030f116ddee9f6b43ac78ba3",
        "gas": "0x9f6c",
        "value": "0x0",
        "input": "0x87517c45000000000000000000000000c519a28d5c91fb6e87654f638c5563a4941b163b00000000000000000000000000b036b58a818b1bc34d502d3fe730db729e62ac000000000000000000000000ffffffffffffffffffffffffffffffffffffffff0000000000000000000000000000000000000000000000000000ffffffffffff",
        "nonce": "0x12c",
        "chainId": "0x515"
      },
      "additionalContracts": [],
      "isFixedGasLimit": false
    },
    {
      "hash": "0xe4b4402b7820a27ba84f31c4e3766a7a3a608d034d4f186ab9d236417ac1cabf",
      "transactionType": "CALL",
      "contractName": null,
      "contractAddress": "0x8e33bfd4e0b22f16029202a2bd55266b2b9f15a1",
      "function": "approve(address,uint256)",
      "arguments": [
        "0x000000000022D473030F116dDEE9F6B43aC78BA3",
        "115792089237316195423570985008687907853269984665640564039457584007913129639935"
      ],
      "transaction": {
        "from": "0x91d5e66951c47fbbfafe57c9ff42d45c46b6044c",
        "to": "0x8e33bfd4e0b22f16029202a2bd55266b2b9f15a1",
        "gas": "0x8fe3",
        "value": "0x0",
        "input": "0x095ea7b3000000000000000000000000000000000022d473030f116ddee9f6b43ac78ba3ffffffffffffffffffffffffffffffffffffffffffffffffffffffffffffffff",
        "nonce": "0x12d",
        "chainId": "0x515"
      },
      "additionalContracts": [],
      "isFixedGasLimit": false
    },
    {
      "hash": "0x4f86b39035fea73e4e0a5f37fb3dd5e077abbd8459f8793ba49c0477b62683a3",
      "transactionType": "CALL",
      "contractName": null,
      "contractAddress": "0x000000000022d473030f116ddee9f6b43ac78ba3",
      "function": "approve(address,address,uint160,uint48)",
      "arguments": [
        "0x8E33bfD4E0b22F16029202a2Bd55266B2B9f15a1",
        "0xf969Aee60879C54bAAed9F3eD26147Db216Fd664",
        "1461501637330902918203684832716283019655932542975",
        "281474976710655"
      ],
      "transaction": {
        "from": "0x91d5e66951c47fbbfafe57c9ff42d45c46b6044c",
        "to": "0x000000000022d473030f116ddee9f6b43ac78ba3",
        "gas": "0x96a0",
        "value": "0x0",
        "input": "0x87517c450000000000000000000000008e33bfd4e0b22f16029202a2bd55266b2b9f15a1000000000000000000000000f969aee60879c54baaed9f3ed26147db216fd664000000000000000000000000ffffffffffffffffffffffffffffffffffffffff0000000000000000000000000000000000000000000000000000ffffffffffff",
        "nonce": "0x12e",
        "chainId": "0x515"
      },
      "additionalContracts": [],
      "isFixedGasLimit": false
    },
    {
      "hash": "0xdd37a9f9f3f10422b280973073c09e207033c54a03af1bd60443cfc786d69081",
      "transactionType": "CALL",
      "contractName": null,
      "contractAddress": "0x000000000022d473030f116ddee9f6b43ac78ba3",
      "function": "approve(address,address,uint160,uint48)",
      "arguments": [
        "0x8E33bfD4E0b22F16029202a2Bd55266B2B9f15a1",
        "0x00B036B58a818B1BC34d502D3fE730Db729e62AC",
        "1461501637330902918203684832716283019655932542975",
        "281474976710655"
      ],
      "transaction": {
        "from": "0x91d5e66951c47fbbfafe57c9ff42d45c46b6044c",
        "to": "0x000000000022d473030f116ddee9f6b43ac78ba3",
        "gas": "0x9f6c",
        "value": "0x0",
        "input": "0x87517c450000000000000000000000008e33bfd4e0b22f16029202a2bd55266b2b9f15a100000000000000000000000000b036b58a818b1bc34d502d3fe730db729e62ac000000000000000000000000ffffffffffffffffffffffffffffffffffffffff0000000000000000000000000000000000000000000000000000ffffffffffff",
        "nonce": "0x12f",
        "chainId": "0x515"
      },
      "additionalContracts": [],
      "isFixedGasLimit": false
    },
    {
      "hash": "0x8b3687a1ffcc38139257f94c49176dc1534e3fd7665691e686abc6150f0f6950",
      "transactionType": "CALL",
      "contractName": null,
      "contractAddress": "0x31d0220469e10c4e71834a79b1f276d740d3768f",
      "function": "approve(address,uint256)",
      "arguments": [
        "0x000000000022D473030F116dDEE9F6B43aC78BA3",
        "115792089237316195423570985008687907853269984665640564039457584007913129639935"
      ],
      "transaction": {
        "from": "0x91d5e66951c47fbbfafe57c9ff42d45c46b6044c",
        "to": "0x31d0220469e10c4e71834a79b1f276d740d3768f",
        "gas": "0xdca8",
        "value": "0x0",
        "input": "0x095ea7b3000000000000000000000000000000000022d473030f116ddee9f6b43ac78ba3ffffffffffffffffffffffffffffffffffffffffffffffffffffffffffffffff",
        "nonce": "0x130",
        "chainId": "0x515"
      },
      "additionalContracts": [],
      "isFixedGasLimit": false
    },
    {
      "hash": "0x2373488190bc060b858fdb9aea0885cbc177a10dbd1121659a8324fd8b13ebd5",
      "transactionType": "CALL",
      "contractName": null,
      "contractAddress": "0x000000000022d473030f116ddee9f6b43ac78ba3",
      "function": "approve(address,address,uint160,uint48)",
      "arguments": [
        "0x31d0220469e10c4E71834a79b1f276d740d3768F",
        "0xf969Aee60879C54bAAed9F3eD26147Db216Fd664",
        "1461501637330902918203684832716283019655932542975",
        "281474976710655"
      ],
      "transaction": {
        "from": "0x91d5e66951c47fbbfafe57c9ff42d45c46b6044c",
        "to": "0x000000000022d473030f116ddee9f6b43ac78ba3",
        "gas": "0x96a0",
        "value": "0x0",
        "input": "0x87517c4500000000000000000000000031d0220469e10c4e71834a79b1f276d740d3768f000000000000000000000000f969aee60879c54baaed9f3ed26147db216fd664000000000000000000000000ffffffffffffffffffffffffffffffffffffffff0000000000000000000000000000000000000000000000000000ffffffffffff",
        "nonce": "0x131",
        "chainId": "0x515"
      },
      "additionalContracts": [],
      "isFixedGasLimit": false
    },
    {
      "hash": "0x4322a93c618c940d10abe9a46e63d8cbe4dd0c20400d9af208c2aa0317544c76",
      "transactionType": "CALL",
      "contractName": null,
      "contractAddress": "0x000000000022d473030f116ddee9f6b43ac78ba3",
      "function": "approve(address,address,uint160,uint48)",
      "arguments": [
        "0x31d0220469e10c4E71834a79b1f276d740d3768F",
        "0x00B036B58a818B1BC34d502D3fE730Db729e62AC",
        "1461501637330902918203684832716283019655932542975",
        "281474976710655"
      ],
      "transaction": {
        "from": "0x91d5e66951c47fbbfafe57c9ff42d45c46b6044c",
        "to": "0x000000000022d473030f116ddee9f6b43ac78ba3",
        "gas": "0x9f6c",
        "value": "0x0",
        "input": "0x87517c4500000000000000000000000031d0220469e10c4e71834a79b1f276d740d3768f00000000000000000000000000b036b58a818b1bc34d502d3fe730db729e62ac000000000000000000000000ffffffffffffffffffffffffffffffffffffffff0000000000000000000000000000000000000000000000000000ffffffffffff",
        "nonce": "0x132",
        "chainId": "0x515"
      },
      "additionalContracts": [],
      "isFixedGasLimit": false
    }
  ],
  "receipts": [
    {
      "status": "0x1",
      "cumulativeGasUsed": "0x8a2ed",
      "logs": [
        {
          "address": "0xc519a28d5c91fb6e87654f638c5563a4941b163b",
          "topics": [
            "0x8c5be1e5ebec7d5bd14f71427d1e84f3dd0314c0f7b2291e5b200ac8c7c3b925",
            "0x00000000000000000000000091d5e66951c47fbbfafe57c9ff42d45c46b6044c",
            "0x000000000000000000000000000000000022d473030f116ddee9f6b43ac78ba3"
          ],
          "data": "0xffffffffffffffffffffffffffffffffffffffffffffffffffffffffffffffff",
          "blockHash": "0x857f54d6da45f16316428c4bec56f025365250fb29cca14186d9be9ad2b5c20a",
          "blockNumber": "0x2cddd6b",
          "blockTimestamp": "0x69bb8ab7",
          "transactionHash": "0xdd37a9f9f3f10422b280973073c09e207033c54a03af1bd60443cfc786d69081",
          "transactionIndex": "0x7",
          "logIndex": "0x5",
          "removed": false
        }
      ],
      "logsBloom": "0x00000000000000000000000000000000000000000000000000000100000004000000000000000000000000000000000008000000800000000000000000200000000000000000000000004000000000000000000000000800000000000000000000000000000000000000000000000000000000000000000000000000000000000000000000000000000000000000000400000000000000000000000000000000020000000000000000000000000000000000000000000000000000000000000000000000000000000000000000000000000000000000000000000000000000000010000000000000000000000000000000000000000000000001000000000000",
      "type": "0x2",
      "transactionHash": "0xdd37a9f9f3f10422b280973073c09e207033c54a03af1bd60443cfc786d69081",
      "transactionIndex": "0x7",
      "blockHash": "0x857f54d6da45f16316428c4bec56f025365250fb29cca14186d9be9ad2b5c20a",
      "blockNumber": "0x2cddd6b",
      "gasUsed": "0x682d",
      "effectiveGasPrice": "0xee72c920",
      "blobGasUsed": "0x9c40",
      "from": "0x91d5e66951c47fbbfafe57c9ff42d45c46b6044c",
      "to": "0xc519a28d5c91fb6e87654f638c5563a4941b163b",
      "contractAddress": null,
      "daFootprintGasScalar": "0x190",
      "l1BaseFeeScalar": "0x7d0",
      "l1BlobBaseFee": "0x1",
      "l1BlobBaseFeeScalar": "0xdbba0",
      "l1Fee": "0x73",
      "l1GasPrice": "0x8",
      "l1GasUsed": "0x640"
    },
    {
      "status": "0x1",
      "cumulativeGasUsed": "0x90ffb",
      "logs": [
        {
          "address": "0x000000000022d473030f116ddee9f6b43ac78ba3",
          "topics": [
            "0xda9fa7c1b00402c17d0161b249b1ab8bbec047c5a52207b9c112deffd817036b",
            "0x00000000000000000000000091d5e66951c47fbbfafe57c9ff42d45c46b6044c",
            "0x000000000000000000000000c519a28d5c91fb6e87654f638c5563a4941b163b",
            "0x000000000000000000000000f969aee60879c54baaed9f3ed26147db216fd664"
          ],
          "data": "0x000000000000000000000000ffffffffffffffffffffffffffffffffffffffff0000000000000000000000000000000000000000000000000000ffffffffffff",
          "blockHash": "0x857f54d6da45f16316428c4bec56f025365250fb29cca14186d9be9ad2b5c20a",
          "blockNumber": "0x2cddd6b",
          "blockTimestamp": "0x69bb8ab7",
          "transactionHash": "0x4a182e9ede4243af20eacf835e369ee2dad8256ff3e7657bdd94808d6cb2d8fc",
          "transactionIndex": "0x8",
          "logIndex": "0x6",
          "removed": false
        }
      ],
      "logsBloom": "0x00010000000000000000000000000000000000000000000000000000000000000000000000000000000000000000000008000000800000000000000000080000000040000000000000000000000000040000000000000000000000001000000000000000000000000000080000000000000000000040000000000000000000000020000000000000000000000000000400000000000000000000000000000000000000000000000000000000000000000000000000000000000000080000000000000000000000000000000000000000000000000000000040000000000000000000000000000000000000000000000000000000000000000000000000002400",
      "type": "0x2",
      "transactionHash": "0x4a182e9ede4243af20eacf835e369ee2dad8256ff3e7657bdd94808d6cb2d8fc",
      "transactionIndex": "0x8",
      "blockHash": "0x857f54d6da45f16316428c4bec56f025365250fb29cca14186d9be9ad2b5c20a",
      "blockNumber": "0x2cddd6b",
      "gasUsed": "0x6d0e",
      "effectiveGasPrice": "0xee72c920",
      "blobGasUsed": "0xb220",
      "from": "0x91d5e66951c47fbbfafe57c9ff42d45c46b6044c",
      "to": "0x000000000022d473030f116ddee9f6b43ac78ba3",
      "contractAddress": null,
      "daFootprintGasScalar": "0x190",
      "l1BaseFeeScalar": "0x7d0",
      "l1BlobBaseFee": "0x1",
      "l1BlobBaseFeeScalar": "0xdbba0",
      "l1Fee": "0x84",
      "l1GasPrice": "0x8",
      "l1GasUsed": "0x72a"
    },
    {
      "status": "0x1",
      "cumulativeGasUsed": "0x97cfd",
      "logs": [
        {
          "address": "0x000000000022d473030f116ddee9f6b43ac78ba3",
          "topics": [
            "0xda9fa7c1b00402c17d0161b249b1ab8bbec047c5a52207b9c112deffd817036b",
            "0x00000000000000000000000091d5e66951c47fbbfafe57c9ff42d45c46b6044c",
            "0x000000000000000000000000c519a28d5c91fb6e87654f638c5563a4941b163b",
            "0x00000000000000000000000000b036b58a818b1bc34d502d3fe730db729e62ac"
          ],
          "data": "0x000000000000000000000000ffffffffffffffffffffffffffffffffffffffff0000000000000000000000000000000000000000000000000000ffffffffffff",
          "blockHash": "0x857f54d6da45f16316428c4bec56f025365250fb29cca14186d9be9ad2b5c20a",
          "blockNumber": "0x2cddd6b",
          "blockTimestamp": "0x69bb8ab7",
          "transactionHash": "0x8b3687a1ffcc38139257f94c49176dc1534e3fd7665691e686abc6150f0f6950",
          "transactionIndex": "0x9",
          "logIndex": "0x7",
          "removed": false
        }
      ],
      "logsBloom": "0x00010000000000000000000000000000000000000000000000000000000000000000000000000000000000000000000008000000801000000000000000080000000040000000000000000000000000040000000000000000000000000000000000000000000000000000080000004000000000000000000000000000000000000020000000000000000000000000000400000000000000000000000000000000000000000000000000000000000000000000000000000020000000080000000000000000000000000000000000000000000000000000000040000000000000000000000000000000000000000000000000000000000000000000000000000400",
      "type": "0x2",
      "transactionHash": "0x8b3687a1ffcc38139257f94c49176dc1534e3fd7665691e686abc6150f0f6950",
      "transactionIndex": "0x9",
      "blockHash": "0x857f54d6da45f16316428c4bec56f025365250fb29cca14186d9be9ad2b5c20a",
      "blockNumber": "0x2cddd6b",
      "gasUsed": "0x6d02",
      "effectiveGasPrice": "0xee72c920",
      "blobGasUsed": "0xb090",
      "from": "0x91d5e66951c47fbbfafe57c9ff42d45c46b6044c",
      "to": "0x000000000022d473030f116ddee9f6b43ac78ba3",
      "contractAddress": null,
      "daFootprintGasScalar": "0x190",
      "l1BaseFeeScalar": "0x7d0",
      "l1BlobBaseFee": "0x1",
      "l1BlobBaseFeeScalar": "0xdbba0",
      "l1Fee": "0x83",
      "l1GasPrice": "0x8",
      "l1GasUsed": "0x71d"
    },
    {
      "status": "0x1",
      "cumulativeGasUsed": "0x9e52a",
      "logs": [
        {
          "address": "0x8e33bfd4e0b22f16029202a2bd55266b2b9f15a1",
          "topics": [
            "0x8c5be1e5ebec7d5bd14f71427d1e84f3dd0314c0f7b2291e5b200ac8c7c3b925",
            "0x00000000000000000000000091d5e66951c47fbbfafe57c9ff42d45c46b6044c",
            "0x000000000000000000000000000000000022d473030f116ddee9f6b43ac78ba3"
          ],
          "data": "0xffffffffffffffffffffffffffffffffffffffffffffffffffffffffffffffff",
          "blockHash": "0x857f54d6da45f16316428c4bec56f025365250fb29cca14186d9be9ad2b5c20a",
          "blockNumber": "0x2cddd6b",
          "blockTimestamp": "0x69bb8ab7",
          "transactionHash": "0x0c9a63ae41834dfbd7581ac6a4986cf65d7dcfc5e8e9fbb884f7c274a0c4bc69",
          "transactionIndex": "0xa",
          "logIndex": "0x8",
          "removed": false
        }
      ],
      "logsBloom": "0x00000000000000000000000000000000000000000000000000000000000000000000000000000000000000000000000008000000800000000000000000200000000000000000000000004000000000000000000000000800000000000000000000000000000000000000000000000000000000000000000000000000000000000000000000000000000000000000000400000000000000000000000000000000020000000000000000000000000000000000000000000000000000000000000000000000000000000000400000000000000000000000000000000000000000000010000000000000000000000000000020000000000000100000000000000000",
      "type": "0x2",
      "transactionHash": "0x0c9a63ae41834dfbd7581ac6a4986cf65d7dcfc5e8e9fbb884f7c274a0c4bc69",
      "transactionIndex": "0xa",
      "blockHash": "0x857f54d6da45f16316428c4bec56f025365250fb29cca14186d9be9ad2b5c20a",
      "blockNumber": "0x2cddd6b",
      "gasUsed": "0x682d",
      "effectiveGasPrice": "0xee72c920",
      "blobGasUsed": "0x9c40",
      "from": "0x91d5e66951c47fbbfafe57c9ff42d45c46b6044c",
      "to": "0x8e33bfd4e0b22f16029202a2bd55266b2b9f15a1",
      "contractAddress": null,
      "daFootprintGasScalar": "0x190",
      "l1BaseFeeScalar": "0x7d0",
      "l1BlobBaseFee": "0x1",
      "l1BlobBaseFeeScalar": "0xdbba0",
      "l1Fee": "0x73",
      "l1GasPrice": "0x8",
      "l1GasUsed": "0x640"
    },
    {
      "status": "0x1",
      "cumulativeGasUsed": "0xa5238",
      "logs": [
        {
          "address": "0x000000000022d473030f116ddee9f6b43ac78ba3",
          "topics": [
            "0xda9fa7c1b00402c17d0161b249b1ab8bbec047c5a52207b9c112deffd817036b",
            "0x00000000000000000000000091d5e66951c47fbbfafe57c9ff42d45c46b6044c",
            "0x0000000000000000000000008e33bfd4e0b22f16029202a2bd55266b2b9f15a1",
            "0x000000000000000000000000f969aee60879c54baaed9f3ed26147db216fd664"
          ],
          "data": "0x000000000000000000000000ffffffffffffffffffffffffffffffffffffffff0000000000000000000000000000000000000000000000000000ffffffffffff",
          "blockHash": "0x857f54d6da45f16316428c4bec56f025365250fb29cca14186d9be9ad2b5c20a",
          "blockNumber": "0x2cddd6b",
          "blockTimestamp": "0x69bb8ab7",
          "transactionHash": "0x2373488190bc060b858fdb9aea0885cbc177a10dbd1121659a8324fd8b13ebd5",
          "transactionIndex": "0xb",
          "logIndex": "0x9",
          "removed": false
        }
      ],
      "logsBloom": "0x00010000000000000000000000000000000000000000000000000000000000000000000000000000000000000000000008000000800000000000000000080000100000000000000000000000000000000000000000000000000000001000000000000000000000000020000000000000000000000040000000000000000000000020000000000000000000000000000400000000000000000000000000000000000000000000000000000000000000000000000000000000000000080000040000000000000000000000000000000000000000000000000040000000000000000000000000000000000000000000000000000000000000000000000000002400",
      "type": "0x2",
      "transactionHash": "0x2373488190bc060b858fdb9aea0885cbc177a10dbd1121659a8324fd8b13ebd5",
      "transactionIndex": "0xb",
      "blockHash": "0x857f54d6da45f16316428c4bec56f025365250fb29cca14186d9be9ad2b5c20a",
      "blockNumber": "0x2cddd6b",
      "gasUsed": "0x6d0e",
      "effectiveGasPrice": "0xee72c920",
      "blobGasUsed": "0xb220",
      "from": "0x91d5e66951c47fbbfafe57c9ff42d45c46b6044c",
      "to": "0x000000000022d473030f116ddee9f6b43ac78ba3",
      "contractAddress": null,
      "daFootprintGasScalar": "0x190",
      "l1BaseFeeScalar": "0x7d0",
      "l1BlobBaseFee": "0x1",
      "l1BlobBaseFeeScalar": "0xdbba0",
      "l1Fee": "0x84",
      "l1GasPrice": "0x8",
      "l1GasUsed": "0x72a"
    },
    {
      "status": "0x1",
      "cumulativeGasUsed": "0xabf3a",
      "logs": [
        {
          "address": "0x000000000022d473030f116ddee9f6b43ac78ba3",
          "topics": [
            "0xda9fa7c1b00402c17d0161b249b1ab8bbec047c5a52207b9c112deffd817036b",
            "0x00000000000000000000000091d5e66951c47fbbfafe57c9ff42d45c46b6044c",
            "0x0000000000000000000000008e33bfd4e0b22f16029202a2bd55266b2b9f15a1",
            "0x00000000000000000000000000b036b58a818b1bc34d502d3fe730db729e62ac"
          ],
          "data": "0x000000000000000000000000ffffffffffffffffffffffffffffffffffffffff0000000000000000000000000000000000000000000000000000ffffffffffff",
          "blockHash": "0x857f54d6da45f16316428c4bec56f025365250fb29cca14186d9be9ad2b5c20a",
          "blockNumber": "0x2cddd6b",
          "blockTimestamp": "0x69bb8ab7",
          "transactionHash": "0x4f86b39035fea73e4e0a5f37fb3dd5e077abbd8459f8793ba49c0477b62683a3",
          "transactionIndex": "0xc",
          "logIndex": "0xa",
          "removed": false
        }
      ],
      "logsBloom": "0x00010000000000000000000000000000000000000000000000000000000000000000000000000000000000000000000008000000801000000000000000080000100000000000000000000000000000000000000000000000000000000000000000000000000000000020000000004000000000000000000000000000000000000020000000000000000000000000000400000000000000000000000000000000000000000000000000000000000000000000000000000020000000080000040000000000000000000000000000000000000000000000000040000000000000000000000000000000000000000000000000000000000000000000000000000400",
      "type": "0x2",
      "transactionHash": "0x4f86b39035fea73e4e0a5f37fb3dd5e077abbd8459f8793ba49c0477b62683a3",
      "transactionIndex": "0xc",
      "blockHash": "0x857f54d6da45f16316428c4bec56f025365250fb29cca14186d9be9ad2b5c20a",
      "blockNumber": "0x2cddd6b",
      "gasUsed": "0x6d02",
      "effectiveGasPrice": "0xee72c920",
      "blobGasUsed": "0xb090",
      "from": "0x91d5e66951c47fbbfafe57c9ff42d45c46b6044c",
      "to": "0x000000000022d473030f116ddee9f6b43ac78ba3",
      "contractAddress": null,
      "daFootprintGasScalar": "0x190",
      "l1BaseFeeScalar": "0x7d0",
      "l1BlobBaseFee": "0x1",
      "l1BlobBaseFeeScalar": "0xdbba0",
      "l1Fee": "0x83",
      "l1GasPrice": "0x8",
      "l1GasUsed": "0x71d"
    },
    {
      "status": "0x1",
      "cumulativeGasUsed": "0xb561b",
      "logs": [
        {
          "address": "0x31d0220469e10c4e71834a79b1f276d740d3768f",
          "topics": [
            "0x8c5be1e5ebec7d5bd14f71427d1e84f3dd0314c0f7b2291e5b200ac8c7c3b925",
            "0x00000000000000000000000091d5e66951c47fbbfafe57c9ff42d45c46b6044c",
            "0x000000000000000000000000000000000022d473030f116ddee9f6b43ac78ba3"
          ],
          "data": "0xffffffffffffffffffffffffffffffffffffffffffffffffffffffffffffffff",
          "blockHash": "0x857f54d6da45f16316428c4bec56f025365250fb29cca14186d9be9ad2b5c20a",
          "blockNumber": "0x2cddd6b",
          "blockTimestamp": "0x69bb8ab7",
          "transactionHash": "0x4322a93c618c940d10abe9a46e63d8cbe4dd0c20400d9af208c2aa0317544c76",
          "transactionIndex": "0xd",
          "logIndex": "0xb",
          "removed": false
        }
      ],
      "logsBloom": "0x00000000000000000000000000000000000000000000000000000000000000000000000000000000000000000000000008000000800000000000000000200000000000000000000000004000000000000000000000001800000000000000000000000000000000000000000000000000000000000000000000000000000000000000000000000000000000000000000400000000000000000000000000000000020000000001000080000000000000000000000000000000000000000000000000000000000000000000000000000000000000000000000000000000000000000010000000000000000000000000000000000000000000000000000000000000",
      "type": "0x2",
      "transactionHash": "0x4322a93c618c940d10abe9a46e63d8cbe4dd0c20400d9af208c2aa0317544c76",
      "transactionIndex": "0xd",
      "blockHash": "0x857f54d6da45f16316428c4bec56f025365250fb29cca14186d9be9ad2b5c20a",
      "blockNumber": "0x2cddd6b",
      "gasUsed": "0x96e1",
      "effectiveGasPrice": "0xee72c920",
      "blobGasUsed": "0x9c40",
      "from": "0x91d5e66951c47fbbfafe57c9ff42d45c46b6044c",
      "to": "0x31d0220469e10c4e71834a79b1f276d740d3768f",
      "contractAddress": null,
      "daFootprintGasScalar": "0x190",
      "l1BaseFeeScalar": "0x7d0",
      "l1BlobBaseFee": "0x1",
      "l1BlobBaseFeeScalar": "0xdbba0",
      "l1Fee": "0x73",
      "l1GasPrice": "0x8",
      "l1GasUsed": "0x640"
    },
    {
      "status": "0x1",
      "cumulativeGasUsed": "0xbc329",
      "logs": [
        {
          "address": "0x000000000022d473030f116ddee9f6b43ac78ba3",
          "topics": [
            "0xda9fa7c1b00402c17d0161b249b1ab8bbec047c5a52207b9c112deffd817036b",
            "0x00000000000000000000000091d5e66951c47fbbfafe57c9ff42d45c46b6044c",
            "0x00000000000000000000000031d0220469e10c4e71834a79b1f276d740d3768f",
            "0x000000000000000000000000f969aee60879c54baaed9f3ed26147db216fd664"
          ],
          "data": "0x000000000000000000000000ffffffffffffffffffffffffffffffffffffffff0000000000000000000000000000000000000000000000000000ffffffffffff",
          "blockHash": "0x857f54d6da45f16316428c4bec56f025365250fb29cca14186d9be9ad2b5c20a",
          "blockNumber": "0x2cddd6b",
          "blockTimestamp": "0x69bb8ab7",
          "transactionHash": "0x4203d586b9f6ab446ce5f8e58a50b05dbfe89348eb1b3ef50d6a675e32a6ecac",
          "transactionIndex": "0xe",
          "logIndex": "0xc",
          "removed": false
        }
      ],
      "logsBloom": "0x00010000000000000000000000000000000000000000000000000000000000000000000000000080000000000000000008000000800000000000000000080000000000000000000000000000000000000000000000000000000000001000000000000000000000000000000000000000000000000040000000000000000000000020000000000000000000000000000400000000000000000000000000000000000000000000000000000000000000000000000000000000000000080000000000000000000000008000000000000000000000000000000040000000000000000000000000001000000000000000000000000000000000000000000000002400",
      "type": "0x2",
      "transactionHash": "0x4203d586b9f6ab446ce5f8e58a50b05dbfe89348eb1b3ef50d6a675e32a6ecac",
      "transactionIndex": "0xe",
      "blockHash": "0x857f54d6da45f16316428c4bec56f025365250fb29cca14186d9be9ad2b5c20a",
      "blockNumber": "0x2cddd6b",
      "gasUsed": "0x6d0e",
      "effectiveGasPrice": "0xee72c920",
      "blobGasUsed": "0xb220",
      "from": "0x91d5e66951c47fbbfafe57c9ff42d45c46b6044c",
      "to": "0x000000000022d473030f116ddee9f6b43ac78ba3",
      "contractAddress": null,
      "daFootprintGasScalar": "0x190",
      "l1BaseFeeScalar": "0x7d0",
      "l1BlobBaseFee": "0x1",
      "l1BlobBaseFeeScalar": "0xdbba0",
      "l1Fee": "0x84",
      "l1GasPrice": "0x8",
      "l1GasUsed": "0x72a"
    },
    {
      "status": "0x1",
      "cumulativeGasUsed": "0xc302b",
      "logs": [
        {
          "address": "0x000000000022d473030f116ddee9f6b43ac78ba3",
          "topics": [
            "0xda9fa7c1b00402c17d0161b249b1ab8bbec047c5a52207b9c112deffd817036b",
            "0x00000000000000000000000091d5e66951c47fbbfafe57c9ff42d45c46b6044c",
            "0x00000000000000000000000031d0220469e10c4e71834a79b1f276d740d3768f",
            "0x00000000000000000000000000b036b58a818b1bc34d502d3fe730db729e62ac"
          ],
          "data": "0x000000000000000000000000ffffffffffffffffffffffffffffffffffffffff0000000000000000000000000000000000000000000000000000ffffffffffff",
          "blockHash": "0x857f54d6da45f16316428c4bec56f025365250fb29cca14186d9be9ad2b5c20a",
          "blockNumber": "0x2cddd6b",
          "blockTimestamp": "0x69bb8ab7",
          "transactionHash": "0xe4b4402b7820a27ba84f31c4e3766a7a3a608d034d4f186ab9d236417ac1cabf",
          "transactionIndex": "0xf",
          "logIndex": "0xd",
          "removed": false
        }
      ],
      "logsBloom": "0x00010000000000000000000000000000000000000000000000000000000000000000000000000080000000000000000008000000801000000000000000080000000000000000000000000000000000000000000000000000000000000000000000000000000000000000000000004000000000000000000000000000000000000020000000000000000000000000000400000000000000000000000000000000000000000000000000000000000000000000000000000020000000080000000000000000000000008000000000000000000000000000000040000000000000000000000000001000000000000000000000000000000000000000000000000400",
      "type": "0x2",
      "transactionHash": "0xe4b4402b7820a27ba84f31c4e3766a7a3a608d034d4f186ab9d236417ac1cabf",
      "transactionIndex": "0xf",
      "blockHash": "0x857f54d6da45f16316428c4bec56f025365250fb29cca14186d9be9ad2b5c20a",
      "blockNumber": "0x2cddd6b",
      "gasUsed": "0x6d02",
      "effectiveGasPrice": "0xee72c920",
      "blobGasUsed": "0xb090",
      "from": "0x91d5e66951c47fbbfafe57c9ff42d45c46b6044c",
      "to": "0x000000000022d473030f116ddee9f6b43ac78ba3",
      "contractAddress": null,
      "daFootprintGasScalar": "0x190",
      "l1BaseFeeScalar": "0x7d0",
      "l1BlobBaseFee": "0x1",
      "l1BlobBaseFeeScalar": "0xdbba0",
      "l1Fee": "0x83",
      "l1GasPrice": "0x8",
      "l1GasUsed": "0x71d"
    }
  ],
  "libraries": [],
  "pending": [],
  "returns": {},
  "timestamp": 1773898423400,
  "chain": 1301,
  "commit": "29b3163"
}