{
  "transactions": [
    {
      "hash": "0x6f8bdd95f9a8e87c823cc92b83e6af7c7331fb9f328b77add3a016e3ac389e14",
      "transactionType": "CALL",
      "contractName": null,
      "contractAddress": "0xe0e41c63acf93f54af92074343813707b2a27766",
      "function": "setParams(uint24,uint24,uint256,uint128)",
      "arguments": [
        "10",
        "1000",
        "500000000000000000000",
        "1000000000000000000000"
      ],
      "transaction": {
        "from": "0x91d5e66951c47fbbfafe57c9ff42d45c46b6044c",
        "to": "0xe0e41c63acf93f54af92074343813707b2a27766",
        "gas": "0xc36d",
        "value": "0x0",
        "input": "0x8b45f9de000000000000000000000000000000000000000000000000000000000000000a00000000000000000000000000000000000000000000000000000000000003e800000000000000000000000000000000000000000000001b1ae4d6e2ef50000000000000000000000000000000000000000000000000003635c9adc5dea00000",
        "nonce": "0x190",
        "chainId": "0x515"
      },
      "additionalContracts": [],
      "isFixedGasLimit": false
    }
  ],
  "receipts": [
    {
      "status": "0x1",
      "cumulativeGasUsed": "0x48d7b",
      "logs": [
        {
          "address": "0xe0e41c63acf93f54af92074343813707b2a27766",
          "topics": [
            "0x21e1f01dcac3c98125e43869b7b8b97c42095c93ecf540a617675c5efa7e363b"
          ],
          "data": "0x000000000000000000000000000000000000000000000000000000000000000a00000000000000000000000000000000000000000000000000000000000003e800000000000000000000000000000000000000000000001b1ae4d6e2ef50000000000000000000000000000000000000000000000000003635c9adc5dea00000",
          "blockHash": "0x9506512b5d0f680b4c274f8257703258d2f1188d52fbbb056c4b2558c70ca965",
          "blockNumber": "0x2ce346d",
          "blockTimestamp": "0x69bbe1b9",
          "transactionHash": "0x6f8bdd95f9a8e87c823cc92b83e6af7c7331fb9f328b77add3a016e3ac389e14",
          "transactionIndex": "0x4",
          "logIndex": "0x2",
          "removed": false
        }
      ],
      "logsBloom": "0x00000080000000000000008000000000000000000000000000000000000000000000000000000000000000000000000000000000000000000000000000000000000000000000000000000000000000000000000000000000000000000000000000000000000000000000000000000000000000000000000000000000000000000000000000000000000000000000000000000800000000000000000000000000000000000000000000000000000000000000000000000000000000000000000000000000000020000000800000000000000000000000000000000000000000000000000000000000000000000000000000000000000000000000000000000001",
      "type": "0x2",
      "transactionHash": "0x6f8bdd95f9a8e87c823cc92b83e6af7c7331fb9f328b77add3a016e3ac389e14",
      "transactionIndex": "0x4",
      "blockHash": "0x9506512b5d0f680b4c274f8257703258d2f1188d52fbbb056c4b2558c70ca965",
      "blockNumber": "0x2ce346d",
      "gasUsed": "0x8d7d",
      "effectiveGasPrice": "0xee72c920",
      "blobGasUsed": "0x9c40",
      "from": "0x91d5e66951c47fbbfafe57c9ff42d45c46b6044c",
      "to": "0xe0e41c63acf93f54af92074343813707b2a27766",
      "contractAddress": null,
      "daFootprintGasScalar": "0x190",
      "l1BaseFeeScalar": "0x7d0",
      "l1BlobBaseFee": "0x1",
      "l1BlobBaseFeeScalar": "0xdbba0",
      "l1Fee": "0x7a",
      "l1GasPrice": "0xa",
      "l1GasUsed": "0x640"
    }
  ],
  "libraries": [],
  "pending": [],
  "returns": {},
  "timestamp": 1773920698626,
  "chain": 1301,
  "commit": "29b3163"
}